:100000000C944D010C947E010C947E010C947E01A5
:100010000C947E010C947E010C947E010C947E0164
:100020000C947E010C94C5090C94C5090C94C50967
:100030000C947E010C947E010C947E010C947E0144
:100040000C947E010C947E010C947E010C947E0134
:100050000C947E010C947E010C947E010C947B091F
:100060000C947E010C9451090C9427090C947E0188
:100070000C947E010C947E010C947E010C947E0104
:100080000C947E010C947E010C947E010C947E01F4
:100090000C94FD080C94D3080C947E010C947E0102
:1000A0000C947E010C947E010C947E010C947E01D4
:1000B0000C947E010C947E010C947E010C947E01C4
:1000C0000C947E010C947E010C947E010C94A90882
:1000D0000C947F080C947E010C9455080C942B080A
:1000E0000C947E010C9457030C94E6050C947D034C
:1000F0000C9438030C946B030C94BB010C943202E7
:100100000C94DF050C94CD050C94F2060C94460378
:100110000C948B060C9410020C944A030C94B105B9
:100120000C945D030C9401070C9478030C947903F0
:100130000C9473030C944D030C94CF090C94F505A7
:100140000C9453030C9401020C941E060C94880228
:100150000C9442030C9461030C9424020C94BF068B
:100160000C94B8040C94D5020C9465030C945107BC
:100170000C946F030C943E03000020002300260023
:1001800029002C002F0032000001000003010601AD
:10019000090100000A0B02090C0D0E0807030401F7
:1001A000000000000000000000000000000000004F
:1001B000000000000000000000000000000012111C
:1001C000100000000000000000000000000000001F
:1001D00000000000000000000000220025002800B0
:1001E0002B002E003100340002010000050108013F
:1001F0000B0100002100240027002A002D00300000
:10020000330001010000040107010A01050505058D
:10021000070508080808020202020A0A080804047E
:1002200004040101010101010101030303030303AC
:100230000303040707070C0C0C0C0C0C0C0C02023B
:10024000020206060606060606060B0B0B0B0B0B38
:100250000B0B0102102020080810204010204080C5
:10026000020102010804020101020408102040807A
:100270008040201008040201800402018040201008
:100280000804020108040201010204081020408051
:100290000102040810204080CF0911241FBECFEFB7
:1002A000D1E2DEBFCDBF00E00CBF12E0A0E0B2E0C3
:1002B000E2E5FAE100E00BBF02C007900D92AA311F
:1002C000B107D9F725E0AAE1B2E001C01D92A7313C
:1002D000B207E1F711E0CDE4D1E000E006C02197DC
:1002E0000109802FFE010E941F0DCC34D10780E050
:1002F0000807A9F70E94830A0C94270D0C940000AC
:1003000090E0FC01EE5AFD4F2491845F9D4FFC016B
:100310008491882399F090E0880F991FFC01EE509A
:10032000FE4FA591B491FC01E852FE4F8591949146
:100330008FB7F894EC91E22BEC938FBF0895EEEB1E
:10034000F4E090E02FEF3FEF981791F041912427D0
:1003500048E0B9016170772736952795672B21F022
:1003600051E0252750EA3527415099F79F5FECCFA0
:10037000922F832F0895AF92BF92CF92DF92EF9288
:10038000FF920F931F93CF93DF936C017B018B013F
:10039000040F151FEB015E01AE18BF08C017D1078F
:1003A00059F06991D601ED91FC910190F081E02D19
:1003B000C6011995892B79F7C501DF91CF911F915E
:1003C0000F91FF90EF90DF90CF90BF90AF90089586
:1003D000FC01A089B1898C91A689B78982FD0FC0E3
:1003E0009C91818D8F5F8F73228D821749F0A18D33
:1003F000AE0FBF2FB11D5D969C93818F08958C9198
:100400000895FC01538D448D252F30E0842F90E01A
:10041000821B930B541710F0CF96089501970895FF
:10042000FC01918D828D981761F0A28DAE0FBF2FC8
:10043000B11D5D968C91928D9F5F9F73928F90E01E
:1004400008958FEF9FEF0895FC01918D828D98178D
:1004500031F0828DE80FF11D858D90E008958FEFCA
:100460009FEF0895FC01918D228D892F90E0805C93
:100470009F4F821B91098F739927089581E492E021
:100480000E94320221E0892B09F420E0822F089596
:100490008EED92E00E94320221E0892B09F420E0E7
:1004A000822F08958BE793E00E94320221E0892B8E
:1004B00009F420E0822F089588E194E00E9432023E
:1004C00021E0892B09F420E0822F0895FC01A48DFE
:1004D000A80FB92FB11DA35ABF4F2C91848D90E066
:1004E00001968F739927848FA689B7892C93A08949
:1004F000B1898C91837080648C93938D848D9813D3
:1005000006C00288F389E02D80818F7D8083089565
:10051000EF92FF920F931F93CF93DF93EC0181E053
:10052000888F9B8D8C8D98131AC0E889F9898081FA
:1005300085FF15C09FB7F894EE89FF896083E8892D
:10054000F98980818370806480839FBF81E090E01F
:10055000DF91CF911F910F91FF90EF900895F62EAC
:100560000B8D10E00F5F1F4F0F731127E02E8C8D46
:100570008E110CC00FB607FCFACFE889F98980818B
:1005800085FFF5CFCE010E946602F1CFEB8DEC0F17
:10059000FD2FF11DE35AFF4FF0829FB7F8940B8FA8
:1005A000EA89FB8980818062CFCFCF93DF93EC0112
:1005B000888D8823B9F0AA89BB89E889F9898C914B
:1005C00085FD03C0808186FD0DC00FB607FCF7CF07
:1005D0008C9185FFF2CF808185FFEDCFCE010E9407
:1005E0006602E9CFDF91CF91089580E090E0892BFA
:1005F00029F00E945C0281110E94000080E090E0DE
:10060000892B29F00E94520281110E94000080E093
:1006100090E0892B29F00E94480281110E9400007D
:1006200080E090E0892B29F00E943E0281110C9419
:10063000000008958150823108F05AC0E82FF0E0A0
:100640008827EA5DFC4F8F4F0C941F0D46034A0329
:1006500038033E03420378034D03530357035D03FE
:10066000610365036B036F037803730379037D03F1
:10067000809180008F778093800008958091800022
:100680008F7DF9CF80918000877FF5CF84B58F77FC
:1006900084BD089584B58F7DFBCF8091B0008F77A6
:1006A0008093B00008958091B0008F7DF9CF809144
:1006B00090008F77809390000895809190008F7DB7
:1006C000F9CF80919000877FF5CF8091A0008F7740
:1006D0008093A00008958091A0008F7DF9CF809134
:1006E000A000877FF5CF809120018F778093200134
:1006F0000895809120018F7DF9CF80912001877F1F
:10070000F5CFCF93DF93282F30E0F901EE56FE4F5F
:100710008491F901EE5AFD4FD491F901E45FFD4F48
:10072000C491CC23A1F081110E941A03EC2FF0E0B8
:10073000EE0FFF1FE858FE4FA591B491EC91ED2309
:1007400081E090E009F480E0DF91CF91089580E0AE
:1007500090E0FACF1F93CF93DF93282F30E0F90179
:10076000EE56FE4F8491F901EE5AFD4FD491F901F6
:10077000E45FFD4FC491CC23A9F0162F81110E9494
:100780001A03EC2FF0E0EE0FFF1FE852FE4FA59189
:10079000B4918FB7F894EC91111108C0D095DE2375
:1007A000DC938FBFDF91CF911F910895DE2BF8CF9F
:1007B0002FB7F89460912102709122028091230258
:1007C000909124022FBF08951F93CF93DF9300D001
:1007D0001F92CDB7DEB71091FE04812F0E949F01BA
:1007E000E12FF0E0EB54FB4F9187E1E0E10FF0E007
:1007F000EB54FB4F81871E5F1093FE048091BB0476
:10080000823018F061E00E94AA034091FE0450E09B
:100810008091BA04843008F071C08091B504909141
:10082000B604DC01ED91FC910280F381E02D6EEBCA
:1008300074E019958091BB04823090F18091BA04E4
:10084000843058F48091B5049091B604DC01ED91A8
:10085000FC910680F781E02D199580911205909109
:100860001305A0911405B091150589839A83AB8374
:10087000BC8389819A81AB81BC81AC01BD014150AF
:1008800051096109710949835A836B837C83892BE0
:100890008A2B8B2B71F760E08091BB040E94AA0326
:1008A0008091BA04843078F58091B5049091B604B3
:1008B000DC01ED91FC910284F385E02D199597FF01
:1008C000F3CF1092FE040E94D80360930E0570933C
:1008D0000F05809310059093110580910405909168
:1008E0000505019690930505809304050F900F90E0
:1008F0000F900F90DF91CF911F9108958091B704D1
:100900009091B8048ECF8091B7049091B804DC0127
:10091000ED91FC910284F385E02D199597FFF3CFBB
:10092000D0CF8F929F92AF92BF92CF92DF92EF92F1
:10093000FF920F931F93CF93DF9385E292E0909302
:100940000105809300058EE0809316058091BA041E
:100950008430E0F48091B5049091B604DC01ED910F
:10096000FC910084F185E02D1995811114C0C0E03F
:100970008C2FDF91CF911F910F91FF90EF90DF901F
:10098000CF90BF90AF909F908F9008958091B704C3
:100990009091B804E3CF9091FF04891769F0809398
:1009A000FF040E94D80360930A0570930B0580939F
:1009B0000C0590930D05DBCF0E94D80300910A052A
:1009C00010910B0520910C0530910D05601B710BEA
:1009D000820B930B653071058105910540F21092F1
:1009E000FF048091BB04823018F060E00E94AA03EB
:1009F0001092FE048091BA04C0E0843040F18091EE
:100A0000B7049091B804DC01ED91FC910084F1856C
:100A1000E02D1995892B09F43FC08091B70490917E
:100A2000B804DC01ED91FC910284F385E02D199569
:100A30009091FE04E92FF0E0EB54FB4F81879F5F1C
:100A40009093FE049034D8F2C1E0D9CFC1E08091F8
:100A5000B5049091B604DC01ED91FC910084F18520
:100A6000E02D1995892BC1F08091B5049091B604C1
:100A7000DC01ED91FC910284F385E02D19959091B4
:100A8000FE04E92FF0E0EB54FB4F81879F5F9093CA
:100A9000FE049034D8F6DBCF8091020590910305D7
:100AA00001969093030580930205CC2371F0809109
:100AB000060590910705019690930705809306051A
:100AC0008DEF8093BD04CDEF53CFC091FE04C09352
:100AD000BD04C7300CF44CCF9091BE048091B90492
:100AE000981345CF0C2F10E08EEF8C0F0E949F01C2
:100AF000F801EB54FB4F278130852327322723272A
:100B00002817390769F0809106059091070501962D
:100B10009093070580930605CFEFC093BD0428CFBF
:100B20002091BF04E0E0F2E08191821709F4DAC17C
:100B3000B2E0E830FB07C1F7809106059091070508
:100B400001969093070580930605C1E020582093F5
:100B5000BF04C093C00483E08093FE040E94E403BA
:100B6000DCCF8091C0049091C104982789279827F1
:100B7000AC01F4E056954795FA95E1F78091C204EF
:100B80009091C304982789279827A4E09695879584
:100B9000AA95E1F7840F951F0CC08091C004909135
:100BA000C104982789279827E4E096958795EA95C8
:100BB000E1F7909116059817C0F4C2E0C7CF809175
:100BC000C0049091C10498278927F3CF8091C20473
:100BD0009091C3049827892798274091C004509189
:100BE000C104542745275427D5CF0E94D8036093CA
:100BF0000E0570930F0580931005909311051092C8
:100C0000BD04E091BF04E150E03108F0B1CEF0E066
:100C10008827E25FF94F8F4F0C941F0D1E061E06AA
:100C20008B068B06BF06F206B804B804B804B804F5
:100C3000B804B804B804B804010751078091C0048F
:100C40009091C1049827892798270091C204109198
:100C5000C304102701271027980173E036952795C4
:100C60007A95E1F7E22FE801C770DD27209711F0B0
:100C7000E1E0E20FE093C00423E02093FE04F0E003
:100C8000EB54FB4F1386080F191F30E0C12CD12CF9
:100C90007601C3940817190791F1E22FF0E0B7012C
:100CA000A601032E04C0440F551F661F771F0A9428
:100CB000D2F7EB54FB4FB184DC0153E0B695A79516
:100CC0005A95E1F7AE7FB170AB5DBD4F8D909C90B2
:100CD000A82FAF70AA2ED40102C0B695A795AA94EA
:100CE000E2F7A0FF09C04B2941873F5F383010F081
:100CF0002F5F30E00196CECF40954B21F5CFCD2B25
:100D000041F42093FE04C091FE04CE5F0E94E403F0
:100D10002FCE2F5FF6CF8091C0049091C104982709
:100D20008927982F2091C2043091C30432272327AA
:100D3000322F330F3093C004E3E0280F3327331FE3
:100D4000C2E0CE0FA92FB0E0A217B307ACF4AA0FF0
:100D5000BB1FAB5DBD4F8C9111964C91AE2FB0E097
:100D6000AB54BB4F19964C93EF5FF0E0EB54FB4F45
:100D700081879F5FEC2FE4CFE093FE04C7CF2091E3
:100D8000C0043091C104322723273227F90173E0D0
:100D9000F695E7957A95E1F7EE7FF170EB5DFD4F03
:100DA000408151812F7081E090E0A0E0B0E004C06C
:100DB000880F991FAA1FBB1F2A95D2F72091C20442
:100DC0002F3F59F4842B952B9183808386E0809369
:100DD000FE040E94E403C8E0CBCD80959095842367
:100DE0009523F2CFE091C104F0E0EE0FFF1FEB5D21
:100DF000FD4F8091C2049091C304982789279827BA
:100E0000E3CF8091C0049091C10498278927982747
:100E10002091C2043091C304322723273227280FA0
:100E2000391F10E007E0C12CD12C7601C39428179C
:100E3000390761F2FC0143E0F695E7954A95E1F741
:100E4000EE7FF170EB5DFD4F482F4F70460157016B
:100E500004C0880C991CAA1CBB1C4A95D2F7A4019B
:100E6000C081D181A02FB0E0AB54BB4F1996AC919B
:100E7000B0E0012E02C0B595A7950A94E2F7A0FF55
:100E80000BC04C2B5D2B518340831F5F183010F03B
:100E90000F5F10E00196CBCF409550954C235D231A
:100EA000F2CFE091C1044091C3041092C20486E0E5
:100EB0008093FE04A5EBB4E0F0E0EE0FFF1FEB5DC6
:100EC000FD4F80E01296481709F483CF1E962C91AF
:100ED0001E971F969C911F97322F292F2193319394
:100EE0008F5FF0CFEFEFE20FE03108F07ECEF0E061
:100EF0008827E258F84F8F4F0C941F0DB105B105AC
:100F0000E605E605CD05DF05F505F505F505F5056D
:100F1000F505F505F505F505B105E605CF92DF9276
:100F2000EF92FF926B017C0181E090E09093400290
:100F300080933F020E94D803C60ED71EE81EF91EFA
:100F40000E94D8036C157D058E059F0518F40E943C
:100F50009104F6CF1092400210923F02FF90EF9062
:100F6000DF90CF900895FF920F931F93CF93DF935D
:100F7000EC018B01FB01F0800E94090DF81621F0B5
:100F80006F2DCE010E94110DF801F1802196CE0146
:100F90000E94090DF81621F06F2DCE010E94110D4F
:100FA000C801DF91CF911F910F91FF900895CF93CA
:100FB000DF93EC0180912502909126028C179D070A
:100FC00099F50E94910461E372E08AE090E00E944A
:100FD000B30763E372E08EE090E00E94B30765E33D
:100FE00072E082E190E00E94B30767E372E086E17D
:100FF00090E00E94B30761E372E08AE190E00E9412
:10100000B3076BE372E08EE190E00E94B3076DE3FB
:1010100072E082E290E00E94B30764E170E080E059
:1010200090E00E948E07C6CFDF91CF9108951F9365
:10103000CF93DF93EC010E94090D182FCE0101968A
:101040000E94090D90E0982F8827810F911DDF9154
:10105000CF911F9108951F920F920FB60F921124F6
:101060000BB60F922F933F934F935F936F937F93A2
:101070008F939F93AF93BF93EF93FF9381E492E09D
:101080000E946602FF91EF91BF91AF919F918F9166
:101090007F916F915F914F913F912F910F900BBE78
:1010A0000F900FBE0F901F9018951F920F920FB6C2
:1010B0000F9211240BB60F922F933F934F935F9390
:1010C0006F937F938F939F93AF93BF93EF93FF9310
:1010D00081E492E00E94E801FF91EF91BF91AF910E
:1010E0009F918F917F916F915F914F913F912F9140
:1010F0000F900BBE0F900FBE0F901F9018951F9270
:101100000F920FB60F9211240BB60F922F933F93AD
:101110004F935F936F937F938F939F93AF93BF93FF
:10112000EF93FF938EED92E00E946602FF91EF91A4
:10113000BF91AF919F918F917F916F915F914F91EF
:101140003F912F910F900BBE0F900FBE0F901F90ED
:1011500018951F920F920FB60F9211240BB60F9293
:101160002F933F934F935F936F937F938F939F93AF
:10117000AF93BF93EF93FF938EED92E00E94E8014F
:10118000FF91EF91BF91AF919F918F917F916F915F
:101190005F914F913F912F910F900BBE0F900FBE1B
:1011A0000F901F9018951F920F920FB60F92112457
:1011B0000BB60F922F933F934F935F936F937F9351
:1011C0008F939F93AF93BF93EF93FF938BE793E03E
:1011D0000E946602FF91EF91BF91AF919F918F9115
:1011E0007F916F915F914F913F912F910F900BBE27
:1011F0000F900FBE0F901F9018951F920F920FB671
:101200000F9211240BB60F922F933F934F935F933E
:101210006F937F938F939F93AF93BF93EF93FF93BE
:101220008BE793E00E94E801FF91EF91BF91AF91AE
:101230009F918F917F916F915F914F913F912F91EE
:101240000F900BBE0F900FBE0F901F9018951F921E
:101250000F920FB60F9211240BB60F922F933F935C
:101260004F935F936F937F938F939F93AF93BF93AE
:10127000EF93FF9388E194E00E946602FF91EF9163
:10128000BF91AF919F918F917F916F915F914F919E
:101290003F912F910F900BBE0F900FBE0F901F909C
:1012A00018951F920F920FB60F9211240BB60F9242
:1012B0002F933F934F935F936F937F938F939F935E
:1012C000AF93BF93EF93FF9388E194E00E94E8010E
:1012D000FF91EF91BF91AF919F918F917F916F910E
:1012E0005F914F913F912F910F900BBE0F900FBECA
:1012F0000F901F9018951F920F920FB60F92112406
:101300002F933F938F939F93AF93BF93809121022D
:1013100090912202A0912302B091240230912002E8
:1013200023E0230F2D3758F50196A11DB11D209301
:1013300020028093210290932202A0932302B09373
:10134000240280911C0290911D02A0911E02B09176
:101350001F020196A11DB11D80931C0290931D02D6
:10136000A0931E02B0931F02BF91AF919F918F91E6
:101370003F912F910F900FBE0F901F90189526E868
:10138000230F0296A11DB11DD2CF1F920F920FB64F
:101390000F9211240F900FBE0F901F901895E1E44B
:1013A000F2E01382128248EE53E060E070E0448382
:1013B0005583668377838CE092E09183808325E375
:1013C00031E03587248724E331E03787268720E31F
:1013D00031E0318B208B21E331E0338B228B22E310
:1013E00031E0358B248B26E331E0378B268B118E51
:1013F000128E138E148EEEEDF2E01382128244836D
:101400005583668377839183808325ED30E035872C
:10141000248724ED30E03787268720ED30E0318BBC
:10142000208B21ED30E0338B228B22ED30E0358BA9
:10143000248B26ED30E0378B268B118E128E138E87
:10144000148EEBE7F3E013821282448355836683A4
:101450007783918380832DEC30E0358724872CECD3
:1014600030E03787268728EC30E0318B208B29EC61
:1014700030E0338B228B2AEC30E0358B248B2EEC42
:1014800030E0378B268B118E128E138E148EE8E18E
:10149000F4E01382128244835583668377839183B9
:1014A000808385EC90E09587848784EC90E0978733
:1014B000868780EC90E0918B808B81EC90E0938B21
:1014C000828B82EC90E0958B848B86EC90E0978BFE
:1014D000868B118E128E138E148EE5EBF4E081E074
:1014E000848382E08583168288EE93E090930905D9
:1014F000809308051092120510921305109214059E
:10150000109215050895789484B5826084BD84B5E1
:10151000816084BD85B5826085BD85B5816085BDEE
:1015200080916E00816080936E00109281008091A6
:10153000810082608093810080918100816080932E
:101540008100809180008160809380008091B10053
:1015500084608093B1008091B00081608093B0007E
:1015600080919100826080939100809191008160D0
:101570008093910080919000816080939000809191
:10158000A10082608093A1008091A100816080937E
:10159000A1008091A00081608093A0008091210132
:1015A00082608093210180912101816080932101DB
:1015B0008091200181608093200180917A00846075
:1015C00080937A0080917A00826080937A00809183
:1015D0007A00816080937A0080917A00806880939D
:1015E0007A001092C1008091BA04823009F42AC1B5
:1015F000833009F42AC1813009F02AC18BE793E0D6
:101600009093B6048093B504E091B504F091B604CC
:10161000A089B18982E08C93A485B5851C92A685AA
:10162000B78580E18C93108EA489B58986E08C9370
:10163000A289B3898C9180618C93A289B3898C91A2
:1016400088608C93A289B3898C9180688C9302887E
:10165000F389E02D80818F7D80838091BB0482306F
:1016600038F00E94800160E08091BB040E94AA03D0
:101670008091B5049091B604DC01ED91FC91028457
:10168000F385E02D199597FFF3CF1092FE04109289
:10169000FF0410920705109206051092050510929E
:1016A000040510920305109202058AE090E00E9462
:1016B000170890933202809331028EE090E00E94EE
:1016C0001708909334028093330282E190E00E94E5
:1016D0001708909336028093350286E190E00E94CD
:1016E000170890933802809337028AE190E00E94B5
:1016F000170890933A02809339028EE190E00E949D
:10170000170890933C0280933B0282E290E00E9493
:10171000170890933E0280933D0288E00E9480016A
:1017200089E00E9480018AE00E9480018BE00E9493
:10173000800186E10E94800161E086E10E94AA03A7
:101740008CE10E94800161E08CE10E94AA0382E0AA
:101750000E94800161E082E00E94AA0381E090E0A3
:101760009093260280932502CFE0D0E002E010E0C3
:1017700083E0E82EF12CCC24C394D12C8091250257
:10178000909126028230910509F465C0833091055D
:1017900009F4BFC0019709F052C0D0932802C0934A
:1017A00027028BE00E948103019761F460E08BE0E7
:1017B0000E94AA0360913D0270913E0290E080E099
:1017C0000E948E0789E00E948103019761F460E026
:1017D00089E00E94AA036091390270913A0290E078
:1017E00080E00E948E0788E00E948103019761F4E7
:1017F00060E088E00E94AA03609133027091340295
:1018000090E080E00E948E078AE00E9481030197A9
:1018100061F460E08AE00E94AA0360913B0270914B
:101820003C0290E080E00E948E07D0922802C09295
:10183000270280912502909126020E94D7070E94DC
:10184000F5029CCF8EED92E0DBCE81E492E0D8CE23
:1018500088E194E0D5CED0932602C093250289E09A
:101860000E948103019761F460E089E00E94AA036D
:101870006091390270913A0290E080E00E948E07F8
:1018800088E00E948103019761F460E088E00E9493
:10189000AA03609133027091340290E080E00E94CC
:1018A0008E078AE00E948103892B61F461E08AE05F
:1018B0000E94AA0360913B0270913C0290E080E09C
:1018C0000E948E078BE00E948103019761F460E023
:1018D0008BE00E94AA0360913D0270913E0290E06D
:1018E00080E00E948E0788E00E948103892B61F4CA
:1018F00061E088E00E94AA0360913502709136028F
:1019000090E080E00E948E07109328020093270247
:1019100090CFD0932602C093250289E00E948103D4
:10192000019761F460E089E00E94AA0360913902A6
:1019300070913A0290E080E00E948E0788E00E9459
:101940008103019761F460E088E00E94AA0360913E
:1019500033027091340290E080E00E948E078AE0AA
:101960000E9481030197A1F460E08AE00E94AA032B
:10197000609131027091320290E080E00E948E0707
:1019800060913B0270913C0290E080E00E948E07E3
:1019900088E00E948103892B61F461E088E00E9465
:1019A000AA03609135027091360290E080E00E94B7
:1019B0008E078BE00E948103892B61F461E08BE04C
:1019C0000E94AA0360913D0270913E0290E080E087
:1019D0000E948E0789E00E948103892B61F461E0F7
:1019E00089E00E94AA03609137027091380290E06A
:1019F00080E00E948E078BE00E948103019721F412
:101A000060E08BE00E94AA03F0922802E092270295
:101A100010CFF999FECF92BD81BDF89A992780B574
:101A20000895262FF999FECF1FBA92BD81BD20BD22
:101A30000FB6F894FA9AF99A0FBE01960895EE0F30
:101A4000FF1F881F8BBF0790F691E02D1994F89423
:021A5000FFCFC6
:101A52000102030405060F10000000008802BB010A
:0A1A62000102D50232021002240234
:00000001FF
