:100000000C9481010C94B2010C94B2010C94B201D5
:100010000C94B2010C94B2010C94B2010C94B20194
:100020000C94B2010C94E61E0C94E61E0C94E61E91
:100030000C94B2010C94B2010C94B2010C94B20174
:100040000C94B2010C94B2010C94B2010C94B20164
:100050000C94B2010C94B2010C94B2010C949C1E4D
:100060000C94B2010C94721E0C94481E0C94B201B4
:100070000C94B2010C94B2010C94B2010C94B20134
:100080000C94B2010C94B2010C94B2010C94B20124
:100090000C941E1E0C94F41D0C94B2010C94F01ED2
:1000A0000C94B2010C94B2010C94B2010C94B20104
:1000B0000C94B2010C94B2010C94B2010C94B201F4
:1000C0000C94B2010C94B2010C94B2010C94CA1DB0
:1000D0000C94A01D0C94B2010C94761D0C944C1D34
:1000E0000C94B2010C94C0040C94E0040C94160619
:1000F0000C9402160C9464130C94A9040C94D2046E
:100100000C94DC040C94D2150C94D6040C940715B2
:100110000C94B1050C94B0040C94EE080C94F114FA
:100120000C9445090C94C8040C94B8200C94A104B8
:100130000C94DB040C94B6040C9411160C94611608
:100140000C94EB030C94CE040C94A4050C94D705EA
:100150000C94FD050C94A5040C949E150C94940924
:100160000C9420060C94BA040C9438040C941E03CE
:100170000C9464030C94C4040C94BB050C94AD045F
:100180000C94F3050C94DF050C9434060C949B043A
:100190000C943E060C94EF080C9418090C941D0363
:1001A0000C94DF140C941C030C9411090C94E905B5
:1001B0000C94FE080C94C5050C94C3140C94CF0544
:1001C0000C94F8140C9438150C940C060C949503AC
:1001D0000C9473030C94AC050C9487030C942A06BE
:1001E00000002100240027002A002D0030003300E9
:1001F00001010000040107010A010000220025009E
:1002000028002B002E0031003400020100000501FF
:1002100008010B01000020002300260029002C000B
:100220002F0032000001000003010601090105054D
:100230000505070508080808020202020A0A08085C
:10024000040404040101010101010101030303038A
:1002500003030303040707070C0C0C0C0C0C0C0C19
:100260000202020206060606060606060B0B0B0B2A
:100270000B0B0B0B0102102020080810204010204F
:10028000408002010201080402010102040810205A
:100290004080804020100804020180040201804058
:1002A00020100804020108040201010204081020C1
:1002B0004080010204081020408000000A0B02095F
:1002C0000C0D0E08070304010000000000000000F0
:1002D000000000000000000000000000000000001E
:1002E00000000000000012111000000000000000DB
:1002F00000000000000000000000000000000000FE
:10030000B82011241FBECFEFD1E2DEBFCDBF00E089
:100310000CBF12E0A0E0B2E0E8E7F1E500E00BBFBF
:1003200002C007900D92A234B107D9F727E0A2E4EA
:10033000B2E001C01D92A739B207E1F711E0C1E8B0
:10034000D1E000E006C021970109802FFE010E9444
:10035000AB28C038D10780E00807A9F70E941F2208
:100360000C94BA280C9400008F929F92AF92BF9287
:10037000CF92DF92EF92FF920F931F93CF93DF9371
:10038000EC016A017B0120E030E0A901CB01B6015C
:100390000E94D52618160CF050C01AAA1BAA1CAA37
:1003A0001DAACEAADFAAE8AEF9AE8AAD882309F469
:1003B00044C00E8D1F8DF80180809180A280B38093
:1003C000A5019401C701B6010E94D52687FF1AC076
:1003D000F801C082D182E282F3828EA09FA0A8A4FD
:1003E000B9A4CEA8DFA8E8ACF9ACA7019601C50175
:1003F000B4010E9434281816A4F4CEA2DFA2E8A605
:10040000F9A61BC020E030E0A901C501B4010E949B
:10041000D52687FFE2CFF801108211821282138263
:10042000DCCFCAA8DBA8ECA8FDA8A7019601C501EE
:10043000B4010E94D52687FDE0CFDF91CF911F91B7
:100440000F91FF90EF90DF90CF90BF90AF909F9073
:100450008F900895CF92DF92EF92FF92CF93DF9328
:10046000EC016A017B01E889F98982E08083C1148B
:1004700081EED806E104F104A1F060E079E08DE3BB
:1004800090E0A70196010E943726215031094109C9
:1004900051095695479537952795211580E13807DD
:1004A00098F0E889F989108260E874E88EE190E0BC
:1004B000A70196010E9437262150310941095109AF
:1004C0005695479537952795EC85FD853083EE85C4
:1004D000FF852083188EEC89FD8986E08083EA8978
:1004E000FB89808180618083EA89FB8980818860C3
:1004F0008083EA89FB89808180688083EA89FB891F
:1005000080818F7D8083DF91CF91FF90EF90DF908E
:10051000CF900895E2E4F7E090E02FEF3FEF9817D7
:1005200091F04191242748E0B90161707727369511
:100530002795672B21F051E0252750EA35274150B8
:1005400099F79F5FECCF922F832F08954F925F9280
:100550006F927F928F929F92AF92BF92EF92FF9293
:100560000F931F93CF93DF932091C5023091C60262
:10057000232BA1F4FB011082118212821382DF91DE
:10058000CF911F910F91FF90EF90BF90AF909F90F0
:100590008F907F906F905F904F900895EB018C014A
:1005A00020E030E0A901688179818A819B810E94E5
:1005B000D526811109C0F80180819181A281B38182
:1005C00088839983AA83BB838BE0E82EF12C8090EB
:1005D000010290900202A0900302B0900402A501D3
:1005E000940160E070E080E89FE30E946826288123
:1005F00039814A815B810E9439282B013C01F80135
:100600002081318142815381C501B4010E94392882
:100610009B01AC01C301B2010E9469266883798302
:100620008A839B83F1E0EF1AF10889F6F801608371
:10063000718382839383A3CF08950895AF92BF926D
:10064000CF92DF92EF92FF920F931F93CF93DF939E
:100650006C017B018B01040F151FEB015E01AE18CD
:10066000BF08C017D10759F06991D601ED91FC91EF
:100670000190F081E02DC6011995892B79F7C5010C
:10068000DF91CF911F910F91FF90EF90DF90CF906E
:10069000BF90AF900895FC01A089B1898C91A68983
:1006A000B78982FD0FC09C91818D8F5F8F73228DE2
:1006B000821749F0A18DAE0FBF2FB11D5D969C939F
:1006C000818F08958C910895FC01538D448D252FC1
:1006D00030E0842F90E0821B930B541710F0CF96DC
:1006E000089501970895FC01918D828D981761F00E
:1006F000A28DAE0FBF2FB11D5D968C91928D9F5F25
:100700009F73928F90E008958FEF9FEF0895FC0103
:10071000918D828D981731F0828DE80FF11D858DB6
:1007200090E008958FEF9FEF0895FC01918D228D49
:10073000892F90E0805C9F4F821B91098F739927CE
:10074000089581EB93E00E94950321E0892B09F441
:1007500020E0822F08958EE494E00E94950321E02A
:10076000892B09F420E0822F08958BEE94E00E94FB
:10077000950321E0892B09F420E0822F089588E871
:1007800095E00E94950321E0892B09F420E0822F57
:100790000895FC01A48DA80FB92FB11DA35ABF4F16
:1007A0002C91848D90E001968F739927848FA68970
:1007B000B7892C93A089B1898C91837080648C93C4
:1007C000938D848D981306C00288F389E02D808173
:1007D0008F7D80830895EF92FF920F931F93CF93A5
:1007E000DF93EC0181E0888F9B8D8C8D98131AC06C
:1007F000E889F989808185FF15C09FB7F894EE8953
:10080000FF896083E889F9898081837080648083AF
:100810009FBF81E090E0DF91CF911F910F91FF90FA
:10082000EF900895F62E0B8D10E00F5F1F4F0F73A2
:100830001127E02E8C8D8E110CC00FB607FCFACF5D
:10084000E889F989808185FFF5CFCE010E94C9032F
:10085000F1CFEB8DEC0FFD2FF11DE35AFF4FF0822E
:100860009FB7F8940B8FEA89FB8980818062CFCF94
:10087000CF93DF93EC01888D8823B9F0AA89BB89D7
:10088000E889F9898C9185FD03C0808186FD0DC0C2
:100890000FB607FCF7CF8C9185FFF2CF808185FFE3
:1008A000EDCFCE010E94C903E9CFDF91CF9108952A
:1008B00080E090E0892B29F00E94BF0381110E9403
:1008C000000080E090E0892B29F00E94B50381119F
:1008D0000E94000080E090E0892B29F00E94AB0389
:1008E00081110E94000080E090E0892B29F00E9495
:1008F000A10381110C94000008958150823108F009
:100900005AC0E82FF0E08827E757FB4F8F4F0C9431
:10091000AB28A904AD049B04A104A504DB04B00426
:10092000B604BA04C004C404C804CE04D204DB0470
:10093000D604DC04E004809180008F7780938000EF
:100940000895809180008F7DF9CF80918000877F0E
:10095000F5CF84B58F7784BD089584B58F7DFBCFA7
:100960008091B0008F778093B00008958091B0009F
:100970008F7DF9CF809190008F77809390000895BC
:10098000809190008F7DF9CF80919000877FF5CF87
:100990008091A0008F778093A00008958091A0009F
:1009A0008F7DF9CF8091A000877FF5CF80912001C6
:1009B0008F77809320010895809120018F7DF9CF5A
:1009C00080912001877FF5CFCF93DF93282F30E0F0
:1009D000F901E654FD4F8491F901EC58FD4FD49193
:1009E000F901E25DFD4FC491CC23A1F081110E9479
:1009F0007D04EC2FF0E0EE0FFF1FEC5EFD4FA591A4
:100A0000B491EC91ED2381E090E009F480E0DF9176
:100A1000CF91089580E090E0FACF1F93CF93DF93BA
:100A2000282F30E0F901E654FD4F8491F901EC588C
:100A3000FD4FD491F901E25DFD4FC491CC23A9F0A3
:100A4000162F81110E947D04EC2FF0E0EE0FFF1FA6
:100A5000E650FE4FA591B4918FB7F894EC91111127
:100A600008C0D095DE23DC938FBFDF91CF911F911B
:100A70000895DE2BF8CFCF93DF9390E0FC01EC5884
:100A8000FD4F2491825D9D4FFC0184918823D1F01C
:100A900090E0880F991FFC01E052FE4FA591B491A0
:100AA000FC01E650FE4FC591D49161110EC09FB775
:100AB000F8948C91E22FE0958E238C932881E22389
:100AC000E8839FBFDF91CF9108958FB7F894EC91A1
:100AD000E22BEC938FBFF6CF1F93CF93DF93182FAA
:100AE000EB0161E00E943B05209739F460E0812F23
:100AF000DF91CF911F910C940D05CF3FD10511F4DB
:100B000061E0F5CFE12FF0E0E654FD4FE491E150D4
:100B1000E23108F0B3C0F0E08827EE56FA4F8F4F6D
:100B20000C94AB28A405AC05B105BB05C5053E0674
:100B3000CF05D705DF05E905F305FD050C0616060B
:100B40003E0620062A06340684B5806884BDC7BDEB
:100B5000DF91CF911F91089584B5806284BDC8BD97
:100B6000F7CF80918000806880938000D0938900C7
:100B7000C0938800EDCF80918000806280938000D8
:100B8000D0938B00C0938A00E3CF8091800088606F
:100B900080938000D0938D00C0938C00D9CF80913A
:100BA000B00080688093B000C093B300D1CF809133
:100BB000B00080628093B000C093B400C9CF809130
:100BC0009000806880939000D0939900C093980023
:100BD000BFCF80919000806280939000D0939B0063
:100BE000C0939A00B5CF8091900088608093900068
:100BF000D0939D00C0939C00ABCF8091A0008068F3
:100C00008093A0008091A0008F7B8093A000D09360
:100C1000A900C093A8009CCF8091A000806280931F
:100C2000A000D093AB00C093AA0092CF8091A00007
:100C300088608093A000D093AD00C093AC0088CFB3
:100C400080912001806880932001D0932901C09376
:100C500028017ECF80912001806280932001D09373
:100C60002B01C0932A0174CF80912001886080936A
:100C70002001D0932D01C0932C016ACFC038D1053B
:100C80000CF03ECF33CF90917B00977F90937B0009
:100C90008653806480937C0080917A008064809386
:100CA0007A0080917A0086FDFCCF80917800909147
:100CB000790008953FB7F8948091BC029091BD02ED
:100CC000A091BE02B091BF0226B5A89B05C02F3FE0
:100CD00019F00196A11DB11D3FBFBA2FA92F982F62
:100CE0008827BC01CD01620F711D811D911D42E05D
:100CF000660F771F881F991F4A95D1F70895CF93E4
:100D0000DF930E945A06C5E2D7E00E9482272C8515
:100D10003D854E855F850E94DA26688379838A83C4
:100D20009B83DF91CF9108958F929F92AF92BF9254
:100D3000CF92DF92EF92FF926B017C010E945A06E4
:100D40004B015C01C114D104E104F104B9F00E942B
:100D50005A06681979098A099B09683E734081051A
:100D6000910580F321E0C21AD108E108F10888EE6C
:100D7000880E83E0981EA11CB11CE4CFFF90EF9079
:100D8000DF90CF90BF90AF909F908F9008952FB736
:100D9000F8946091B8027091B9028091BA02909172
:100DA000BB022FBF0895CF93C09182078C2F0E9462
:100DB0008A02EC2FF0E0E75CF84F9187E1E0EC0F5E
:100DC000F0E0E75CF84F8187CE5FC0938207909197
:100DD0003F0780913E079230C0F0823009F474C022
:100DE000833009F477C0813009F07AC09091C8004F
:100DF00090649093C80090910501906490930501D0
:100E0000909105019062909305014091820750E016
:100E1000843008F06BC08091390790913A07DC016B
:100E2000ED91FC910280F381E02D62E477E0199569
:100E300090913F0780913E079230B8F0823009F4DC
:100E40005AC0833009F45CC0813009F05EC09091D3
:100E5000C80096FFFCCF909105019F7B9093050100
:100E6000909105019F7D90930501843008F052C058
:100E70008091390790913A07DC01ED91FC91028451
:100E8000F385E02D199597FFF3CF109282070E940A
:100E9000C70620918C0730918D07620F731F811D4B
:100EA000911D60939207709393078093940790939A
:100EB00095078091880790918907019690938907FB
:100EC00080938807CF9108959091D000906490937B
:100ED000D00091CF909130019064909330018BCFEE
:100EE0009091C00090649093C00085CF80913B07A3
:100EF00090913C0794CF9091D00096FFFCCFABCF60
:100F00009091300196FFFCCFA6CF9091C00096FF44
:100F1000FCCFA1CF80913B0790913C07DC01ED9184
:100F2000FC910284F385E02D199597FFF3CFADCFA7
:100F300020919202260F3327331F21323105ECF422
:100F400020918703FC0190E080E0243069F082E08A
:100F50000895A09192022191AC014E585D4FA40FCB
:100F6000B52FB11D2C930196861798F380919202AC
:100F7000680F6093920280E0089581E008951092D6
:100F8000870381E0809386031092610361E084E12E
:100F90000E940D0561E085E10E940D05E9EBF0E09E
:100FA00080818E7F808380818D7F808388E48093A1
:100FB000B80085E48093BC000895CF93DF9391E05F
:100FC000909371028823B9F0C091B800D091BA0013
:100FD0008091BC008A7B8093BC0060E084E10E9429
:100FE0000D0560E085E10E940D050E94BF07D093CA
:100FF000BA00C093B800DF91CF9108958F929F926D
:10100000AF92BF92CF92DF92EF92FF920F931F9316
:10101000CF93DF93D091B003D13208F0D7C0182F0F
:10102000C091AF030E945A066B017C018091870337
:1010300081116BC082E080938703109386038FEF4A
:101040008093850310928403D0938303AFE8B3E0C9
:10105000E3E6F3E080E0D81391C010926203809140
:101060006203CC0FC82BC09362038091610381306F
:1010700009F088C0109261030E945A066B017C013E
:10108000809162038093BB008091890390918A03D1
:10109000A0918B03B0918C03892B8A2B8B2BA1F011
:1010A0000E945A060091890310918A0320918B03B4
:1010B00030918C036C197D098E099F09061717075B
:1010C0002807390708F442C08091BC0083FDD8CFBF
:1010D00085EC8093BC000E945A066B017C018091D4
:1010E0008703823009F450C0809185038F3F09F453
:1010F0006FC080918503803209F46CC080918503B4
:10110000803309F469C084E026C0809189039091FE
:101110008A03A0918B03B0918C03892B8A2B8B2B94
:1011200009F484CF0E945A068090890390908A0324
:10113000A0908B03B0908C036C197D098E099F09D8
:1011400086169706A806B90608F070CF8091880326
:101150000E94DD0785E010928E031092B00310927A
:101160008D03DF91CF911F910F91FF90EF90DF9052
:10117000CF90BF90AF909F908F9008959D91919345
:101180008F5F69CF85EEA5CF8091890390918A0307
:10119000A0918B03B0918C03892B8A2B8B2B09F4A4
:1011A0009ECF0E945A060091890310918A032091D4
:1011B0008B0330918C036C197D098E099F090617EA
:1011C00017072807390708F08ACFC0CF81E0C3CFBF
:1011D00080E0C1CF82E0BFCF83E0BDCF0895E09132
:1011E000400380913F03E81730F4F0E0EF5BFC4FE1
:1011F000808190E008958FEF9FEF089590914003D4
:1012000080913F032FEF3FEF981748F4E92FF0E06C
:10121000EF5BFC4F208130E09F5F90934003C9015A
:10122000089580913F0390914003891B990B089585
:10123000CF92DF92EF92FF920F931F93CF93DF93A2
:101240007C01CB018A0120918D03222389F0EB01DF
:101250006B01C40ED51ECC15DD0569F06991D7016F
:10126000ED91FC910190F081E02DC7011995F3CF2C
:10127000642F0E949807C801DF91CF911F910F91B1
:10128000FF90EF90DF90CF900895CF93DF931F9260
:10129000CDB7DEB7698320918D032223F9F0209129
:1012A000B003203258F021E030E0FC013383228388
:1012B00090E080E00F90DF91CF91089580918E03B0
:1012C000E82FF0E0E157FC4F998190838F5F809386
:1012D0008E038093B00381E090E0ECCF61E0CE011B
:1012E00001960E949807F7CFCF93DF93EB0191E02F
:1012F00090938D038093AF0310928E031092B003EE
:1013000061E085E296E00E9445096D2F85E296E056
:101310000E9445096C2F85E296E00E94450981E014
:10132000DF91CF910C94FE0790E080E008954F92FA
:101330005F926F927F928F929F92AF92BF92CF9265
:10134000DF92EF92FF920F931F93CF93DF93CBE047
:10135000D0E089E30E9443067C0187E30E944306B4
:101360008C018090210790902207A0902307B090D5
:10137000240720915E0230915F02409160025091FB
:101380006102C501B4010E9439282B013C01B7015B
:10139000FF0C880B990B0E9484272DEC3CEC4CE44D
:1013A0005DE30E9439289B01AC01C301B2010E9498
:1013B00069266B017C0120915A0230915B024091B9
:1013C0005C0250915D02C501B4010E9439284B01B5
:1013D0005C01B801110F880B990B0E9484272DEC3A
:1013E0003CEC4CE45DE30E9439289B01AC01C50153
:1013F000B4010E9469262B013C01C0925E02D0928A
:101400005F02E0926002F092610240925A025092B2
:101410005B0260925C0270925D0220E030E040EA84
:1014200050E4C701B6010E94392820E030E040E8CE
:101430005AE30E9439284B015C0180926802909225
:101440006902A0926A02B0926B0220E030E040EAAA
:1014500050E4C301B2010E94392820E030E040E8A6
:101460005AE30E9439286B017C01C0926202D0923B
:101470006302E0926402F0926502219709F069CF5D
:1014800020E030E048EC52E4C501B4010E94392864
:101490000E9453277093FE026093FD0220E030E02B
:1014A00048EC52E4C701B6010E9439280E94532734
:1014B000709300036093FF02DF91CF911F910F9112
:1014C000FF90EF90DF90CF90BF90AF909F908F9064
:1014D0007F906F905F904F9008952F923F924F9220
:1014E0005F926F927F928F929F92AF92BF92CF92B4
:1014F000DF92EF92FF920F931F93CF93DF93CDB7BD
:10150000DEB72F970FB6F894DEBF0FBECDBF9F8713
:101510008E870E94C7066D837E838F839887EE85B2
:10152000FF8582A193A1A4A1B5A14D815E816F81A8
:101530007885481B590B6A0B7B0B86A597A5A0A93C
:10154000B1A9481759076A077B0708F426C1048C1C
:10155000F58DE02D80819181A281B38189839A8369
:10156000AB83BC83AE85BF859096ED91FC912981BC
:101570003A814B815C8160817181828193810E947B
:1015800068264B015C01EE85FF8522A533A544A5A5
:1015900055A569817A818B819C810E9468266B01A7
:1015A0007C01AE85BF8550962D913D914D915C910A
:1015B0005397C501B4010E943928EE85FF8526A105
:1015C00037A140A551A50E9469262B013C01AE859B
:1015D000BF8596964D925D926D927C929997DB961F
:1015E000BC91B987B11118C0EE85FF85248535857A
:1015F00046855785C701B6010E9439289B01AC0179
:10160000C301B2010E946826AE85BF8596966D9390
:101610007D938D939C939997EE85FF8546A057A067
:1016200060A471A416A907A930AC21AC212F302FDA
:10163000432D522DC301B2010E94342818160CF01C
:101640008FC0812F902FA32DB22DEE85FF8586A30D
:1016500097A3A0A7B1A7F985FF2309F49AC0AE8587
:10166000BF851C962D913D914D915C911F97C501B1
:10167000B4010E9439284B015C01EE85FF85248965
:10168000358946895789C701B6010E9439289B01CF
:10169000AC01AE85BF8596966D917D918D919C91A3
:1016A00099970E946826A50194010E9469266B0102
:1016B0007C019B01AC01612F702F832D922D0E9424
:1016C000D52687FD14C0EE85FF8512A903A934A88D
:1016D00025A8212F302F432D522DB601C7010E947E
:1016E000D52687FD04C01C2D0D2D3E2C2F2CAE853C
:1016F000BF855E96ED91FC91812F902FA32DB22D89
:1017000080839183A283B38389819A81AB81BC81D9
:10171000EE85FF8582A793A7A4A7B5A78D819E819B
:10172000AF81B88582A393A3A4A3B5A381E02F962C
:101730000FB6F894DEBF0FBECDBFDF91CF911F91E2
:101740000F91FF90EF90DF90CF90BF90AF909F9060
:101750008F907F906F905F904F903F902F90089563
:10176000AE85BF85D2968D919D910D90BC91A02D97
:101770008A879B87AC87BD879C01AD01C301B201FD
:101780000E94D52687FF67CF8A859B85AC85BD855E
:101790005CCF812C912C540170CF80E0C8CF809118
:1017A000C706882321F08DE896E00E946D0A80919B
:1017B0007306882321F089E396E00E946D0A609108
:1017C00085067091860680918706909188060E9412
:1017D0004C2787E00E946C056091310670913206BB
:1017E00080913306909134060E944C2785E00E9438
:1017F0006C056091850670918606809187069091B0
:1018000088060E945327709302036093010360913E
:1018100031067091320680913306909134060E9411
:101820005327709304036093030308958F929F924C
:10183000AF92BF92CF92DF92EF92FF92CF93DF935E
:10184000EC01EE8DFF8DC080D180E280F380CEA2CE
:10185000DFA2E8A6F9A6EC8DFD8D80819181A281A1
:10186000B3818AA79BA7ACA7BDA78EA89FA8A8AC49
:10187000B9ACA5019401C701B6010E94342818161D
:101880002CF48EA29FA2A8A6B9A60CC08AA89BA8D9
:10189000ACA8BDA8A5019401C701B6010E94D52638
:1018A00087FDEFCFDF91CF91FF90EF90DF90CF904A
:1018B000BF90AF909F908F9008958F929F92AF921C
:1018C000BF92CF92DF92EF92FF92CF93DF931616E3
:1018D0001706ACF5EC016B01770FEE08FF08C701A6
:1018E000B6010E9484274B015C016EA57FA588A9E3
:1018F00099A90E9482279B01AC01C501B4010E94F5
:10190000DA264B015C01AC019B01688979898A89DF
:101910009B890E943928688B798B8A8B9B8BA501C8
:1019200094016C897D898E899F890E94DA266C8B4F
:101930007D8B8E8B9F8BCEA6DFA6E8AAF9AADF91BE
:10194000CF91FF90EF90DF90CF90BF90AF909F909E
:101950008F9008954F925F926F927F928F929F9295
:10196000AF92BF92CF92DF92EF92FF920F931F93AD
:10197000CF93DF9300D000D0CDB7DEB79E838D83A9
:101980002A013B014801590120E030E0A901CB01C7
:10199000B2010E94D52687FD89C020E030E0A90170
:1019A000C501B8010E94D52687FD80C020E030E047
:1019B000A901C701B6010E94D52687FD77C081E045
:1019C000ED81FE81228D338D2130310509F080E0DB
:1019D000ED81FE8183AF4082518262827382848274
:1019E0009582A682B782C086D186E286F38666A5F6
:1019F00077A580A991A90E94822720E030E04AE7DC
:101A000054E40E94DA2669837A838B839C83ED8178
:101A1000FE8144865586668677869B01AC01C501AA
:101A2000B4010E9439284B015C01ED81FE81808A5E
:101A3000918AA28AB38A29813A814B815C81C7014C
:101A4000B6010E94DA266B017C01ED81FE81C48A19
:101A5000D58AE68AF78A808D918D019739F5A301A1
:101A6000920160E070E0CB010E946826ED81FE816A
:101A70006487758786879787A501940160E070E089
:101A8000CB010E946826ED81FE81608B718B828B79
:101A9000938BA701960160E070E0CB010E9468265D
:101AA000ED81FE81648B758B868B978B26960FB6A6
:101AB000F894DEBF0FBECDBFDF91CF911F910F9184
:101AC000FF90EF90DF90CF90BF90AF909F908F905E
:101AD0007F906F905F904F900895CF92DF92EF923A
:101AE000FF920F931F93CF93C82F81E080938D03B4
:101AF000C093AF0310928E031092B00360E085E2B2
:101B000096E00E94450981E00E94FE070E945A0665
:101B10006B017C0180918703811165C081E0809316
:101B20008703809386039FEF90938503109284032D
:101B3000809383038093620380916203CC0FC82B50
:101B4000C093620380916103813009F08CC01092D0
:101B500061030E945A066B017C01809162038093AD
:101B6000BB008091890390918A03A0918B03B0916F
:101B70008C03892B8A2B8B2BA1F00E945A06009193
:101B8000890310918A0320918B0330918C036C1987
:101B90007D098E099F09061717072807390708F4DA
:101BA00043C08091BC0083FDD8CF85EC8093BC00FE
:101BB0000E945A066B017C0180918703813009F4F1
:101BC00054C080918403823008F071C080918403F6
:101BD000A3E6B3E0E1E4F3E090E0981751F12D9132
:101BE00021939F5FFACF8091890390918A03A091FE
:101BF0008B03B0918C03892B8A2B8B2B09F48ACF12
:101C00000E945A060091890310918A0320918B0348
:101C100030918C036C197D098E099F0906171707EF
:101C20002807390708F076CF809188030E94DD07E6
:101C300080E01092400380933F0385E296E00E948B
:101C4000FE08C82F85E296E00E94FE0820E03C2FA7
:101C5000A901482BCA01CF911F910F91FF90EF90DE
:101C6000DF90CF90089585EEA1CF80918903909168
:101C70008A03A0918B03B0918C03892B8A2B8B2B29
:101C800009F49ACF0E945A060091890310918A03A1
:101C900020918B0330918C036C197D098E099F096B
:101CA000061717072807390708F086CFBDCF82E04F
:101CB0008FCFCF92DF92EF92FF92CF93DF93EC0121
:101CC0006C857D85636E716889850E9474098BEBD4
:101CD00092E10197F1F789850E946D0D2B85022E07
:101CE00002C0969587950A94E2F7222329F0811580
:101CF00028E0920708F0906F9F8B8E8B6C857D8516
:101D0000636E716B89850E9474098BEB92E1019778
:101D1000F1F789850E946D0D2B85022E02C09695E4
:101D200087950A94E2F7222329F0811528E092078B
:101D300008F0906F998F888FBC01990F880B990BD1
:101D40000E9484276B017C016E897F89072E000C1D
:101D5000880B990B0E9484279B01AC01C701B60137
:101D60000E94DA262E853F85488959890E943928A4
:101D7000DF91CF91FF90EF90DF90CF9008954F9239
:101D80005F926F927F928F929F92AF92BF92CF920B
:101D9000DF92EF92FF92CF93DF9300D000D01F929B
:101DA0001F92CDB7DEB78091C7029091C80203970A
:101DB00009F04FC28AE097EDA3E2BCE380932D07C0
:101DC00090932E07A0932F07B09330070E945A06D6
:101DD0000E948227209131073091320740913307CA
:101DE000509134070E94DA266B017C01C0922907CA
:101DF000D0922A07E0922B07F0922C0780902507BB
:101E000090902607A0902707B0902807AC019B016F
:101E1000C501B4010E9434281816DCF4A501940110
:101E20006091350770913607809137079091380798
:101E30000E9468269B01AC0160E070E0CB010E942B
:101E40006826609325077093260780932707909351
:101E500028072091250730912607409127075091A8
:101E60002807C701B6010E94682620912D073091EE
:101E70002E0740912F07509130070E9434281816E2
:101E80000CF0FEC10E945A066B017C0161E087E004
:101E90000E940D0561E085E00E940D050E945A0632
:101EA0006C197D098E099F09603971408105910582
:101EB000A8F389E30E94430620E53AE0DC010E9492
:101EC000B328CC24CA9423E0D22EE12CF12CA70114
:101ED00096010E941826CA01B9010E94842720E0B9
:101EE00030E048EC52E40E94DA262B013C0140929B
:101EF000560250925702609258027092590287E33C
:101F00000E94430620E53AE0DC010E94B328A701C5
:101F100096010E941826CA01B9010E94842720E078
:101F200030E048EC52E40E94DA2669837A838B839E
:101F30009C83609352027093530280935402909357
:101F4000550288E30E94430620E53AE0DC010E9446
:101F5000B328A70196010E941826CA01B9010E9460
:101F6000842720E030E048EC52E40E94DA264B015E
:101F70005C0180924E0290924F02A0925002B09269
:101F8000510286E30E94430620E53AE0DC010E940C
:101F9000B328A70196010E941826CA01B9010E9420
:101FA000842720E030E048EC52E40E94DA266B01FE
:101FB0007C01C0924A02D0924B02E0924C02F09215
:101FC0004D026091850670918606809187069091FA
:101FD00088060E944C2787E00E946C0560913106BC
:101FE0007091320680913306909134060E944C27FE
:101FF00085E00E946C056091DD027091DE0290E048
:1020000080E00E94822720E030E04AE754E40E940A
:10201000DA266D837E838F839887A3019201C501A1
:10202000B4010E94DA269B01AC016D817E818F8113
:1020300098850E9439284B015C016091DF02709104
:10204000E00290E080E00E94822720E030E040E261
:1020500051E40E94DA269B01AC01C501B4010E9443
:1020600068264B015C016091E1027091E20290E010
:1020700080E00E94822720E030E04AE754E40E949A
:10208000DA262B013C0129813A814B815C81C70111
:10209000B6010E94DA269B01AC01C301B2010E9485
:1020A00039286B017C016091E3027091E40290E0B9
:1020B00080E00E94822720E030E040E251E40E946C
:1020C000DA269B01AC01C701B6010E9468266B01AC
:1020D0007C01A5019401C501B4010E94A6288823B2
:1020E00009F4BCC01092890610928A0610928B06E1
:1020F00010928C06A7019601C701B6010E94A6287E
:102100008111B5C0C0923506D0923606E0923706EE
:10211000F092380620E030E0A9016091460270910B
:10212000470280914802909149020E94D526811170
:1021300010C08091890690918A06A0918B06B0917B
:102140008C068093460290934702A0934802B09376
:10215000490220E030E0A9016091420270914302FF
:1021600080914402909145020E94D526811110C0B1
:102170008091350690913606A0913706B0913806C9
:102180008093420290934302A0934402B09345028D
:1021900020E030E0A901609101027091020280917B
:1021A0000302909104020E943428181664F466E435
:1021B00072E089E896E00E94A60262E472E085E39C
:1021C00096E00E94A6028BEF96E00E94590E85EDE4
:1021D00096E00E94590E20E030E048EC52E4609115
:1021E000890670918A0680918B0690918C060E94D8
:1021F00039280E9453277093FA026093F90220E075
:1022000030E048EC52E460913506709136068091DA
:102210003706909138060E9439280E945327709300
:10222000FC026093FB0228960FB6F894DEBF0FBE47
:10223000CDBFDF91CF91FF90EF90DF90CF90BF9017
:10224000AF909F908F907F906F905F904F900C9485
:102250007F0680E090E0A0E0BFE3B0CD80928906E9
:1022600090928A06A0928B06B0928C0643CF109271
:1022700035061092360610923706109238064ACF6D
:1022800028960FB6F894DEBF0FBECDBFDF91CF9179
:10229000FF90EF90DF90CF90BF90AF909F908F9086
:1022A0007F906F905F904F9008958F929F92AF9222
:1022B000BF92CF92DF92EF92FF92CF93DF930E9473
:1022C000BF0E8090810690908206A0908306B09009
:1022D0008406A50194016091890670918A06809117
:1022E0008B0690918C060E9468266B017C0120E091
:1022F00030E0A9010E943428181624F0F7FAF0946F
:10230000F7F8F09420E030E040E050E4C701B60177
:102310000E94D526C0910703D091080387FD3AC0DB
:10232000A5019401609135067091360680913706BB
:10233000909138060E9468266B017C0120E030E015
:10234000A9010E943428181624F0F7FAF094F7F83F
:10235000F09420E030E040E050E4C701B6010E9474
:10236000D52687FD17C08091C5029091C602892BA2
:1023700089F0C860D0930803C0930703DF91CF9121
:10238000FF90EF90DF90CF90BF90AF909F908F9095
:102390000C949709C77FEECF70E060E087E00E9461
:1023A0006C0570E060E085E00E946C051092850687
:1023B000109286061092870610928806E5ECF2E0ED
:1023C00015AE14AE109231061092320610923306FA
:1023D0001092340617AE16AE109281061092820645
:1023E000109283061092840613AA12AA1092C706AE
:1023F000109273060895FC0101900020E9F73197CF
:10240000AF01481B590BBC0188E895E00C941E03F2
:102410008F929F92AF92BF920F931F93CF93DF93B0
:10242000CDB7DEB7A1970FB6F894DEBF0FBECDBF14
:1024300019A2423008F44AE08E010F5D1F4F842E2E
:10244000912CB12CA12CA50194010E943726E62FD6
:10245000B901CA01EA30F4F4E05DD801EE938D01D0
:10246000232B242B252B79F790E080E0109719F08F
:10247000CD010E94FB11A1960FB6F894DEBF0FBEEE
:10248000CDBFDF91CF911F910F91BF90AF909F90E3
:102490008F900895E95CE1CF4F925F926F927F92A7
:1024A0008F929F92AF92BF92CF92DF92EF92FF9264
:1024B0000F931F93CF936B017C01742EAC019B0192
:1024C0000E94A628882399F081E392E0CF911F9182
:1024D0000F91FF90EF90DF90CF90BF90AF909F90C3
:1024E0008F907F906F905F904F900C94FB114601FE
:1024F0005701E894B7F82FEF3FEF4FE75FE7C501CB
:10250000B4010E94A62881110DC02FEF3FEF4FE7C5
:102510005FE7C501B4010E94D52618161CF485E3B7
:1025200092E0D4CF2FEF3FEF4FE75FE4C701B60152
:102530000E94342818161CF489E392E0C7CF2FEFCD
:102540003FEF4FE75FECC701B6010E94D52687FD3C
:10255000F3CF20E030E0A901C701B6010E94D526E3
:1025600010E000E087FF0AC06DE288E895E00E9475
:10257000EB038C01F7FAF094F7F8F094C0E060E018
:1025800070E080E09FE37C1641F020E030E040E224
:1025900051E40E94DA26CF5FF6CFA70196010E9490
:1025A00069262B013C010E9453274B015C014AE044
:1025B0000E9408127C01E00EF11ECC23C1F1C5017E
:1025C000B4010E9482279B01AC01C301B2010E94A9
:1025D00068264B015C016EE288E895E00E94EB03FF
:1025E000E80EF91EC15018F120E030E040E251E45D
:1025F000C501B4010E9439282B013C010E945327D8
:102600004B01B12CA12C4AE0C501B4010E94081273
:10261000E80EF91EC501B4010E9482279B01AC019E
:10262000C301B2010E9468264B015C01DBCFC701E8
:10263000CF911F910F91FF90EF90DF90CF90BF90BF
:10264000AF909F908F907F906F905F904F90089584
:102650008F929F92AF92BF92CF92DF92EF92FF92B2
:102660000F931F93CF93DF9385EC92E090938507B0
:10267000809384078DE38093960780913E07843092
:1026800008F0A6C08091390790913A07DC01ED91DE
:10269000FC910084F185E02D19958823A9F0909193
:1026A0008307891709F499C0809383070E94C7069E
:1026B0006B5F7F4F8F4F9F4F60938E0770938F0795
:1026C000809390079093910780911703909118033E
:1026D000892B09F433C30E94C7060E94822720E099
:1026E00030E04AE754E40E94DA2642E00E944C12AD
:1026F0008DE392E00E94FB118BEF96E00E94590E51
:1027000026EB3EE54AE250E40E94392821EB30EF07
:1027100045E853E40E94682642E00E944C128DE393
:1027200092E00E94FB112091560230915702409195
:1027300058025091590260914E0270914F0280915F
:102740005002909151020E94DA2642E00E944C12FF
:102750008DE392E00E94FB1185ED96E00E94590EF8
:1027600026EB3EE54AE250E40E94392821EB30EFA7
:1027700045E853E40E94682642E00E944C128DE333
:1027800092E00E94FB11209152023091530240913D
:1027900054025091550260914A0270914B0280910F
:1027A0004C0290914D020E94DA2642E00E944C12A7
:1027B0008FE392E0DF91CF911F910F91FF90EF9007
:1027C000DF90CF90BF90AF909F908F900C94FB11B3
:1027D00080913B0790913C0759CF0E94C70600911A
:1027E0008E0710918F072091900730919107601705
:1027F00071078207930708F467CF109283078091CF
:102800003F07823050F0809105018F7B8093050156
:10281000809105018F7D8093050110928207809140
:102820003E07C0E0843040F180913B0790913C0727
:10283000DC01ED91FC910084F185E02D1995892B47
:1028400009F43FC080913B0790913C07DC01ED917A
:10285000FC910284F385E02D199590918207E92F70
:10286000F0E0E75CF84F81879F5F90938207903498
:10287000D8F2C1E0D9CFC1E08091390790913A07F1
:10288000DC01ED91FC910084F185E02D1995892BF7
:10289000C1F08091390790913A07DC01ED91FC91EC
:1028A0000284F385E02D199590918207E92FF0E0DD
:1028B000E75CF84F81879F5F909382079034D8F64A
:1028C000DBCF8091860790918707019690938707C9
:1028D00080938607CC2369F080918A0790918B07BB
:1028E000019690938B0780938A078DEF8093410721
:1028F000EBCE809182078093410787300CF4E4CEC1
:102900002091420790913D072913DECEC82FD0E0D9
:1029100082500E948A02C75CD84F2F8138852327B6
:10292000322723272817390769F080918A07909169
:102930008B07019690938B0780938A07CFEFC09304
:102940004107C2CE20914307E5E0F2E08191821772
:1029500009F4D8C1B2E0ED30FB07C1F780918A07D6
:1029600090918B07019690938B0780938A07C1E023
:10297000205820934307C093440783E08093820745
:102980000E94D306DCCF8091440790914507982799
:1029900089279827AC01F4E056954795FA95E1F719
:1029A0008091460790914707982789279827A4E0A8
:1029B00096958795AA95E1F7840F951F0CC0809195
:1029C000440790914507982789279827E4E0969532
:1029D0008795EA95E1F7909196079817C0F4C2E0C1
:1029E000C7CF809144079091450798278927F3CF57
:1029F000809146079091470798278927982740910B
:102A0000440750914507542745275427D5CF0E94A6
:102A1000C70620918C0730918D07620F731F811DAF
:102A2000911D6093920770939307809394079093FE
:102A3000950710924107E0914307E150E03108F01B
:102A400043CEF0E08827E85DFA4E8F4F0C94AB2818
:102A5000381538159E159E15D21502166413641389
:102A600064136413641364136413641311166116FE
:102A700080914407909145079827892798270091CE
:102A8000460710914707102701271027A80173E078
:102A9000569547957A95E1F7242FE801C770DD2711
:102AA000209711F021E0240F2093440723E0209386
:102AB0008207080F191F30E0C12CD12C7601C39476
:102AC0008017910791F1E22FF0E0B701A601032EE4
:102AD00004C0440F551F661F771F0A94D2F7E75CA6
:102AE000F84FB184DC0153E0B695A7955A95E1F70C
:102AF000AE7FB170AB53BD4F8D909C90A82FAF703F
:102B0000AA2ED40102C0B695A795AA94E2F7A0FF19
:102B100009C04B2941873F5F383010F02F5F30E00C
:102B20000196CECF40954B21F5CFCD2B29F42093A4
:102B300082070E94D306C8CD2F5FF9CF809144074A
:102B40009091450798278927982F20914607309123
:102B5000470732272327322F330F30934407E3E010
:102B6000280F3327331F82E08E0FA92FB0E0A21762
:102B7000B307ACF4AA0FBB1FAB53BD4F4C911196DA
:102B80005C91AE2FB0E0A75CB84F19965C93EF5FF5
:102B9000F0E0E75CF84F41879F5FE82FE4CFE093D8
:102BA0008207C7CF2091440730914507322723275A
:102BB0003227F90173E0F695E7957A95E1F7EE7F14
:102BC000F170EB53FD4F408151812F7081E090E017
:102BD000A0E0B0E004C0880F991FAA1FBB1F2A9570
:102BE000D2F7209146072F3F41F4842B952B9183F8
:102BF000808386E0809382079CCF80959095842384
:102C00009523F5CFE0914507F0E0EE0FFF1FEB5362
:102C1000FD4F80914607909147079827892798276D
:102C2000E6CF8091440790914507982789279827F8
:102C30002091460730914707322723273227280F54
:102C4000391F10E007E0C12CD12C7601C394821704
:102C5000930779F2FC0143E0F695E7954A95E1F791
:102C6000EE7FF170EB53FD4F482F4F704601570137
:102C700004C0880C991CAA1CBB1C4A95D2F7A4015D
:102C8000C081D181A02FB0E0A75CB84F1996AC915C
:102C9000B0E0012E02C0B595A7950A94E2F7A0FF17
:102CA0000BC04C2B5D2B518340831F5F183010F0FD
:102CB0000F5F10E00196CBCF409550954C235D23DC
:102CC000F2CFE0914507409147071092460786E012
:102CD00080938207A9E3B7E0F0E0EE0FFF1FEB530C
:102CE000FD4F80E01296481709F423CF1E962C91D1
:102CF0001E971F969C911F97322F292F2193319356
:102D00008F5FF0CFEFEFE20FE03108F080CEF0E020
:102D10008827E257F94E8F4F0C94AB28C314C31485
:102D2000F814F814DF14F114071507150715071523
:102D30000715071507150715C314F814DF91CF9170
:102D40001F910F91FF90EF90DF90CF90BF90AF90C9
:102D50009F908F900895CF92DF92EF92FF926B0138
:102D60007C010E94C706C60ED71EE81EF91E0E94EF
:102D7000C706C616D706E806F90618F00E942813FB
:102D8000F6CFFF90EF90DF90CF900895CF93DF9331
:102D9000EC010E94CC1184E090E09093F8028093C3
:102DA000F702C093C702D093C80281E090E0A0E090
:102DB000B0E004C0880F991FAA1FBB1FCA95D2F7A5
:102DC0002091090330910A03822B932B90930A03DD
:102DD0008093090360E086E10E940D0560E087E1D1
:102DE0000E940D0560911B0370911C038DE00E94F1
:102DF0006C0560E08AE00E940D056AEF70E080E0FB
:102E000090E00E94AB1660E088E00E940D056AEF3A
:102E100070E080E090E00E94AB1660E089E00E94E4
:102E20000D056AEF70E080E090E00E94AB1660E074
:102E300082E00E940D058091C5029091C60206971E
:102E400039F00E9428130E94BF0E0E949709F3CF09
:102E500061E086E10E940D0561E087E10E940D05B9
:102E600061E082E0DF91CF910C940D05CF92DF926B
:102E7000EF92FF920E94C7061092C4020E94C706FA
:102E8000C0909207D0909307E0909407F090950738
:102E90002091070330910803C616D706E806F90605
:102EA00008F01DC1C9018061909308038093070356
:102EB0000E94CC1120E030E040E85FE3609185069D
:102EC0007091860680918706909188060E94D5268B
:102ED00087FD10C020E030E040E85FE360913106FC
:102EE0007091320680913306909134060E94D52667
:102EF00087FF45C020E030E040E050E46091680288
:102F00007091690280916A0290916B020E9434284C
:102F1000181694F48091660290916702019690933E
:102F20006702809366020B973CF088E090E00E9475
:102F3000C61681E08093C40220E030E040E050E417
:102F400060916202709163028091640290916502C7
:102F50000E94342818160CF0C9C080916602909126
:102F60006702019690936702809366020B973CF08C
:102F700088E090E00E94C61681E08093C40220E0C1
:102F800030E046E953E46091890670918A068091A9
:102F90008B0690918C060E94342818166CF4809150
:102FA000C5029091C602892B39F089E090E00E9419
:102FB000C61681E08093C40220E030E046E953E485
:102FC00060913506709136068091370690913806EB
:102FD0000E94342818166CF48091C5029091C602A4
:102FE000892B39F08AE090E00E94C61681E0809338
:102FF000C40220E030E0A9016091890670918A0640
:1030000080918B0690918C060E94D52687FF0DC07B
:103010008091C5029091C602892B39F08DE090E035
:103020000E94C61681E08093C40220E030E0A9012E
:10303000609135067091360680913706909138067A
:103040000E94D52687FF0DC08091C5029091C602CF
:10305000892B39F08DE090E00E94C61681E08093C4
:10306000C40220E030E040EA50E4609168027091D0
:10307000690280916A0290916B020E9434281816AE
:103080003CF48BE090E00E94C61681E08093C4027D
:1030900020E030E040EA50E4609162027091630207
:1030A00080916402909165020E94342818163CF4C5
:1030B0008CE090E00E94C61681E08093C4028CE30D
:1030C0000E94E404892BB9F481E08093C4028FE06C
:1030D00090E0FF90EF90DF90CF900C94C616C9015E
:1030E0008F7E9093080380930703E4CE10926702CB
:1030F0001092660244CFFF90EF90DF90CF9008953A
:103100008EE30E94E4040197E1F08EE090E090935A
:10311000C8028093C7028EE30E94E404019719F06D
:103120000E942813F8CF60ED77E080E090E00E94E5
:10313000AB161092C6021092C5021092C8021092ED
:10314000C702089585ED8093BC008091890390911A
:103150008A03A0918B03B0918C030796A11DB11D2A
:1031600023E0B695A795979587952A95D1F7209155
:10317000BC0024FD03C01092870308954091890389
:1031800050918A0360918B0370918C03452B462BE1
:10319000472B69F30097A105B10541F025E32A9576
:1031A000F1F700000197A109B109E1CF80918803EF
:1031B0000C94DD07FF920F931F93CF93DF93EC01E5
:1031C0008B01FB01F0800E940226F81621F06F2D82
:1031D000CE010E940A26F801F1802196CE010E94BC
:1031E0000226F81621F06F2DCE010E940A26C80192
:1031F000DF91CF911F910F91FF90089561ED72E0E3
:1032000088E090E00E94DA1863ED72E08CE090E0D4
:103210000E94DA1865ED72E080E190E00E94DA1811
:1032200067ED72E084E190E00E94DA1869ED72E0E7
:1032300088E190E00E94DA186BED72E08CE190E09A
:103240000E94DA186DED72E080E091E00E94DA18D9
:103250006FED72E084E091E00E94DA1861EE72E0B6
:1032600080E191E00E94DA1863EE72E084E191E07F
:103270000E94DA186BE173E080E291E00E94DA18B4
:103280006DE173E084E291E00E94DA186FEC72E085
:1032900088E291E00E94DA186FE073E08CE291E03E
:1032A0000E94DA186FE173E080E391E00E94DA187F
:1032B0006DEC72E084E391E00E94DA1863E273E05F
:1032C00088E391E00E94DA1865E273E08CE391E014
:1032D0000E94DA1867E273E080E491E00E94DA1855
:1032E0006DE373E084E491E00E94DA1869EC72E027
:1032F00088E491E00E94DA1867E173E08CE491E0E1
:103300000E94DA1869E273E088E592E00E94DA1818
:103310006BE273E08CE592E00E94DA186DE273E0F4
:1033200080E692E00E94DA186FE273E084E692E0B1
:103330000E94DA1861E373E088E692E00E94DA18EE
:1033400063E373E08CEB92E00E94DA1865E373E0CC
:1033500080EC92E00E94DA1867E373E084EC92E07C
:103360000E94DA1869E373E088EC92E00E94DA18B0
:103370006BE373E08CEC92E00E94DA186FEE72E07F
:1033800088EE93E00E94DA186EE170E080E090E051
:103390000C94AB161F93CF93DF93EC010E9402268F
:1033A000182FCE0101960E94022690E0982F8827C0
:1033B000810F911DDF91CF911F91089588E090E0DA
:1033C0000E94CA19BC0190E080E00E94822720E0A0
:1033D00030E048EC52E40E94DA266093C90670930C
:1033E000CA068093CB069093CC068CE090E00E94B6
:1033F000CA19BC0190E080E00E94822720E030E002
:1034000048EC52E40E94DA266093CD067093CE0613
:103410008093CF069093D00680E190E00E94CA1975
:10342000BC0190E080E00E94822720E030E048EC80
:1034300052E40E94DA266093D1067093D2068093FC
:10344000D3069093D40684E190E00E94CA19BC018F
:1034500090E080E00E94822720E030E048EC52E4D7
:103460000E94DA266093750670937606809377063D
:103470009093780688E190E00E94CA19BC0190E020
:1034800080E00E94822720E030E048EC52E40E9475
:10349000DA266093790670937A0680937B06909380
:1034A0007C068CE190E00E94CA19BC0190E080E0AB
:1034B0000E94822720E030E048EC52E40E94DA26A5
:1034C00060937D0670937E0680937F0690938006BE
:1034D0008091EF029091F002892BB9F488E291E09B
:1034E0000E94CA19BC0190E080E00E94822720E07F
:1034F00030E048EC52E40E94DA2660938106709333
:103500008206809383069093840608954F925F927B
:103510006F927F928F929F92AF92BF92CF92DF92E3
:10352000EF92FF920F931F93CF93DF93CDB7DEB748
:1035300068970FB6F894DEBF0FBECDBF6D8B7E8B44
:103540008F8B988F0E94C70669837A838B839C83B5
:103550000E94C7066D837E838F8398878091C706FC
:10356000811104C08DE896E00E94160C81E08093E2
:10357000C70680917306811104C089E396E00E941A
:10358000160C81E0809373068091070390910803E5
:103590008E7F90930803809307030E94DE19C090EA
:1035A000D106D090D206E090D306F090D4060091D8
:1035B000CD061091CE062091CF063091D0064091D5
:1035C000C9065091CA066091CB067091CC068DE871
:1035D00096E00E94AA0CC0907D06D0907E06E090F6
:1035E0007F06F09080060091790610917A0620916E
:1035F0007B0630917C06409175065091760660916D
:1036000077067091780689E396E00E94AA0C1092E2
:1036100070020E9455110E94CF0B83E090E09093BE
:10362000F8028093F7020E94C7062B013C018980B3
:103630009A80AB80BC802D893E894F89588D820E3F
:10364000931EA41EB51E2091890630918A064091D2
:103650008B0650918C066091810670918206809154
:103660008306909184060E94682620E030E048ECB2
:1036700051E40E9439286B017C0120E030E0A9016F
:103680000E94342818160CF053C1C701B6010E94DD
:103690005327860E971EA81EB91E481459046A04A3
:1036A0007B0408F04FC10E94C7064B015C01898171
:1036B0009A81AB81BC8188169906AA06BB0620F4C4
:1036C00089829A82AB82BC820E9436178091C402A2
:1036D000811138C10E94281380917002882309F457
:1036E00093C080910002882309F48EC06091D102BA
:1036F0007091D20290E080E00E94822720E030E0CA
:1037000048EC52E40E94DA2669877A878B879C8787
:103710006093C9067093CA068093CB069093CC063B
:103720006091D7027091D80290E080E00E948227D9
:1037300020E030E048EC52E40E94DA266D877E8774
:103740008F87988B609375067093760680937706C3
:10375000909378066091D3027091D40290E080E05B
:103760000E94822720E030E048EC52E40E94DA26F2
:103770002B013C014092CD065092CE066092CF06BE
:103780007092D0066091D9027091DA0290E080E0E8
:103790000E94822720E030E048EC52E40E94DA26C2
:1037A000698B7A8B8B8B9C8B6093790670937A06EE
:1037B00080937B0690937C06C090D106D090D20671
:1037C000E090D306F090D4069301820149855A8592
:1037D0006B857C858DE896E00E94AA0CC0907D06E2
:1037E000D0907E06E0907F06F090800609891A89C5
:1037F0002B893C894D855E856F85788989E396E0C4
:103800000E94AA0C10927002D501C4012D813E8144
:103810004F815885821B930BA40BB50B0597A1050F
:10382000B10550F00E9455110E94CF0B0E94C706AF
:103830006D837E838F839887C0908106D0908206A7
:10384000E0908306F090840620916C0230916D0226
:1038500040916E0250916F02C701B6010E94D526B9
:10386000882309F469C031E030930002C0926C02F1
:10387000D0926D02E0926E02F0926F0260900703A8
:1038800070900803C701B6010E944C27072E000C58
:10389000880B990B0E9484274B015C016091CF0239
:1038A0007091D002072E000C880B990B0E94842780
:1038B00020E030E048EC52E40E94DA269B01AC01A3
:1038C000C501B4010E94D5268823C9F1689460F827
:1038D00070920803609207032091890630918A064E
:1038E00040918B0650918C06C701B6010E94682654
:1038F0006B017C01609125037091260390E080E0CC
:103900000E94822720E030E048EC52E40E94DA2650
:103910009B01AC01C701B6010E94D52687FF83CE6B
:1039200060912303709124038DE00E946C057BCE8F
:10393000C701B6019058ABCE109200029FCFE89419
:1039400060F8C6CF0E94FE1868960FB6F894DEBFE6
:103950000FBECDBFDF91CF911F910F91FF90EF90E0
:10396000DF90CF90BF90AF909F908F907F906F909F
:103970005F904F900C94DE194F925F926F927F92FE
:10398000AF92BF92CF92DF92EF92FF920F931F936D
:10399000CF93DF937C010E94C706D0E0C0E086E0B1
:1039A000C82ED12C95E0A92EB12C0091C502109102
:1039B000C6020E151F0509F05DC00E9455110E9438
:1039C00036170E9428136091CD027091CE0290E0CC
:1039D00080E00E94822720E030E048EC52E40E9420
:1039E000DA262B013C012091890630918A0640910C
:1039F0008B0650918C060E94D52687FD0EC0209123
:103A00003506309136064091370650913806C3018D
:103A1000B2010E94D52687FF23C08091C7029091F2
:103A2000C8020497E9F461E086E00E940D0561E0B8
:103A30008BE00E940D05D092F802C092F70280E060
:103A4000209759F40330110541F4882331F0B092E6
:103A5000C802A092C702C1E0D0E00E948018A5CFA2
:103A600060E086E00E940D0560E08BE00E940D059D
:103A700081E0E6CF0E94FE18DF91CF911F910F9158
:103A8000FF90EF90DF90CF90BF90AF907F906F90BE
:103A90005F904F900C94DE191F920F920FB60F9209
:103AA00011240BB60F922F933F934F935F936F9315
:103AB0007F938F939F93AF93BF93EF93FF9381EB8C
:103AC00093E00E94C903FF91EF91BF91AF919F9145
:103AD0008F917F916F915F914F913F912F910F90B7
:103AE0000BBE0F900FBE0F901F9018951F920F9254
:103AF0000FB60F9211240BB60F922F933F934F9353
:103B00005F936F937F938F939F93AF93BF93EF9345
:103B1000FF9381EB93E00E944B03FF91EF91BF91E4
:103B2000AF919F918F917F916F915F914F913F9155
:103B30002F910F900BBE0F900FBE0F901F901895F6
:103B40001F920F920FB60F9211240BB60F922F9364
:103B50003F934F935F936F937F938F939F93AF9315
:103B6000BF93EF93FF938EE494E00E94C903FF910B
:103B7000EF91BF91AF919F918F917F916F915F91E5
:103B80004F913F912F910F900BBE0F900FBE0F9052
:103B90001F9018951F920F920FB60F9211240BB61B
:103BA0000F922F933F934F935F936F937F938F93D6
:103BB0009F93AF93BF93EF93FF938EE494E00E94A3
:103BC0004B03FF91EF91BF91AF919F918F917F91A7
:103BD0006F915F914F913F912F910F900BBE0F907E
:103BE0000FBE0F901F9018951F920F920FB60F9255
:103BF00011240BB60F922F933F934F935F936F93C4
:103C00007F938F939F93AF93BF93EF93FF938BEE2D
:103C100094E00E94C903FF91EF91BF91AF919F91F2
:103C20008F917F916F915F914F913F912F910F9065
:103C30000BBE0F900FBE0F901F9018951F920F9202
:103C40000FB60F9211240BB60F922F933F934F9301
:103C50005F936F937F938F939F93AF93BF93EF93F4
:103C6000FF938BEE94E00E944B03FF91EF91BF9185
:103C7000AF919F918F917F916F915F914F913F9104
:103C80002F910F900BBE0F900FBE0F901F901895A5
:103C90001F920F920FB60F9211240BB60F922F9313
:103CA0003F934F935F936F937F938F939F93AF93C4
:103CB000BF93EF93FF9388E895E00E94C903FF91BB
:103CC000EF91BF91AF919F918F917F916F915F9194
:103CD0004F913F912F910F900BBE0F900FBE0F9001
:103CE0001F9018951F920F920FB60F9211240BB6CA
:103CF0000F922F933F934F935F936F937F938F9385
:103D00009F93AF93BF93EF93FF9388E895E00E9452
:103D10004B03FF91EF91BF91AF919F918F917F9155
:103D20006F915F914F913F912F910F900BBE0F902C
:103D30000FBE0F901F9018951F920F920FB60F9203
:103D400011242F933F938F939F93AF93BF938091B1
:103D5000B8029091B902A091BA02B091BB02309121
:103D6000B70223E0230F2D3758F50196A11DB11D91
:103D70002093B7028093B8029093B902A093BA023D
:103D8000B093BB028091BC029091BD02A091BE0293
:103D9000B091BF020196A11DB11D8093BC0290930A
:103DA000BD02A093BE02B093BF02BF91AF919F919D
:103DB0008F913F912F910F900FBE0F901F901895EC
:103DC00026E8230F0296A11DB11DD2CF1F920F929C
:103DD0000FB60F9211240F900FBE0F901F901895E1
:103DE0001F920F920FB60F9211240BB60F922F93C2
:103DF0003F934F935F936F937F938F939F93AF9373
:103E0000BF93EF93FF938091B900887F803609F4C8
:103E10004DC008F040C0883209F4A9C028F58031AF
:103E200009F49DC0C8F4882309F4FBC0883009F464
:103E300096C0FF91EF91BF91AF919F918F917F912C
:103E40006F915F914F913F912F910F900BBE0F900B
:103E50000FBE0F901F901895883109F488C08032EA
:103E600041F78093850314C0803409F49DC040F469
:103E70008033B9F38833E9F68093850385ECB0C0CD
:103E8000803509F485C0883509F496C0883489F6F0
:103E90000E94A218CECF883909F48CC038F5883733
:103EA00029F050F4883611F0803719F683E08093BA
:103EB00087031092B40257C0883809F47BC0803958
:103EC00019F0803809F0B5CF8091B402803208F043
:103ED00071C0E091B40281E08E0F8093B4028091B2
:103EE000BB00F0E0EC56FD4F80833DC0803B39F0D5
:103EF000E0F4803A09F479C0883A09F09ACF84E076
:103F0000809387031092930210929202E091C20272
:103F1000F091C30219958091920281110FC081E046
:103F2000809392021092720209C0803C09F4A6CFDD
:103F3000883C09F4A3CF883B09F07BCFE091930242
:103F400081E08E0F80939302F0E0EE58FD4F808168
:103F50008093BB00909193028091920229C080913E
:103F600062038093BB0085EC8093BC0062CF90918C
:103F7000840380918303981758F5E091840381E0CE
:103F80008E0F80938403F0E0ED59FC4F8081E9CFE0
:103F9000E091840381E08E0F809384038091BB00C5
:103FA000F0E0ED59FC4F808390918403809183036E
:103FB0009817C8F285E8D8CFE091840381E08E0F8E
:103FC000809384038091BB00F0E0ED59FC4F808327
:103FD0008091860381115CCF81E08093610384EA44
:103FE0008093BC001092870324CF85EC8093BC00A3
:103FF000109287038091B402803230F4E091B402D1
:10400000F0E0EC56FD4F10826091B40270E0E09158
:10401000C002F091C10284E992E019951092B402B5
:1040200008CF1092850334CF2F923F924F925F9228
:104030006F927F928F929F92AF92BF92CF92DF92B8
:10404000EF92FF920F931F93CF93DF93CDB7DEB71D
:104050003C0118012901FC01578F468F758F648F31
:1040600081E896E091A380A312AE12AA13AA14AA23
:1040700015AA80E090E0AFE7B3E486AB97ABA0AFC2
:10408000B1AF84E690E0A0E0B0E086A797A7A0AB30
:10409000B1AB118E108E20E030E0A901C201B80151
:1040A0000E94D52687FD42C020E030E0A901C7016B
:1040B000B6010E94D52687FD39C020E030E0A90175
:1040C000C501B4010E94D52687FD30C081E090E093
:1040D000F301938F828F83AF208231824282538299
:1040E000C482D582E682F78280869186A286B386D4
:1040F00024863586468657862DEC3CEC4CEC5DE3F9
:10410000C701B6010E943928F301608B718B828B45
:10411000938B2DEC3CEC4CEC5DE3C501B4010E94AB
:10412000DA26F301648B758B868B978B0E94C7060A
:10413000F301C6A4D7A4E0A8F1A86C197D098E09E3
:104140009F0962A373A384A395A3DF91CF911F91CD
:104150000F91FF90EF90DF90CF90BF90AF909F9026
:104160008F907F906F905F904F903F902F90089529
:104170008F929F92AF92BF92CF92DF92EF92FF9277
:104180000F931F93E1EBF3E01382128288EE93E02A
:10419000A0E0B0E084839583A683B78321E132E079
:1041A0003183208345E351E05587448744E351E060
:1041B0005787468740E351E0518B408B41E351E004
:1041C000538B428B42E351E0558B448B46E351E0E5
:1041D000578B468B118E128E138E148EEEE4F4E004
:1041E0001382128284839583A683B78331832083CD
:1041F00045ED50E05587448744ED50E057874687AA
:1042000040ED50E0518B408B41ED50E0538B428BA1
:1042100042ED50E0558B448B46ED50E0578B468B7A
:10422000118E128E138E148EEBEEF4E01382128236
:1042300084839583A683B783318320834DEC50E03C
:10424000558744874CEC50E05787468748EC50E050
:10425000518B408B49EC50E0538B428B4AEC50E041
:10426000558B448B4EEC50E0578B468B118E128E43
:10427000138E148EE8E8F5E013821282848395830E
:10428000A683B7833183208325EC30E035872487EC
:1042900024EC30E03787268720EC30E0318B208B10
:1042A00021EC30E0338B228B22EC30E0358B248BF9
:1042B00026EC30E0378B268B118E128E138E148EE7
:1042C000E5E2F6E01382128284839583A683B783A6
:1042D00083E292E091838083E9E3F7E081E08483E5
:1042E00083E0858382E0868388EE93E090938D0758
:1042F00080938C07E5E2F7E080E094E2A4E7B9E47C
:1043000084879587A687B7878DEB97E3A6E8B5E402
:10431000808B918BA28BB38B80E090E0A0E0BFE319
:1043200080879187A287B38783E393E3A3E7BFE303
:104330008093210790932207A0932307B09324072B
:10434000EBEFF6E002E311E120E83BE300831183A9
:10435000228333834FE755E06BE175EB448355834C
:10436000668377831586148688E4818798E0928730
:10437000138612A213A214A215A28087E5EDF6E01F
:104380000083118322833383448355836683778339
:104390001586148689E481879287138612A213A258
:1043A00014A215A280878090D1069090D206A0908A
:1043B000D306B090D406C090CD06D090CE06E09043
:1043C000CF06F090D0060091C9061091CA06209140
:1043D000CB063091CC0645E856E069E876E08DE8FA
:1043E00096E00E94142080907D0690907E06A0901A
:1043F0007F06B0908006C0907906D0907A06E09053
:104400007B06F0907C06009175061091760620914F
:1044100077063091780641E356E065E376E089E37C
:1044200096E00E9414201F910F91FF90EF90DF9073
:10443000CF90BF90AF909F908F900C94C7067894C8
:1044400084B5826084BD84B5816084BD85B5826099
:1044500085BD85B5816085BD80916E00816080934A
:104460006E001092810080918100826080938100B3
:1044700080918100816080938100809180008160C3
:10448000809380008091B10084608093B10080911E
:10449000B00081608093B000809191008260809331
:1044A00091008091910081608093910080919000B3
:1044B0008160809390008091A10082608093A10030
:1044C0008091A10081608093A1008091A000816013
:1044D0008093A000809121018260809321018091CE
:1044E000210181608093210180912001816080936E
:1044F000200180917A00846080937A0080917A0014
:10450000826080937A0080917A00816080937A0043
:1045100080917A00806880937A001092C1000E9496
:104520007F0660E08EE30E943B0561E086E10E9429
:104530003B0561E086E10E940D0561E087E10E9494
:104540003B0560E08CE30E943B0561E087E10E944F
:104550000D0561E087E00E943B0561E085E00E9477
:104560003B0570E060E087E00E946C0570E060E071
:1045700085E00E946C0540E052EC61E070E088E864
:1045800095E00E942A0280913E07823009F452C2CF
:10459000833009F452C2813009F052C28BEE94E0AC
:1045A00090933A078093390740E052EC61E070E065
:1045B0008091390790913A070E942A0280913F0723
:1045C000823078F0809104018066809304018091AC
:1045D00005018F7B80930501809105018F7D80937C
:1045E00005018091390790913A07DC01ED91FC912A
:1045F0000284F385E02D199597FFF3CF109282077F
:104600001092830710928B0710928A0710928907E5
:1046100010928807109287071092860788E090E032
:104620000E94CA199093D2028093D1028CE090E04C
:104630000E94CA199093D4028093D30280E190E043
:104640000E94CA199093D6028093D50284E190E02B
:104650000E94CA199093D8028093D70288E190E013
:104660000E94CA199093DA028093D9028CE190E0FB
:104670000E94CA199093DC028093DB0280E091E0F3
:104680000E94CA199093DE028093DD0284E091E0DB
:104690000E94CA199093E0028093DF0280E191E0CA
:1046A0000E94CA199093E2028093E10284E191E0B2
:1046B0000E94CA199093E4028093E30280E291E0A1
:1046C0000E94CA1990931C0380931B0384E291E01B
:1046D0000E94CA1990931E0380931D0388E291E003
:1046E0000E94CA199093D0028093CF028CE291E08D
:1046F0000E94CA199093100380930F0380E391E006
:104700000E94CA199093200380931F0384E391E0D1
:104710000E94CA199093CE028093CD0288E391E063
:104720000E94CA1990932403809323038CE391E0A1
:104730000E94CA19909326038093250380E491E098
:104740000E94CA19909328038093270384E491E080
:104750000E94CA1990933E0380933D0388E491E040
:104760000E94CA199093CA028093C9028CE491E016
:104770000E94CA19909318038093170388E592E06A
:104780000E94CA1990932A03809329038CE592E032
:104790000E94CA1990932C0380932B0380E692E029
:1047A0000E94CA1990932E0380932D0384E692E011
:1047B0000E94CA199093300380932F0388E692E0F9
:1047C0000E94CA1990933203809331038CEB92E0DC
:1047D0000E94CA19909334038093330380EC92E0D3
:1047E0000E94CA19909336038093350384EC92E0BB
:1047F0000E94CA19909338038093370388EC92E0A3
:104800000E94CA1990933A03809339038CEC92E08A
:104810000E94CA1990933C0380933B0388EE93E077
:104820000E94CA199093F0028093EF020E94DE1951
:1048300061E088E00E943B0561E089E00E943B0561
:1048400061E08AE00E943B0561E08BE00E943B054D
:1048500061E086E00E943B0561E08DE00E943B053F
:1048600060E08AE30E943B0561E08CE10E943B0529
:1048700061E08CE10E940D0561E082E00E943B0551
:1048800088E893E190938D0780938C070E9428130A
:104890001092C6021092C50284EF91E09093CC0270
:1048A0008093CB0288EC90E09093EE028093ED022F
:1048B0008AEA95E090931A03809319031092C80234
:1048C0001092C702812C912C58ECA52E54E4B52EE1
:1048D0008092090790920A07A0920B07B0920C07EA
:1048E000C12CD12C68ECE62E62E4F62EC0920D07A6
:1048F000D0920E07E0920F07F0921007109240033B
:1049000010923F0310928E031092B0030E94BF07D3
:104910008CE193E09093C3028093C2028DE193E017
:104920009093C1028093C00210920807109207076B
:104930008092E3069092E406A092E506B092E60625
:10494000C092E706D092E806E092E906F092EA0605
:104950000E94BF071092E2061092E1068091C706FE
:10496000811104C08DE896E00E94160C81E08093CE
:10497000C70640E050E06FE773E48DE896E00E94E0
:10498000B40165E070E08DE896E00E945D0C8091D6
:104990007306811104C089E396E00E94160C81E041
:1049A0008093730640E050E06FE773E489E396E09C
:1049B0000E94B40165E070E089E396E00E945D0C1E
:1049C0000E9480180E9455110E94361761E082E013
:1049D0000E940D0586E0E82EF12C93E0692E712CE3
:1049E00024E0C22ED12CAA24A394B12C42E0842E20
:1049F000912C0E9480188091C5029091C60281304E
:104A0000910509F59093C8028093C70261E089E09F
:104A10000E940D0560911B0370911C038DE00E94A4
:104A20006C058091C5029091C6020E94BC1C0E9438
:104A30005804DFCF8EE494E0B3CD81EB93E0B0CDAA
:104A400088E895E0ADCD8230910549F49093C80295
:104A50008093C70261E088E00E940D05E2CF8330B9
:104A6000910509F076C061E08AE00E940D05609131
:104A70001D0370911E038DE00E946C0560911F0361
:104A80007091200390E080E00E94AB168091C902F3
:104A90009091CA02019721F461E08BE00E940D051C
:104AA0007092C8026092C7028091EF029091F0026A
:104AB000892B09F441C09092F8028092F70209E232
:104AC00013E0D0E0C0E0D0931603C0931503F801C3
:104AD000619171918F017093D0026093CF0290E049
:104AE00080E00E94822720E030E048EC52E40E94FF
:104AF000DA266093810670938206809383069093F2
:104B00008406D80118966D917C9190E080E00E9417
:104B1000861A8091C402811104C02196C530D10546
:104B200091F610921603109215030E94CC11D092A8
:104B3000C802C092C70275CFB092F802A092F702E5
:104B400060910F037091100390E080E00E94861A3C
:104B5000ECCF8430910529F4F092C602E092C502B0
:104B600066CF8530910531F5F092C802E092C70218
:104B700060911B0370911C038DE00E946C0560E046
:104B80008AE00E940D0560913D0370913E0390E024
:104B900080E00E94AB1660E088E00E940D05609105
:104BA0003D0370913E0390E080E00E94AB1660E010
:104BB00089E052CF009761F460911B0370911C0350
:104BC0008DE00E946C051092C8021092C70229CF96
:104BD000069799F460E089E00E940D0560E088E0A6
:104BE0000E940D0560E08AE00E940D051092C60249
:104BF0001092C5020E94CC111ACF1092C6021092D8
:104C0000C50215CFF999FECF92BD81BDF89A9927BB
:104C100080B50895262FF999FECF1FBA92BD81BDA8
:104C200020BD0FB6F894FA9AF99A0FBE019608952E
:104C3000052E97FB1EF400940E942F2657FD07D0E7
:104C40000E94372607FC03D04EF40C942F26509573
:104C50004095309521953F4F4F4F5F4F0895909568
:104C60008095709561957F4F8F4F9F4F0895A1E27A
:104C70001A2EAA1BBB1BFD010DC0AA1FBB1FEE1FD6
:104C8000FF1FA217B307E407F50720F0A21BB30B21
:104C9000E40BF50B661F771F881F991F1A9469F79D
:104CA00060957095809590959B01AC01BD01CF01F9
:104CB0000895A29FB001B39FC001A39F700D811DF5
:104CC0001124911DB29F700D811D1124911D089515
:104CD0005058BB27AA270E9480260C94FA270E94CE
:104CE000EC2738F00E94F32720F039F49F3F19F4A5
:104CF00026F40C94E9270EF4E095E7FB0C94E327E7
:104D0000E92F0E940B2858F3BA176207730784072C
:104D1000950720F079F4A6F50C942D280EF4E09573
:104D20000B2EBA2FA02D0B01B90190010C01CA0165
:104D3000A0011124FF27591B99F0593F50F4503E10
:104D400068F11A16F040A22F232F342F4427585F02
:104D5000F3CF469537952795A795F0405395C9F71A
:104D60007EF41F16BA0B620B730B840BBAF09150D2
:104D7000A1F0FF0FBB1F661F771F881FC2F70EC071
:104D8000BA0F621F731F841F48F487957795679544
:104D9000B795F7959E3F08F0B0CF9395880F08F030
:104DA0009927EE0F9795879508950E94BF2708F4DD
:104DB00081E008950E94EE260C94FA270E94F327C2
:104DC00058F00E94EC2740F029F45F3F29F00C9442
:104DD000E32751110C942E280C94E9270E940B28EC
:104DE00068F39923B1F3552391F3951B550BBB271A
:104DF000AA2762177307840738F09F5F5F4F220F5F
:104E0000331F441FAA1FA9F335D00E2E3AF0E0E855
:104E100032D091505040E695001CCAF72BD0FE2F9F
:104E200029D0660F771F881FBB1F26173707480733
:104E3000AB07B0E809F0BB0B802DBF01FF279358EB
:104E40005F4F3AF09E3F510578F00C94E3270C94A5
:104E50002E285F3FE4F3983ED4F3869577956795C7
:104E6000B795F7959F5FC9F7880F911D9695879520
:104E700097F90895E1E0660F771F881FBB1F62173F
:104E800073078407BA0720F0621B730B840BBA0BFD
:104E9000EE1F88F7E09508950E9453276894B1119A
:104EA0000C942E2808950E94132888F09F5798F09C
:104EB000B92F9927B751B0F0E1F0660F771F881F1F
:104EC000991F1AF0BA95C9F714C0B13091F00E9439
:104ED0002D28B1E008950C942D28672F782F88276E
:104EE000B85F39F0B93FCCF3869577956795B39560
:104EF000D9F73EF490958095709561957F4F8F4FCF
:104F00009F4F0895E89409C097FB3EF490958095D3
:104F1000709561957F4F8F4F9F4F9923A9F0F92F7F
:104F200096E9BB279395F695879577956795B795FD
:104F3000F111F8CFFAF4BB0F11F460FF1BC06F5FE3
:104F40007F4F8F4F9F4F16C0882311F096E911C0F5
:104F5000772321F09EE8872F762F05C0662371F016
:104F600096E8862F70E060E02AF09A95660F771F2A
:104F7000881FDAF7880F9695879597F90895990F06
:104F80000008550FAA0BE0E8FEEF16161706E80713
:104F9000F907C0F012161306E407F50798F0621B34
:104FA000730B840B950B39F40A2661F0232B242B09
:104FB000252B21F408950A2609F4A140A6958FEF28
:104FC000811D811D089597F99F6780E870E060E07A
:104FD00008959FEF80EC089500240A941616170692
:104FE00018060906089500240A94121613061406DA
:104FF00005060895092E0394000C11F4882352F03D
:10500000BB0F40F4BF2B11F460FF04C06F5F7F4FF4
:105010008F4F9F4F089557FD9058440F551F59F0DB
:105020005F3F71F04795880F97FB991F61F09F3F95
:1050300079F087950895121613061406551FF2CFBE
:105040004695F1DF08C0161617061806991FF1CF0E
:1050500086957105610508940895E894BB27662735
:105060007727CB0197F908950E94BF2708F48FEFA7
:1050700008950E944C280C94FA270E94EC2738F0DF
:105080000E94F32720F0952311F00C94E3270C9451
:10509000E92711240C942E280E940B2870F3959F69
:1050A000C1F3950F50E0551F629FF001729FBB271F
:1050B000F00DB11D639FAA27F00DB11DAA1F649FBB
:1050C0006627B00DA11D661F829F2227B00DA11D6E
:1050D000621F739FB00DA11D621F839FA00D611DF4
:1050E000221F749F3327A00D611D231F849F600D15
:1050F000211D822F762F6A2F11249F5750409AF03E
:10510000F1F088234AF0EE0FFF1FBB1F661F771FC9
:10511000881F91505040A9F79E3F510580F00C9494
:10512000E3270C942E285F3FE4F3983ED4F3869552
:1051300077956795B795F795E7959F5FC1F7FE2B34
:10514000880F911D9695879597F908950E94BF271E
:10515000880B990B0895EE0FFF1F881F8BBF0790D8
:10516000F691E02D19940E945926B7FF0895821BED
:08517000930B0895F894FFCFA2
:10517800010AD7A33D0102030405060F1000000031
:1051880000EB031E036403380495037303870300CD
:10519800000000450918099409EE081109FE08EFF6
:1051A800086E616E00696E66006F7666002C000DF1
:0251B8000A00EB
:00000001FF
