:100000000C9481010C94B2010C94B2010C94B201D5
:100010000C94B2010C94B2010C94B2010C94B20194
:100020000C94B2010C9427200C9427200C942720C8
:100030000C94B2010C94B2010C94B2010C94B20174
:100040000C94B2010C94B2010C94B2010C94B20164
:100050000C94B2010C94B2010C94B2010C94DD1F0B
:100060000C94B2010C94B31F0C94891F0C94B20130
:100070000C94B2010C94B2010C94B2010C94B20134
:100080000C94B2010C94B2010C94B2010C94B20124
:100090000C945F1F0C94351F0C94B2010C9431200A
:1000A0000C94B2010C94B2010C94B2010C94B20104
:1000B0000C94B2010C94B2010C94B2010C94B201F4
:1000C0000C94B2010C94B2010C94B2010C940B1F6D
:1000D0000C94E11E0C94B2010C94B71E0C948D1E6E
:1000E0000C94B2010C9487030C94DC040C940C0661
:1000F0000C94DB040C948E150C94D2150C943406DD
:100100000C941D030C94BA040C94CD160C94031695
:100110000C94AA150C94C5050C94CF050C94FE08FC
:100120000C949D160C94A5040C94C3150C94D7053F
:100130000C94B1050C94B6040C94CE040C94EB030F
:100140000C9418090C94DE130C9469160C942A066E
:100150000C9438040C9411090C942C170C94730310
:100160000C94A9040C9494090C9445090C943E0633
:100170000C9495030C949B040C94BB050C94A10463
:100180000C94EE080C94E0040C9416060C94C40431
:100190000C9464030C94C8040C94F3050C94DC16C2
:1001A0000C94D6040C941C030C941E030C94DF05D1
:1001B0000C94EF080C94D2040C94AC050C94AD0490
:1001C0000C94BC150C94FD050C94A4050C94E90545
:1001D0000C9420060C94F9210C94B0040C94C004E7
:1001E00000002100240027002A002D0030003300E9
:1001F00001010000040107010A010000220025009E
:1002000028002B002E0031003400020100000501FF
:1002100008010B01000020002300260029002C000B
:100220002F0032000001000003010601090105054D
:100230000505070508080808020202020A0A08085C
:10024000040404040101010101010101030303038A
:1002500003030303040707070C0C0C0C0C0C0C0C19
:100260000202020206060606060606060B0B0B0B2A
:100270000B0B0B0B0102102020080810204010204F
:10028000408002010201080402010102040810205A
:100290004080804020100804020180040201804058
:1002A00020100804020108040201010204081020C1
:1002B0004080010204081020408000000A0B02095F
:1002C0000C0D0E08070304010000000000000000F0
:1002D000000000000000000000000000000000001E
:1002E00000000000000012111000000000000000DB
:1002F00000000000000000000000000000000000FE
:10030000F92111241FBECFEFD1E2DEBFCDBF00E047
:100310000CBF12E0A0E0B2E0E2E3F4E500E00BBFC6
:1003200002C007900D92A835B107D9F727E0A8E5DC
:10033000B2E001C01D92AD3CB207E1F711E0C1E8A7
:10034000D1E000E006C021970109802FFE010E9444
:10035000082AC038D10780E00807A9F70E945C236B
:100360000C94172A0C9400008F929F92AF92BF9228
:10037000CF92DF92EF92FF920F931F93CF93DF9371
:10038000EC016A017B0120E030E0A901CB01B6015C
:100390000E94322818160CF050C01AAA1BAA1CAAD8
:1003A0001DAACEAADFAAE8AEF9AE8AAD882309F469
:1003B00044C00E8D1F8DF80180809180A280B38093
:1003C000A5019401C701B6010E94322887FF1AC017
:1003D000F801C082D182E282F3828EA09FA0A8A4FD
:1003E000B9A4CEA8DFA8E8ACF9ACA7019601C50175
:1003F000B4010E9491291816A4F4CEA2DFA2E8A6A7
:10040000F9A61BC020E030E0A901C501B4010E949B
:10041000322887FFE2CFF801108211821282138204
:10042000DCCFCAA8DBA8ECA8FDA8A7019601C501EE
:10043000B4010E94322887FDE0CFDF91CF911F9158
:100440000F91FF90EF90DF90CF90BF90AF909F9073
:100450008F900895CF92DF92EF92FF92CF93DF9328
:10046000EC016A017B01E889F98982E08083C1148B
:1004700081EED806E104F104A1F060E079E08DE3BB
:1004800090E0A70196010E9494272150310941096B
:1004900051095695479537952795211580E13807DD
:1004A00098F0E889F989108260E874E88EE190E0BC
:1004B000A70196010E949427215031094109510951
:1004C0005695479537952795EC85FD853083EE85C4
:1004D000FF852083188EEC89FD8986E08083EA8978
:1004E000FB89808180618083EA89FB8980818860C3
:1004F0008083EA89FB89808180688083EA89FB891F
:1005000080818F7D8083DF91CF91FF90EF90DF908E
:10051000CF900895E8E7F7E090E02FEF3FEF9817CE
:1005200091F04191242748E0B90161707727369511
:100530002795672B21F051E0252750EA35274150B8
:1005400099F79F5FECCF922F832F08954F925F9280
:100550006F927F928F929F92AF92BF92EF92FF9293
:100560000F931F93CF93DF932091EB023091EC0216
:10057000232BA1F4FB011082118212821382DF91DE
:10058000CF911F910F91FF90EF90BF90AF909F90F0
:100590008F907F906F905F904F900895EB018C014A
:1005A00020E030E0A901688179818A819B810E94E5
:1005B0003228811109C0F80180819181A281B38123
:1005C00088839983AA83BB838BE0E82EF12C8090EB
:1005D000010290900202A0900302B0900402A501D3
:1005E000940160E070E080E89FE30E94C5272881C5
:1005F00039814A815B810E9496292B013C01F801D7
:100600002081318142815381C501B4010E94962924
:100610009B01AC01C301B2010E94C62768837983A4
:100620008A839B83F1E0EF1AF10889F6F801608371
:10063000718382839383A3CF08950895AF92BF926D
:10064000CF92DF92EF92FF920F931F93CF93DF939E
:100650006C017B018B01040F151FEB015E01AE18CD
:10066000BF08C017D10759F06991D601ED91FC91EF
:100670000190F081E02DC6011995892B79F7C5010C
:10068000DF91CF911F910F91FF90EF90DF90CF906E
:10069000BF90AF900895FC01A089B1898C91A68983
:1006A000B78982FD0FC09C91818D8F5F8F73228DE2
:1006B000821749F0A18DAE0FBF2FB11D5D969C939F
:1006C000818F08958C910895FC01538D448D252FC1
:1006D00030E0842F90E0821B930B541710F0CF96DC
:1006E000089501970895FC01918D828D981761F00E
:1006F000A28DAE0FBF2FB11D5D968C91928D9F5F25
:100700009F73928F90E008958FEF9FEF0895FC0103
:10071000918D828D981731F0828DE80FF11D858DB6
:1007200090E008958FEF9FEF0895FC01918D228D49
:10073000892F90E0805C9F4F821B91098F739927CE
:10074000089587EE93E00E94950321E0892B09F438
:1007500020E0822F089584E894E00E94950321E030
:10076000892B09F420E0822F089581E295E00E9410
:10077000950321E0892B09F420E0822F08958EEB68
:1007800095E00E94950321E0892B09F420E0822F57
:100790000895FC01A48DA80FB92FB11DA35ABF4F16
:1007A0002C91848D90E001968F739927848FA68970
:1007B000B7892C93A089B1898C91837080648C93C4
:1007C000938D848D981306C00288F389E02D808173
:1007D0008F7D80830895EF92FF920F931F93CF93A5
:1007E000DF93EC0181E0888F9B8D8C8D98131AC06C
:1007F000E889F989808185FF15C09FB7F894EE8953
:10080000FF896083E889F9898081837080648083AF
:100810009FBF81E090E0DF91CF911F910F91FF90FA
:10082000EF900895F62E0B8D10E00F5F1F4F0F73A2
:100830001127E02E8C8D8E110CC00FB607FCFACF5D
:10084000E889F989808185FFF5CFCE010E94C9032F
:10085000F1CFEB8DEC0FFD2FF11DE35AFF4FF0822E
:100860009FB7F8940B8FEA89FB8980818062CFCF94
:10087000CF93DF93EC01888D8823B9F0AA89BB89D7
:10088000E889F9898C9185FD03C0808186FD0DC0C2
:100890000FB607FCF7CF8C9185FFF2CF808185FFE3
:1008A000EDCFCE010E94C903E9CFDF91CF9108952A
:1008B00080E090E0892B29F00E94BF0381110E9403
:1008C000000080E090E0892B29F00E94B50381119F
:1008D0000E94000080E090E0892B29F00E94AB0389
:1008E00081110E94000080E090E0892B29F00E9495
:1008F000A10381110C94000008958150823108F009
:100900005AC0E82FF0E08827E757FB4F8F4F0C9431
:10091000082AA904AD049B04A104A504DB04B004C7
:10092000B604BA04C004C404C804CE04D204DB0470
:10093000D604DC04E004809180008F7780938000EF
:100940000895809180008F7DF9CF80918000877F0E
:10095000F5CF84B58F7784BD089584B58F7DFBCFA7
:100960008091B0008F778093B00008958091B0009F
:100970008F7DF9CF809190008F77809390000895BC
:10098000809190008F7DF9CF80919000877FF5CF87
:100990008091A0008F778093A00008958091A0009F
:1009A0008F7DF9CF8091A000877FF5CF80912001C6
:1009B0008F77809320010895809120018F7DF9CF5A
:1009C00080912001877FF5CFCF93DF93282F30E0F0
:1009D000F901E654FD4F8491F901EC58FD4FD49193
:1009E000F901E25DFD4FC491CC23A1F081110E9479
:1009F0007D04EC2FF0E0EE0FFF1FEC5EFD4FA591A4
:100A0000B491EC91ED2381E090E009F480E0DF9176
:100A1000CF91089580E090E0FACF1F93CF93DF93BA
:100A2000282F30E0F901E654FD4F8491F901EC588C
:100A3000FD4FD491F901E25DFD4FC491CC23A9F0A3
:100A4000162F81110E947D04EC2FF0E0EE0FFF1FA6
:100A5000E650FE4FA591B4918FB7F894EC91111127
:100A600008C0D095DE23DC938FBFDF91CF911F911B
:100A70000895DE2BF8CFCF93DF9390E0FC01EC5884
:100A8000FD4F2491825D9D4FFC0184918823D1F01C
:100A900090E0880F991FFC01E052FE4FA591B491A0
:100AA000FC01E650FE4FC591D49161110EC09FB775
:100AB000F8948C91E22FE0958E238C932881E22389
:100AC000E8839FBFDF91CF9108958FB7F894EC91A1
:100AD000E22BEC938FBFF6CF1F93CF93DF93182FAA
:100AE000EB0161E00E943B05209739F460E0812F23
:100AF000DF91CF911F910C940D05CF3FD10511F4DB
:100B000061E0F5CFE12FF0E0E654FD4FE491E150D4
:100B1000E23108F0B3C0F0E08827EE56FA4F8F4F6D
:100B20000C94082AA405AC05B105BB05C5053E0615
:100B3000CF05D705DF05E905F305FD050C0616060B
:100B40003E0620062A06340684B5806884BDC7BDEB
:100B5000DF91CF911F91089584B5806284BDC8BD97
:100B6000F7CF80918000806880938000D0938900C7
:100B7000C0938800EDCF80918000806280938000D8
:100B8000D0938B00C0938A00E3CF8091800088606F
:100B900080938000D0938D00C0938C00D9CF80913A
:100BA000B00080688093B000C093B300D1CF809133
:100BB000B00080628093B000C093B400C9CF809130
:100BC0009000806880939000D0939900C093980023
:100BD000BFCF80919000806280939000D0939B0063
:100BE000C0939A00B5CF8091900088608093900068
:100BF000D0939D00C0939C00ABCF8091A0008068F3
:100C00008093A0008091A0008F7B8093A000D09360
:100C1000A900C093A8009CCF8091A000806280931F
:100C2000A000D093AB00C093AA0092CF8091A00007
:100C300088608093A000D093AD00C093AC0088CFB3
:100C400080912001806880932001D0932901C09376
:100C500028017ECF80912001806280932001D09373
:100C60002B01C0932A0174CF80912001886080936A
:100C70002001D0932D01C0932C016ACFC038D1053B
:100C80000CF03ECF33CF90917B00977F90937B0009
:100C90008653806480937C0080917A008064809386
:100CA0007A0080917A0086FDFCCF80917800909147
:100CB000790008953FB7F8948091E2029091E302A1
:100CC000A091E402B091E50226B5A89B05C02F3F94
:100CD00019F00196A11DB11D3FBFBA2FA92F982F62
:100CE0008827BC01CD01620F711D811D911D42E05D
:100CF000660F771F881F991F4A95D1F70895CF93E4
:100D0000DF930E945A06CBE5D7E00E94DF282C85AE
:100D10003D854E855F850E943728688379838A8365
:100D20009B83DF91CF9108958F929F92AF92BF9254
:100D3000CF92DF92EF92FF926B017C010E945A06E4
:100D40004B015C01C114D104E104F104B9F00E942B
:100D50005A06681979098A099B09683E734081051A
:100D6000910580F321E0C21AD108E108F10888EE6C
:100D7000880E83E0981EA11CB11CE4CFFF90EF9079
:100D8000DF90CF90BF90AF909F908F9008952FB736
:100D9000F8946091DE027091DF028091E002909100
:100DA000E1022FBF0895CF93C091B8078C2F0E9406
:100DB0008A02EC2FF0E0E159F84F9187E1E0EC0F67
:100DC000F0E0E159F84F8187CE5FC093B80790916A
:100DD0007507809174079230C0F0823009F474C0B6
:100DE000833009F477C0813009F07AC09091C8004F
:100DF00090649093C80090910501906490930501D0
:100E0000909105019062909305014091B80750E0E0
:100E1000843008F06BC080916F0790917007DC01FF
:100E2000ED91FC910280F381E02D68E777E0199560
:100E300090917507809174079230B8F0823009F470
:100E40005AC0833009F45CC0813009F05EC09091D3
:100E5000C80096FFFCCF909105019F7B9093050100
:100E6000909105019F7D90930501843008F052C058
:100E700080916F0790917007DC01ED91FC910284E5
:100E8000F385E02D199597FFF3CF1092B8070E94D4
:100E9000C7062091C2073091C307620F731F811DDF
:100EA000911D6093C8077093C9078093CA079093F8
:100EB000CB078091BE079091BF0701969093BF0723
:100EC0008093BE07CF9108959091D0009064909345
:100ED000D00091CF909130019064909330018BCFEE
:100EE0009091C00090649093C00085CF809171076D
:100EF0009091720794CF9091D00096FFFCCFABCF2A
:100F00009091300196FFFCCFA6CF9091C00096FF44
:100F1000FCCFA1CF8091710790917207DC01ED9118
:100F2000FC910284F385E02D199597FFF3CFADCFA7
:100F30002091B802260F3327331F21323105ECF4FC
:100F40002091BD03FC0190E080E0243069F082E054
:100F50000895A091B8022191AC0148565D4FA40FAD
:100F6000B52FB11D2C930196861798F38091B80286
:100F7000680F6093B80280E0089581E008951092B0
:100F8000BD0381E08093BC031092970361E084E18C
:100F90000E940D0561E085E10E940D05E9EBF0E09E
:100FA00080818E7F808380818D7F808388E48093A1
:100FB000B80085E48093BC000895CF93DF9391E05F
:100FC000909397028823B9F0C091B800D091BA00ED
:100FD0008091BC008A7B8093BC0060E084E10E9429
:100FE0000D0560E085E10E940D050E94BF07D093CA
:100FF000BA00C093B800DF91CF9108958F929F926D
:10100000AF92BF92CF92DF92EF92FF920F931F9316
:10101000CF93DF93D091E603D13208F0D7C0182FD9
:10102000C091E5030E945A066B017C018091BD03CB
:1010300081116BC082E08093BD031093BC038FEFDE
:101040008093BB031092BA03D093B903A5ECB3E02D
:10105000E9E9F3E080E0D81391C010929803809101
:101060009803CC0FC82BC0939803809197038130CD
:1010700009F088C0109297030E945A066B017C0108
:10108000809198038093BB008091BF039091C0032F
:10109000A091C103B091C203892B8A2B8B2BA1F0A5
:1010A0000E945A060091BF031091C0032091C10312
:1010B0003091C2036C197D098E099F090617170725
:1010C0002807390708F442C08091BC0083FDD8CFBF
:1010D00085EC8093BC000E945A066B017C018091D4
:1010E000BD03823009F450C08091BB038F3F09F4E7
:1010F0006FC08091BB03803209F46CC08091BB0348
:10110000803309F469C084E026C08091BF039091C8
:10111000C003A091C103B091C203892B8A2B8B2BF2
:1011200009F484CF0E945A068090BF039090C003B8
:10113000A090C103B090C2036C197D098E099F096C
:1011400086169706A806B90608F070CF8091BE03F0
:101150000E94DD0785E01092C4031092E60310920E
:10116000C303DF91CF911F910F91FF90EF90DF901C
:10117000CF90BF90AF909F908F9008959D91919345
:101180008F5F69CF85EEA5CF8091BF039091C0039B
:10119000A091C103B091C203892B8A2B8B2B09F438
:1011A0009ECF0E945A060091BF031091C003209168
:1011B000C1033091C2036C197D098E099F0906177E
:1011C00017072807390708F08ACFC0CF81E0C3CFBF
:1011D00080E0C1CF82E0BFCF83E0BDCF0895E09132
:1011E000760380917503E81730F4F0E0E958FC4F7E
:1011F000808190E008958FEF9FEF0895909176039E
:10120000809175032FEF3FEF981748F4E92FF0E036
:10121000E958FC4F208130E09F5F90937603C9012D
:1012200008958091750390917603891B990B089519
:10123000CF92DF92EF92FF920F931F93CF93DF93A2
:101240007C01CB018A012091C303222389F0EB01A9
:101250006B01C40ED51ECC15DD0569F06991D7016F
:10126000ED91FC910190F081E02DC7011995F3CF2C
:10127000642F0E949807C801DF91CF911F910F91B1
:10128000FF90EF90DF90CF900895CF93DF931F9260
:10129000CDB7DEB769832091C3032223F9F02091F3
:1012A000E603203258F021E030E0FC013383228352
:1012B00090E080E00F90DF91CF9108958091C4037A
:1012C000E82FF0E0EB53FC4F998190838F5F809380
:1012D000C4038093E60381E090E0ECCF61E0CE01AF
:1012E00001960E949807F7CFCF93DF93EB0191E02F
:1012F0009093C3038093E5031092C4031092E60316
:1013000061E08BE596E00E9445096D2F8BE596E044
:101310000E9445096C2F8BE596E00E94450981E00B
:10132000DF91CF910C94FE0790E080E008952F921A
:101330003F924F925F926F927F928F929F92AF9265
:10134000BF92CF92DF92EF92FF920F931F93CF93B2
:10135000DF93CDB7DEB72E970FB6F894DEBF0FBE82
:10136000CDBF20E030E04FE753E46091BB067091C1
:10137000BC068091BD069091BE060E9437286B0185
:101380007C0120917C0230917D0240917E0250913F
:101390007F020E94962920E030E040E05FE30E9457
:1013A000962969877A878B879C87809057079090CA
:1013B0005807A0905907B0905A07209178023091B1
:1013C000790240917A0250917B02C701B6010E94D6
:1013D000962920E030E040E05FE30E9496292B014F
:1013E0003C01C0907402D0907502E0907602F090BB
:1013F00077020091700210917102809172028E87C3
:10140000909173029D8720906C0230906D028091C4
:101410006E028F8390916F029887809168028B8310
:10142000909169029C8380916A028D8390916B02F6
:101430009E838BE090E09A8389839601A701C50182
:10144000B4010E94962929853A854B855C850E94C6
:10145000C6276B017C0198014E855D85C501B401ED
:101460000E949629A30192010E94C6278B018E87B4
:101470009D879601A701B1018F8198850E9432282E
:1014800087FF03C01601EF82F88698014E855D85BF
:101490006B817C818D819E810E94322887FF06C0EE
:1014A0000B831C839E859D838D858E8389819A8184
:1014B00001979A838983892B09F0BFCFC101AF813E
:1014C000B88580936C0290936D02A0936E02B093E6
:1014D0006F028B819C81AD81BE8180936802909365
:1014E0006902A0936A02B0936B02C601D701809390
:1014F000740290937502A0937602B0937702C801AC
:10150000AE85BD858093700290937102A0937202A4
:10151000B0937302C601D70180938E0290938F021D
:10152000A0939002B0939102C801AE85BD858093CF
:10153000880290938902A0938A02B0938B0220E0E4
:1015400030E048EC52E4B601C7010E9496290E949F
:10155000B028709324036093230320E030E048EC2C
:1015600052E4B8018E859D850E9496290E94B0287C
:1015700070932603609325032E960FB6F894DEBF72
:101580000FBECDBFDF91CF911F910F91FF90EF90D4
:10159000DF90CF90BF90AF909F908F907F906F9093
:1015A0005F904F903F902F9008952F923F924F92CF
:1015B0005F926F927F928F929F92AF92BF92CF92E3
:1015C000DF92EF92FF920F931F93CF93DF93CDB7EC
:1015D000DEB72F970FB6F894DEBF0FBECDBF9F8743
:1015E0008E870E94C7066D837E838F839887EE85E2
:1015F000FF8582A193A1A4A1B5A14D815E816F81D8
:101600007885481B590B6A0B7B0B86A597A5A0A96B
:10161000B1A9481759076A077B0708F426C1048C4B
:10162000F58DE02D80819181A281B38189839A8398
:10163000AB83BC83AE85BF859096ED91FC912981EB
:101640003A814B815C8160817181828193810E94AA
:10165000C5274B015C01EE85FF8522A533A544A576
:1016600055A569817A818B819C810E94C5276B0178
:101670007C01AE85BF8550962D913D914D915C9139
:101680005397C501B4010E949629EE85FF8526A1D6
:1016900037A140A551A50E94C6272B013C01AE856C
:1016A000BF8596964D925D926D927C929997DB964E
:1016B000BC91B987B11118C0EE85FF8524853585A9
:1016C00046855785C701B6010E9496299B01AC014A
:1016D000C301B2010E94C527AE85BF8596966D9362
:1016E0007D938D939C939997EE85FF8546A057A097
:1016F00060A471A416A907A930AC21AC212F302F0A
:10170000432D522DC301B2010E94912918160CF0ED
:101710008FC0812F902FA32DB22DEE85FF8586A33C
:1017200097A3A0A7B1A7F985FF2309F49AC0AE85B6
:10173000BF851C962D913D914D915C911F97C501E0
:10174000B4010E9496294B015C01EE85FF85248936
:10175000358946895789C701B6010E9496299B01A0
:10176000AC01AE85BF8596966D917D918D919C91D2
:1017700099970E94C527A50194010E94C6276B0175
:101780007C019B01AC01612F702F832D922D0E9453
:10179000322887FD14C0EE85FF8512A903A934A85D
:1017A00025A8212F302F432D522DB601C7010E94AD
:1017B000322887FD04C01C2D0D2D3E2C2F2CAE850C
:1017C000BF855E96ED91FC91812F902FA32DB22DB8
:1017D00080839183A283B38389819A81AB81BC8109
:1017E000EE85FF8582A793A7A4A7B5A78D819E81CB
:1017F000AF81B88582A393A3A4A3B5A381E02F965C
:101800000FB6F894DEBF0FBECDBFDF91CF911F9111
:101810000F91FF90EF90DF90CF90BF90AF909F908F
:101820008F907F906F905F904F903F902F90089592
:10183000AE85BF85D2968D919D910D90BC91A02DC6
:101840008A879B87AC87BD879C01AD01C301B2012C
:101850000E94322887FF67CF8A859B85AC85BD852E
:101860005CCF812C912C540170CF80E0C8CF809147
:10187000FD06882321F083EC96E00E94D50A809132
:10188000A906882321F08FE696E00E94D50A609190
:10189000BB067091BC068091BD069091BE060E9469
:1018A000A92887E00E946C05609167067091680620
:1018B0008091690690916A060E94A92885E00E949D
:1018C0006C056091BB067091BC068091BD0690913D
:1018D000BE060E94B028709328036093270360918E
:1018E0006706709168068091690690916A060E9469
:1018F000B02870932A036093290308958F929F92D2
:10190000AF92BF92CF92DF92EF92FF92CF93DF938D
:10191000EC01EE8DFF8DC080D180E280F380CEA2FD
:10192000DFA2E8A6F9A6EC8DFD8D80819181A281D0
:10193000B3818AA79BA7ACA7BDA78EA89FA8A8AC78
:10194000B9ACA5019401C701B6010E9491291816EE
:101950002CF48EA29FA2A8A6B9A60CC08AA89BA808
:10196000ACA8BDA8A5019401C701B6010E94322808
:1019700087FDEFCFDF91CF91FF90EF90DF90CF9079
:10198000BF90AF909F908F9008958F929F92AF924B
:10199000BF92CF92DF92EF92FF92CF93DF93161612
:1019A0001706ACF5EC016B01770FEE08FF08C701D5
:1019B000B6010E94E1284B015C016EA57FA588A9B4
:1019C00099A90E94DF289B01AC01C501B4010E94C6
:1019D00037284B015C01AC019B01688979898A89B0
:1019E0009B890E949629688B798B8A8B9B8BA5019A
:1019F00094016C897D898E899F890E9437286C8B20
:101A00007D8B8E8B9F8BCEA6DFA6E8AAF9AADF91ED
:101A1000CF91FF90EF90DF90CF90BF90AF909F90CD
:101A20008F9008954F925F926F927F928F929F92C4
:101A3000AF92BF92CF92DF92EF92FF920F931F93DC
:101A4000CF93DF9300D000D0CDB7DEB79E838D83D8
:101A50002A013B014801590120E030E0A901CB01F6
:101A6000B2010E94322887FD89C020E030E0A90140
:101A7000C501B8010E94322887FD80C020E030E017
:101A8000A901C701B6010E94322887FD77C081E015
:101A9000ED81FE81228D338D2130310509F080E00A
:101AA000ED81FE8183AF40825182628273828482A3
:101AB0009582A682B782C086D186E286F38666A525
:101AC00077A580A991A90E94DF2820E030E04AE7AD
:101AD00054E40E94372869837A838B839C83ED8149
:101AE000FE8144865586668677869B01AC01C501DA
:101AF000B4010E9496294B015C01ED81FE81808A30
:101B0000918AA28AB38A29813A814B815C81C7017B
:101B1000B6010E9437286B017C01ED81FE81C48AE9
:101B2000D58AE68AF78A808D918D019739F5A301D0
:101B3000920160E070E0CB010E94C527ED81FE813B
:101B40006487758786879787A501940160E070E0B8
:101B5000CB010E94C527ED81FE81608B718B828B4A
:101B6000938BA701960160E070E0CB010E94C5272E
:101B7000ED81FE81648B758B868B978B26960FB6D5
:101B8000F894DEBF0FBECDBFDF91CF911F910F91B3
:101B9000FF90EF90DF90CF90BF90AF909F908F908D
:101BA0007F906F905F904F900895CF92DF92EF9269
:101BB000FF920F931F93CF93C82F81E08093C303AD
:101BC000C093E5031092C4031092E60360E08BE536
:101BD00096E00E94450981E00E94FE070E945A0695
:101BE0006B017C018091BD03811165C081E0809310
:101BF000BD038093BC039FEF9093BB031092BA0385
:101C00008093B9038093980380919803CC0FC82BDD
:101C1000C093980380919703813009F08CC0109293
:101C200097030E945A066B017C0180919803809370
:101C3000BB008091BF039091C003A091C103B091FC
:101C4000C203892B8A2B8B2BA1F00E945A0600918C
:101C5000BF031091C0032091C1033091C2036C19DE
:101C60007D098E099F09061717072807390708F409
:101C700043C08091BC0083FDD8CF85EC8093BC002D
:101C80000E945A066B017C018091BD03813009F4EA
:101C900054C08091BA03823008F071C08091BA03B9
:101CA000A9E9B3E0E7E7F3E090E0981751F12D914F
:101CB00021939F5FFACF8091BF039091C003A091C1
:101CC000C103B091C203892B8A2B8B2B09F48ACFD5
:101CD0000E945A060091BF031091C0032091C103D6
:101CE0003091C2036C197D098E099F0906171707E9
:101CF0002807390708F076CF8091BE030E94DD07E0
:101D000080E010927603809375038BE596E00E9445
:101D1000FE08C82F8BE596E00E94FE0820E03C2FCD
:101D2000A901482BCA01CF911F910F91FF90EF900D
:101D3000DF90CF90089585EEA1CF8091BF03909161
:101D4000C003A091C103B091C203892B8A2B8B2BB6
:101D500009F49ACF0E945A060091BF031091C00364
:101D60002091C1033091C2036C197D098E099F092E
:101D7000061717072807390708F086CFBDCF82E07E
:101D80008FCFCF92DF92EF92FF92CF93DF93EC0150
:101D90006C857D85636E716889850E9474098BEB03
:101DA00092E10197F1F789850E94D50D2B85022ECE
:101DB00002C0969587950A94E2F7222329F08115AF
:101DC00028E0920708F0906F9F8B8E8B6C857D8545
:101DD000636E716B89850E9474098BEB92E10197A8
:101DE000F1F789850E94D50D2B85022E02C09695AC
:101DF00087950A94E2F7222329F0811528E09207BB
:101E000008F0906F998F888FBC01990F880B990B00
:101E10000E94E1286B017C016E897F89072E000CEE
:101E2000880B990B0E94E1289B01AC01C701B60108
:101E30000E9437282E853F85488959890E94962916
:101E4000DF91CF91FF90EF90DF90CF9008954F9268
:101E50005F926F927F928F929F92AF92BF92CF923A
:101E6000DF92EF92FF92CF93DF93CDB7DEB7649707
:101E70000FB6F894DEBF0FBECDBF8091ED029091FA
:101E8000EE02039709F06BC28AE097EDA3E2BCE390
:101E90008093630790936407A0936507B0936607E8
:101EA0000E945A060E94DF28209167073091680738
:101EB0004091690750916A070E9437286B017C01A5
:101EC000C0925F07D0926007E0926107F0926207CC
:101ED00080905B0790905C07A0905D07B0905E07D4
:101EE000AC019B01C501B4010E9491291816DCF4D4
:101EF000A501940160916B0770916C0780916D074B
:101F000090916E070E94C5279B01AC0160E070E0D4
:101F1000CB010E94C52760935B0770935C07809399
:101F20005D0790935E0720915B0730915C074091BD
:101F30005D0750915E07C701B6010E94C527209139
:101F400063073091640740916507509166070E94CE
:101F5000912918160CF01AC20E945A066B017C01D6
:101F600061E087E00E940D0561E085E00E940D05BB
:101F70000E945A066C197D098E099F0960397140CB
:101F800081059105A8F389E30E9443062AEE31E01A
:101F9000DC010E94102ACC24CA9423E0D22EE12C2A
:101FA000F12CA70196010E947527CA01B9010E9470
:101FB000E1289B01AC010E94C62720E030E048ECFC
:101FC00052E40E9437282B013C0140927C0250923F
:101FD0007D0260927E0270927F0287E30E94430638
:101FE0002AEE31E0DC010E94102AA70196010E942E
:101FF0007527CA01B9010E94E1289B01AC010E942A
:10200000C62720E030E048EC52E40E943728698B74
:102010007A8B8B8B9C8B6093780270937902809380
:102020007A0290937B0288E30E94430620E53AE01F
:10203000DC010E94102AA70196010E947527CA019F
:10204000B9010E94E12820E030E048EC52E40E940F
:1020500037284B015C018092640290926502A09245
:102060006602B092670286E30E94430620E53AE0EA
:10207000DC010E94102AA70196010E947527CA015F
:10208000B9010E94E12820E030E048EC52E40E94CF
:1020900037286B017C01C0926002D0926102E0920D
:1020A0006202F09263026091BB067091BC0680915F
:1020B000BD069091BE060E94A92887E00E946C058B
:1020C00060916706709168068091690690916A0632
:1020D0000E94A92885E00E946C058091650390917B
:1020E00066039A838983A0916703B0916803BC83D8
:1020F000AB838091690390916A039E838D83A09145
:102100006B03B0916C03B887AF8380916D0390919E
:102110006E039A878987A0916F03B0917003BC8783
:10212000AB8780917103909172039E878D87A091F8
:102130007303B0917403B88BAF87A3019201C501FB
:10214000B4010E94372829813A814B815C810E9429
:1021500096292D813E814F8158850E94C6274B01CB
:102160005C0129893A894B895C89C701B6010E94C3
:10217000372829853A854B855C850E9496292D85CF
:102180003E854F8558890E94C6276B017C01A501B9
:102190009401C501B4010E94032A882309F4E4C014
:1021A0001092BF061092C0061092C1061092C2068D
:1021B000A7019601C701B6010E94032A8111DDC063
:1021C000C0926B06D0926C06E0926D06F0926E069D
:1021D00020E030E0A90160915C0270915D02809185
:1021E0005E0290915F020E943228811110C080919E
:1021F000BF069091C006A091C106B091C20680931F
:102200005C0290935D02A0935E02B0935F0220E0B7
:1022100030E0A901609158027091590280915A02F0
:1022200090915B020E943228811110C080916B0650
:1022300090916C06A0916D06B0916E068093580245
:1022400090935902A0935A02B0935B0220E030E0D1
:10225000A9016091010270910202809103029091A4
:1022600004020E949129181664F46CE572E08FEB69
:1022700096E00E94A60268E572E08BE696E00E9476
:10228000A60281E397E00E94C10E26EB3EE54AE2FA
:1022900050E40E94962921EB30EF45E853E40E9478
:1022A000C527609384027093850280938602909381
:1022B00087028BE097E00E94C10E26EB3EE54AE2E2
:1022C00050E40E94962921EB30EF45E853E40E9448
:1022D000C52760938002709381028093820290935D
:1022E000830220E030E048EC52E46091BF06709138
:1022F000C0068091C1069091C2060E9496290E9454
:10230000B0287093200360931F0320E030E048EC76
:1023100052E460916B0670916C0680916D0690910D
:102320006E060E9496290E94B02870932203609343
:10233000210364960FB6F894DEBF0FBECDBFDF91C8
:10234000CF91FF90EF90DF90CF90BF90AF909F9094
:102350008F907F906F905F904F900C947F0680E0FD
:1023600090E0A0E0BFE394CD8092BF069092C006BB
:10237000A092C106B092C2061BCF10926B061092BB
:102380006C0610926D0610926E0622CF64960FB600
:10239000F894DEBF0FBECDBFDF91CF91FF90EF90DD
:1023A000DF90CF90BF90AF909F908F907F906F9075
:1023B0005F904F9008958F929F92AF92BF92CF926D
:1023C000DF92EF92FF92CF93DF930E94270F8090CE
:1023D000B7069090B806A090B906B090BA06A501CD
:1023E00094016091BF067091C0068091C1069091E2
:1023F000C2060E94C5276B017C0120E030E0A901E4
:102400000E949129181624F0F7FAF094F7F8F09446
:1024100020E030E040E050E4C701B6010E943228DD
:10242000C0912D03D0912E0387FD3AC0A5019401E0
:1024300060916B0670916C0680916D0690916E06AE
:102440000E94C5276B017C0120E030E0A9010E94B9
:102450009129181624F0F7FAF094F7F8F09420E098
:1024600030E040E050E4C701B6010E94322887FD09
:1024700017C08091EB029091EC02892B89F0C86023
:10248000D0932E03C0932D03DF91CF91FF90EF9057
:10249000DF90CF90BF90AF909F908F900C94970952
:1024A000C77FEECF70E060E087E00E946C0570E0CF
:1024B00060E085E00E946C051092BB061092BC069D
:1024C0001092BD061092BE06EBEEF2E015AE14AE11
:1024D00010926706109268061092690610926A06BA
:1024E00017AE16AE1092B7061092B8061092B90643
:1024F0001092BA0613AA12AA1092FD061092A9060B
:102500000895FC0101900020E9F73197AF01481BC5
:10251000590BBC018EEB95E00C941E038F929F9299
:10252000AF92BF920F931F93CF93DF93CDB7DEB7D8
:10253000A1970FB6F894DEBF0FBECDBF19A24230EF
:1025400008F44AE08E010F5D1F4F842E912CB12CB0
:10255000A12CA50194010E949427E62FB901CA017C
:10256000EA30F4F4E05DD801EE938D01232B242BA7
:10257000252B79F790E080E0109719F0CD010E94AB
:102580008112A1960FB6F894DEBF0FBECDBFDF91CA
:10259000CF911F910F91BF90AF909F908F90089512
:1025A000E95CE1CF4F925F926F927F928F929F9200
:1025B000AF92BF92CF92DF92EF92FF926B017C01BC
:1025C000AC019B010E94032A882381F081E392E001
:1025D000FF90EF90DF90CF90BF90AF909F908F9043
:1025E0007F906F905F904F900C948112460157013D
:1025F000E894B7F82FEF3FEF4FE75FE7C501B4016D
:102600000E94032A81110DC02FEF3FEF4FE75FE7D4
:10261000C501B4010E94322818161CF485E392E02B
:10262000D7CF2FEF3FEF4FE75FE4C701B6010E941E
:10263000912918161CF489E392E0CACF2FEF3FEFDF
:102640004FE75FECC701B6010E94322887FDF3CF48
:1026500020E030E0A901C701B6010E943228B12C68
:10266000A12C87FF0AC06DE28EEB95E00E94EB0380
:102670005C01F7FAF094F7F8F0942AE037ED43EABA
:102680005BE3C701B6010E94C6272B013C010E94F3
:10269000B0286B017C010E94DF289B01AC01C301C3
:1026A000B2010E94C5272B013C014AE0C701B601D7
:1026B0000E948E127C01EA0CFB1C6EE28EEB95E010
:1026C0000E94EB03E80EF91E20E030E040E251E406
:1026D000C301B2010E9496292B013C010E94B0283F
:1026E0004B01B12CA12C4AE0C501B4010E948E120D
:1026F000E80EF91EC501B4010E94DF289B01AC0160
:10270000C301B2010E94C52720E030E040E251E45D
:102710000E9496290E94B02890E080E04AE00E9442
:102720008E128E0D9F1DFF90EF90DF90CF90BF9087
:10273000AF909F908F907F906F905F904F90089593
:102740000C9481128F929F92AF92BF92CF92DF92A0
:10275000EF92FF920F931F93CF93DF938BEE92E054
:102760009093BB078093BA0785E48093CC07809150
:102770007407843008F0F7C080916F07909170075C
:10278000DC01ED91FC910084F185E02D1995882301
:10279000A9F09091B907891709F4EAC08093B907A5
:1027A0000E94C7066B5F7F4F8F4F9F4F6093C40798
:1027B0007093C5078093C6079093C70780913D0328
:1027C00090913E03892B09F484C30E94C7060E949E
:1027D000DF2820E030E04AE754E40E9437280E94D6
:1027E000D2128DE392E00E94A01360918402709156
:1027F000850280918602909187020E94D2128DE319
:1028000092E00E94A01320917C0230917D024091C1
:102810007E0250917F026091640270916502809106
:102820006602909167020E9437280E94D2128DE3BF
:1028300092E00E94A01360918002709181028091C9
:102840008202909183020E94D2128DE392E00E9454
:10285000A013209178023091790240917A02509130
:102860007B0260916002709161028091620290919E
:1028700063020E9437280E94D2128DE392E00E94E8
:10288000A01360918E0270918F02809190029091BE
:1028900091020E94D2128DE392E00E94A0136091F7
:1028A00088027091890280918A0290918B020E9425
:1028B000D2128DE392E00E94A0136091BB0670914A
:1028C000BC068091BD069091BE060E94D2128DE397
:1028D00092E00E94A0136091670670916806809153
:1028E000690690916A060E94D2128DE392E00E94DE
:1028F000A0136091B7067091B8068091B9069091C7
:10290000BA060E94D2128DE392E00E94A013C090FA
:102910008C02D0908D020D2C000CEE08FF084AE0CE
:10292000C701B601F7FE0DC06DE28EEB95E00E9487
:10293000EB0366277727CB016C197D098E099F0968
:102940004AE00E948E128FE392E0DF91CF911F91B7
:102950000F91FF90EF90DF90CF90BF90AF909F903E
:102960008F900C948112809171079091720708CF1B
:102970000E94C7060091C4071091C5072091C607A1
:102980003091C707601771078207930708F416CFC5
:102990001092B90780917507823050F0809105013F
:1029A0008F7B80930501809105018F7D80930501C8
:1029B0001092B80780917407C0E0843040F1809194
:1029C000710790917207DC01ED91FC910084F18513
:1029D000E02D1995892B09F43FC0809171079091E2
:1029E0007207DC01ED91FC910284F385E02D1995CD
:1029F0009091B807E92FF0E0E159F84F81879F5F88
:102A00009093B8079034D8F2C1E0D9CFC1E080915B
:102A10006F0790917007DC01ED91FC910084F185C6
:102A2000E02D1995892BC1F080916F079091700767
:102A3000DC01ED91FC910284F385E02D19959091D4
:102A4000B807E92FF0E0E159F84F81879F5F909335
:102A5000B8079034D8F6DBCF8091BC079091BD07C2
:102A600001969093BD078093BC07CC2369F08091B9
:102A7000C0079091C10701969093C1078093C0074A
:102A80008DEF809377079ACE8091B8078093770770
:102A900087300CF493CE2091780790917307291317
:102AA0008DCEC82FD0E082500E948A02C159D84FE3
:102AB0002F8138852327322723272817390769F0E4
:102AC0008091C0079091C10701969093C1078093B0
:102AD000C007CFEFC093770771CE20917907E5E06B
:102AE000F2E08191821709F4D8C1B2E0ED30FB0722
:102AF000C1F78091C0079091C10701969093C107DB
:102B00008093C007C1E0205820937907C0937A07CB
:102B100083E08093B8070E94D306DCCF80917A07C8
:102B200090917B07982789279827AC01F4E0569568
:102B30004795FA95E1F780917C0790917D0798275A
:102B400089279827A4E096958795AA95E1F7840FA1
:102B5000951F0CC080917A0790917B079827892751
:102B60009827E4E096958795EA95E1F79091CC0750
:102B70009817C0F4C2E0C7CF80917A0790917B0785
:102B800098278927F3CF80917A0790917B07982720
:102B90008927982740917C0750917D075427452726
:102BA0005427D5CF0E94C7062091C2073091C30792
:102BB000620F731F811D911D6093C8077093C90731
:102BC0008093CA079093CB0710927707E09179071B
:102BD000E150E03108F0F2CDF0E08827ED50FA4EF8
:102BE0008F4F0C94082A03160316691669169D1652
:102BF000CD16DE13DE13DE13DE13DE13DE13DE135B
:102C0000DE13DC162C1780917A0790917B079827AA
:102C10008927982700917C0710917D0710270127AD
:102C20001027A80173E0569547957A95E1F7242F70
:102C3000E801C770DD27209711F021E0240F2093D1
:102C40007A0723E02093B807080F191F30E0C12C42
:102C5000D12C7601C3948017910791F1E22FF0E017
:102C6000B701A601032E04C0440F551F661F771F2E
:102C70000A94D2F7E159F84FB184DC0153E0B695DC
:102C8000A7955A95E1F7AE7FB170A551BD4F8D90D4
:102C90009C90A82FAF70AA2ED40102C0B695A7951C
:102CA000AA94E2F7A0FF09C04B2941873F5F383063
:102CB00010F02F5F30E00196CECF40954B21F5CF3D
:102CC000CD2B29F42093B8070E94D30677CD2F5F30
:102CD000F9CF80917A0790917B0798278927982FC1
:102CE00020917C0730917D0732272327322F330F25
:102CF00030937A07E3E0280F3327331F82E08E0FEB
:102D0000A92FB0E0A217B307ACF4AA0FBB1FA551BF
:102D1000BD4F4C9111965C91AE2FB0E0A159B84FC8
:102D200019965C93EF5FF0E0E159F84F41879F5FA0
:102D3000E82FE4CFE093B807C7CF20917A0730910E
:102D40007B07322723273227F90173E0F695E795B1
:102D50007A95E1F7EE7FF170E551FD4F40815181A9
:102D60002F7081E090E0A0E0B0E004C0880F991FD0
:102D7000AA1FBB1F2A95D2F720917C072F3F41F451
:102D8000842B952B9183808386E08093B8079CCF1A
:102D90008095909584239523F5CFE0917B07F0E013
:102DA000EE0FFF1FE551FD4F80917C0790917D074D
:102DB000982789279827E6CF80917A0790917B07FB
:102DC00098278927982720917C0730917D07322703
:102DD00023273227280F391F10E007E0C12CD12C00
:102DE0007601C3948217930779F2FC0143E0F695CC
:102DF000E7954A95E1F7EE7FF170E551FD4F482FD9
:102E00004F704601570104C0880C991CAA1CBB1CBA
:102E10004A95D2F7A401C081D181A02FB0E0A15979
:102E2000B84F1996AC91B0E0012E02C0B595A795A8
:102E30000A94E2F7A0FF0BC04C2B5D2B518340831B
:102E40001F5F183010F00F5F10E00196CBCF409558
:102E500050954C235D23F2CFE0917B0740917D0795
:102E600010927C0786E08093B807AFE6B7E0F0E009
:102E7000EE0FFF1FE551FD4F80E01296481709F451
:102E800023CF1E962C911E971F969C911F97322F31
:102E9000292F219331938F5FF0CFEFEFE20FE031D5
:102EA00008F080CEF0E08827E75AF84E8F4F0C9458
:102EB000082A8E158E15C315C315AA15BC15D21573
:102EC000D215D215D215D215D215D215D2158E150E
:102ED000C315DF91CF911F910F91FF90EF90DF907D
:102EE000CF90BF90AF909F908F900895CF92DF9238
:102EF000EF92FF926B017C010E94C706C60ED71E9F
:102F0000E81EF91E0E94C706C616D706E806F9068F
:102F100038F00E94DB110E94A2130E94A919F2CF7F
:102F2000FF90EF90DF90CF900895CF93DF93EC0167
:102F30000E94521284E090E090931E0380931D0340
:102F4000C093ED02D093EE0281E090E0A0E0B0E00B
:102F500004C0880F991FAA1FBB1FCA95D2F72091E2
:102F60002F0330913003822B932B90933003809367
:102F70002F0360E086E10E940D0560E087E10E947A
:102F80000D0560914103709142038DE00E946C0534
:102F900060E08AE00E940D056AEF70E080E090E05A
:102FA0000E94761760E088E00E940D056AEF70E0ED
:102FB00080E090E00E94761760E089E00E940D05B5
:102FC0006AEF70E080E090E00E94761760E082E0B7
:102FD0000E940D058091EB029091EC02069739F06A
:102FE0000E94A2130E94270F0E949709F3CF61E06D
:102FF00086E10E940D0561E087E10E940D0561E018
:1030000082E0DF91CF910C940D05CF92DF92EF9289
:10301000FF920E94C7061092EA020E94C706C09063
:10302000C807D090C907E090CA07F090CB0720915D
:103030002D0330912E03C616D706E806F90608F0D0
:1030400040C1C901806190932E0380932D030E949B
:10305000521220E030E040E85FE36091BB067091DF
:10306000BC068091BD069091BE060E9432281816BB
:103070008CF420E030E040E85FE3609167067091F7
:1030800068068091690690916A060E943228181697
:103090000CF455C120E030E040E050E460918E0235
:1030A00070918F0280919002909191020E949129DB
:1030B00087FD0EC180918C0290918D0201969093B4
:1030C0008D0280938C020B973CF182E492E00E9487
:1030D000A0136091BB067091BC068091BD069091D3
:1030E000BE060E94D2128BE492E00E94A01360916F
:1030F0008E0270918F0280919002909191020E94B5
:10310000D2128FE392E00E94811288E090E00E9448
:10311000951781E08093EA0220E030E046E653E430
:103120006091BF067091C0068091C1069091C20661
:103130000E94912918166CF48091EB029091EC0298
:10314000892B39F089E090E00E94951781E0809307
:10315000EA0220E030E046E653E460916B067091AD
:103160006C0680916D0690916E060E94912918164A
:103170006CF48091EB029091EC02892B39F08AE09B
:1031800090E00E94951781E08093EA0220E030E011
:10319000A9016091BF067091C0068091C10690910F
:1031A000C2060E94322887FF0DC08091EB029091E9
:1031B000EC02892B39F08DE090E00E94951781E0B8
:1031C0008093EA0220E030E0A90160916B067091E3
:1031D0006C0680916D0690916E060E94322887FFE2
:1031E0000DC08091EB029091EC02892B39F08DE0BB
:1031F00090E00E94951781E08093EA0220E030E0A1
:1032000040E850E460918E0270918F0280919002AC
:10321000909191020E94912918163CF48BE090E065
:103220000E94951781E08093EA0220E030E040E8B8
:1032300050E4609188027091890280918A02909195
:103240008B020E94912918163CF48CE090E00E94B9
:10325000951781E08093EA028CE30E94E404892BB5
:1032600039F481E08093EA028FE090E00E949517A4
:1032700020E030E0A9016091840270918502809184
:103280008602909187020E94322887FD0FC020E0BD
:1032900030E0A901609180027091810280918202E8
:1032A000909183020E94322887FF4EC081E0809374
:1032B000EA0281E190E0FF90EF90DF90CF900C94D4
:1032C0009517C9018F7E90932E0380932D03C1CE55
:1032D00020E030E040E050E4609188027091890283
:1032E00080918A0290918B020E94912987FD27C0CC
:1032F00080918C0290918D02019690938D02809323
:103300008C020B970CF408CF82E492E00E94A01389
:1033100060916706709168068091690690916A06CF
:103320000E94D2128BE492E00E94A0136091880266
:103330007091890280918A0290918B02E0CE109266
:103340008D0210928C02E8CEFF90EF90DF90CF902C
:1033500008958EE30E94E4040197E1F08EE090E08E
:103360009093EE028093ED028EE30E94E4040197B5
:1033700019F00E94A213F8CF60ED77E080E090E0B2
:103380000E9476171092EC021092EB021092EE025D
:103390001092ED02089585ED8093BC008091BF03EB
:1033A0009091C003A091C103B091C2030796A11DE3
:1033B000B11D23E0B695A795979587952A95D1F7E6
:1033C0002091BC0024FD03C01092BD0308954091DC
:1033D000BF035091C0036091C1037091C203452B9C
:1033E000462B472B69F30097A105B10541F025E372
:1033F0002A95F1F700000197A109B109E1CF809169
:10340000BE030C94DD07FF920F931F93CF93DF93BE
:10341000EC018B01FB01F0800E945F27F81621F080
:103420006F2DCE010E946727F801F1802196CE0111
:103430000E945F27F81621F06F2DCE010E946727AA
:10344000C801DF91CF911F910F91FF90089567EF11
:1034500072E088E090E00E94031A69EF72E08CE06D
:1034600090E00E94031A6BEF72E080E190E00E940E
:10347000031A6DEF72E084E190E00E94031A6FEF8F
:1034800072E088E190E00E94031A61E073E08CE151
:1034900090E00E94031A65E673E080E091E00E94EC
:1034A000031A67E673E082E091E00E94031A69E67E
:1034B00073E084E091E00E94031A6BE673E086E01B
:1034C00091E00E94031A6DE673E080E191E00E94B2
:1034D000031A6FE673E082E191E00E94031A61E74C
:1034E00073E084E191E00E94031A63E773E086E1F0
:1034F00091E00E94031A61E473E080E291E00E948F
:10350000031A63E473E084E291E00E94031A65EF1A
:1035100072E088E291E00E94031A65E373E08CE2B6
:1035200091E00E94031A65E473E080E391E00E9459
:10353000031A63EF72E084E391E00E94031A69E4E6
:1035400073E088E391E00E94031A6BE473E08CE37C
:1035500091E00E94031A6DE473E080E491E00E9420
:10356000031A63E673E084E491E00E94031A6FEEAD
:1035700072E088E491E00E94031A6DE373E08CE44A
:1035800091E00E94031A6FE473E088E592E00E94E4
:10359000031A61E573E08CE592E00E94031A63E58B
:1035A00073E080E692E00E94031A65E573E084E62A
:1035B00092E00E94031A67E573E088E692E00E94B9
:1035C000031A69E573E08CEB92E00E94031A6BE545
:1035D00073E080EC92E00E94031A6DE573E084ECE6
:1035E00092E00E94031A6FE573E088EC92E00E947B
:1035F000031A61E673E08CEC92E00E94031A65E125
:1036000073E088EE93E00E94031A6EE170E080E0C0
:1036100090E00C9476171F93CF93DF93EC010E94F8
:103620005F27182FCE0101960E945F2790E0982F08
:103630008827810F911DDF91CF911F91089588E018
:1036400090E00E940B1BBC0190E080E00E94DF280C
:1036500020E030E048EC52E40E9437286093FF06F7
:103660007093000780930107909302078CE090E02D
:103670000E940B1BBC0190E080E00E94DF2820E04C
:1036800030E048EC52E40E943728609303077093BF
:103690000407809305079093060780E190E00E945D
:1036A0000B1BBC0190E080E00E94DF2820E030E0AE
:1036B00048EC52E40E94372860930707709308078C
:1036C0008093090790930A0784E190E00E940B1B06
:1036D000BC0190E080E00E94DF2820E030E048EC70
:1036E00052E40E9437286093AB067093AC06809337
:1036F000AD069093AE0688E190E00E940B1BBC01E2
:1037000090E080E00E94DF2820E030E048EC52E4C6
:103710000E9437286093AF067093B0068093B1067D
:103720009093B2068CE190E00E940B1BBC0190E0EC
:1037300080E00E94DF2820E030E048EC52E40E9464
:1037400037286093B3067093B4068093B5069093C0
:10375000B6068091150390911603892BB9F488E27F
:1037600091E00E940B1BBC0190E080E00E94DF28EA
:1037700020E030E048EC52E40E9437286093B7061E
:103780007093B8068093B9069093BA0608954F9245
:103790005F926F927F928F929F92AF92BF92CF92E1
:1037A000DF92EF92FF920F931F93CF93DF93CDB7EA
:1037B000DEB768970FB6F894DEBF0FBECDBF6D8B36
:1037C0007E8B8F8B988F0E94C70669837A838B8349
:1037D0009C830E94C7066D837E838F839887809128
:1037E000FD06811104C083EC96E00E947E0C81E00E
:1037F0008093FD068091A906811104C08FE696E0B2
:103800000E947E0C81E08093A90680912D03909107
:103810002E038E7F90932E0380932D030E941F1BF7
:10382000C0900707D0900807E0900907F0900A07BA
:1038300000910307109104072091050730910607B6
:103840004091FF06509100076091010770910207B7
:1038500083EC96E00E94120DC090B306D090B4069F
:10386000E090B506F090B6060091AF061091B00654
:103870002091B1063091B2064091AB065091AC0652
:103880006091AD067091AE068FE696E00E94120D33
:10389000109296020E94DB110E94370C83E090E0A8
:1038A00090931E0380931D030E94C7062B013C01C9
:1038B00089809A80AB80BC802D893E894F89588D44
:1038C000820E931EA41EB51E2091BF063091C00625
:1038D0004091C1065091C2066091B7067091B8063A
:1038E0008091B9069091BA060E94C52720E030E089
:1038F00048EC51E40E9496296B017C0120E030E005
:10390000A9010E94912918160CF053C1C701B601F4
:103910000E94B028860E971EA81EB91E481459048E
:103920006A047B0408F04FC10E94C7064B015C018A
:1039300089819A81AB81BC8188169906AA06BB064B
:1039400020F489829A82AB82BC820E940518809101
:10395000EA02811138C10E94A21380919602882345
:1039600009F493C080910002882309F48EC060910D
:10397000F7027091F80290E080E00E94DF2820E0DA
:1039800030E048EC52E40E94372869877A878B87B9
:103990009C876093FF0670930007809301079093C4
:1039A00002076091FD027091FE0290E080E00E94AB
:1039B000DF2820E030E048EC52E40E9437286D8791
:1039C0007E878F87988B6093AB067093AC0680934D
:1039D000AD069093AE066091F9027091FA0290E004
:1039E00080E00E94DF2820E030E048EC52E40E94B2
:1039F00037282B013C014092030750920407609244
:103A00000507709206076091FF027091000390E035
:103A100080E00E94DF2820E030E048EC52E40E9481
:103A20003728698B7A8B8B8B9C8B6093AF06709356
:103A3000B0068093B1069093B206C0900707D0906D
:103A40000807E0900907F0900A0793018201498571
:103A50005A856B857C8583EC96E00E94120DC090A0
:103A6000B306D090B406E090B506F090B60609898A
:103A70001A892B893C894D855E856F8578898FE60B
:103A800096E00E94120D10929602D501C4012D817C
:103A90003E814F815885821B930BA40BB50B059774
:103AA000A105B10550F00E94DB110E94370C0E9465
:103AB000C7066D837E838F839887C090B706D090AA
:103AC000B806E090B906F090BA06209192023091C3
:103AD00093024091940250919502C701B6010E9451
:103AE0003228882309F469C031E030930002C09283
:103AF0009202D0929302E0929402F092950260902A
:103B00002D0370902E03C701B6010E94A928072E2D
:103B1000000C880B990B0E94E1284B015C0160911D
:103B2000F5027091F602072E000C880B990B0E948B
:103B3000E12820E030E048EC52E40E9437289B0165
:103B4000AC01C501B4010E9432288823C9F16894F0
:103B500060F870922E0360922D032091BF06309181
:103B6000C0064091C1065091C206C701B6010E942D
:103B7000C5276B017C0160914B0370914C0390E071
:103B800080E00E94DF2820E030E048EC52E40E9410
:103B900037289B01AC01C701B6010E94322887FF7C
:103BA00083CE6091490370914A038DE00E946C05B9
:103BB0007BCEC701B6019058ABCE109200029FCFCA
:103BC000E89460F8C6CF0E94271A68960FB6F8945A
:103BD000DEBF0FBECDBFDF91CF911F910F91FF9040
:103BE000EF90DF90CF90BF90AF909F908F907F909D
:103BF0006F905F904F900C941F1B4F925F926F924B
:103C00007F92AF92BF92CF92DF92EF92FF920F938B
:103C10001F93CF93DF937C010E94C706D0E0C0E0E2
:103C200086E0C82ED12C95E0A92EB12C0091EB0294
:103C30001091EC020E151F0509F05DC00E94DB110A
:103C40000E9405180E94A2136091F3027091F40281
:103C500090E080E00E94DF2820E030E048EC52E471
:103C60000E9437282B013C012091BF063091C006ED
:103C70004091C1065091C2060E94322887FD0EC0B5
:103C800020916B0630916C0640916D0650916E0646
:103C9000C301B2010E94322887FF23C08091ED0248
:103CA0009091EE020497E9F461E086E00E940D0530
:103CB00061E08BE00E940D05D0921E03C0921D03AF
:103CC00080E0209759F40330110541F4882331F046
:103CD000B092EE02A092ED02C1E0D0E00E94A919DC
:103CE000A5CF60E086E00E940D0560E08BE00E94B9
:103CF0000D0581E0E6CF0E94271ADF91CF911F9139
:103D00000F91FF90EF90DF90CF90BF90AF907F909A
:103D10006F905F904F900C941F1B1F920F920FB6E5
:103D20000F9211240BB60F922F933F934F935F93F3
:103D30006F937F938F939F93AF93BF93EF93FF9373
:103D400087EE93E00E94C903FF91EF91BF91AF917D
:103D50009F918F917F916F915F914F913F912F91A3
:103D60000F900BBE0F900FBE0F901F9018951F92D3
:103D70000F920FB60F9211240BB60F922F933F9311
:103D80004F935F936F937F938F939F93AF93BF9363
:103D9000EF93FF9387EE93E00E944B03FF91EF9127
:103DA000BF91AF919F918F917F916F915F914F9153
:103DB0003F912F910F900BBE0F900FBE0F901F9051
:103DC00018951F920F920FB60F9211240BB60F92F7
:103DD0002F933F934F935F936F937F938F939F9313
:103DE000AF93BF93EF93FF9384E894E00E94C903DD
:103DF000FF91EF91BF91AF919F918F917F916F91C3
:103E00005F914F913F912F910F900BBE0F900FBE7E
:103E10000F901F9018951F920F920FB60F921124BA
:103E20000BB60F922F933F934F935F936F937F93B4
:103E30008F939F93AF93BF93EF93FF9384E894E0A6
:103E40000E944B03FF91EF91BF91AF919F918F9192
:103E50007F916F915F914F913F912F910F900BBE8A
:103E60000F900FBE0F901F9018951F920F920FB6D4
:103E70000F9211240BB60F922F933F934F935F93A2
:103E80006F937F938F939F93AF93BF93EF93FF9322
:103E900081E295E00E94C903FF91EF91BF91AF913C
:103EA0009F918F917F916F915F914F913F912F9152
:103EB0000F900BBE0F900FBE0F901F9018951F9282
:103EC0000F920FB60F9211240BB60F922F933F93C0
:103ED0004F935F936F937F938F939F93AF93BF9312
:103EE000EF93FF9381E295E00E944B03FF91EF91E6
:103EF000BF91AF919F918F917F916F915F914F9102
:103F00003F912F910F900BBE0F900FBE0F901F90FF
:103F100018951F920F920FB60F9211240BB60F92A5
:103F20002F933F934F935F936F937F938F939F93C1
:103F3000AF93BF93EF93FF938EEB95E00E94C9037D
:103F4000FF91EF91BF91AF919F918F917F916F9171
:103F50005F914F913F912F910F900BBE0F900FBE2D
:103F60000F901F9018951F920F920FB60F92112469
:103F70000BB60F922F933F934F935F936F937F9363
:103F80008F939F93AF93BF93EF93FF938EEB95E047
:103F90000E944B03FF91EF91BF91AF919F918F9141
:103FA0007F916F915F914F913F912F910F900BBE39
:103FB0000F900FBE0F901F9018951F920F920FB683
:103FC0000F9211242F933F938F939F93AF93BF939F
:103FD0008091DE029091DF02A091E002B091E102B7
:103FE0003091DD0223E0230F2D3758F50196A11DF6
:103FF000B11D2093DD028093DE029093DF02A09337
:10400000E002B093E1028091E2029091E302A0917C
:10401000E402B091E5020196A11DB11D8093E20278
:104020009093E302A093E402B093E502BF91AF91B5
:104030009F918F913F912F910F900FBE0F901F90E6
:10404000189526E8230F0296A11DB11DD2CF1F920D
:104050000F920FB60F9211240F900FBE0F901F906A
:1040600018951F920F920FB60F9211240BB60F9254
:104070002F933F934F935F936F937F938F939F9370
:10408000AF93BF93EF93FF938091B900887F803601
:1040900009F44DC008F040C0883209F4A9C028F5E1
:1040A000803109F49DC0C8F4882309F4FBC088302E
:1040B00009F496C0FF91EF91BF91AF919F918F91BD
:1040C0007F916F915F914F913F912F910F900BBE18
:1040D0000F900FBE0F901F901895883109F488C07B
:1040E000803241F78093BB0314C0803409F49DC033
:1040F00040F48033B9F38833E9F68093BB0385EC51
:10410000B0C0803509F485C0883509F496C088347C
:1041100089F60E94CB19CECF883909F48CC038F5C6
:10412000883729F050F4883611F0803719F683E08B
:104130008093BD031092DA0257C0883809F47BC01F
:10414000803919F0803809F0B5CF8091DA028032D9
:1041500008F071C0E091DA0281E08E0F8093DA02FC
:104160008091BB00F0E0E654FD4F80833DC0803B72
:1041700039F0E0F4803A09F479C0883A09F09ACF2E
:1041800084E08093BD031092B9021092B802E091CE
:10419000E802F091E90219958091B80281110FC0EF
:1041A00081E08093B8021092980209C0803C09F423
:1041B000A6CF883C09F4A3CF883B09F07BCFE091E0
:1041C000B90281E08E0F8093B902F0E0E856FD4F0E
:1041D00080818093BB009091B9028091B80229C080
:1041E000809198038093BB0085EC8093BC0062CFE4
:1041F0009091BA038091B903981758F5E091BA03EA
:1042000081E08E0F8093BA03F0E0E756FC4F808187
:10421000E9CFE091BA0381E08E0F8093BA038091D9
:10422000BB00F0E0E756FC4F80839091BA03809189
:10423000B9039817C8F285E8D8CFE091BA0381E0B6
:104240008E0F8093BA038091BB00F0E0E756FC4FDD
:1042500080838091BC0381115CCF81E080939703C0
:1042600084EA8093BC001092BD0324CF85EC809338
:10427000BC001092BD038091DA02803230F4E091EC
:10428000DA02F0E0E654FD4F10826091DA0270E04D
:10429000E091E602F091E7028AEB92E01995109224
:1042A000DA0208CF1092BB0334CF2F923F924F9285
:1042B0005F926F927F928F929F92AF92BF92CF92B6
:1042C000DF92EF92FF920F931F93CF93DF93CDB7BF
:1042D000DEB73C0118012901FC01578F468F758F0D
:1042E000648F87EB96E091A380A312AE12AA13AA63
:1042F00014AA15AA80E090E0AFE7B3E486AB97ABD1
:10430000A0AFB1AF84E690E0A0E0B0E086A797A7A9
:10431000A0ABB1AB118E108E20E030E0A901C2013C
:10432000B8010E94322887FD42C020E030E0A90198
:10433000C701B6010E94322887FD39C020E030E075
:10434000A901C501B4010E94322887FD30C081E077
:1043500090E0F301938F828F83AF2082318242827B
:104360005382C482D582E682F78280869186A286B5
:10437000B38624863586468657862DEC3CEC4CEC7D
:104380005DE3C701B6010E949629F301608B718B32
:10439000828B938B2DEC3CEC4CEC5DE3C501B401BE
:1043A0000E943728F301648B758B868B978B0E9454
:1043B000C706F301C6A4D7A4E0A8F1A86C197D092B
:1043C0008E099F0962A373A384A395A3DF91CF9164
:1043D0001F910F91FF90EF90DF90CF90BF90AF9023
:1043E0009F908F907F906F905F904F903F902F9015
:1043F00008958F929F92AF92BF92CF92DF92EF92E9
:10440000FF920F931F93E7EEF3E01382128288EE80
:1044100093E0A0E0B0E084839583A683B78321E195
:1044200032E03183208345E351E05587448744E3FC
:1044300051E05787468740E351E0518B408B41E381
:1044400051E0538B428B42E351E0558B448B46E362
:1044500051E0578B468B118E128E138E148EE4E82A
:10446000F4E01382128284839583A683B783318319
:10447000208345ED50E05587448744ED50E0578751
:10448000468740ED50E0518B408B41ED50E0538B1F
:10449000428B42ED50E0558B448B46ED50E0578BFC
:1044A000468B118E128E138E148EE1E2F5E013828C
:1044B000128284839583A683B783318320834DEC56
:1044C00050E0558744874CEC50E05787468748ECCE
:1044D00050E0518B408B49EC50E0538B428B4AECBF
:1044E00050E0558B448B4EEC50E0578B468B118E31
:1044F000128E138E148EEEEBF5E0138212828483FB
:104500009583A683B7833183208325EC30E03587FC
:10451000248724EC30E03787268720EC30E0318B8D
:10452000208B21EC30E0338B228B22EC30E0358B7A
:10453000248B26EC30E0378B268B118E128E138E57
:10454000148EEBE5F6E01382128284839583A683B2
:10455000B78383E292E091838083EFE6F7E081E026
:10456000848383E0858382E0868388EE93E0909362
:10457000C3078093C207EBE5F7E080E094E2A4E78D
:10458000B9E484879587A687B7878DEB97E3A6E87C
:10459000B5E4808B918BA28BB38B80E090E0A0E0A0
:1045A000BFE380879187A287B38780935707909353
:1045B0005807A0935907B0935A07E1E3F7E002E3E5
:1045C00011E120E83BE300831183228333834FE72B
:1045D00055E06BE175EB44835583668377831586DD
:1045E000148688E4818798E09287138612A213A22A
:1045F00014A215A28087EBE0F7E0008311832283E9
:10460000338344835583668377831586148689E4D0
:1046100081879287138612A213A214A215A2808703
:104620008090070790900807A0900907B0900A07AC
:10463000C0900307D0900407E0900507F0900607AC
:104640000091FF06109100072091010730910207A9
:104650004BEB56E06FEB76E083EC96E00E94552141
:104660008090B3069090B406A090B506B090B606C0
:10467000C090AF06D090B006E090B106F090B206C0
:104680000091AB061091AC062091AD063091AE06BC
:1046900047E656E06BE676E08FE696E00E9455210D
:1046A0001F910F91FF90EF90DF90CF90BF90AF9050
:1046B0009F908F900C94C706789484B5826084BDD7
:1046C00084B5816084BD85B5826085BD85B5816016
:1046D00085BD80916E00816080936E001092810094
:1046E000809181008260809381008091810081604F
:1046F0008093810080918000816080938000809110
:10470000B10084608093B1008091B000816080939B
:10471000B00080919100826080939100809191001F
:1047200081608093910080919000816080939000DF
:104730008091A10082608093A1008091A10081609E
:104740008093A1008091A00081608093A00080915F
:1047500021018260809321018091210181608093F9
:1047600021018091200181608093200180917A0055
:10477000846080937A0080917A00826080937A00CE
:1047800080917A00816080937A0080917A008068BD
:1047900080937A001092C1000E947F0660E08EE351
:1047A0000E943B0561E086E10E943B0561E086E1F5
:1047B0000E940D0561E087E10E943B0560E08CE30B
:1047C0000E943B0561E087E10E940D0561E087E002
:1047D0000E943B0561E085E00E943B0570E060E0DF
:1047E00087E00E946C0570E060E085E00E946C0547
:1047F00040E052EC61E070E08EEB95E00E942A020E
:1048000080917407823009F472C2833009F472C255
:10481000813009F072C281E295E090937007809335
:104820006F0740E052EC61E070E080916F0790917B
:1048300070070E942A0280917507823078F080917B
:104840000401806680930401809105018F7B809331
:104850000501809105018F7D8093050180916F078F
:1048600090917007DC01ED91FC910284F385E02DBD
:10487000199597FFF3CF1092B8071092B9071092CD
:10488000C1071092C0071092BF071092BE07109286
:10489000BD071092BC0788E090E00E940B1B90932C
:1048A000F8028093F7028CE090E00E940B1B90933B
:1048B000FA028093F90280E190E00E940B1B909332
:1048C000FC028093FB0284E190E00E940B1B90931A
:1048D000FE028093FD0288E190E00E940B1B909302
:1048E00000038093FF028CE190E00E940B1B9093E9
:1048F00002038093010380E091E00E940B1B9093E0
:1049000066038093650382E091E00E940B1B909305
:1049100068038093670384E091E00E940B1B9093EF
:104920006A038093690386E091E00E940B1B9093D9
:104930006C0380936B0380E191E00E940B1B9093CA
:104940006E0380936D0382E191E00E940B1B9093B4
:10495000700380936F0384E191E00E940B1B90939E
:1049600072038093710386E191E00E940B1B909388
:1049700074038093730380E291E00E940B1B909379
:1049800042038093410384E291E00E940B1B9093C9
:1049900044038093430388E291E00E940B1B9093B1
:1049A000F6028093F5028CE291E00E940B1B90933B
:1049B00036038093350380E391E00E940B1B9093B4
:1049C00046038093450384E391E00E940B1B909380
:1049D000F4028093F30288E391E00E940B1B909312
:1049E0004A03809349038CE391E00E940B1B909350
:1049F0004C0380934B0380E491E00E940B1B909347
:104A00004E0380934D0384E491E00E940B1B90932E
:104A100064038093630388E491E00E940B1B9093EE
:104A2000F0028093EF028CE491E00E940B1B9093C4
:104A30003E0380933D0388E592E00E940B1B909318
:104A4000500380934F038CE592E00E940B1B9093E0
:104A500052038093510380E692E00E940B1B9093D7
:104A600054038093530384E692E00E940B1B9093BF
:104A700056038093550388E692E00E940B1B9093A7
:104A80005803809357038CEB92E00E940B1B90938A
:104A90005A038093590380EC92E00E940B1B909381
:104AA0005C0380935B0384EC92E00E940B1B909369
:104AB0005E0380935D0388EC92E00E940B1B909351
:104AC000600380935F038CEC92E00E940B1B909339
:104AD00062038093610388EE93E00E940B1B909326
:104AE0001603809315030E941F1B61E088E00E945B
:104AF0003B0561E089E00E943B0561E08AE00E949D
:104B00003B0561E08BE00E943B0561E086E00E948E
:104B10003B0561E08DE00E943B0560E08AE30E9476
:104B20003B0561E08CE10E943B0561E08CE10E9465
:104B30000D0561E082E00E943B0588E893E19093D7
:104B4000C3078093C2070E94A2131092EC02109236
:104B5000EB0284EF91E09093F2028093F10288ECF3
:104B600090E090931403809313038AEA95E0909366
:104B7000400380933F031092EE021092ED02812CCD
:104B8000912C58ECA52E54E4B52E80923F079092BC
:104B90004007A0924107B0924207C12CD12C68EC8B
:104BA000E62E62E4F62EC0924307D0924407E092CC
:104BB0004507F09246071092760310927503109203
:104BC000C4031092E6030E94BF078CE193E0909328
:104BD000E9028093E8028DE193E09093E7028093ED
:104BE000E60210923E0710923D07809219079092BC
:104BF0001A07A0921B07B0921C07C0921D07D09203
:104C00001E07E0921F07F09220070E94BF07109234
:104C10001807109217078091FD06811104C083ECDC
:104C200096E00E947E0C81E08093FD0646E656EAFF
:104C300063E573E483EC96E00E94B40165E070E004
:104C400083EC96E00E94C50C8091A906811104C0F6
:104C50008FE696E00E947E0C81E08093A90646E6EE
:104C600056EA63E573E48FE696E00E94B40165E0DE
:104C700070E08FE696E00E94C50C0E94A9190E9480
:104C8000DB110E94051861E082E00E940D0586E0BC
:104C9000E82EF12C93E0692E712C24E0C22ED12C49
:104CA000AA24A394B12C42E0842E912C0E94A9192D
:104CB0008091EB029091EC028130910509F590937F
:104CC000EE028093ED0261E089E00E940D056091A3
:104CD0004103709142038DE00E946C058091EB02CC
:104CE0009091EC020E94FD1D0E945804DFCF84E8E1
:104CF00094E093CD87EE93E090CD8EEB95E08DCD53
:104D00008230910549F49093EE028093ED0261E0C8
:104D100088E00E940D05E2CF8330910509F076C04E
:104D200061E08AE00E940D056091430370914403A5
:104D30008DE00E946C05609145037091460390E000
:104D400080E00E9476178091EF029091F002019727
:104D500021F461E08BE00E940D057092EE026092FA
:104D6000ED028091150390911603892B09F441C03F
:104D700090921E0380921D030FE413E0D0E0C0E088
:104D8000D0933C03C0933B03F801619171918F0173
:104D90007093F6026093F50290E080E00E94DF28B5
:104DA00020E030E048EC52E40E9437286093B706D8
:104DB0007093B8068093B9069093BA06D8011896F6
:104DC0006D917C9190E080E00E94C71B8091EA0287
:104DD000811104C02196C530D10591F610923C0393
:104DE00010923B030E945212D092EE02C092ED024A
:104DF00075CFB0921E03A0921D0360913503709190
:104E0000360390E080E00E94C71BECCF8430910510
:104E100029F4F092EC02E092EB0266CF8530910526
:104E200031F5F092EE02E092ED0260914103709153
:104E300042038DE00E946C0560E08AE00E940D054F
:104E4000609163037091640390E080E00E947617A4
:104E500060E088E00E940D05609163037091640337
:104E600090E080E00E94761760E089E052CF0097E2
:104E700061F460914103709142038DE00E946C05E2
:104E80001092EE021092ED0229CF069799F460E09D
:104E900089E00E940D0560E088E00E940D0560E059
:104EA0008AE00E940D051092EC021092EB020E9423
:104EB00052121ACF1092EC021092EB0215CFF99910
:104EC000FECF92BD81BDF89A992780B50895262F0F
:104ED000F999FECF1FBA92BD81BD20BD0FB6F894DF
:104EE000FA9AF99A0FBE01960895052E97FB1EF4C3
:104EF00000940E948C2757FD07D00E94942707FC3E
:104F000003D04EF40C948C27509540953095219504
:104F10003F4F4F4F5F4F08959095809570956195E5
:104F20007F4F8F4F9F4F0895A1E21A2EAA1BBB1BE4
:104F3000FD010DC0AA1FBB1FEE1FFF1FA217B30765
:104F4000E407F50720F0A21BB30BE40BF50B661F7B
:104F5000771F881F991F1A9469F76095709580953F
:104F600090959B01AC01BD01CF010895A29FB001B6
:104F7000B39FC001A39F700D811D1124911DB29F8D
:104F8000700D811D1124911D08955058BB27AA272B
:104F90000E94DD270C9457290E94492938F00E946D
:104FA000502920F039F49F3F19F426F40C94462937
:104FB0000EF4E095E7FB0C944029E92F0E94682944
:104FC00058F3BA17620773078407950720F079F43E
:104FD000A6F50C948A290EF4E0950B2EBA2FA02D7D
:104FE0000B01B90190010C01CA01A0011124FF2796
:104FF000591B99F0593F50F4503E68F11A16F04091
:10500000A22F232F342F4427585FF3CF469537958F
:105010002795A795F0405395C9F77EF41F16BA0B54
:10502000620B730B840BBAF09150A1F0FF0FBB1F02
:10503000661F771F881FC2F70EC0BA0F621F731F4B
:10504000841F48F4879577956795B795F7959E3FA8
:1050500008F0B0CF9395880F08F09927EE0F979539
:10506000879508950E941C2908F481E008950E9404
:105070004B280C9457290E94502958F00E94492926
:1050800040F029F45F3F29F00C94402951110C9411
:105090008B290C9446290E94682968F39923B1F35F
:1050A000552391F3951B550BBB27AA27621773074E
:1050B000840738F09F5F5F4F220F331F441FAA1FE2
:1050C000A9F335D00E2E3AF0E0E832D0915050409E
:1050D000E695001CCAF72BD0FE2F29D0660F771F4C
:1050E000881FBB1F261737074807AB07B0E809F032
:1050F000BB0B802DBF01FF2793585F4F3AF09E3FB7
:10510000510578F00C9440290C948B295F3FE4F30F
:10511000983ED4F3869577956795B795F7959F5FF9
:10512000C9F7880F911D9695879597F90895E1E045
:10513000660F771F881FBB1F621773078407BA07A4
:1051400020F0621B730B840BBA0BEE1F88F7E095FF
:1051500008950E94B0286894B1110C948B29089589
:105160000E94702988F09F5798F0B92F9927B7515E
:10517000B0F0E1F0660F771F881F991F1AF0BA95FB
:10518000C9F714C0B13091F00E948A29B1E00895A6
:105190000C948A29672F782F8827B85F39F0B93F98
:1051A000CCF3869577956795B395D9F73EF49095AE
:1051B0008095709561957F4F8F4F9F4F0895E8942C
:1051C00009C097FB3EF490958095709561957F4F4F
:1051D0008F4F9F4F9923A9F0F92F96E9BB279395FD
:1051E000F695879577956795B795F111F8CFFAF40D
:1051F000BB0F11F460FF1BC06F5F7F4F8F4F9F4F3E
:1052000016C0882311F096E911C0772321F09EE89B
:10521000872F762F05C0662371F096E8862F70E001
:1052200060E02AF09A95660F771F881FDAF7880FDB
:105230009695879597F90895990F0008550FAA0B31
:10524000E0E8FEEF16161706E807F907C0F0121699
:105250001306E407F50798F0621B730B840B950B9C
:1052600039F40A2661F0232B242B252B21F40895F1
:105270000A2609F4A140A6958FEF811D811D08958E
:1052800097F99F6780E870E060E008959FEF80ECF9
:10529000089500240A94161617061806090608959C
:1052A00000240A9412161306140605060895092E02
:1052B0000394000C11F4882352F0BB0F40F4BF2B71
:1052C00011F460FF04C06F5F7F4F8F4F9F4F0895B1
:1052D00057FD9058440F551F59F05F3F71F04795A7
:1052E000880F97FB991F61F09F3F79F0879508958C
:1052F000121613061406551FF2CF4695F1DF08C0AB
:10530000161617061806991FF1CF869571056105C7
:1053100008940895E894BB2766277727CB0197F96F
:1053200008950E941C2908F48FEF08950E94A9296E
:105330000C9457290E94492938F00E94502920F0E6
:10534000952311F00C9440290C94462911240C94B7
:105350008B290E94682970F3959FC1F3950F50E047
:10536000551F629FF001729FBB27F00DB11D639F17
:10537000AA27F00DB11DAA1F649F6627B00DA11DBD
:10538000661F829F2227B00DA11D621F739FB00D63
:10539000A11D621F839FA00D611D221F749F3327D3
:1053A000A00D611D231F849F600D211D822F762F6C
:1053B0006A2F11249F5750409AF0F1F088234AF049
:1053C000EE0FFF1FBB1F661F771F881F91505040B5
:1053D000A9F79E3F510580F00C9440290C948B292D
:1053E0005F3FE4F3983ED4F3869577956795B7953C
:1053F000F795E7959F5FC1F7FE2B880F911D969556
:10540000879597F908950E941C29880B990B089598
:10541000EE0FFF1F881F8BBF0790F691E02D1994A8
:105420000E94B627B7FF0895821B930B0895F89446
:02543000FFCFAC
:10543200010AD7A33D0102030405060F1000000074
:1054420000EB031E03640338049503730387030010
:10545200000000450918099409EE081109FE08EF39
:10546200086E616E00696E66006F7666002C000D34
:105472000A004F75747075743A20002C20437572BF
:0854820072656E743A2000000F
:00000001FF
