:100000000C9481010C94B2010C94B2010C94B201D5
:100010000C94B2010C94B2010C94B2010C94B20194
:100020000C94B2010C942F200C942F200C942F20B0
:100030000C94B2010C94B2010C94B2010C94B20174
:100040000C94B2010C94B2010C94B2010C94B20164
:100050000C94B2010C94B2010C94B2010C94E51F03
:100060000C94B2010C94BB1F0C94911F0C94B20120
:100070000C94B2010C94B2010C94B2010C94B20134
:100080000C94B2010C94B2010C94B2010C94B20124
:100090000C94671F0C943D1F0C94B2010C943920F2
:1000A0000C94B2010C94B2010C94B2010C94B20104
:1000B0000C94B2010C94B2010C94B2010C94B201F4
:1000C0000C94B2010C94B2010C94B2010C94131F65
:1000D0000C94E91E0C94B2010C94BF1E0C94951E56
:1000E0000C94B2010C9487030C94DC040C940C0661
:1000F0000C94DB040C948E150C94D2150C943406DD
:100100000C941D030C94BA040C94CD160C94031695
:100110000C94AA150C94C5050C94CF050C94FE08FC
:100120000C949D160C94A5040C94C3150C94D7053F
:100130000C94B1050C94B6040C94CE040C94EB030F
:100140000C9418090C94DE130C9469160C942A066E
:100150000C9438040C9411090C942C170C94730310
:100160000C94A9040C9494090C9445090C943E0633
:100170000C9495030C949B040C94BB050C94A10463
:100180000C94EE080C94E0040C9416060C94C40431
:100190000C9464030C94C8040C94F3050C94DC16C2
:1001A0000C94D6040C941C030C941E030C94DF05D1
:1001B0000C94EF080C94D2040C94AC050C94AD0490
:1001C0000C94BC150C94FD050C94A4050C94E90545
:1001D0000C9420060C9401220C94B0040C94C004DE
:1001E00000002100240027002A002D0030003300E9
:1001F00001010000040107010A010000220025009E
:1002000028002B002E0031003400020100000501FF
:1002100008010B01000020002300260029002C000B
:100220002F0032000001000003010601090105054D
:100230000505070508080808020202020A0A08085C
:10024000040404040101010101010101030303038A
:1002500003030303040707070C0C0C0C0C0C0C0C19
:100260000202020206060606060606060B0B0B0B2A
:100270000B0B0B0B0102102020080810204010204F
:10028000408002010201080402010102040810205A
:100290004080804020100804020180040201804058
:1002A00020100804020108040201010204081020C1
:1002B0004080010204081020408000000A0B02095F
:1002C0000C0D0E08070304010000000000000000F0
:1002D000000000000000000000000000000000001E
:1002E00000000000000012111000000000000000DB
:1002F00000000000000000000000000000000000FE
:10030000012211241FBECFEFD1E2DEBFCDBF00E03E
:100310000CBF12E0A0E0B2E0E2E4F4E500E00BBFC5
:1003200002C007900D92A835B107D9F727E0A8E5DC
:10033000B2E001C01D92A13DB207E1F711E0C1E8B2
:10034000D1E000E006C021970109802FFE010E9444
:10035000102AC038D10780E00807A9F70E9464235B
:100360000C941F2A0C9400008F929F92AF92BF9220
:10037000CF92DF92EF92FF920F931F93CF93DF9371
:10038000EC016A017B0120E030E0A901CB01B6015C
:100390000E943A2818160CF050C01AAA1BAA1CAAD0
:1003A0001DAACEAADFAAE8AEF9AE8AAD882309F469
:1003B00044C00E8D1F8DF80180809180A280B38093
:1003C000A5019401C701B6010E943A2887FF1AC00F
:1003D000F801C082D182E282F3828EA09FA0A8A4FD
:1003E000B9A4CEA8DFA8E8ACF9ACA7019601C50175
:1003F000B4010E9499291816A4F4CEA2DFA2E8A69F
:10040000F9A61BC020E030E0A901C501B4010E949B
:100410003A2887FFE2CFF8011082118212821382FC
:10042000DCCFCAA8DBA8ECA8FDA8A7019601C501EE
:10043000B4010E943A2887FDE0CFDF91CF911F9150
:100440000F91FF90EF90DF90CF90BF90AF909F9073
:100450008F900895CF92DF92EF92FF92CF93DF9328
:10046000EC016A017B01E889F98982E08083C1148B
:1004700081EED806E104F104A1F060E079E08DE3BB
:1004800090E0A70196010E949C2721503109410963
:1004900051095695479537952795211580E13807DD
:1004A00098F0E889F989108260E874E88EE190E0BC
:1004B000A70196010E949C27215031094109510949
:1004C0005695479537952795EC85FD853083EE85C4
:1004D000FF852083188EEC89FD8986E08083EA8978
:1004E000FB89808180618083EA89FB8980818860C3
:1004F0008083EA89FB89808180688083EA89FB891F
:1005000080818F7D8083DF91CF91FF90EF90DF908E
:10051000CF900895ECE7F7E090E02FEF3FEF9817CA
:1005200091F04191242748E0B90161707727369511
:100530002795672B21F051E0252750EA35274150B8
:1005400099F79F5FECCF922F832F08954F925F9280
:100550006F927F928F929F92AF92BF92EF92FF9293
:100560000F931F93CF93DF932091EF023091F0020E
:10057000232BA1F4FB011082118212821382DF91DE
:10058000CF911F910F91FF90EF90BF90AF909F90F0
:100590008F907F906F905F904F900895EB018C014A
:1005A00020E030E0A901688179818A819B810E94E5
:1005B0003A28811109C0F80180819181A281B3811B
:1005C00088839983AA83BB838BE0E82EF12C8090EB
:1005D000010290900202A0900302B0900402A501D3
:1005E000940160E070E080E89FE30E94CD272881BD
:1005F00039814A815B810E949E292B013C01F801CF
:100600002081318142815381C501B4010E949E291C
:100610009B01AC01C301B2010E94CE27688379839C
:100620008A839B83F1E0EF1AF10889F6F801608371
:10063000718382839383A3CF08950895AF92BF926D
:10064000CF92DF92EF92FF920F931F93CF93DF939E
:100650006C017B018B01040F151FEB015E01AE18CD
:10066000BF08C017D10759F06991D601ED91FC91EF
:100670000190F081E02DC6011995892B79F7C5010C
:10068000DF91CF911F910F91FF90EF90DF90CF906E
:10069000BF90AF900895FC01A089B1898C91A68983
:1006A000B78982FD0FC09C91818D8F5F8F73228DE2
:1006B000821749F0A18DAE0FBF2FB11D5D969C939F
:1006C000818F08958C910895FC01538D448D252FC1
:1006D00030E0842F90E0821B930B541710F0CF96DC
:1006E000089501970895FC01918D828D981761F00E
:1006F000A28DAE0FBF2FB11D5D968C91928D9F5F25
:100700009F73928F90E008958FEF9FEF0895FC0103
:10071000918D828D981731F0828DE80FF11D858DB6
:1007200090E008958FEF9FEF0895FC01918D228D49
:10073000892F90E0805C9F4F821B91098F739927CE
:1007400008958BEE93E00E94950321E0892B09F434
:1007500020E0822F089588E894E00E94950321E02C
:10076000892B09F420E0822F089585E295E00E940C
:10077000950321E0892B09F420E0822F089582EC73
:1007800095E00E94950321E0892B09F420E0822F57
:100790000895FC01A48DA80FB92FB11DA35ABF4F16
:1007A0002C91848D90E001968F739927848FA68970
:1007B000B7892C93A089B1898C91837080648C93C4
:1007C000938D848D981306C00288F389E02D808173
:1007D0008F7D80830895EF92FF920F931F93CF93A5
:1007E000DF93EC0181E0888F9B8D8C8D98131AC06C
:1007F000E889F989808185FF15C09FB7F894EE8953
:10080000FF896083E889F9898081837080648083AF
:100810009FBF81E090E0DF91CF911F910F91FF90FA
:10082000EF900895F62E0B8D10E00F5F1F4F0F73A2
:100830001127E02E8C8D8E110CC00FB607FCFACF5D
:10084000E889F989808185FFF5CFCE010E94C9032F
:10085000F1CFEB8DEC0FFD2FF11DE35AFF4FF0822E
:100860009FB7F8940B8FEA89FB8980818062CFCF94
:10087000CF93DF93EC01888D8823B9F0AA89BB89D7
:10088000E889F9898C9185FD03C0808186FD0DC0C2
:100890000FB607FCF7CF8C9185FFF2CF808185FFE3
:1008A000EDCFCE010E94C903E9CFDF91CF9108952A
:1008B00080E090E0892B29F00E94BF0381110E9403
:1008C000000080E090E0892B29F00E94B50381119F
:1008D0000E94000080E090E0892B29F00E94AB0389
:1008E00081110E94000080E090E0892B29F00E9495
:1008F000A10381110C94000008958150823108F009
:100900005AC0E82FF0E08827E757FB4F8F4F0C9431
:10091000102AA904AD049B04A104A504DB04B004BF
:10092000B604BA04C004C404C804CE04D204DB0470
:10093000D604DC04E004809180008F7780938000EF
:100940000895809180008F7DF9CF80918000877F0E
:10095000F5CF84B58F7784BD089584B58F7DFBCFA7
:100960008091B0008F778093B00008958091B0009F
:100970008F7DF9CF809190008F77809390000895BC
:10098000809190008F7DF9CF80919000877FF5CF87
:100990008091A0008F778093A00008958091A0009F
:1009A0008F7DF9CF8091A000877FF5CF80912001C6
:1009B0008F77809320010895809120018F7DF9CF5A
:1009C00080912001877FF5CFCF93DF93282F30E0F0
:1009D000F901E654FD4F8491F901EC58FD4FD49193
:1009E000F901E25DFD4FC491CC23A1F081110E9479
:1009F0007D04EC2FF0E0EE0FFF1FEC5EFD4FA591A4
:100A0000B491EC91ED2381E090E009F480E0DF9176
:100A1000CF91089580E090E0FACF1F93CF93DF93BA
:100A2000282F30E0F901E654FD4F8491F901EC588C
:100A3000FD4FD491F901E25DFD4FC491CC23A9F0A3
:100A4000162F81110E947D04EC2FF0E0EE0FFF1FA6
:100A5000E650FE4FA591B4918FB7F894EC91111127
:100A600008C0D095DE23DC938FBFDF91CF911F911B
:100A70000895DE2BF8CFCF93DF9390E0FC01EC5884
:100A8000FD4F2491825D9D4FFC0184918823D1F01C
:100A900090E0880F991FFC01E052FE4FA591B491A0
:100AA000FC01E650FE4FC591D49161110EC09FB775
:100AB000F8948C91E22FE0958E238C932881E22389
:100AC000E8839FBFDF91CF9108958FB7F894EC91A1
:100AD000E22BEC938FBFF6CF1F93CF93DF93182FAA
:100AE000EB0161E00E943B05209739F460E0812F23
:100AF000DF91CF911F910C940D05CF3FD10511F4DB
:100B000061E0F5CFE12FF0E0E654FD4FE491E150D4
:100B1000E23108F0B3C0F0E08827EE56FA4F8F4F6D
:100B20000C94102AA405AC05B105BB05C5053E060D
:100B3000CF05D705DF05E905F305FD050C0616060B
:100B40003E0620062A06340684B5806884BDC7BDEB
:100B5000DF91CF911F91089584B5806284BDC8BD97
:100B6000F7CF80918000806880938000D0938900C7
:100B7000C0938800EDCF80918000806280938000D8
:100B8000D0938B00C0938A00E3CF8091800088606F
:100B900080938000D0938D00C0938C00D9CF80913A
:100BA000B00080688093B000C093B300D1CF809133
:100BB000B00080628093B000C093B400C9CF809130
:100BC0009000806880939000D0939900C093980023
:100BD000BFCF80919000806280939000D0939B0063
:100BE000C0939A00B5CF8091900088608093900068
:100BF000D0939D00C0939C00ABCF8091A0008068F3
:100C00008093A0008091A0008F7B8093A000D09360
:100C1000A900C093A8009CCF8091A000806280931F
:100C2000A000D093AB00C093AA0092CF8091A00007
:100C300088608093A000D093AD00C093AC0088CFB3
:100C400080912001806880932001D0932901C09376
:100C500028017ECF80912001806280932001D09373
:100C60002B01C0932A0174CF80912001886080936A
:100C70002001D0932D01C0932C016ACFC038D1053B
:100C80000CF03ECF33CF90917B00977F90937B0009
:100C90008653806480937C0080917A008064809386
:100CA0007A0080917A0086FDFCCF80917800909147
:100CB000790008953FB7F8948091E6029091E70299
:100CC000A091E802B091E90226B5A89B05C02F3F8C
:100CD00019F00196A11DB11D3FBFBA2FA92F982F62
:100CE0008827BC01CD01620F711D811D911D42E05D
:100CF000660F771F881F991F4A95D1F70895CF93E4
:100D0000DF930E945A06CFE5D7E00E94E7282C85A2
:100D10003D854E855F850E943F28688379838A835D
:100D20009B83DF91CF9108958F929F92AF92BF9254
:100D3000CF92DF92EF92FF926B017C010E945A06E4
:100D40004B015C01C114D104E104F104B9F00E942B
:100D50005A06681979098A099B09683E734081051A
:100D6000910580F321E0C21AD108E108F10888EE6C
:100D7000880E83E0981EA11CB11CE4CFFF90EF9079
:100D8000DF90CF90BF90AF909F908F9008952FB736
:100D9000F8946091E2027091E3028091E4029091F4
:100DA000E5022FBF0895CF93C091BC078C2F0E94FE
:100DB0008A02EC2FF0E0ED58F84F9187E1E0EC0F5C
:100DC000F0E0ED58F84F8187CE5FC093BC0790915B
:100DD0007907809178079230C0F0823009F474C0AE
:100DE000833009F477C0813009F07AC09091C8004F
:100DF00090649093C80090910501906490930501D0
:100E0000909105019062909305014091BC0750E0DC
:100E1000843008F06BC08091730790917407DC01F7
:100E2000ED91FC910280F381E02D6CE777E019955C
:100E300090917907809178079230B8F0823009F468
:100E40005AC0833009F45CC0813009F05EC09091D3
:100E5000C80096FFFCCF909105019F7B9093050100
:100E6000909105019F7D90930501843008F052C058
:100E70008091730790917407DC01ED91FC910284DD
:100E8000F385E02D199597FFF3CF1092BC070E94D0
:100E9000C7062091C6073091C707620F731F811DD7
:100EA000911D6093CC077093CD078093CE079093EC
:100EB000CF078091C2079091C30701969093C30713
:100EC0008093C207CF9108959091D0009064909341
:100ED000D00091CF909130019064909330018BCFEE
:100EE0009091C00090649093C00085CF8091750769
:100EF0009091760794CF9091D00096FFFCCFABCF26
:100F00009091300196FFFCCFA6CF9091C00096FF44
:100F1000FCCFA1CF8091750790917607DC01ED9110
:100F2000FC910284F385E02D199597FFF3CFADCFA7
:100F30002091BC02260F3327331F21323105ECF4F8
:100F40002091C103FC0190E080E0243069F082E050
:100F50000895A091BC022191AC0144565D4FA40FAD
:100F6000B52FB11D2C930196861798F38091BC0282
:100F7000680F6093BC0280E0089581E008951092AC
:100F8000C10381E08093C00310929B0361E084E180
:100F90000E940D0561E085E10E940D05E9EBF0E09E
:100FA00080818E7F808380818D7F808388E48093A1
:100FB000B80085E48093BC000895CF93DF9391E05F
:100FC00090939B028823B9F0C091B800D091BA00E9
:100FD0008091BC008A7B8093BC0060E084E10E9429
:100FE0000D0560E085E10E940D050E94BF07D093CA
:100FF000BA00C093B800DF91CF9108958F929F926D
:10100000AF92BF92CF92DF92EF92FF920F931F9316
:10101000CF93DF93D091EA03D13208F0D7C0182FD5
:10102000C091E9030E945A066B017C018091C103C3
:1010300081116BC082E08093C1031093C0038FEFD6
:101040008093BF031092BE03D093BD03A9ECB3E01D
:10105000EDE9F3E080E0D81391C010929C038091F9
:101060009C03CC0FC82BC0939C0380919B038130C1
:1010700009F088C010929B030E945A066B017C0104
:1010800080919C038093BB008091C3039091C40323
:10109000A091C503B091C603892B8A2B8B2BA1F09D
:1010A0000E945A060091C3031091C4032091C50306
:1010B0003091C6036C197D098E099F090617170721
:1010C0002807390708F442C08091BC0083FDD8CFBF
:1010D00085EC8093BC000E945A066B017C018091D4
:1010E000C103823009F450C08091BF038F3F09F4DF
:1010F0006FC08091BF03803209F46CC08091BF0340
:10110000803309F469C084E026C08091C3039091C4
:10111000C403A091C503B091C603892B8A2B8B2BE6
:1011200009F484CF0E945A068090C3039090C403B0
:10113000A090C503B090C6036C197D098E099F0964
:1011400086169706A806B90608F070CF8091C203EC
:101150000E94DD0785E01092C8031092EA03109206
:10116000C703DF91CF911F910F91FF90EF90DF9018
:10117000CF90BF90AF909F908F9008959D91919345
:101180008F5F69CF85EEA5CF8091C3039091C40393
:10119000A091C503B091C603892B8A2B8B2B09F430
:1011A0009ECF0E945A060091C3031091C403209160
:1011B000C5033091C6036C197D098E099F09061776
:1011C00017072807390708F08ACFC0CF81E0C3CFBF
:1011D00080E0C1CF82E0BFCF83E0BDCF0895E09132
:1011E0007A0380917903E81730F4F0E0E558FC4F7A
:1011F000808190E008958FEF9FEF089590917A039A
:10120000809179032FEF3FEF981748F4E92FF0E032
:10121000E558FC4F208130E09F5F90937A03C9012D
:1012200008958091790390917A03891B990B089511
:10123000CF92DF92EF92FF920F931F93CF93DF93A2
:101240007C01CB018A012091C703222389F0EB01A5
:101250006B01C40ED51ECC15DD0569F06991D7016F
:10126000ED91FC910190F081E02DC7011995F3CF2C
:10127000642F0E949807C801DF91CF911F910F91B1
:10128000FF90EF90DF90CF900895CF93DF931F9260
:10129000CDB7DEB769832091C7032223F9F02091EF
:1012A000EA03203258F021E030E0FC01338322834E
:1012B00090E080E00F90DF91CF9108958091C80376
:1012C000E82FF0E0E753FC4F998190838F5F809384
:1012D000C8038093EA0381E090E0ECCF61E0CE01A7
:1012E00001960E949807F7CFCF93DF93EB0191E02F
:1012F0009093C7038093E9031092C8031092EA0306
:1013000061E08FE596E00E9445096D2F8FE596E03C
:101310000E9445096C2F8FE596E00E94450981E007
:10132000DF91CF910C94FE0790E080E008952F921A
:101330003F924F925F926F927F928F929F92AF9265
:10134000BF92CF92DF92EF92FF920F931F93CF93B2
:10135000DF93CDB7DEB72E970FB6F894DEBF0FBE82
:10136000CDBF20E030E04FE753E46091BF067091BD
:10137000C0068091C1069091C2060E943F286B0171
:101380007C01209184023091850240918602509127
:1013900087020E949E2920E030E040E05FE30E9447
:1013A0009E2969877A878B879C8780905B079090BE
:1013B0005C07A0905D07B0905E072091800230919D
:1013C00081024091820250918302C701B6010E94BE
:1013D0009E2920E030E040E05FE30E949E292B013F
:1013E0003C01C0907C02D0907D02E0907E02F090A3
:1013F0007F02009178021091790280917A028E87A3
:1014000090917B029D8720907402309075028091AC
:1014100076028F83909177029887809170028B83F8
:10142000909171029C83809172028D8390917302DE
:101430009E838BE090E09A8389839601A701C50182
:10144000B4010E949E2929853A854B855C850E94BE
:10145000CE276B017C0198014E855D85C501B401E5
:101460000E949E29A30192010E94CE278B018E87A4
:101470009D879601A701B1018F8198850E943A2826
:1014800087FF03C01601EF82F88698014E855D85BF
:101490006B817C818D819E810E943A2887FF06C0E6
:1014A0000B831C839E859D838D858E8389819A8184
:1014B00001979A838983892B09F0BFCFC101AF813E
:1014C000B8858093740290937502A0937602B093CE
:1014D00077028B819C81AD81BE8180937002909355
:1014E0007102A0937202B0937302C601D701809378
:1014F0007C0290937D02A0937E02B0937F02C8018C
:10150000AE85BD858093780290937902A0937A028C
:10151000B0937B02C601D70180939202909393020D
:10152000A0939402B0939502C801AE85BD858093C7
:101530008C0290938D02A0938E02B0938F0220E0D4
:1015400030E048EC52E4B601C7010E949E290E9497
:10155000B828709328036093270320E030E048EC1C
:1015600052E4B8018E859D850E949E290E94B8286C
:1015700070932A03609329032E960FB6F894DEBF6A
:101580000FBECDBFDF91CF911F910F91FF90EF90D4
:10159000DF90CF90BF90AF909F908F907F906F9093
:1015A0005F904F903F902F9008952F923F924F92CF
:1015B0005F926F927F928F929F92AF92BF92CF92E3
:1015C000DF92EF92FF920F931F93CF93DF93CDB7EC
:1015D000DEB72F970FB6F894DEBF0FBECDBF9F8743
:1015E0008E870E94C7066D837E838F839887EE85E2
:1015F000FF8582A193A1A4A1B5A14D815E816F81D8
:101600007885481B590B6A0B7B0B86A597A5A0A96B
:10161000B1A9481759076A077B0708F426C1048C4B
:10162000F58DE02D80819181A281B38189839A8398
:10163000AB83BC83AE85BF859096ED91FC912981EB
:101640003A814B815C8160817181828193810E94AA
:10165000CD274B015C01EE85FF8522A533A544A56E
:1016600055A569817A818B819C810E94CD276B0170
:101670007C01AE85BF8550962D913D914D915C9139
:101680005397C501B4010E949E29EE85FF8526A1CE
:1016900037A140A551A50E94CE272B013C01AE8564
:1016A000BF8596964D925D926D927C929997DB964E
:1016B000BC91B987B11118C0EE85FF8524853585A9
:1016C00046855785C701B6010E949E299B01AC0142
:1016D000C301B2010E94CD27AE85BF8596966D935A
:1016E0007D938D939C939997EE85FF8546A057A097
:1016F00060A471A416A907A930AC21AC212F302F0A
:10170000432D522DC301B2010E94992918160CF0E5
:101710008FC0812F902FA32DB22DEE85FF8586A33C
:1017200097A3A0A7B1A7F985FF2309F49AC0AE85B6
:10173000BF851C962D913D914D915C911F97C501E0
:10174000B4010E949E294B015C01EE85FF8524892E
:10175000358946895789C701B6010E949E299B0198
:10176000AC01AE85BF8596966D917D918D919C91D2
:1017700099970E94CD27A50194010E94CE276B0165
:101780007C019B01AC01612F702F832D922D0E9453
:101790003A2887FD14C0EE85FF8512A903A934A855
:1017A00025A8212F302F432D522DB601C7010E94AD
:1017B0003A2887FD04C01C2D0D2D3E2C2F2CAE8504
:1017C000BF855E96ED91FC91812F902FA32DB22DB8
:1017D00080839183A283B38389819A81AB81BC8109
:1017E000EE85FF8582A793A7A4A7B5A78D819E81CB
:1017F000AF81B88582A393A3A4A3B5A381E02F965C
:101800000FB6F894DEBF0FBECDBFDF91CF911F9111
:101810000F91FF90EF90DF90CF90BF90AF909F908F
:101820008F907F906F905F904F903F902F90089592
:10183000AE85BF85D2968D919D910D90BC91A02DC6
:101840008A879B87AC87BD879C01AD01C301B2012C
:101850000E943A2887FF67CF8A859B85AC85BD8526
:101860005CCF812C912C540170CF80E0C8CF809147
:101870000107882321F087EC96E00E94D50A809129
:10188000AD06882321F083E796E00E94D50A609197
:10189000BF067091C0068091C1069091C2060E9459
:1018A000B12887E00E946C0560916B0670916C0610
:1018B00080916D0690916E060E94B12885E00E948D
:1018C0006C056091BF067091C0068091C106909131
:1018D000C2060E94B82870932C0360932B0360917A
:1018E0006B0670916C0680916D0690916E060E9459
:1018F000B82870932E0360932D0308958F929F92C2
:10190000AF92BF92CF92DF92EF92FF92CF93DF938D
:10191000EC01EE8DFF8DC080D180E280F380CEA2FD
:10192000DFA2E8A6F9A6EC8DFD8D80819181A281D0
:10193000B3818AA79BA7ACA7BDA78EA89FA8A8AC78
:10194000B9ACA5019401C701B6010E9499291816E6
:101950002CF48EA29FA2A8A6B9A60CC08AA89BA808
:10196000ACA8BDA8A5019401C701B6010E943A2800
:1019700087FDEFCFDF91CF91FF90EF90DF90CF9079
:10198000BF90AF909F908F9008958F929F92AF924B
:10199000BF92CF92DF92EF92FF92CF93DF93161612
:1019A0001706ACF5EC016B01770FEE08FF08C701D5
:1019B000B6010E94E9284B015C016EA57FA588A9AC
:1019C00099A90E94E7289B01AC01C501B4010E94BE
:1019D0003F284B015C01AC019B01688979898A89A8
:1019E0009B890E949E29688B798B8A8B9B8BA50192
:1019F00094016C897D898E899F890E943F286C8B18
:101A00007D8B8E8B9F8BCEA6DFA6E8AAF9AADF91ED
:101A1000CF91FF90EF90DF90CF90BF90AF909F90CD
:101A20008F9008954F925F926F927F928F929F92C4
:101A3000AF92BF92CF92DF92EF92FF920F931F93DC
:101A4000CF93DF9300D000D0CDB7DEB79E838D83D8
:101A50002A013B014801590120E030E0A901CB01F6
:101A6000B2010E943A2887FD89C020E030E0A90138
:101A7000C501B8010E943A2887FD80C020E030E00F
:101A8000A901C701B6010E943A2887FD77C081E00D
:101A9000ED81FE81228D338D2130310509F080E00A
:101AA000ED81FE8183AF40825182628273828482A3
:101AB0009582A682B782C086D186E286F38666A525
:101AC00077A580A991A90E94E72820E030E04AE7A5
:101AD00054E40E943F2869837A838B839C83ED8141
:101AE000FE8144865586668677869B01AC01C501DA
:101AF000B4010E949E294B015C01ED81FE81808A28
:101B0000918AA28AB38A29813A814B815C81C7017B
:101B1000B6010E943F286B017C01ED81FE81C48AE1
:101B2000D58AE68AF78A808D918D019739F5A301D0
:101B3000920160E070E0CB010E94CD27ED81FE8133
:101B40006487758786879787A501940160E070E0B8
:101B5000CB010E94CD27ED81FE81608B718B828B42
:101B6000938BA701960160E070E0CB010E94CD2726
:101B7000ED81FE81648B758B868B978B26960FB6D5
:101B8000F894DEBF0FBECDBFDF91CF911F910F91B3
:101B9000FF90EF90DF90CF90BF90AF909F908F908D
:101BA0007F906F905F904F900895CF92DF92EF9269
:101BB000FF920F931F93CF93C82F81E08093C703A9
:101BC000C093E9031092C8031092EA0360E08FE526
:101BD00096E00E94450981E00E94FE070E945A0695
:101BE0006B017C018091C103811165C081E080930C
:101BF000C1038093C0039FEF9093BF031092BE0375
:101C00008093BD0380939C0380919C03CC0FC82BD1
:101C1000C0939C0380919B03813009F08CC010928B
:101C20009B030E945A066B017C0180919C03809368
:101C3000BB008091C3039091C403A091C503B091F0
:101C4000C603892B8A2B8B2BA1F00E945A06009188
:101C5000C3031091C4032091C5033091C6036C19CE
:101C60007D098E099F09061717072807390708F409
:101C700043C08091BC0083FDD8CF85EC8093BC002D
:101C80000E945A066B017C018091C103813009F4E6
:101C900054C08091BE03823008F071C08091BE03B1
:101CA000ADE9B3E0EBE7F3E090E0981751F12D9147
:101CB00021939F5FFACF8091C3039091C403A091B9
:101CC000C503B091C603892B8A2B8B2B09F48ACFCD
:101CD0000E945A060091C3031091C4032091C503CA
:101CE0003091C6036C197D098E099F0906171707E5
:101CF0002807390708F076CF8091C2030E94DD07DC
:101D000080E010927A03809379038FE596E00E9439
:101D1000FE08C82F8FE596E00E94FE0820E03C2FC9
:101D2000A901482BCA01CF911F910F91FF90EF900D
:101D3000DF90CF90089585EEA1CF8091C30390915D
:101D4000C403A091C503B091C603892B8A2B8B2BAA
:101D500009F49ACF0E945A060091C3031091C4035C
:101D60002091C5033091C6036C197D098E099F0926
:101D7000061717072807390708F086CFBDCF82E07E
:101D80008FCFCF92DF92EF92FF92CF93DF93EC0150
:101D90006C857D85636E716889850E9474098BEB03
:101DA00092E10197F1F789850E94D50D2B85022ECE
:101DB00002C0969587950A94E2F7222329F08115AF
:101DC00028E0920708F0906F9F8B8E8B6C857D8545
:101DD000636E716B89850E9474098BEB92E10197A8
:101DE000F1F789850E94D50D2B85022E02C09695AC
:101DF00087950A94E2F7222329F0811528E09207BB
:101E000008F0906F998F888FBC01990F880B990B00
:101E10000E94E9286B017C016E897F89072E000CE6
:101E2000880B990B0E94E9289B01AC01C701B60100
:101E30000E943F282E853F85488959890E949E2906
:101E4000DF91CF91FF90EF90DF90CF9008954F9268
:101E50005F926F927F928F929F92AF92BF92CF923A
:101E6000DF92EF92FF92CF93DF93CDB7DEB7649707
:101E70000FB6F894DEBF0FBECDBF8091F1029091F6
:101E8000F202039709F06BC28AE097EDA3E2BCE38C
:101E90008093670790936807A0936907B0936A07D8
:101EA0000E945A060E94E72820916B0730916C0728
:101EB00040916D0750916E070E943F286B017C0195
:101EC000C0926307D0926407E0926507F0926607BC
:101ED00080905F0790906007A0906107B0906207C4
:101EE000AC019B01C501B4010E9499291816DCF4CC
:101EF000A501940160916F0770917007809171073F
:101F0000909172070E94CD279B01AC0160E070E0C8
:101F1000CB010E94CD2760935F0770936007809389
:101F200061079093620720915F07309160074091AD
:101F3000610750916207C701B6010E94CD27209129
:101F40006707309168074091690750916A070E94BE
:101F5000992918160CF01AC20E945A066B017C01CE
:101F600061E087E00E940D0561E085E00E940D05BB
:101F70000E945A066C197D098E099F0960397140CB
:101F800081059105A8F389E30E9443062AEE31E01A
:101F9000DC010E94182ACC24CA9423E0D22EE12C22
:101FA000F12CA70196010E947D27CA01B9010E9468
:101FB000E9289B01AC010E94CE2720E030E048ECEC
:101FC00052E40E943F282B013C014092840250922F
:101FD0008502609286027092870287E30E94430620
:101FE0002AEE31E0DC010E94182AA70196010E9426
:101FF0007D27CA01B9010E94E9289B01AC010E941A
:10200000CE2720E030E048EC52E40E943F28698B64
:102010007A8B8B8B9C8B6093800270938102809370
:1020200082029093830288E30E94430620E53AE00F
:10203000DC010E94182AA70196010E947D27CA018F
:10204000B9010E94E92820E030E048EC52E40E9407
:102050003F284B015C0180926C0290926D02A0922D
:102060006E02B0926F0286E30E94430620E53AE0DA
:10207000DC010E94182AA70196010E947D27CA014F
:10208000B9010E94E92820E030E048EC52E40E94C7
:102090003F286B017C01C0926802D0926902E092F5
:1020A0006A02F0926B026091BF067091C006809147
:1020B000C1069091C2060E94B12887E00E946C057B
:1020C00060916B0670916C0680916D0690916E0622
:1020D0000E94B12885E00E946C058091690390916F
:1020E0006A039A838983A0916B03B0916C03BC83CC
:1020F000AB8380916D0390916E039E838D83A0913D
:102100006F03B0917003B887AF8380917103909192
:1021100072039A878987A0917303B0917403BC8777
:10212000AB8780917503909176039E878D87A091F0
:102130007703B0917803B88BAF87A3019201C501F3
:10214000B4010E943F2829813A814B815C810E9421
:102150009E292D813E814F8158850E94CE274B01BB
:102160005C0129893A894B895C89C701B6010E94C3
:102170003F2829853A854B855C850E949E292D85BF
:102180003E854F8558890E94CE276B017C01A501B1
:102190009401C501B4010E940B2A882309F4E4C00C
:1021A0001092C3061092C4061092C5061092C6067D
:1021B000A7019601C701B6010E940B2A8111DDC05B
:1021C000C0926F06D0927006E0927106F09272068D
:1021D00020E030E0A9016091640270916502809175
:1021E0006602909167020E943A28811110C0809186
:1021F000C3069091C406A091C506B091C60680930F
:10220000640290936502A0936602B093670220E097
:1022100030E0A901609160027091610280916202D8
:10222000909163020E943A28811110C080916F063C
:1022300090917006A0917106B09172068093600231
:1022400090936102A0936202B093630220E030E0B9
:10225000A9016091010270910202809103029091A4
:1022600004020E949929181664F464E672E083EC73
:1022700096E00E94A60260E672E08FE696E00E9479
:10228000A60285E397E00E94C10E26EB3EE54AE2F6
:1022900050E40E949E2921EB30EF45E853E40E9470
:1022A000CD2760935C0270935D0280935E029093F1
:1022B0005F028FE097E00E94C10E26EB3EE54AE206
:1022C00050E40E949E2921EB30EF45E853E40E9440
:1022D000CD27609358027093590280935A029093CD
:1022E0005B0220E030E048EC52E46091C30670915C
:1022F000C4068091C5069091C6060E949E290E9440
:10230000B828709324036093230320E030E048EC66
:1023100052E460916F067091700680917106909101
:1023200072060E949E290E94B8287093260360932B
:10233000250364960FB6F894DEBF0FBECDBFDF91C4
:10234000CF91FF90EF90DF90CF90BF90AF909F9094
:102350008F907F906F905F904F900C947F0680E0FD
:1023600090E0A0E0BFE394CD8092C3069092C406B3
:10237000A092C506B092C6061BCF10926F061092AF
:102380007006109271061092720622CF64960FB6F4
:10239000F894DEBF0FBECDBFDF91CF91FF90EF90DD
:1023A000DF90CF90BF90AF909F908F907F906F9075
:1023B0005F904F9008958F929F92AF92BF92CF926D
:1023C000DF92EF92FF92CF93DF930E94270F8090CE
:1023D000BB069090BC06A090BD06B090BE06A501BD
:1023E00094016091C3067091C4068091C5069091D6
:1023F000C6060E94CD276B017C0120E030E0A901D8
:102400000E949929181624F0F7FAF094F7F8F0943E
:1024100020E030E040E050E4C701B6010E943A28D5
:10242000C0913103D091320387FD3AC0A5019401D8
:1024300060916F067091700680917106909172069E
:102440000E94CD276B017C0120E030E0A9010E94B1
:102450009929181624F0F7FAF094F7F8F09420E090
:1024600030E040E050E4C701B6010E943A2887FD01
:1024700017C08091EF029091F002892B89F0C8601B
:10248000D0933203C0933103DF91CF91FF90EF904F
:10249000DF90CF90BF90AF909F908F900C94970952
:1024A000C77FEECF70E060E087E00E946C0570E0CF
:1024B00060E085E00E946C051092BF061092C00695
:1024C0001092C1061092C206EFEEF2E015AE14AE05
:1024D00010926B0610926C0610926D0610926E06AA
:1024E00017AE16AE1092BB061092BC061092BD0637
:1024F0001092BE0613AA12AA109201071092AD06FE
:102500000895FC0101900020E9F73197AF01481BC5
:10251000590BBC0182EC95E00C941E038F929F92A4
:10252000AF92BF920F931F93CF93DF93CDB7DEB7D8
:10253000A1970FB6F894DEBF0FBECDBF19A24230EF
:1025400008F44AE08E010F5D1F4F842E912CB12CB0
:10255000A12CA50194010E949C27E62FB901CA0174
:10256000EA30F4F4E05DD801EE938D01232B242BA7
:10257000252B79F790E080E0109719F0CD010E94AB
:102580008112A1960FB6F894DEBF0FBECDBFDF91CA
:10259000CF911F910F91BF90AF909F908F90089512
:1025A000E95CE1CF4F925F926F927F928F929F9200
:1025B000AF92BF92CF92DF92EF92FF926B017C01BC
:1025C000AC019B010E940B2A882381F081E392E0F9
:1025D000FF90EF90DF90CF90BF90AF909F908F9043
:1025E0007F906F905F904F900C948112460157013D
:1025F000E894B7F82FEF3FEF4FE75FE7C501B4016D
:102600000E940B2A81110DC02FEF3FEF4FE75FE7CC
:10261000C501B4010E943A2818161CF485E392E023
:10262000D7CF2FEF3FEF4FE75FE4C701B6010E941E
:10263000992918161CF489E392E0CACF2FEF3FEFD7
:102640004FE75FECC701B6010E943A2887FDF3CF40
:1026500020E030E0A901C701B6010E943A28B12C60
:10266000A12C87FF0AC06DE282EC95E00E94EB038B
:102670005C01F7FAF094F7F8F0942AE037ED43EABA
:102680005BE3C701B6010E94CE272B013C010E94EB
:10269000B8286B017C010E94E7289B01AC01C301B3
:1026A000B2010E94CD272B013C014AE0C701B601CF
:1026B0000E948E127C01EA0CFB1C6EE282EC95E01B
:1026C0000E94EB03E80EF91E20E030E040E251E406
:1026D000C301B2010E949E292B013C010E94B8282F
:1026E0004B01B12CA12C4AE0C501B4010E948E120D
:1026F000E80EF91EC501B4010E94E7289B01AC0158
:10270000C301B2010E94CD2720E030E040E251E455
:102710000E949E290E94B82890E080E04AE00E9432
:102720008E128E0D9F1DFF90EF90DF90CF90BF9087
:10273000AF909F908F907F906F905F904F90089593
:102740000C9481128F929F92AF92BF92CF92DF92A0
:10275000EF92FF920F931F93CF93DF938FEE92E050
:102760009093BF078093BE0785E48093D007809144
:102770007807843008F0F7C0809173079091740750
:10278000DC01ED91FC910084F185E02D1995882301
:10279000A9F09091BD07891709F4EAC08093BD079D
:1027A0000E94C7066B5F7F4F8F4F9F4F6093C80794
:1027B0007093C9078093CA079093CB078091410318
:1027C00090914203892B09F484C30E94C7060E949A
:1027D000E72820E030E04AE754E40E943F280E94C6
:1027E000D2128DE392E00E94A01360915C0270917E
:1027F0005D0280915E0290915F020E94D2128DE391
:1028000092E00E94A01320918402309185024091B1
:1028100086025091870260916C0270916D028091E6
:102820006E0290916F020E943F280E94D2128DE3A7
:1028300092E00E94A0136091580270915902809119
:102840005A0290915B020E94D2128DE392E00E94A4
:10285000A013209180023091810240918202509118
:102860008302609168027091690280916A0290917E
:102870006B020E943F280E94D2128DE392E00E94D8
:10288000A0136091920270919302809194029091B2
:1028900095020E94D2128DE392E00E94A0136091F3
:1028A0008C0270918D0280918E0290918F020E9415
:1028B000D2128DE392E00E94A0136091BF06709146
:1028C000C0068091C1069091C2060E94D2128DE38B
:1028D00092E00E94A01360916B0670916C0680914B
:1028E0006D0690916E060E94D2128DE392E00E94D6
:1028F000A0136091BB067091BC068091BD069091BB
:10290000BE060E94D2128DE392E00E94A013C090F6
:102910009002D09091020D2C000CEE08FF084AE0C6
:10292000C701B601F7FE0DC06DE282EC95E00E9492
:10293000EB0366277727CB016C197D098E099F0968
:102940004AE00E948E128FE392E0DF91CF911F91B7
:102950000F91FF90EF90DF90CF90BF90AF909F903E
:102960008F900C948112809175079091760708CF13
:102970000E94C7060091C8071091C9072091CA0795
:102980003091CB07601771078207930708F416CFC1
:102990001092BD0780917907823050F08091050137
:1029A0008F7B80930501809105018F7D80930501C8
:1029B0001092BC0780917807C0E0843040F180918C
:1029C000750790917607DC01ED91FC910084F1850B
:1029D000E02D1995892B09F43FC0809175079091DE
:1029E0007607DC01ED91FC910284F385E02D1995C9
:1029F0009091BC07E92FF0E0ED58F84F81879F5F79
:102A00009093BC079034D8F2C1E0D9CFC1E0809157
:102A1000730790917407DC01ED91FC910084F185BE
:102A2000E02D1995892BC1F080917307909174075F
:102A3000DC01ED91FC910284F385E02D19959091D4
:102A4000BC07E92FF0E0ED58F84F81879F5F909326
:102A5000BC079034D8F6DBCF8091C0079091C107B6
:102A600001969093C1078093C007CC2369F08091B1
:102A7000C4079091C50701969093C5078093C4073A
:102A80008DEF80937B079ACE8091BC0780937B0764
:102A900087300CF493CE20917C079091770729130F
:102AA0008DCEC82FD0E082500E948A02CD58D84FD8
:102AB0002F8138852327322723272817390769F0E4
:102AC0008091C4079091C50701969093C5078093A4
:102AD000C407CFEFC0937B0771CE20917D07E5E05F
:102AE000F2E08191821709F4D8C1B2E0ED30FB0722
:102AF000C1F78091C4079091C50701969093C507CF
:102B00008093C407C1E0205820937D07C0937E07BF
:102B100083E08093BC070E94D306DCCF80917E07C0
:102B200090917F07982789279827AC01F4E0569564
:102B30004795FA95E1F78091800790918107982752
:102B400089279827A4E096958795AA95E1F7840FA1
:102B5000951F0CC080917E0790917F079827892749
:102B60009827E4E096958795EA95E1F79091D0074C
:102B70009817C0F4C2E0C7CF80917E0790917F077D
:102B800098278927F3CF80917E0790917F07982718
:102B9000892798274091800750918107542745271E
:102BA0005427D5CF0E94C7062091C6073091C7078A
:102BB000620F731F811D911D6093CC077093CD0729
:102BC0008093CE079093CF0710927B07E0917D070B
:102BD000E150E03108F0F2CDF0E08827ED50FA4EF8
:102BE0008F4F0C94102A03160316691669169D164A
:102BF000CD16DE13DE13DE13DE13DE13DE13DE135B
:102C0000DE13DC162C1780917E0790917F079827A2
:102C100089279827009180071091810710270127A5
:102C20001027A80173E0569547957A95E1F7242F70
:102C3000E801C770DD27209711F021E0240F2093D1
:102C40007E0723E02093BC07080F191F30E0C12C3A
:102C5000D12C7601C3948017910791F1E22FF0E017
:102C6000B701A601032E04C0440F551F661F771F2E
:102C70000A94D2F7ED58F84FB184DC0153E0B695D1
:102C8000A7955A95E1F7AE7FB170A151BD4F8D90D8
:102C90009C90A82FAF70AA2ED40102C0B695A7951C
:102CA000AA94E2F7A0FF09C04B2941873F5F383063
:102CB00010F02F5F30E00196CECF40954B21F5CF3D
:102CC000CD2B29F42093BC070E94D30677CD2F5F2C
:102CD000F9CF80917E0790917F0798278927982FB9
:102CE000209180073091810732272327322F330F1D
:102CF00030937E07E3E0280F3327331F82E08E0FE7
:102D0000A92FB0E0A217B307ACF4AA0FBB1FA151C3
:102D1000BD4F4C9111965C91AE2FB0E0AD58B84FBD
:102D200019965C93EF5FF0E0ED58F84F41879F5F95
:102D3000E82FE4CFE093BC07C7CF20917E07309106
:102D40007F07322723273227F90173E0F695E795AD
:102D50007A95E1F7EE7FF170E151FD4F40815181AD
:102D60002F7081E090E0A0E0B0E004C0880F991FD0
:102D7000AA1FBB1F2A95D2F7209180072F3F41F44D
:102D8000842B952B9183808386E08093BC079CCF16
:102D90008095909584239523F5CFE0917F07F0E00F
:102DA000EE0FFF1FE151FD4F809180079091810749
:102DB000982789279827E6CF80917E0790917F07F3
:102DC00098278927982720918007309181073227FB
:102DD00023273227280F391F10E007E0C12CD12C00
:102DE0007601C3948217930779F2FC0143E0F695CC
:102DF000E7954A95E1F7EE7FF170E151FD4F482FDD
:102E00004F704601570104C0880C991CAA1CBB1CBA
:102E10004A95D2F7A401C081D181A02FB0E0AD586E
:102E2000B84F1996AC91B0E0012E02C0B595A795A8
:102E30000A94E2F7A0FF0BC04C2B5D2B518340831B
:102E40001F5F183010F00F5F10E00196CBCF409558
:102E500050954C235D23F2CFE0917F07409181078D
:102E60001092800786E08093BC07A3E7B7E0F0E00C
:102E7000EE0FFF1FE151FD4F80E01296481709F455
:102E800023CF1E962C911E971F969C911F97322F31
:102E9000292F219331938F5FF0CFEFEFE20FE031D5
:102EA00008F080CEF0E08827E75AF84E8F4F0C9458
:102EB000102A8E158E15C315C315AA15BC15D2156B
:102EC000D215D215D215D215D215D215D2158E150E
:102ED000C315DF91CF911F910F91FF90EF90DF907D
:102EE000CF90BF90AF909F908F900895CF92DF9238
:102EF000EF92FF926B017C010E94C706C60ED71E9F
:102F0000E81EF91E0E94C706C616D706E806F9068F
:102F100038F00E94DB110E94A2130E94B119F2CF77
:102F2000FF90EF90DF90CF900895CF93DF93EC0167
:102F30000E94521284E090E0909322038093210338
:102F4000C093F102D093F20281E090E0A0E0B0E003
:102F500004C0880F991FAA1FBB1FCA95D2F72091E2
:102F6000330330913403822B932B9093340380935B
:102F7000330360E086E10E940D0560E087E10E9476
:102F80000D0560914503709146038DE00E946C052C
:102F900060E08AE00E940D056AEF70E080E090E05A
:102FA0000E94761760E088E00E940D056AEF70E0ED
:102FB00080E090E00E94761760E089E00E940D05B5
:102FC0006AEF70E080E090E00E94761760E082E0B7
:102FD0000E940D058091EF029091F002069739F062
:102FE0000E94A2130E94270F0E949709F3CF61E06D
:102FF00086E10E940D0561E087E10E940D0561E018
:1030000082E0DF91CF910C940D05CF92DF92EF9289
:10301000FF920E94C7061092EE020E94C706C0905F
:10302000CC07D090CD07E090CE07F090CF0720914D
:10303000310330913203C616D706E806F90608F0C8
:103040003EC1C901806190933203809331030E9495
:10305000521220E030E040E85FE36091BF067091DB
:10306000C0068091C1069091C2060E943A281816A7
:103070008CF420E030E040E85FE360916B067091F3
:103080006C0680916D0690916E060E943A28181683
:103090000CF453C120E030E040E050E46091920233
:1030A0007091930280919402909195020E949929C7
:1030B00087FD0CC1809190029091910201969093AE
:1030C0009102809390024F973CF182E492E00E943B
:1030D000A0136091BF067091C0068091C1069091C7
:1030E000C2060E94D2128BE492E00E94A01360916B
:1030F00092027091930280919402909195020E94A5
:10310000D2128FE392E00E94811288E090E00E9448
:10311000951781E08093EE0220E030E046E653E42C
:103120006091C3067091C4068091C5069091C60651
:103130000E94992918160CF005C18091EF02909118
:10314000F002892B09F4FEC080918A0290918B02D3
:10315000019690938B0280938A0280918A029091CB
:103160008B0204973CF081E08093EE0289E090E0CE
:103170000E94951720E030E046E653E460916F0628
:103180007091700680917106909172060E94992943
:1031900018160CF0DCC08091EF029091F002892BA0
:1031A00009F4D5C08091880290918902019690938C
:1031B0008902809388028091880290918902049705
:1031C0003CF081E08093EE028AE090E00E94951747
:1031D00020E030E0A9016091C3067091C40680919F
:1031E000C5069091C6060E943A2887FF0DC08091BF
:1031F000EF029091F002892B39F08DE090E00E946F
:10320000951781E08093EE0220E030E0A901609103
:103210006F067091700680917106909172060E94FF
:103220003A2887FF0DC08091EF029091F002892B20
:1032300039F08DE090E00E94951781E08093EE02D6
:1032400020E030E040E850E46091920270919302F7
:1032500080919402909195020E94992918163CF44D
:103260008BE090E00E94951781E08093EE0220E0D1
:1032700030E040E850E460918C0270918D028091C2
:103280008E0290918F020E94992918163CF48CE0CE
:1032900090E00E94951781E08093EE028CE30E94FB
:1032A000E404892B09F058C081E08093EE028FE09E
:1032B00090E0FF90EF90DF90CF900C949517C901AC
:1032C0008F7E9093320380933103C3CE20E030E0B1
:1032D00040E050E460918C0270918D0280918E02EA
:1032E00090918F020E94992987FD27C080919002BA
:1032F00090919102019690939102809390024F9742
:103300000CF40ACF82E492E00E94A01360916B0655
:1033100070916C0680916D0690916E060E94D2129B
:103320008BE492E00E94A01360918C0270918D0258
:1033300080918E0290918F02E2CE109291021092B3
:103340009002EACE10928B0210928A0206CF10925F
:103350008902109288022FCFFF90EF90DF90CF90DC
:1033600008958EE30E94E4040197E1F08EE090E07E
:103370009093F2028093F1028EE30E94E40401979D
:1033800019F00E94A213F8CF60ED77E080E090E0A2
:103390000E9476171092F0021092EF021092F20241
:1033A0001092F102089585ED8093BC008091C303D3
:1033B0009091C403A091C503B091C6030796A11DC7
:1033C000B11D23E0B695A795979587952A95D1F7D6
:1033D0002091BC0024FD03C01092C10308954091C8
:1033E000C3035091C4036091C5037091C603452B7C
:1033F000462B472B69F30097A105B10541F025E362
:103400002A95F1F700000197A109B109E1CF809158
:10341000C2030C94DD07FF920F931F93CF93DF93AA
:10342000EC018B01FB01F0800E946727F81621F068
:103430006F2DCE010E946F27F801F1802196CE01F9
:103440000E946727F81621F06F2DCE010E946F278A
:10345000C801DF91CF911F910F91FF9008956BEFFD
:1034600072E088E090E00E940B1A6DEF72E08CE051
:1034700090E00E940B1A6FEF72E080E190E00E94F2
:103480000B1A61E073E084E190E00E940B1A63E0A4
:1034900073E088E190E00E940B1A65E073E08CE134
:1034A00090E00E940B1A69E673E080E091E00E94D0
:1034B0000B1A6BE673E082E091E00E940B1A6DE656
:1034C00073E084E091E00E940B1A6FE673E086E0FF
:1034D00091E00E940B1A61E773E080E191E00E94A5
:1034E0000B1A63E773E082E191E00E940B1A65E733
:1034F00073E084E191E00E940B1A67E773E086E1D4
:1035000091E00E940B1A65E473E080E291E00E9472
:103510000B1A67E473E084E291E00E940B1A69EFF2
:1035200072E088E291E00E940B1A69E373E08CE29A
:1035300091E00E940B1A69E473E080E391E00E943D
:103540000B1A67EF72E084E391E00E940B1A6DE4BE
:1035500073E088E391E00E940B1A6FE473E08CE360
:1035600091E00E940B1A61E573E080E491E00E9413
:103570000B1A67E673E084E491E00E940B1A63EF94
:1035800072E088E491E00E940B1A61E473E08CE43D
:1035900091E00E940B1A63E573E088E592E00E94D7
:1035A0000B1A65E573E08CE592E00E940B1A67E563
:1035B00073E080E692E00E940B1A69E573E084E60E
:1035C00092E00E940B1A6BE573E088E692E00E949D
:1035D0000B1A6DE573E08CEB92E00E940B1A6FE51D
:1035E00073E080EC92E00E940B1A61E673E084ECD9
:1035F00092E00E940B1A63E673E088EC92E00E946E
:103600000B1A65E673E08CEC92E00E940B1A69E1FC
:1036100073E088EE93E00E940B1A6EE170E080E0A8
:1036200090E00C9476171F93CF93DF93EC010E94E8
:103630006727182FCE0101960E94672790E0982FE8
:103640008827810F911DDF91CF911F91089588E008
:1036500090E00E94131BBC0190E080E00E94E728EC
:1036600020E030E048EC52E40E943F2860930307DA
:103670007093040780930507909306078CE090E011
:103680000E94131BBC0190E080E00E94E72820E02C
:1036900030E048EC52E40E943F28609307077093A3
:1036A00008078093090790930A0780E190E00E9441
:1036B000131BBC0190E080E00E94E72820E030E08E
:1036C00048EC52E40E943F2860930B0770930C076C
:1036D00080930D0790930E0784E190E00E94131BE6
:1036E000BC0190E080E00E94E72820E030E048EC58
:1036F00052E40E943F286093AF067093B006809317
:10370000B1069093B20688E190E00E94131BBC01C1
:1037100090E080E00E94E72820E030E048EC52E4AE
:103720000E943F286093B3067093B4068093B50659
:103730009093B6068CE190E00E94131BBC0190E0D0
:1037400080E00E94E72820E030E048EC52E40E944C
:103750003F286093B7067093B8068093B90690939C
:10376000BA068091190390911A03892BB9F488E263
:1037700091E00E94131BBC0190E080E00E94E728CA
:1037800020E030E048EC52E40E943F286093BB0602
:103790007093BC068093BD069093BE0608954F9229
:1037A0005F926F927F928F929F92AF92BF92CF92D1
:1037B000DF92EF92FF920F931F93CF93DF93CDB7DA
:1037C000DEB768970FB6F894DEBF0FBECDBF6D8B26
:1037D0007E8B8F8B988F0E94C70669837A838B8339
:1037E0009C830E94C7066D837E838F839887809118
:1037F0000107811104C087EC96E00E947E0C81E0F5
:10380000809301078091AD06811104C083E796E0A3
:103810000E947E0C81E08093AD06809131039091EF
:1038200032038E7F90933203809331030E94271BD3
:10383000C0900B07D0900C07E0900D07F0900E079A
:1038400000910707109108072091090730910A0796
:103850004091030750910407609105077091060796
:1038600087EC96E00E94120DC090B706D090B80683
:10387000E090B906F090BA060091B3061091B40634
:103880002091B5063091B6064091AF065091B00632
:103890006091B1067091B20683E796E00E94120D26
:1038A00010929A020E94DB110E94370C83E090E094
:1038B00090932203809321030E94C7062B013C01B1
:1038C00089809A80AB80BC802D893E894F89588D34
:1038D000820E931EA41EB51E2091C3063091C4060D
:1038E0004091C5065091C6066091BB067091BC061A
:1038F0008091BD069091BE060E94CD2720E030E069
:1039000048EC51E40E949E296B017C0120E030E0EC
:10391000A9010E94992918160CF053C1C701B601DC
:103920000E94B828860E971EA81EB91E4814590476
:103930006A047B0408F04FC10E94C7064B015C017A
:1039400089819A81AB81BC8188169906AA06BB063B
:1039500020F489829A82AB82BC820E9405188091F1
:10396000EE02811138C10E94A21380919A0288232D
:1039700009F493C080910002882309F48EC06091FD
:10398000FB027091FC0290E080E00E94E72820E0BA
:1039900030E048EC52E40E943F2869877A878B87A1
:1039A0009C876093030770930407809305079093A7
:1039B0000607609101037091020390E080E00E948D
:1039C000E72820E030E048EC52E40E943F286D8771
:1039D0007E878F87988B6093AF067093B006809335
:1039E000B1069093B2066091FD027091FE0290E0E4
:1039F00080E00E94E72820E030E048EC52E40E949A
:103A00003F282B013C014092070750920807609223
:103A1000090770920A07609103037091040390E014
:103A200080E00E94E72820E030E048EC52E40E9469
:103A30003F28698B7A8B8B8B9C8B6093B30670933A
:103A4000B4068093B5069093B606C0900B07D0904D
:103A50000C07E0900D07F0900E0793018201498555
:103A60005A856B857C8587EC96E00E94120DC0908C
:103A7000B706D090B806E090B906F090BA0609896A
:103A80001A892B893C894D855E856F85788983E706
:103A900096E00E94120D10929A02D501C4012D8168
:103AA0003E814F815885821B930BA40BB50B059764
:103AB000A105B10550F00E94DB110E94370C0E9455
:103AC000C7066D837E838F839887C090BB06D09096
:103AD000BC06E090BD06F090BE06209196023091A3
:103AE00097024091980250919902C701B6010E9435
:103AF0003A28882309F469C031E030930002C0926B
:103B00009602D0929702E0929802F0929902609009
:103B1000310370903203C701B6010E94B128072E0D
:103B2000000C880B990B0E94E9284B015C01609105
:103B3000F9027091FA02072E000C880B990B0E9473
:103B4000E92820E030E048EC52E40E943F289B0145
:103B5000AC01C501B4010E943A288823C9F16894D8
:103B600060F870923203609231032091C306309165
:103B7000C4064091C5065091C606C701B6010E9411
:103B8000CD276B017C0160914F037091500390E051
:103B900080E00E94E72820E030E048EC52E40E94F8
:103BA0003F289B01AC01C701B6010E943A2887FF5C
:103BB00083CE60914D0370914E038DE00E946C05A1
:103BC0007BCEC701B6019058ABCE109200029FCFBA
:103BD000E89460F8C6CF0E942F1A68960FB6F89442
:103BE000DEBF0FBECDBFDF91CF911F910F91FF9030
:103BF000EF90DF90CF90BF90AF909F908F907F908D
:103C00006F905F904F900C94271B4F925F926F9232
:103C10007F92AF92BF92CF92DF92EF92FF920F937B
:103C20001F93CF93DF937C010E94C706D0E0C0E0D2
:103C300086E0C82ED12C95E0A92EB12C0091EF0280
:103C40001091F0020E151F0509F05DC00E94DB11F6
:103C50000E9405180E94A2136091F7027091F80269
:103C600090E080E00E94E72820E030E048EC52E459
:103C70000E943F282B013C012091C3063091C406CD
:103C80004091C5065091C6060E943A2887FD0EC095
:103C900020916F0630917006409171065091720626
:103CA000C301B2010E943A2887FF23C08091F1022C
:103CB0009091F2020497E9F461E086E00E940D051C
:103CC00061E08BE00E940D05D0922203C092210397
:103CD00080E0209759F40330110541F4882331F036
:103CE000B092F202A092F102C1E0D0E00E94B119BC
:103CF000A5CF60E086E00E940D0560E08BE00E94A9
:103D00000D0581E0E6CF0E942F1ADF91CF911F9120
:103D10000F91FF90EF90DF90CF90BF90AF907F908A
:103D20006F905F904F900C94271B1F920F920FB6CD
:103D30000F9211240BB60F922F933F934F935F93E3
:103D40006F937F938F939F93AF93BF93EF93FF9363
:103D50008BEE93E00E94C903FF91EF91BF91AF9169
:103D60009F918F917F916F915F914F913F912F9193
:103D70000F900BBE0F900FBE0F901F9018951F92C3
:103D80000F920FB60F9211240BB60F922F933F9301
:103D90004F935F936F937F938F939F93AF93BF9353
:103DA000EF93FF938BEE93E00E944B03FF91EF9113
:103DB000BF91AF919F918F917F916F915F914F9143
:103DC0003F912F910F900BBE0F900FBE0F901F9041
:103DD00018951F920F920FB60F9211240BB60F92E7
:103DE0002F933F934F935F936F937F938F939F9303
:103DF000AF93BF93EF93FF9388E894E00E94C903C9
:103E0000FF91EF91BF91AF919F918F917F916F91B2
:103E10005F914F913F912F910F900BBE0F900FBE6E
:103E20000F901F9018951F920F920FB60F921124AA
:103E30000BB60F922F933F934F935F936F937F93A4
:103E40008F939F93AF93BF93EF93FF9388E894E092
:103E50000E944B03FF91EF91BF91AF919F918F9182
:103E60007F916F915F914F913F912F910F900BBE7A
:103E70000F900FBE0F901F9018951F920F920FB6C4
:103E80000F9211240BB60F922F933F934F935F9392
:103E90006F937F938F939F93AF93BF93EF93FF9312
:103EA00085E295E00E94C903FF91EF91BF91AF9128
:103EB0009F918F917F916F915F914F913F912F9142
:103EC0000F900BBE0F900FBE0F901F9018951F9272
:103ED0000F920FB60F9211240BB60F922F933F93B0
:103EE0004F935F936F937F938F939F93AF93BF9302
:103EF000EF93FF9385E295E00E944B03FF91EF91D2
:103F0000BF91AF919F918F917F916F915F914F91F1
:103F10003F912F910F900BBE0F900FBE0F901F90EF
:103F200018951F920F920FB60F9211240BB60F9295
:103F30002F933F934F935F936F937F938F939F93B1
:103F4000AF93BF93EF93FF9382EC95E00E94C90378
:103F5000FF91EF91BF91AF919F918F917F916F9161
:103F60005F914F913F912F910F900BBE0F900FBE1D
:103F70000F901F9018951F920F920FB60F92112459
:103F80000BB60F922F933F934F935F936F937F9353
:103F90008F939F93AF93BF93EF93FF9382EC95E042
:103FA0000E944B03FF91EF91BF91AF919F918F9131
:103FB0007F916F915F914F913F912F910F900BBE29
:103FC0000F900FBE0F901F9018951F920F920FB673
:103FD0000F9211242F933F938F939F93AF93BF938F
:103FE0008091E2029091E302A091E402B091E50297
:103FF0003091E10223E0230F2D3758F50196A11DE2
:10400000B11D2093E1028093E2029093E302A0931A
:10401000E402B093E5028091E6029091E702A0915C
:10402000E802B091E9020196A11DB11D8093E6025C
:104030009093E702A093E802B093E902BF91AF9199
:104040009F918F913F912F910F900FBE0F901F90D6
:10405000189526E8230F0296A11DB11DD2CF1F92FD
:104060000F920FB60F9211240F900FBE0F901F905A
:1040700018951F920F920FB60F9211240BB60F9244
:104080002F933F934F935F936F937F938F939F9360
:10409000AF93BF93EF93FF938091B900887F8036F1
:1040A00009F44DC008F040C0883209F4A9C028F5D1
:1040B000803109F49DC0C8F4882309F4FBC088301E
:1040C00009F496C0FF91EF91BF91AF919F918F91AD
:1040D0007F916F915F914F913F912F910F900BBE08
:1040E0000F900FBE0F901F901895883109F488C06B
:1040F000803241F78093BF0314C0803409F49DC01F
:1041000040F48033B9F38833E9F68093BF0385EC3C
:10411000B0C0803509F485C0883509F496C088346C
:1041200089F60E94D319CECF883909F48CC038F5AE
:10413000883729F050F4883611F0803719F683E07B
:104140008093C1031092DE0257C0883809F47BC007
:10415000803919F0803809F0B5CF8091DE028032C5
:1041600008F071C0E091DE0281E08E0F8093DE02E4
:104170008091BB00F0E0E254FD4F80833DC0803B66
:1041800039F0E0F4803A09F479C0883A09F09ACF1E
:1041900084E08093C1031092BD021092BC02E091B2
:1041A000EC02F091ED0219958091BC0281110FC0D3
:1041B00081E08093BC0210929C0209C0803C09F40B
:1041C000A6CF883C09F4A3CF883B09F07BCFE091D0
:1041D000BD0281E08E0F8093BD02F0E0E456FD4FFA
:1041E00080818093BB009091BD028091BC0229C068
:1041F00080919C038093BB0085EC8093BC0062CFD0
:104200009091BE038091BD03981758F5E091BE03CD
:1042100081E08E0F8093BE03F0E0E356FC4F808177
:10422000E9CFE091BE0381E08E0F8093BE038091C1
:10423000BB00F0E0E356FC4F80839091BE03809179
:10424000BD039817C8F285E8D8CFE091BE0381E09E
:104250008E0F8093BE038091BB00F0E0E356FC4FCD
:1042600080838091C00381115CCF81E080939B03A8
:1042700084EA8093BC001092C10324CF85EC809324
:10428000BC001092C1038091DE02803230F4E091D4
:10429000DE02F0E0E254FD4F10826091DE0270E039
:1042A000E091EA02F091EB028EEB92E01995109208
:1042B000DE0208CF1092BF0334CF2F923F924F926D
:1042C0005F926F927F928F929F92AF92BF92CF92A6
:1042D000DF92EF92FF920F931F93CF93DF93CDB7AF
:1042E000DEB73C0118012901FC01578F468F758FFD
:1042F000648F8BEB96E091A380A312AE12AA13AA4F
:1043000014AA15AA80E090E0AFE7B3E486AB97ABC0
:10431000A0AFB1AF84E690E0A0E0B0E086A797A799
:10432000A0ABB1AB118E108E20E030E0A901C2012C
:10433000B8010E943A2887FD42C020E030E0A90180
:10434000C701B6010E943A2887FD39C020E030E05D
:10435000A901C501B4010E943A2887FD30C081E05F
:1043600090E0F301938F828F83AF2082318242826B
:104370005382C482D582E682F78280869186A286A5
:10438000B38624863586468657862DEC3CEC4CEC6D
:104390005DE3C701B6010E949E29F301608B718B1A
:1043A000828B938B2DEC3CEC4CEC5DE3C501B401AE
:1043B0000E943F28F301648B758B868B978B0E943C
:1043C000C706F301C6A4D7A4E0A8F1A86C197D091B
:1043D0008E099F0962A373A384A395A3DF91CF9154
:1043E0001F910F91FF90EF90DF90CF90BF90AF9013
:1043F0009F908F907F906F905F904F903F902F9005
:1044000008958F929F92AF92BF92CF92DF92EF92D8
:10441000FF920F931F93EBEEF3E01382128288EE6C
:1044200093E0A0E0B0E084839583A683B78321E185
:1044300032E03183208345E351E05587448744E3EC
:1044400051E05787468740E351E0518B408B41E371
:1044500051E0538B428B42E351E0558B448B46E352
:1044600051E0578B468B118E128E138E148EE8E816
:10447000F4E01382128284839583A683B783318309
:10448000208345ED50E05587448744ED50E0578741
:10449000468740ED50E0518B408B41ED50E0538B0F
:1044A000428B42ED50E0558B448B46ED50E0578BEC
:1044B000468B118E128E138E148EE5E2F5E0138278
:1044C000128284839583A683B783318320834DEC46
:1044D00050E0558744874CEC50E05787468748ECBE
:1044E00050E0518B408B49EC50E0538B428B4AECAF
:1044F00050E0558B448B4EEC50E0578B468B118E21
:10450000128E138E148EE2ECF5E0138212828483F5
:104510009583A683B7833183208325EC30E03587EC
:10452000248724EC30E03787268720EC30E0318B7D
:10453000208B21EC30E0338B228B22EC30E0358B6A
:10454000248B26EC30E0378B268B118E128E138E47
:10455000148EEFE5F6E01382128284839583A6839E
:10456000B78383E292E091838083E3E7F7E081E021
:10457000848383E0858382E0868388EE93E0909352
:10458000C7078093C607EFE5F7E080E094E2A4E771
:10459000B9E484879587A687B7878DEB97E3A6E86C
:1045A000B5E4808B918BA28BB38B80E090E0A0E090
:1045B000BFE380879187A287B38780935B0790933F
:1045C0005C07A0935D07B0935E07E5E3F7E002E3C5
:1045D00011E120E83BE300831183228333834FE71B
:1045E00055E06BE175EB44835583668377831586CD
:1045F000148688E4818798E09287138612A213A21A
:1046000014A215A28087EFE0F7E0008311832283D4
:10461000338344835583668377831586148689E4C0
:1046200081879287138612A213A214A215A28087F3
:1046300080900B0790900C07A0900D07B0900E078C
:10464000C0900707D0900807E0900907F0900A078C
:104650000091030710910407209105073091060788
:104660004FEB56E063EC76E087EC96E00E945D212C
:104670008090B7069090B806A090B906B090BA06A0
:10468000C090B306D090B406E090B506F090B606A0
:104690000091AF061091B0062091B1063091B2069C
:1046A0004BE656E06FE676E083E796E00E945D21F8
:1046B0001F910F91FF90EF90DF90CF90BF90AF9040
:1046C0009F908F900C94C706789484B5826084BDC7
:1046D00084B5816084BD85B5826085BD85B5816006
:1046E00085BD80916E00816080936E001092810084
:1046F000809181008260809381008091810081603F
:1047000080938100809180008160809380008091FF
:10471000B10084608093B1008091B000816080938B
:10472000B00080919100826080939100809191000F
:1047300081608093910080919000816080939000CF
:104740008091A10082608093A1008091A10081608E
:104750008093A1008091A00081608093A00080914F
:1047600021018260809321018091210181608093E9
:1047700021018091200181608093200180917A0045
:10478000846080937A0080917A00826080937A00BE
:1047900080917A00816080937A0080917A008068AD
:1047A00080937A001092C1000E947F0660E08EE341
:1047B0000E943B0561E086E10E943B0561E086E1E5
:1047C0000E940D0561E087E10E943B0560E08CE3FB
:1047D0000E943B0561E087E10E940D0561E087E0F2
:1047E0000E943B0561E085E00E943B0570E060E0CF
:1047F00087E00E946C0570E060E085E00E946C0537
:1048000040E052EC61E070E082EC95E00E942A0208
:1048100080917807823009F472C2833009F472C241
:10482000813009F072C285E295E09093740780931D
:10483000730740E052EC61E070E080917307909163
:1048400074070E942A0280917907823078F0809163
:104850000401806680930401809105018F7B809321
:104860000501809105018F7D80930501809173077B
:1048700090917407DC01ED91FC910284F385E02DA9
:10488000199597FFF3CF1092BC071092BD071092B5
:10489000C5071092C4071092C3071092C207109266
:1048A000C1071092C00788E090E00E94131B90930C
:1048B000FC028093FB028CE090E00E94131B90931B
:1048C000FE028093FD0280E190E00E94131B909312
:1048D00000038093FF0284E190E00E94131B9093F9
:1048E00002038093010388E190E00E94131B9093E0
:1048F0000403809303038CE190E00E94131B9093C8
:1049000006038093050380E091E00E94131B9093BF
:104910006A038093690382E091E00E94131B9093E5
:104920006C0380936B0384E091E00E94131B9093CF
:104930006E0380936D0386E091E00E94131B9093B9
:10494000700380936F0380E191E00E94131B9093AA
:1049500072038093710382E191E00E94131B909394
:1049600074038093730384E191E00E94131B90937E
:1049700076038093750386E191E00E94131B909368
:1049800078038093770380E291E00E94131B909359
:1049900046038093450384E291E00E94131B9093A9
:1049A00048038093470388E291E00E94131B909391
:1049B000FA028093F9028CE291E00E94131B90931B
:1049C0003A038093390380E391E00E94131B909394
:1049D0004A038093490384E391E00E94131B909360
:1049E000F8028093F70288E391E00E94131B9093F2
:1049F0004E0380934D038CE391E00E94131B909330
:104A0000500380934F0380E491E00E94131B909326
:104A100052038093510384E491E00E94131B90930E
:104A200068038093670388E491E00E94131B9093CE
:104A3000F4028093F3028CE491E00E94131B9093A4
:104A400042038093410388E592E00E94131B9093F8
:104A50005403809353038CE592E00E94131B9093C0
:104A600056038093550380E692E00E94131B9093B7
:104A700058038093570384E692E00E94131B90939F
:104A80005A038093590388E692E00E94131B909387
:104A90005C0380935B038CEB92E00E94131B90936A
:104AA0005E0380935D0380EC92E00E94131B909361
:104AB000600380935F0384EC92E00E94131B909349
:104AC00062038093610388EC92E00E94131B909331
:104AD0006403809363038CEC92E00E94131B909319
:104AE00066038093650388EE93E00E94131B909306
:104AF0001A03809319030E94271B61E088E00E943B
:104B00003B0561E089E00E943B0561E08AE00E948C
:104B10003B0561E08BE00E943B0561E086E00E947E
:104B20003B0561E08DE00E943B0560E08AE30E9466
:104B30003B0561E08CE10E943B0561E08CE10E9455
:104B40000D0561E082E00E943B0588E893E19093C7
:104B5000C7078093C6070E94A2131092F00210921A
:104B6000EF0284EF91E09093F6028093F50288ECD7
:104B700090E090931803809317038AEA95E090934E
:104B80004403809343031092F2021092F102812CAD
:104B9000912C58ECA52E54E4B52E809243079092A8
:104BA0004407A0924507B0924607C12CD12C68EC6F
:104BB000E62E62E4F62EC0924707D0924807E092B4
:104BC0004907F0924A0710927A03109279031092E3
:104BD000C8031092EA030E94BF078CE193E0909310
:104BE000ED028093EC028DE193E09093EB028093D1
:104BF000EA02109242071092410780921D0790929C
:104C00001E07A0921F07B0922007C0922107D092E2
:104C10002207E0922307F09224070E94BF07109218
:104C20001C0710921B0780910107811104C087ECBB
:104C300096E00E947E0C81E08093010746E656EAEA
:104C400063E573E487EC96E00E94B40165E070E0F0
:104C500087EC96E00E94C50C8091AD06811104C0DE
:104C600083E796E00E947E0C81E08093AD0646E6E5
:104C700056EA63E573E483E796E00E94B40165E0D9
:104C800070E083E796E00E94C50C0E94B1190E9473
:104C9000DB110E94051861E082E00E940D0586E0AC
:104CA000E82EF12C93E0692E712C24E0C22ED12C39
:104CB000AA24A394B12C42E0842E912C0E94B11915
:104CC0008091EF029091F0028130910509F5909367
:104CD000F2028093F10261E089E00E940D0560918B
:104CE0004503709146038DE00E946C058091EF02B0
:104CF0009091F0020E94051E0E945804DFCF88E8C0
:104D000094E093CD8BEE93E090CD82EC95E08DCD49
:104D10008230910549F49093F2028093F10261E0B0
:104D200088E00E940D05E2CF8330910509F076C03E
:104D300061E08AE00E940D0560914703709148038D
:104D40008DE00E946C056091490370914A0390E0E8
:104D500080E00E9476178091F3029091F40201970F
:104D600021F461E08BE00E940D057092F2026092E6
:104D7000F1028091190390911A03892B09F441C023
:104D8000909222038092210303E513E0D0E0C0E07B
:104D9000D0934003C0933F03F801619171918F015B
:104DA0007093FA026093F90290E080E00E94E72895
:104DB00020E030E048EC52E40E943F286093BB06BC
:104DC0007093BC068093BD069093BE06D8011896DA
:104DD0006D917C9190E080E00E94CF1B8091EE026B
:104DE000811104C02196C530D10591F6109240037F
:104DF00010923F030E945212D092F202C092F1022E
:104E000075CFB0922203A092210360913903709173
:104E10003A0390E080E00E94CF1BECCF84309105F4
:104E200029F4F092F002E092EF0266CF853091050E
:104E300031F5F092F202E092F10260914503709137
:104E400046038DE00E946C0560E08AE00E940D053B
:104E5000609167037091680390E080E00E9476178C
:104E600060E088E00E940D0560916703709168031F
:104E700090E080E00E94761760E089E052CF0097D2
:104E800061F460914503709146038DE00E946C05CA
:104E90001092F2021092F10229CF069799F460E085
:104EA00089E00E940D0560E088E00E940D0560E049
:104EB0008AE00E940D051092F0021092EF020E940B
:104EC00052121ACF1092F0021092EF0215CFF999F8
:104ED000FECF92BD81BDF89A992780B50895262FFF
:104EE000F999FECF1FBA92BD81BD20BD0FB6F894CF
:104EF000FA9AF99A0FBE01960895052E97FB1EF4B3
:104F000000940E94942757FD07D00E949C2707FC1D
:104F100003D04EF40C9494275095409530952195EC
:104F20003F4F4F4F5F4F08959095809570956195D5
:104F30007F4F8F4F9F4F0895A1E21A2EAA1BBB1BD4
:104F4000FD010DC0AA1FBB1FEE1FFF1FA217B30755
:104F5000E407F50720F0A21BB30BE40BF50B661F6B
:104F6000771F881F991F1A9469F76095709580952F
:104F700090959B01AC01BD01CF010895A29FB001A6
:104F8000B39FC001A39F700D811D1124911DB29F7D
:104F9000700D811D1124911D08955058BB27AA271B
:104FA0000E94E5270C945F290E94512938F00E9445
:104FB000582920F039F49F3F19F426F40C944E2917
:104FC0000EF4E095E7FB0C944829E92F0E94702924
:104FD00058F3BA17620773078407950720F079F42E
:104FE000A6F50C9492290EF4E0950B2EBA2FA02D65
:104FF0000B01B90190010C01CA01A0011124FF2786
:10500000591B99F0593F50F4503E68F11A16F04080
:10501000A22F232F342F4427585FF3CF469537957F
:105020002795A795F0405395C9F77EF41F16BA0B44
:10503000620B730B840BBAF09150A1F0FF0FBB1FF2
:10504000661F771F881FC2F70EC0BA0F621F731F3B
:10505000841F48F4879577956795B795F7959E3F98
:1050600008F0B0CF9395880F08F09927EE0F979529
:10507000879508950E94242908F481E008950E94EC
:1050800053280C945F290E94582958F00E945129F6
:1050900040F029F45F3F29F00C94482951110C94F9
:1050A00093290C944E290E94702968F39923B1F337
:1050B000552391F3951B550BBB27AA27621773073E
:1050C000840738F09F5F5F4F220F331F441FAA1FD2
:1050D000A9F335D00E2E3AF0E0E832D0915050408E
:1050E000E695001CCAF72BD0FE2F29D0660F771F3C
:1050F000881FBB1F261737074807AB07B0E809F022
:10510000BB0B802DBF01FF2793585F4F3AF09E3FA6
:10511000510578F00C9448290C9493295F3FE4F3EF
:10512000983ED4F3869577956795B795F7959F5FE9
:10513000C9F7880F911D9695879597F90895E1E035
:10514000660F771F881FBB1F621773078407BA0794
:1051500020F0621B730B840BBA0BEE1F88F7E095EF
:1051600008950E94B8286894B1110C949329089569
:105170000E94782988F09F5798F0B92F9927B75146
:10518000B0F0E1F0660F771F881F991F1AF0BA95EB
:10519000C9F714C0B13091F00E949229B1E008958E
:1051A0000C949229672F782F8827B85F39F0B93F80
:1051B000CCF3869577956795B395D9F73EF490959E
:1051C0008095709561957F4F8F4F9F4F0895E8941C
:1051D00009C097FB3EF490958095709561957F4F3F
:1051E0008F4F9F4F9923A9F0F92F96E9BB279395ED
:1051F000F695879577956795B795F111F8CFFAF4FD
:10520000BB0F11F460FF1BC06F5F7F4F8F4F9F4F2D
:1052100016C0882311F096E911C0772321F09EE88B
:10522000872F762F05C0662371F096E8862F70E0F1
:1052300060E02AF09A95660F771F881FDAF7880FCB
:105240009695879597F90895990F0008550FAA0B21
:10525000E0E8FEEF16161706E807F907C0F0121689
:105260001306E407F50798F0621B730B840B950B8C
:1052700039F40A2661F0232B242B252B21F40895E1
:105280000A2609F4A140A6958FEF811D811D08957E
:1052900097F99F6780E870E060E008959FEF80ECE9
:1052A000089500240A94161617061806090608958C
:1052B00000240A9412161306140605060895092EF2
:1052C0000394000C11F4882352F0BB0F40F4BF2B61
:1052D00011F460FF04C06F5F7F4F8F4F9F4F0895A1
:1052E00057FD9058440F551F59F05F3F71F0479597
:1052F000880F97FB991F61F09F3F79F0879508957C
:10530000121613061406551FF2CF4695F1DF08C09A
:10531000161617061806991FF1CF869571056105B7
:1053200008940895E894BB2766277727CB0197F95F
:1053300008950E94242908F48FEF08950E94B1294E
:105340000C945F290E94512938F00E94582920F0BE
:10535000952311F00C9448290C944E2911240C9497
:1053600093290E94702970F3959FC1F3950F50E027
:10537000551F629FF001729FBB27F00DB11D639F07
:10538000AA27F00DB11DAA1F649F6627B00DA11DAD
:10539000661F829F2227B00DA11D621F739FB00D53
:1053A000A11D621F839FA00D611D221F749F3327C3
:1053B000A00D611D231F849F600D211D822F762F5C
:1053C0006A2F11249F5750409AF0F1F088234AF039
:1053D000EE0FFF1FBB1F661F771F881F91505040A5
:1053E000A9F79E3F510580F00C9448290C9493290D
:1053F0005F3FE4F3983ED4F3869577956795B7952C
:10540000F795E7959F5FC1F7FE2B880F911D969545
:10541000879597F908950E942429880B990B089580
:10542000EE0FFF1F881F8BBF0790F691E02D199498
:105430000E94BE27B7FF0895821B930B0895F8942E
:02544000FFCF9C
:10544200010AD7A33D0102030405060F1000000064
:1054520000EB031E03640338049503730387030000
:10546200000000450918099409EE081109FE08EF29
:10547200086E616E00696E66006F7666002C000D24
:105482000A004F75747075743A20002C20437572AF
:0854920072656E743A200000FF
:00000001FF
