:100000000C9481010C94B2010C94B2010C94B201D5
:100010000C94B2010C94B2010C94B2010C94B20194
:100020000C94B2010C94F51F0C94F51F0C94F51F61
:100030000C94B2010C94B2010C94B2010C94B20174
:100040000C94B2010C94B2010C94B2010C94B20164
:100050000C94B2010C94B2010C94B2010C94AB1F3D
:100060000C94B2010C94811F0C94571F0C94B20194
:100070000C94B2010C94B2010C94B2010C94B20134
:100080000C94B2010C94B2010C94B2010C94B20124
:100090000C942D1F0C94031F0C94B2010C94FF1FA1
:1000A0000C94B2010C94B2010C94B2010C94B20104
:1000B0000C94B2010C94B2010C94B2010C94B201F4
:1000C0000C94B2010C94B2010C94B2010C94D91EA0
:1000D0000C94AF1E0C94B2010C94851E0C945B1E04
:1000E0000C94B2010C9487030C9419170C94DC0443
:1000F0000C940C060C94DB040C9400160C9434063F
:100100000C941D030C94E7150C94A6160C94BA04D9
:100110000C94C5050C94CF050C94FE080C94A50412
:100120000C94D7050C94B1050C94B6040C94CE0431
:100130000C9440160C94EB030C9418090C94CB15FA
:100140000C942A060C940F160C9438040C94110984
:100150000C9473030C94A9040C9494090C94450911
:100160000C943E060C9469170C9495030C949B0414
:100170000C94BB050C94A1040C94EE080C94E004C0
:100180000C9416060C94C4040C9464030C94C804D8
:100190000C94F3050C94D6040C941C030C941E03CD
:1001A0000C94DF050C94F9150C94EF080C94DA16F6
:1001B0000C940A170C94D2040C94AC050C94AD0466
:1001C0000C94FD050C94A4050C94E9050C942006F0
:1001D0000C94C7210C94E3140C94B0040C94C00448
:1001E00000002100240027002A002D0030003300E9
:1001F00001010000040107010A010000220025009E
:1002000028002B002E0031003400020100000501FF
:1002100008010B01000020002300260029002C000B
:100220002F0032000001000003010601090105054D
:100230000505070508080808020202020A0A08085C
:10024000040404040101010101010101030303038A
:1002500003030303040707070C0C0C0C0C0C0C0C19
:100260000202020206060606060606060B0B0B0B2A
:100270000B0B0B0B0102102020080810204010204F
:10028000408002010201080402010102040810205A
:100290004080804020100804020180040201804058
:1002A00020100804020108040201010204081020C1
:1002B0004080010204081020408000000A0B02095F
:1002C0000C0D0E08070304010000000000000000F0
:1002D000000000000000000000000000000000001E
:1002E00000000000000012111000000000000000DB
:1002F00000000000000000000000000000000000FE
:10030000C72111241FBECFEFD1E2DEBFCDBF00E079
:100310000CBF12E0A0E0B2E0EEEDF3E500E00BBFB1
:1003200002C007900D92AA34B107D9F727E0AAE4DA
:10033000B2E001C01D92A73BB207E1F711E0C1E8AE
:10034000D1E000E006C021970109802FFE010E9444
:10035000DE29C038D10780E00807A9F70E942A23C8
:100360000C94ED290C9400008F929F92AF92BF9253
:10037000CF92DF92EF92FF920F931F93CF93DF9371
:10038000EC016A017B0120E030E0A901CB01B6015C
:100390000E94082818160CF050C01AAA1BAA1CAA02
:1003A0001DAACEAADFAAE8AEF9AE8AAD882309F469
:1003B00044C00E8D1F8DF80180809180A280B38093
:1003C000A5019401C701B6010E94082887FF1AC041
:1003D000F801C082D182E282F3828EA09FA0A8A4FD
:1003E000B9A4CEA8DFA8E8ACF9ACA7019601C50175
:1003F000B4010E9467291816A4F4CEA2DFA2E8A6D1
:10040000F9A61BC020E030E0A901C501B4010E949B
:10041000082887FFE2CFF80110821182128213822E
:10042000DCCFCAA8DBA8ECA8FDA8A7019601C501EE
:10043000B4010E94082887FDE0CFDF91CF911F9182
:100440000F91FF90EF90DF90CF90BF90AF909F9073
:100450008F900895CF92DF92EF92FF92CF93DF9328
:10046000EC016A017B01E889F98982E08083C1148B
:1004700081EED806E104F104A1F060E079E08DE3BB
:1004800090E0A70196010E946A2721503109410995
:1004900051095695479537952795211580E13807DD
:1004A00098F0E889F989108260E874E88EE190E0BC
:1004B000A70196010E946A2721503109410951097B
:1004C0005695479537952795EC85FD853083EE85C4
:1004D000FF852083188EEC89FD8986E08083EA8978
:1004E000FB89808180618083EA89FB8980818860C3
:1004F0008083EA89FB89808180688083EA89FB891F
:1005000080818F7D8083DF91CF91FF90EF90DF908E
:10051000CF900895E2E6F7E090E02FEF3FEF9817D5
:1005200091F04191242748E0B90161707727369511
:100530002795672B21F051E0252750EA35274150B8
:1005400099F79F5FECCF922F832F08954F925F9280
:100550006F927F928F929F92AF92BF92EF92FF9293
:100560000F931F93CF93DF932091D5023091D60242
:10057000232BA1F4FB011082118212821382DF91DE
:10058000CF911F910F91FF90EF90BF90AF909F90F0
:100590008F907F906F905F904F900895EB018C014A
:1005A00020E030E0A901688179818A819B810E94E5
:1005B0000828811109C0F80180819181A281B3814D
:1005C00088839983AA83BB838BE0E82EF12C8090EB
:1005D000090290900A02A0900B02B0900C02A501B3
:1005E000940160E070E080E89FE30E949B272881EF
:1005F00039814A815B810E946C292B013C01F80101
:100600002081318142815381C501B4010E946C294E
:100610009B01AC01C301B2010E949C2768837983CE
:100620008A839B83F1E0EF1AF10889F6F801608371
:10063000718382839383A3CF08950895AF92BF926D
:10064000CF92DF92EF92FF920F931F93CF93DF939E
:100650006C017B018B01040F151FEB015E01AE18CD
:10066000BF08C017D10759F06991D601ED91FC91EF
:100670000190F081E02DC6011995892B79F7C5010C
:10068000DF91CF911F910F91FF90EF90DF90CF906E
:10069000BF90AF900895FC01A089B1898C91A68983
:1006A000B78982FD0FC09C91818D8F5F8F73228DE2
:1006B000821749F0A18DAE0FBF2FB11D5D969C939F
:1006C000818F08958C910895FC01538D448D252FC1
:1006D00030E0842F90E0821B930B541710F0CF96DC
:1006E000089501970895FC01918D828D981761F00E
:1006F000A28DAE0FBF2FB11D5D968C91928D9F5F25
:100700009F73928F90E008958FEF9FEF0895FC0103
:10071000918D828D981731F0828DE80FF11D858DB6
:1007200090E008958FEF9FEF0895FC01918D228D49
:10073000892F90E0805C9F4F821B91098F739927CE
:10074000089581ED93E00E94950321E0892B09F43F
:1007500020E0822F08958EE694E00E94950321E028
:10076000892B09F420E0822F08958BE095E00E9408
:10077000950321E0892B09F420E0822F089588EA6F
:1007800095E00E94950321E0892B09F420E0822F57
:100790000895FC01A48DA80FB92FB11DA35ABF4F16
:1007A0002C91848D90E001968F739927848FA68970
:1007B000B7892C93A089B1898C91837080648C93C4
:1007C000938D848D981306C00288F389E02D808173
:1007D0008F7D80830895EF92FF920F931F93CF93A5
:1007E000DF93EC0181E0888F9B8D8C8D98131AC06C
:1007F000E889F989808185FF15C09FB7F894EE8953
:10080000FF896083E889F9898081837080648083AF
:100810009FBF81E090E0DF91CF911F910F91FF90FA
:10082000EF900895F62E0B8D10E00F5F1F4F0F73A2
:100830001127E02E8C8D8E110CC00FB607FCFACF5D
:10084000E889F989808185FFF5CFCE010E94C9032F
:10085000F1CFEB8DEC0FFD2FF11DE35AFF4FF0822E
:100860009FB7F8940B8FEA89FB8980818062CFCF94
:10087000CF93DF93EC01888D8823B9F0AA89BB89D7
:10088000E889F9898C9185FD03C0808186FD0DC0C2
:100890000FB607FCF7CF8C9185FFF2CF808185FFE3
:1008A000EDCFCE010E94C903E9CFDF91CF9108952A
:1008B00080E090E0892B29F00E94BF0381110E9403
:1008C000000080E090E0892B29F00E94B50381119F
:1008D0000E94000080E090E0892B29F00E94AB0389
:1008E00081110E94000080E090E0892B29F00E9495
:1008F000A10381110C94000008958150823108F009
:100900005AC0E82FF0E08827E757FB4F8F4F0C9431
:10091000DE29A904AD049B04A104A504DB04B004F2
:10092000B604BA04C004C404C804CE04D204DB0470
:10093000D604DC04E004809180008F7780938000EF
:100940000895809180008F7DF9CF80918000877F0E
:10095000F5CF84B58F7784BD089584B58F7DFBCFA7
:100960008091B0008F778093B00008958091B0009F
:100970008F7DF9CF809190008F77809390000895BC
:10098000809190008F7DF9CF80919000877FF5CF87
:100990008091A0008F778093A00008958091A0009F
:1009A0008F7DF9CF8091A000877FF5CF80912001C6
:1009B0008F77809320010895809120018F7DF9CF5A
:1009C00080912001877FF5CFCF93DF93282F30E0F0
:1009D000F901E654FD4F8491F901EC58FD4FD49193
:1009E000F901E25DFD4FC491CC23A1F081110E9479
:1009F0007D04EC2FF0E0EE0FFF1FEC5EFD4FA591A4
:100A0000B491EC91ED2381E090E009F480E0DF9176
:100A1000CF91089580E090E0FACF1F93CF93DF93BA
:100A2000282F30E0F901E654FD4F8491F901EC588C
:100A3000FD4FD491F901E25DFD4FC491CC23A9F0A3
:100A4000162F81110E947D04EC2FF0E0EE0FFF1FA6
:100A5000E650FE4FA591B4918FB7F894EC91111127
:100A600008C0D095DE23DC938FBFDF91CF911F911B
:100A70000895DE2BF8CFCF93DF9390E0FC01EC5884
:100A8000FD4F2491825D9D4FFC0184918823D1F01C
:100A900090E0880F991FFC01E052FE4FA591B491A0
:100AA000FC01E650FE4FC591D49161110EC09FB775
:100AB000F8948C91E22FE0958E238C932881E22389
:100AC000E8839FBFDF91CF9108958FB7F894EC91A1
:100AD000E22BEC938FBFF6CF1F93CF93DF93182FAA
:100AE000EB0161E00E943B05209739F460E0812F23
:100AF000DF91CF911F910C940D05CF3FD10511F4DB
:100B000061E0F5CFE12FF0E0E654FD4FE491E150D4
:100B1000E23108F0B3C0F0E08827EE56FA4F8F4F6D
:100B20000C94DE29A405AC05B105BB05C5053E0640
:100B3000CF05D705DF05E905F305FD050C0616060B
:100B40003E0620062A06340684B5806884BDC7BDEB
:100B5000DF91CF911F91089584B5806284BDC8BD97
:100B6000F7CF80918000806880938000D0938900C7
:100B7000C0938800EDCF80918000806280938000D8
:100B8000D0938B00C0938A00E3CF8091800088606F
:100B900080938000D0938D00C0938C00D9CF80913A
:100BA000B00080688093B000C093B300D1CF809133
:100BB000B00080628093B000C093B400C9CF809130
:100BC0009000806880939000D0939900C093980023
:100BD000BFCF80919000806280939000D0939B0063
:100BE000C0939A00B5CF8091900088608093900068
:100BF000D0939D00C0939C00ABCF8091A0008068F3
:100C00008093A0008091A0008F7B8093A000D09360
:100C1000A900C093A8009CCF8091A000806280931F
:100C2000A000D093AB00C093AA0092CF8091A00007
:100C300088608093A000D093AD00C093AC0088CFB3
:100C400080912001806880932001D0932901C09376
:100C500028017ECF80912001806280932001D09373
:100C60002B01C0932A0174CF80912001886080936A
:100C70002001D0932D01C0932C016ACFC038D1053B
:100C80000CF03ECF33CF90917B00977F90937B0009
:100C90008653806480937C0080917A008064809386
:100CA0007A0080917A0086FDFCCF80917800909147
:100CB000790008953FB7F8948091CC029091CD02CD
:100CC000A091CE02B091CF0226B5A89B05C02F3FC0
:100CD00019F00196A11DB11D3FBFBA2FA92F982F62
:100CE0008827BC01CD01620F711D811D911D42E05D
:100CF000660F771F881F991F4A95D1F70895CF93E4
:100D0000DF930E945A06C5E4D7E00E94B5282C85DF
:100D10003D854E855F850E940D28688379838A838F
:100D20009B83DF91CF9108958F929F92AF92BF9254
:100D3000CF92DF92EF92FF926B017C010E945A06E4
:100D40004B015C01C114D104E104F104B9F00E942B
:100D50005A06681979098A099B09683E734081051A
:100D6000910580F321E0C21AD108E108F10888EE6C
:100D7000880E83E0981EA11CB11CE4CFFF90EF9079
:100D8000DF90CF90BF90AF909F908F9008952FB736
:100D9000F8946091C8027091C9028091CA02909142
:100DA000CB022FBF0895CF93C091A2078C2F0E9432
:100DB0008A02EC2FF0E0E75AF84F9187E1E0EC0F60
:100DC000F0E0E75AF84F8187CE5FC093A207909179
:100DD0005F0780915E079230C0F0823009F474C0E2
:100DE000833009F477C0813009F07AC09091C8004F
:100DF00090649093C80090910501906490930501D0
:100E0000909105019062909305014091A20750E0F6
:100E1000843008F06BC08091590790915A07DC012B
:100E2000ED91FC910280F381E02D62E677E0199567
:100E300090915F0780915E079230B8F0823009F49C
:100E40005AC0833009F45CC0813009F05EC09091D3
:100E5000C80096FFFCCF909105019F7B9093050100
:100E6000909105019F7D90930501843008F052C058
:100E70008091590790915A07DC01ED91FC91028411
:100E8000F385E02D199597FFF3CF1092A2070E94EA
:100E9000C7062091AC073091AD07620F731F811D0B
:100EA000911D6093B2077093B3078093B40790933A
:100EB000B5078091A8079091A90701969093A9077B
:100EC0008093A807CF9108959091D000906490935B
:100ED000D00091CF909130019064909330018BCFEE
:100EE0009091C00090649093C00085CF80915B0783
:100EF00090915C0794CF9091D00096FFFCCFABCF40
:100F00009091300196FFFCCFA6CF9091C00096FF44
:100F1000FCCFA1CF80915B0790915C07DC01ED9144
:100F2000FC910284F385E02D199597FFF3CFADCFA7
:100F30002091A202260F3327331F21323105ECF412
:100F40002091A703FC0190E080E0243069F082E06A
:100F50000895A091A2022191AC014E575D4FA40FBC
:100F6000B52FB11D2C930196861798F38091A2029C
:100F7000680F6093A20280E0089581E008951092C6
:100F8000A70381E08093A6031092810361E084E1CE
:100F90000E940D0561E085E10E940D05E9EBF0E09E
:100FA00080818E7F808380818D7F808388E48093A1
:100FB000B80085E48093BC000895CF93DF9391E05F
:100FC000909381028823B9F0C091B800D091BA0003
:100FD0008091BC008A7B8093BC0060E084E10E9429
:100FE0000D0560E085E10E940D050E94BF07D093CA
:100FF000BA00C093B800DF91CF9108958F929F926D
:10100000AF92BF92CF92DF92EF92FF920F931F9316
:10101000CF93DF93D091D003D13208F0D7C0182FEF
:10102000C091CF030E945A066B017C018091A703F7
:1010300081116BC082E08093A7031093A6038FEF0A
:101040008093A5031092A403D093A303AFEAB3E067
:10105000E3E8F3E080E0D81391C01092820380911E
:101060008203CC0FC82BC09382038091810381300F
:1010700009F088C0109281030E945A066B017C011E
:10108000809182038093BB008091A9039091AA0371
:10109000A091AB03B091AC03892B8A2B8B2BA1F0D1
:1010A0000E945A060091A9031091AA032091AB0354
:1010B0003091AC036C197D098E099F09061717073B
:1010C0002807390708F442C08091BC0083FDD8CFBF
:1010D00085EC8093BC000E945A066B017C018091D4
:1010E000A703823009F450C08091A5038F3F09F413
:1010F0006FC08091A503803209F46CC08091A50374
:10110000803309F469C084E026C08091A9039091DE
:10111000AA03A091AB03B091AC03892B8A2B8B2B34
:1011200009F484CF0E945A068090A9039090AA03E4
:10113000A090AB03B090AC036C197D098E099F0998
:1011400086169706A806B90608F070CF8091A80306
:101150000E94DD0785E01092AE031092D00310923A
:10116000AD03DF91CF911F910F91FF90EF90DF9032
:10117000CF90BF90AF909F908F9008959D91919345
:101180008F5F69CF85EEA5CF8091A9039091AA03C7
:10119000A091AB03B091AC03892B8A2B8B2B09F464
:1011A0009ECF0E945A060091A9031091AA03209194
:1011B000AB033091AC036C197D098E099F090617AA
:1011C00017072807390708F08ACFC0CF81E0C3CFBF
:1011D00080E0C1CF82E0BFCF83E0BDCF0895E09132
:1011E000600380915F03E81730F4F0E0EF59FC4FA3
:1011F000808190E008958FEF9FEF089590916003B4
:1012000080915F032FEF3FEF981748F4E92FF0E04C
:10121000EF59FC4F208130E09F5F90936003C9013C
:10122000089580915F0390916003891B990B089545
:10123000CF92DF92EF92FF920F931F93CF93DF93A2
:101240007C01CB018A012091AD03222389F0EB01BF
:101250006B01C40ED51ECC15DD0569F06991D7016F
:10126000ED91FC910190F081E02DC7011995F3CF2C
:10127000642F0E949807C801DF91CF911F910F91B1
:10128000FF90EF90DF90CF900895CF93DF931F9260
:10129000CDB7DEB769832091AD032223F9F0209109
:1012A000D003203258F021E030E0FC013383228368
:1012B00090E080E00F90DF91CF9108958091AE0390
:1012C000E82FF0E0E155FC4F998190838F5F809388
:1012D000AE038093D00381E090E0ECCF61E0CE01DB
:1012E00001960E949807F7CFCF93DF93EB0191E02F
:1012F0009093AD038093CF031092AE031092D0036E
:1013000061E085E496E00E9445096D2F85E496E052
:101310000E9445096C2F85E496E00E94450981E012
:10132000DF91CF910C94FE0790E080E008952F921A
:101330003F924F925F926F927F928F929F92AF9265
:10134000BF92CF92DF92EF92FF920F931F93CF93B2
:10135000DF93CDB7DEB72E970FB6F894DEBF0FBE82
:10136000CDBF20E030E04FE753E46091A5067091D7
:10137000A6068091A7069091A8060E940D286B01F1
:101380007C0120916E0230916F0240917002509169
:1013900071020E946C2920E030E040E05FE30E948F
:1013A0006C2969877A878B879C878090410790900A
:1013B0004207A0904307B090440720916A02309101
:1013C0006B0240916C0250916D02C701B6010E9400
:1013D0006C2920E030E040E05FE30E946C292B01A3
:1013E0003C01C0906602D0906702E0906802F090E5
:1013F00069020091620210916302809164028E87FB
:10140000909165029D8720905E0230905F028091EE
:1014100060028F8390916102988780915A028B833A
:1014200090915B029C8380915C028D8390915D0220
:101430009E838BE090E09A8389839601A701C50182
:10144000B4010E946C2929853A854B855C850E94F0
:101450009C276B017C0198014E855D85C501B40117
:101460000E946C29A30192010E949C278B018E8708
:101470009D879601A701B1018F8198850E94082858
:1014800087FF03C01601EF82F88698014E855D85BF
:101490006B817C818D819E810E94082887FF06C018
:1014A0000B831C839E859D838D858E8389819A8184
:1014B00001979A838983892B09F0BFCFC101AF813E
:1014C000B88580935E0290935F02A0936002B09310
:1014D00061028B819C81AD81BE8180935A02909381
:1014E0005B02A0935C02B0935D02C601D7018093BA
:1014F000660290936702A0936802B0936902C801E4
:10150000AE85BD858093620290936302A0936402CE
:10151000B0936502C601D701809378029093790257
:10152000A0937A02B0937B02C801AE85BD858093FB
:10153000720290937302A0937402B093750220E03C
:1015400030E048EC52E4B601C7010E946C290E94C9
:10155000862870930E0360930D0320E030E048EC82
:1015600052E4B8018E859D850E946C290E948628D0
:101570007093100360930F032E960FB6F894DEBF9E
:101580000FBECDBFDF91CF911F910F91FF90EF90D4
:10159000DF90CF90BF90AF909F908F907F906F9093
:1015A0005F904F903F902F9008952F923F924F92CF
:1015B0005F926F927F928F929F92AF92BF92CF92E3
:1015C000DF92EF92FF920F931F93CF93DF93CDB7EC
:1015D000DEB72F970FB6F894DEBF0FBECDBF9F8743
:1015E0008E870E94C7066D837E838F839887EE85E2
:1015F000FF8582A193A1A4A1B5A14D815E816F81D8
:101600007885481B590B6A0B7B0B86A597A5A0A96B
:10161000B1A9481759076A077B0708F426C1048C4B
:10162000F58DE02D80819181A281B38189839A8398
:10163000AB83BC83AE85BF859096ED91FC912981EB
:101640003A814B815C8160817181828193810E94AA
:101650009B274B015C01EE85FF8522A533A544A5A0
:1016600055A569817A818B819C810E949B276B01A2
:101670007C01AE85BF8550962D913D914D915C9139
:101680005397C501B4010E946C29EE85FF8526A100
:1016900037A140A551A50E949C272B013C01AE8596
:1016A000BF8596964D925D926D927C929997DB964E
:1016B000BC91B987B11118C0EE85FF8524853585A9
:1016C00046855785C701B6010E946C299B01AC0174
:1016D000C301B2010E949B27AE85BF8596966D938C
:1016E0007D938D939C939997EE85FF8546A057A097
:1016F00060A471A416A907A930AC21AC212F302F0A
:10170000432D522DC301B2010E94672918160CF017
:101710008FC0812F902FA32DB22DEE85FF8586A33C
:1017200097A3A0A7B1A7F985FF2309F49AC0AE85B6
:10173000BF851C962D913D914D915C911F97C501E0
:10174000B4010E946C294B015C01EE85FF85248960
:10175000358946895789C701B6010E946C299B01CA
:10176000AC01AE85BF8596966D917D918D919C91D2
:1017700099970E949B27A50194010E949C276B01C9
:101780007C019B01AC01612F702F832D922D0E9453
:10179000082887FD14C0EE85FF8512A903A934A887
:1017A00025A8212F302F432D522DB601C7010E94AD
:1017B000082887FD04C01C2D0D2D3E2C2F2CAE8536
:1017C000BF855E96ED91FC91812F902FA32DB22DB8
:1017D00080839183A283B38389819A81AB81BC8109
:1017E000EE85FF8582A793A7A4A7B5A78D819E81CB
:1017F000AF81B88582A393A3A4A3B5A381E02F965C
:101800000FB6F894DEBF0FBECDBFDF91CF911F9111
:101810000F91FF90EF90DF90CF90BF90AF909F908F
:101820008F907F906F905F904F903F902F90089592
:10183000AE85BF85D2968D919D910D90BC91A02DC6
:101840008A879B87AC87BD879C01AD01C301B2012C
:101850000E94082887FF67CF8A859B85AC85BD8558
:101860005CCF812C912C540170CF80E0C8CF809147
:10187000E706882321F08DEA96E00E94D50A809140
:101880009306882321F089E596E00E94D50A6091AD
:10189000A5067091A6068091A7069091A8060E94C1
:1018A0007F2887E00E946C05609151067091520676
:1018B00080915306909154060E947F2885E00E94F3
:1018C0006C056091A5067091A6068091A70690917F
:1018D000A8060E94862870931203609311036091FA
:1018E00051067091520680915306909154060E94C1
:1018F0008628709314036093130308958F929F9228
:10190000AF92BF92CF92DF92EF92FF92CF93DF938D
:10191000EC01EE8DFF8DC080D180E280F380CEA2FD
:10192000DFA2E8A6F9A6EC8DFD8D80819181A281D0
:10193000B3818AA79BA7ACA7BDA78EA89FA8A8AC78
:10194000B9ACA5019401C701B6010E946729181618
:101950002CF48EA29FA2A8A6B9A60CC08AA89BA808
:10196000ACA8BDA8A5019401C701B6010E94082832
:1019700087FDEFCFDF91CF91FF90EF90DF90CF9079
:10198000BF90AF909F908F9008958F929F92AF924B
:10199000BF92CF92DF92EF92FF92CF93DF93161612
:1019A0001706ACF5EC016B01770FEE08FF08C701D5
:1019B000B6010E94B7284B015C016EA57FA588A9DE
:1019C00099A90E94B5289B01AC01C501B4010E94F0
:1019D0000D284B015C01AC019B01688979898A89DA
:1019E0009B890E946C29688B798B8A8B9B8BA501C4
:1019F00094016C897D898E899F890E940D286C8B4A
:101A00007D8B8E8B9F8BCEA6DFA6E8AAF9AADF91ED
:101A1000CF91FF90EF90DF90CF90BF90AF909F90CD
:101A20008F9008954F925F926F927F928F929F92C4
:101A3000AF92BF92CF92DF92EF92FF920F931F93DC
:101A4000CF93DF9300D000D0CDB7DEB79E838D83D8
:101A50002A013B014801590120E030E0A901CB01F6
:101A6000B2010E94082887FD89C020E030E0A9016A
:101A7000C501B8010E94082887FD80C020E030E041
:101A8000A901C701B6010E94082887FD77C081E03F
:101A9000ED81FE81228D338D2130310509F080E00A
:101AA000ED81FE8183AF40825182628273828482A3
:101AB0009582A682B782C086D186E286F38666A525
:101AC00077A580A991A90E94B52820E030E04AE7D7
:101AD00054E40E940D2869837A838B839C83ED8173
:101AE000FE8144865586668677869B01AC01C501DA
:101AF000B4010E946C294B015C01ED81FE81808A5A
:101B0000918AA28AB38A29813A814B815C81C7017B
:101B1000B6010E940D286B017C01ED81FE81C48A13
:101B2000D58AE68AF78A808D918D019739F5A301D0
:101B3000920160E070E0CB010E949B27ED81FE8165
:101B40006487758786879787A501940160E070E0B8
:101B5000CB010E949B27ED81FE81608B718B828B74
:101B6000938BA701960160E070E0CB010E949B2758
:101B7000ED81FE81648B758B868B978B26960FB6D5
:101B8000F894DEBF0FBECDBFDF91CF911F910F91B3
:101B9000FF90EF90DF90CF90BF90AF909F908F908D
:101BA0007F906F905F904F900895CF92DF92EF9269
:101BB000FF920F931F93CF93C82F81E08093AD03C3
:101BC000C093CF031092AE031092D00360E085E47F
:101BD00096E00E94450981E00E94FE070E945A0695
:101BE0006B017C018091A703811165C081E0809326
:101BF000A7038093A6039FEF9093A5031092A403DD
:101C00008093A3038093820380918203CC0FC82B1F
:101C1000C093820380918103813009F08CC01092BF
:101C200081030E945A066B017C018091820380939C
:101C3000BB008091A9039091AA03A091AB03B0913E
:101C4000AC03892B8A2B8B2BA1F00E945A060091A2
:101C5000A9031091AA032091AB033091AC036C1936
:101C60007D098E099F09061717072807390708F409
:101C700043C08091BC0083FDD8CF85EC8093BC002D
:101C80000E945A066B017C018091A703813009F400
:101C900054C08091A403823008F071C08091A403E5
:101CA000A3E8B3E0E1E6F3E090E0981751F12D915D
:101CB00021939F5FFACF8091A9039091AA03A091ED
:101CC000AB03B091AC03892B8A2B8B2B09F48ACF01
:101CD0000E945A060091A9031091AA032091AB0318
:101CE0003091AC036C197D098E099F0906171707FF
:101CF0002807390708F076CF8091A8030E94DD07F6
:101D000080E01092600380935F0385E496E00E9478
:101D1000FE08C82F85E496E00E94FE0820E03C2FD4
:101D2000A901482BCA01CF911F910F91FF90EF900D
:101D3000DF90CF90089585EEA1CF8091A903909177
:101D4000AA03A091AB03B091AC03892B8A2B8B2BF8
:101D500009F49ACF0E945A060091A9031091AA0390
:101D60002091AB033091AC036C197D098E099F095A
:101D7000061717072807390708F086CFBDCF82E07E
:101D80008FCFCF92DF92EF92FF92CF93DF93EC0150
:101D90006C857D85636E716889850E9474098BEB03
:101DA00092E10197F1F789850E94D50D2B85022ECE
:101DB00002C0969587950A94E2F7222329F08115AF
:101DC00028E0920708F0906F9F8B8E8B6C857D8545
:101DD000636E716B89850E9474098BEB92E10197A8
:101DE000F1F789850E94D50D2B85022E02C09695AC
:101DF00087950A94E2F7222329F0811528E09207BB
:101E000008F0906F998F888FBC01990F880B990B00
:101E10000E94B7286B017C016E897F89072E000C18
:101E2000880B990B0E94B7289B01AC01C701B60132
:101E30000E940D282E853F85488959890E946C296A
:101E4000DF91CF91FF90EF90DF90CF9008954F9268
:101E50005F926F927F928F929F92AF92BF92CF923A
:101E6000DF92EF92FF92CF93DF93CDB7DEB7649707
:101E70000FB6F894DEBF0FBECDBF8091D702909110
:101E8000D802039709F0B3C28AE097EDA3E2BCE35E
:101E900080934D0790934E07A0934F07B093500740
:101EA0000E945A060E94B52820915107309152078E
:101EB00040915307509154070E940D286B017C01FB
:101EC000C0924907D0924A07E0924B07F0924C0724
:101ED0008090450790904607A0904707B09048072C
:101EE000AC019B01C501B4010E9467291816DCF4FE
:101EF000A50194016091550770915607809157078D
:101F0000909158070E949B279B01AC0160E070E014
:101F1000CB010E949B2760934507709346078093EF
:101F20004707909348072091450730914607409115
:101F3000470750914807C701B6010E949B2720918F
:101F40004D0730914E0740914F07509150070E9426
:101F5000672918160CF078C227ED33EA40EF5EE3EC
:101F60006091A9067091AA068091AB069091AC068B
:101F70000E946C2920E030E043E153E40E949C275A
:101F80004B015C0127ED33EA40EF5EE360915506BB
:101F90007091560680915706909158060E946C29C0
:101FA00020E030E043E153E40E949C276B017C0178
:101FB00020E030E0A901C501B4010E94082887FD96
:101FC0001BC220E030E04FE753E4C501B4010E949A
:101FD000672918160CF414C280920502909206022A
:101FE000A0920702B092080220E030E0A901C701E8
:101FF000B6010E94082887FD0AC220E030E04FE7C2
:1020000053E4C701B6010E94672918160CF403C2F5
:10201000C0920102D0920202E0920302F092040206
:10202000B501A4018DEA96E00E94B401B701A601B2
:1020300089E596E00E94B4010E945A066B017C017A
:1020400061E087E00E940D0561E085E00E940D05DA
:102050000E945A066C197D098E099F0960397140EA
:1020600081059105A8F389E30E9443062AEE31E039
:10207000DC010E94E629CC24CA9423E0D22EE12C74
:10208000F12CA70196010E944B27CA01B9010E94B9
:10209000B7289B01AC010E949C2720E030E048EC6F
:1020A00052E40E940D282B013C0140926E02509296
:1020B0006F02609270027092710287E30E94430681
:1020C0002AEE31E0DC010E94E629A70196010E9478
:1020D0004B27CA01B9010E94B7289B01AC010E949D
:1020E0009C2720E030E048EC52E40E940D28698BE8
:1020F0007A8B8B8B9C8B60936A0270936B028093BC
:102100006C0290936D0288E30E94430620E53AE05A
:10211000DC010E94E629A70196010E944B27CA0113
:10212000B9010E94B72820E030E048EC52E40E9458
:102130000D284B015C018092560290925702A092AA
:102140005802B092590286E30E94430620E53AE025
:10215000DC010E94E629A70196010E944B27CA01D3
:10216000B9010E94B72820E030E048EC52E40E9418
:102170000D286B017C01C0925202D0925302E09272
:102180005402F09255026091A5067091A6068091C6
:10219000A7069091A8060E947F2887E00E946C0500
:1021A00060915106709152068091530690915406A9
:1021B0000E947F2885E00E946C0580914F039091DA
:1021C00050039A838983A0915103B0915203BC8339
:1021D000AB8380915303909154039E838D83A09190
:1021E0005503B0915603B887AF8380915703909100
:1021F00058039A878987A0915903B0915A03BC87E5
:10220000AB8780915B0390915C039E878D87A09143
:102210005D03B0915E03B88BAF87A3019201C50146
:10222000B4010E940D2829813A814B815C810E9472
:102230006C292D813E814F8158850E949C274B013E
:102240005C0129893A894B895C89C701B6010E94E2
:102250000D2829853A854B855C850E946C292D8542
:102260003E854F8558890E949C276B017C01A50102
:102270009401C501B4010E94D929882309F4D2C070
:102280001092A9061092AA061092AB061092AC0604
:10229000A7019601C701B6010E94D9298111CBC0BF
:1022A000C0925506D0925606E0925706F092580614
:1022B00020E030E0A90160914E0270914F028091C0
:1022C0005002909151020E940828811110C0809103
:1022D000A9069091AA06A091AB06B091AC06809396
:1022E0004E0290934F02A0935002B093510220E00F
:1022F00030E0A90160914A0270914B0280914C023A
:1023000090914D020E940828811110C080915506BD
:1023100090915606A0915706B091580680934A02B4
:1023200090934B02A0934C02B0934D0220E030E01A
:10233000A9016091090270910A0280910B029091AB
:102340000C020E946729181664F46EE472E089EAB0
:1023500096E00E94A6026AE472E085E596E00E949B
:10236000A6028BE197E00E94C10E85EF96E00E94E5
:10237000C10E20E030E048EC52E46091A906709173
:10238000AA068091AB069091AC060E946C290E942F
:10239000862870930A036093090320E030E048EC3C
:1023A00052E46091550670915606809157069091BF
:1023B00058060E946C290E94862870930C03609333
:1023C0000B0364960FB6F894DEBF0FBECDBFDF914E
:1023D000CF91FF90EF90DF90CF90BF90AF909F9004
:1023E0008F907F906F905F904F900C947F0680E06D
:1023F00090E0A0E0BFE34CCD812C912C5401ECCDBA
:10240000812C912C4FE7A42E43E4B42EE5CDC12CB2
:10241000D12C7601FDCDC12CD12C3FE7E32E33E446
:10242000F32EF6CD8092A9069092AA06A092AB0652
:10243000B092AC062DCF109255061092560610920F
:1024400057061092580634CF64960FB6F894DEBF44
:102450000FBECDBFDF91CF91FF90EF90DF90CF9077
:10246000BF90AF909F908F907F906F905F904F90B4
:1024700008958F929F92AF92BF92CF92DF92EF9288
:10248000FF92CF93DF930E94270F8090A106909038
:10249000A206A090A306B090A406A50194016091A5
:1024A000A9067091AA068091AB069091AC060E9495
:1024B0009B276B017C0120E030E0A9010E94672985
:1024C000181624F0F7FAF094F7F8F09420E030E0D2
:1024D00040E050E4C701B6010E940828C0911703EC
:1024E000D091180387FD3AC0A5019401609155066B
:1024F0007091560680915706909158060E949B272E
:102500006B017C0120E030E0A9010E9467291816C8
:1025100024F0F7FAF094F7F8F09420E030E040E08F
:1025200050E4C701B6010E94082887FD17C08091BA
:10253000D5029091D602892B89F0C860D0931803F8
:10254000C0931703DF91CF91FF90EF90DF90CF9072
:10255000BF90AF909F908F900C949709C77FEECF5C
:1025600070E060E087E00E946C0570E060E085E06C
:102570000E946C051092A5061092A6061092A7065E
:102580001092A806E5EDF2E015AE14AE10925106D9
:1025900010925206109253061092540617AE16AEC1
:1025A0001092A1061092A2061092A3061092A40601
:1025B00013AA12AA1092E706109293060895FC013E
:1025C00001900020E9F73197AF01481B590BBC017E
:1025D00088EA95E00C941E038F929F92AF92BF926F
:1025E0000F931F93CF93DF93CDB7DEB7A1970FB6AD
:1025F000F894DEBF0FBECDBF19A2423008F44AE006
:102600008E010F5D1F4F842E912CB12CA12CA501A2
:1026100094010E946A27E62FB901CA01EA30F4F456
:10262000E05DD801EE938D01232B242B252B79F728
:1026300090E080E0109719F0CD010E94DF12A19682
:102640000FB6F894DEBF0FBECDBFDF91CF911F91C3
:102650000F91BF90AF909F908F900895E95CE1CF6C
:102660004F925F926F927F928F929F92AF92BF92A2
:10267000CF92DF92EF92FF926B017C01AC019B0144
:102680000E94D929882381F089E392E0FF90EF909E
:10269000DF90CF90BF90AF909F908F907F906F9082
:1026A0005F904F900C94DF1246015701E894B7F801
:1026B0002FEF3FEF4FE75FE7C501B4010E94D92933
:1026C00081110DC02FEF3FEF4FE75FE7C501B40168
:1026D0000E94082818161CF48DE392E0D7CF2FEF44
:1026E0003FEF4FE75FE4C701B6010E946729181664
:1026F0001CF481E492E0CACF2FEF3FEF4FE75FEC8D
:10270000C701B6010E94082887FDF3CF20E030E022
:10271000A901C701B6010E940828B12CA12C87FF8E
:102720000AC06DE288EA95E00E94EB035C01F7FACB
:10273000F094F7F8F0942AE037ED43EA5BE3C70141
:10274000B6010E949C272B013C010E9486286B0148
:102750007C010E94B5289B01AC01C301B2010E941B
:102760009B272B013C014AE0C701B6010E94EC12F5
:102770007C01EA0CFB1C6EE288EA95E00E94EB0308
:10278000E80EF91E20E030E040E251E4C301B2015E
:102790000E946C292B013C010E9486284B01B12C20
:1027A000A12C4AE0C501B4010E94EC12E80EF91E0A
:1027B000C501B4010E94B5289B01AC01C301B2015F
:1027C0000E949B2720E030E040E251E40E946C2907
:1027D0000E94862890E080E04AE00E94EC128E0D74
:1027E0009F1DFF90EF90DF90CF90BF90AF909F9094
:1027F0008F907F906F905F904F90089585E492E066
:102800000C94DF128091270390912803892B09F4FF
:102810009FC00E94C7060E94B52820E030E04AE72A
:1028200054E40E940D280E9430130E94FE13609110
:10283000A9067091AA068091AB069091AC060E9401
:1028400030130E94FE1360915602709157028091DE
:102850005802909159020E9430130E94FE13609119
:102860006E0270916F0280917002909171020E94CD
:1028700030130E94FE13609178027091790280916A
:102880007A0290917B020E9430130E94FE136091A5
:10289000A5067091A6068091A7069091A8060E94B1
:1028A00030130E94FE136091550670915606809178
:1028B0005706909158060E9430130E94FE136091B3
:1028C00052027091530280915402909155020E94DD
:1028D00030130E94FE1360916A0270916B02809126
:1028E0006C0290916D020E9430130E94FE13609161
:1028F00072027091730280917402909175020E942D
:1029000030130E94FE13609151067091520680911F
:102910005306909154060E9430130E94FE1360915A
:10292000A1067091A2068091A3069091A4060E9430
:1029300030130E94FE136091D7027091D80290E08C
:1029400080E04AE00E94EC1287E492E00C94DF12EF
:1029500008958F929F92AF92BF92CF92DF92EF92A3
:10296000FF920F931F93CF93DF9385ED92E09093A7
:10297000A5078093A40785E48093B60780915E073E
:10298000843078F58091590790915A07DC01ED91D8
:10299000FC910084F185E02D19958823A1F0909198
:1029A000A307891719F18093A3070E94C7066B5FDD
:1029B0007F4F8F4F9F4F6093AE077093AF07809309
:1029C000B0079093B107DF91CF911F910F91FF90C6
:1029D000EF90DF90CF90BF90AF909F908F900C942E
:1029E000021480915B0790915C07D0CF0E94C706CC
:1029F0000091AE071091AF072091B0073091B10759
:102A00006017710782079307F0F21092A307809175
:102A10005F07823050F0809105018F7B8093050124
:102A2000809105018F7D809305011092A20780910E
:102A30005E07C0E0843040F180915B0790915C07B5
:102A4000DC01ED91FC910084F185E02D1995892B35
:102A500009F43FC080915B0790915C07DC01ED9128
:102A6000FC910284F385E02D19959091A207E92F3E
:102A7000F0E0E75AF84F81879F5F9093A207903468
:102A8000D8F2C1E0D9CFC1E08091590790915A079F
:102A9000DC01ED91FC910084F185E02D1995892BE5
:102AA000C1F08091590790915A07DC01ED91FC919A
:102AB0000284F385E02D19959091A207E92FF0E0AB
:102AC000E75AF84F81879F5F9093A2079034D8F61A
:102AD000DBCF8091A6079091A70701969093A70757
:102AE0008093A607CC2369F08091AA079091AB0749
:102AF00001969093AB078093AA078DEF80936107AF
:102B000062CF8091A2078093610787300CF45BCF7E
:102B10002091620790915D07291355CFC82FD0E00F
:102B200082500E948A02C75AD84F2F8138852327A6
:102B3000322723272817390769F08091AA07909137
:102B4000AB0701969093AB078093AA07CFEFC09392
:102B5000610739CF20916307EDE0F2E081918217A0
:102B600009F4D8C1B2E0E531FB07C1F78091AA07AB
:102B70009091AB0701969093AB078093AA07C1E0B1
:102B8000205820936307C093640783E08093A207D3
:102B90000E94D306DCCF8091640790916507982747
:102BA00089279827AC01F4E056954795FA95E1F707
:102BB0008091660790916707982789279827A4E056
:102BC00096958795AA95E1F7840F951F0CC0809183
:102BD000640790916507982789279827E4E09695E0
:102BE0008795EA95E1F79091B6079817C0F4C2E08F
:102BF000C7CF809164079091650798278927F3CF05
:102C000080916607909167079827892798274091B8
:102C1000640750916507542745275427D5CF0E9454
:102C2000C7062091AC073091AD07620F731F811D5D
:102C3000911D6093B2077093B3078093B40790938C
:102C4000B50710926107E0916307E150E03108F0A9
:102C5000BACEF0E08827E05DF94E8F4F0C94DE2964
:102C600040164016A616A616DA160A17E314E31441
:102C7000E314E314E314E314E314E31419176917DA
:102C8000809164079091650798278927982700917C
:102C9000660710916707102701271027A80173E026
:102CA000569547957A95E1F7242FE801C770DD27FF
:102CB000209711F021E0240F2093640723E0209354
:102CC000A207080F191F30E0C12CD12C7601C39444
:102CD0008017910791F1E22FF0E0B701A601032ED2
:102CE00004C0440F551F661F771F0A94D2F7E75A96
:102CF000F84FB184DC0153E0B695A7955A95E1F7FA
:102D0000AE7FB170AB52BD4F8D909C90A82FAF702D
:102D1000AA2ED40102C0B695A795AA94E2F7A0FF07
:102D200009C04B2941873F5F383010F02F5F30E0FA
:102D30000196CECF40954B21F5CFCD2B29F4209392
:102D4000A2070E94D3063FCE2F5FF9CF8091640780
:102D50009091650798278927982F209166073091D1
:102D6000670732272327322F330F30936407E3E0BE
:102D7000280F3327331F82E08E0FA92FB0E0A21750
:102D8000B307ACF4AA0FBB1FAB52BD4F4C911196C9
:102D90005C91AE2FB0E0A75AB84F19965C93EF5FE5
:102DA000F0E0E75AF84F41879F5FE82FE4CFE093C8
:102DB000A207C7CF209164073091650732272327E8
:102DC0003227F90173E0F695E7957A95E1F7EE7F02
:102DD000F170EB52FD4F408151812F7081E090E006
:102DE000A0E0B0E004C0880F991FAA1FBB1F2A955E
:102DF000D2F7209166072F3F41F4842B952B9183C6
:102E0000808386E08093A2079CCF80959095842351
:102E10009523F5CFE0916507F0E0EE0FFF1FEB5231
:102E2000FD4F80916607909167079827892798271B
:102E3000E6CF8091640790916507982789279827A6
:102E40002091660730916707322723273227280F02
:102E5000391F10E007E0C12CD12C7601C3948217F2
:102E6000930779F2FC0143E0F695E7954A95E1F77F
:102E7000EE7FF170EB52FD4F482F4F704601570126
:102E800004C0880C991CAA1CBB1C4A95D2F7A4014B
:102E9000C081D181A02FB0E0A75AB84F1996AC914C
:102EA000B0E0012E02C0B595A7950A94E2F7A0FF05
:102EB0000BC04C2B5D2B518340831F5F183010F0EB
:102EC0000F5F10E00196CBCF409550954C235D23CA
:102ED000F2CFE0916507409167071092660786E0A0
:102EE0008093A207A9E5B7E0F0E0EE0FFF1FEB52D9
:102EF000FD4F80E01296481709F423CF1E962C91BF
:102F00001E971F969C911F97322F292F2193319343
:102F10008F5FF0CFEFEFE20FE03108F080CEF0E00E
:102F20008827EA56F84E8F4F0C94DE29CB15CB1527
:102F300000160016E715F9150F160F160F160F16C7
:102F40000F160F160F160F16CB150016CF92DF9225
:102F5000EF92FF926B017C010E94C706C60ED71E3E
:102F6000E81EF91E0E94C706C616D706E806F9062F
:102F700038F00E9439120E94A9140E947719F2CFEA
:102F8000FF90EF90DF90CF900895CF93DF93EC0107
:102F90000E94B01284E090E09093080380930703AE
:102FA000C093D702D093D80281E090E0A0E0B0E0D7
:102FB00004C0880F991FAA1FBB1FCA95D2F7209182
:102FC000190330911A03822B932B90931A03809349
:102FD000190360E086E10E940D0560E087E10E9430
:102FE0000D0560912B0370912C038DE00E946C0500
:102FF00060E08AE00E940D056AEF70E080E090E0FA
:103000000E94A61760E088E00E940D056AEF70E05C
:1030100080E090E00E94A61760E089E00E940D0524
:103020006AEF70E080E090E00E94A61760E082E026
:103030000E940D058091D5029091D602069739F035
:103040000E94A9140E94270F0E949709F3CF61E004
:1030500086E10E940D0561E087E10E940D0561E0B7
:1030600082E0DF91CF910C940D05CF92DF92EF9229
:10307000FF920E94C7061092D4020E94C706C09019
:10308000B207D090B307E090B407F090B507209155
:10309000170330911803C616D706E806F90608F09C
:1030A00005C1C901806190931803809317030E94A2
:1030B000B01220E030E040E85FE36091A506709137
:1030C000A6068091A7069091A8060E9408281816C7
:1030D0008CF420E030E040E85FE3609151067091AD
:1030E000520680915306909154060E9408281816A3
:1030F0000CF4F3C020E030E040E050E4609178024E
:103100007091790280917A0290917B020E946729E6
:1031100087FDD3C0809176029091770201969093BB
:103120007702809376024F974CF00E94021488E059
:1031300090E00E94C51781E08093D40220E030E047
:1031400046E653E46091A9067091AA068091AB0609
:103150009091AC060E94672918167CF48091D502E4
:103160009091D602892B49F081E08093D4020E948D
:10317000021489E090E00E94C51720E030E046E6A6
:1031800053E46091550670915606809157069091D0
:1031900058060E94672918167CF48091D5029091F8
:1031A000D602892B49F081E08093D4020E94021458
:1031B0008AE090E00E94C51720E030E0A90160910C
:1031C000A9067091AA068091AB069091AC060E9468
:1031D000082887FF0DC08091D5029091D602892BD7
:1031E00039F08DE090E00E94C51781E08093D40211
:1031F00020E030E0A901609155067091560680915B
:103200005706909158060E94082887FF0DC08091AC
:10321000D5029091D602892B39F08DE090E00E9482
:10322000C51781E08093D40220E030E040E850E40C
:10323000609178027091790280917A0290917B027C
:103240000E94672918164CF40E9402148BE090E04B
:103250000E94C51781E08093D40220E030E040E86E
:1032600050E46091720270917302809174029091A7
:1032700075020E94672918164CF40E9402148CE013
:1032800090E00E94C51781E08093D4028CE30E94F5
:10329000E404892B39F581E08093D4028FE090E03B
:1032A000FF90EF90DF90CF900C94C517C9018F7EEF
:1032B0009093180380931703FCCE20E030E040E0A9
:1032C00050E4609172027091730280917402909147
:1032D00075020E94672987FF1DCF10927702109216
:1032E00076022CCFFF90EF90DF90CF9008958EE381
:1032F0000E94E4040197E1F08EE090E09093D80200
:103300008093D7028EE30E94E404019719F00E9493
:10331000A914F8CF60ED77E080E090E00E94A61756
:103320001092D6021092D5021092D8021092D702B3
:10333000089585ED8093BC008091A9039091AA0324
:10334000A091AB03B091AC030796A11DB11D23E082
:10335000B695A795979587952A95D1F72091BC00AA
:1033600024FD03C01092A70308954091A903509132
:10337000AA036091AB037091AC03452B462B472BFE
:1033800069F30097A105B10541F025E32A95F1F70E
:1033900000000197A109B109E1CF8091A8030C9425
:1033A000DD07FF920F931F93CF93DF93EC018B0107
:1033B000FB01F0800E943527F81621F06F2DCE0119
:1033C0000E943D27F801F1802196CE010E94352709
:1033D000F81621F06F2DCE010E943D27C801DF9124
:1033E000CF911F910F91FF90089561EE72E088E0F8
:1033F00090E00E94D11963EE72E08CE090E00E94B0
:10340000D11965EE72E080E190E00E94D11967EE7B
:1034100072E084E190E00E94D11969EE72E088E1E7
:1034200090E00E94D1196BEE72E08CE190E00E9476
:10343000D1196FE473E080E091E00E94D11961E559
:1034400073E082E091E00E94D11963E573E084E0CB
:1034500091E00E94D11965E573E086E091E00E9459
:10346000D11967E573E080E191E00E94D11969E527
:1034700073E082E191E00E94D1196BE573E084E191
:1034800091E00E94D1196DE573E086E191E00E9420
:10349000D1196BE273E080E291E00E94D1196DE2F4
:1034A00073E084E291E00E94D1196FED72E088E24E
:1034B00091E00E94D1196FE173E08CE291E00E94EB
:1034C000D1196FE273E080E391E00E94D1196DEDB4
:1034D00072E084E391E00E94D11963E373E088E332
:1034E00091E00E94D11965E373E08CE391E00E94C2
:1034F000D11967E373E080E491E00E94D1196DE493
:1035000073E084E491E00E94D11969ED72E088E4EF
:1035100091E00E94D11967E273E08CE491E00E948F
:10352000D11969E373E088E592E00E94D1196BE359
:1035300073E08CE592E00E94D1196DE373E080E6C0
:1035400092E00E94D1196FE373E084E692E00E945A
:10355000D11961E473E088E692E00E94D11963E436
:1035600073E08CEB92E00E94D11965E473E080EC8B
:1035700092E00E94D11967E473E084EC92E00E942B
:10358000D11969E473E088EC92E00E94D1196BE4F0
:1035900073E08CEC92E00E94D1196FEF72E088EE3C
:1035A00093E00E94D1196EE170E080E090E00C940D
:1035B000A6171F93CF93DF93EC010E943527182F96
:1035C000CE0101960E94352790E0982F8827810F21
:1035D000911DDF91CF911F91089588E090E00E94A6
:1035E000D91ABC0190E080E00E94B52820E030E0CC
:1035F00048EC52E40E940D286093E9067093EA06B5
:103600008093EB069093EC068CE090E00E94D91A30
:10361000BC0190E080E00E94B52820E030E048EC5A
:1036200052E40E940D286093ED067093EE0680939D
:10363000EF069093F00680E190E00E94D91ABC0159
:1036400090E080E00E94B52820E030E048EC52E4B1
:103650000E940D286093F1067093F2068093F306A2
:103660009093F40684E190E00E94D91ABC0190E0A6
:1036700080E00E94B52820E030E048EC52E40E944F
:103680000D28609395067093960680939706909305
:10369000980688E190E00E94D91ABC0190E080E091
:1036A0000E94B52820E030E048EC52E40E940D284A
:1036B0006093990670939A0680939B0690939C065C
:1036C0008CE190E00E94D91ABC0190E080E00E9459
:1036D000B52820E030E048EC52E40E940D286093C9
:1036E0009D0670939E0680939F069093A0068091FE
:1036F000FF0290910003892BB9F488E291E00E94C7
:10370000D91ABC0190E080E00E94B52820E030E0AA
:1037100048EC52E40E940D286093A1067093A20623
:103720008093A3069093A40608954F925F926F92A0
:103730007F928F929F92AF92BF92CF92DF92EF9241
:10374000FF920F931F93CF93DF93CDB7DEB76897A8
:103750000FB6F894DEBF0FBECDBF6D8B7E8B8F8B07
:10376000988F0E94C70669837A838B839C830E940B
:10377000C7066D837E838F8398878091E7068111CA
:1037800004C08DEA96E00E947E0C81E08093E706FB
:1037900080919306811104C089E596E00E947E0C19
:1037A00081E08093930680911703909118038E7F98
:1037B00090931803809317030E94ED1AC090F106AE
:1037C000D090F206E090F306F090F4060091ED063A
:1037D0001091EE062091EF063091F0064091E90637
:1037E0005091EA066091EB067091EC068DEA96E046
:1037F0000E94120DC0909D06D0909E06E0909F06FC
:10380000F090A0060091990610919A0620919B06CF
:1038100030919C06409195065091960660919706CE
:103820007091980689E596E00E94120D1092800230
:103830000E9439120E94370C83E090E090930803B5
:10384000809307030E94C7062B013C0189809A8060
:10385000AB80BC802D893E894F89588D820E931E86
:10386000A41EB51E2091A9063091AA064091AB0670
:103870005091AC066091A1067091A2068091A306BA
:103880009091A4060E949B2720E030E048EC51E490
:103890000E946C296B017C0120E030E0A9010E94AC
:1038A000672918160CF053C1C701B6010E9486287B
:1038B000860E971EA81EB91E481459046A047B047C
:1038C00008F04FC10E94C7064B015C0189819A81B3
:1038D000AB81BC8188169906AA06BB0620F48982B2
:1038E0009A82AB82BC820E9435188091D4028111E9
:1038F00038C10E94A91480918002882309F493C0E2
:1039000080910002882309F48EC06091E1027091D9
:10391000E20290E080E00E94B52820E030E048EC30
:1039200052E40E940D2869877A878B879C87609371
:10393000E9067093EA068093EB069093EC0660919B
:10394000E7027091E80290E080E00E94B52820E054
:1039500030E048EC52E40E940D286D877E878F8707
:10396000988B609395067093960680939706909334
:1039700098066091E3027091E40290E080E00E947A
:10398000B52820E030E048EC52E40E940D282B01DD
:103990003C014092ED065092EE066092EF06709266
:1039A000F0066091E9027091EA0290E080E00E94E6
:1039B000B52820E030E048EC52E40E940D28698BE5
:1039C0007A8B8B8B9C8B6093990670939A0680936D
:1039D0009B0690939C06C090F106D090F206E09072
:1039E000F306F090F4069301820149855A856B85B0
:1039F0007C858DEA96E00E94120DC0909D06D090C5
:103A00009E06E0909F06F090A00609891A892B89EE
:103A10003C894D855E856F85788989E596E00E94B1
:103A2000120D10928002D501C4012D813E814F817B
:103A30005885821B930BA40BB50B0597A105B10507
:103A400050F00E9439120E94370C0E94C7066D8305
:103A50007E838F839887C090A106D090A206E090C5
:103A6000A306F090A40620917C0230917D02409143
:103A70007E0250917F02C701B6010E940828882368
:103A800009F469C031E030930002C0927C02D09208
:103A90007D02E0927E02F0927F02609017037090A8
:103AA0001803C701B6010E947F28072E000C880B5F
:103AB000990B0E94B7284B015C016091DF02709165
:103AC000E002072E000C880B990B0E94B72820E01B
:103AD00030E048EC52E40E940D289B01AC01C50186
:103AE000B4010E9408288823C9F1689460F8709294
:103AF0001803609217032091A9063091AA064091FD
:103B0000AB065091AC06C701B6010E949B276B0122
:103B10007C01609135037091360390E080E00E9453
:103B2000B52820E030E048EC52E40E940D289B01CB
:103B3000AC01C701B6010E94082887FF83CE6091BF
:103B40003303709134038DE00E946C057BCEC70176
:103B5000B6019058ABCE109200029FCFE89460F867
:103B6000C6CF0E94F51968960FB6F894DEBF0FBE57
:103B7000CDBFDF91CF911F910F91FF90EF90DF901C
:103B8000CF90BF90AF909F908F907F906F905F90FD
:103B90004F900C94ED1A4F925F926F927F92AF927A
:103BA000BF92CF92DF92EF92FF920F931F93CF932A
:103BB000DF937C010E94C706D0E0C0E086E0C82EFB
:103BC000D12C95E0A92EB12C0091D5021091D602EE
:103BD0000E151F0509F05DC00E9439120E943518AC
:103BE0000E94A9146091DD027091DE0290E080E0F5
:103BF0000E94B52820E030E048EC52E40E940D28F5
:103C00002B013C012091A9063091AA064091AB06F8
:103C10005091AC060E94082887FD0EC020915506E1
:103C2000309156064091570650915806C301B20193
:103C30000E94082887FF23C08091D7029091D80264
:103C40000497E9F461E086E00E940D0561E08BE0F5
:103C50000E940D05D0920803C092070380E02097D0
:103C600059F40330110541F4882331F0B092D802A1
:103C7000A092D702C1E0D0E00E947719A5CF60E002
:103C800086E00E940D0560E08BE00E940D0581E05A
:103C9000E6CF0E94F519DF91CF911F910F91FF9010
:103CA000EF90DF90CF90BF90AF907F906F905F903C
:103CB0004F900C94ED1A1F920F920FB60F92112491
:103CC0000BB60F922F933F934F935F936F937F9316
:103CD0008F939F93AF93BF93EF93FF9381ED93E007
:103CE0000E94C903FF91EF91BF91AF919F918F9176
:103CF0007F916F915F914F913F912F910F900BBEEC
:103D00000F900FBE0F901F9018951F920F920FB635
:103D10000F9211240BB60F922F933F934F935F9303
:103D20006F937F938F939F93AF93BF93EF93FF9383
:103D300081ED93E00E944B03FF91EF91BF91AF9112
:103D40009F918F917F916F915F914F913F912F91B3
:103D50000F900BBE0F900FBE0F901F9018951F92E3
:103D60000F920FB60F9211240BB60F922F933F9321
:103D70004F935F936F937F938F939F93AF93BF9373
:103D8000EF93FF938EE694E00E94C903FF91EF91B9
:103D9000BF91AF919F918F917F916F915F914F9163
:103DA0003F912F910F900BBE0F900FBE0F901F9061
:103DB00018951F920F920FB60F9211240BB60F9207
:103DC0002F933F934F935F936F937F938F939F9323
:103DD000AF93BF93EF93FF938EE694E00E944B0363
:103DE000FF91EF91BF91AF919F918F917F916F91D3
:103DF0005F914F913F912F910F900BBE0F900FBE8F
:103E00000F901F9018951F920F920FB60F921124CA
:103E10000BB60F922F933F934F935F936F937F93C4
:103E20008F939F93AF93BF93EF93FF938BE095E0B6
:103E30000E94C903FF91EF91BF91AF919F918F9124
:103E40007F916F915F914F913F912F910F900BBE9A
:103E50000F900FBE0F901F9018951F920F920FB6E4
:103E60000F9211240BB60F922F933F934F935F93B2
:103E70006F937F938F939F93AF93BF93EF93FF9332
:103E80008BE095E00E944B03FF91EF91BF91AF91C2
:103E90009F918F917F916F915F914F913F912F9162
:103EA0000F900BBE0F900FBE0F901F9018951F9292
:103EB0000F920FB60F9211240BB60F922F933F93D0
:103EC0004F935F936F937F938F939F93AF93BF9322
:103ED000EF93FF9388EA95E00E94C903FF91EF9169
:103EE000BF91AF919F918F917F916F915F914F9112
:103EF0003F912F910F900BBE0F900FBE0F901F9010
:103F000018951F920F920FB60F9211240BB60F92B5
:103F10002F933F934F935F936F937F938F939F93D1
:103F2000AF93BF93EF93FF9388EA95E00E944B0312
:103F3000FF91EF91BF91AF919F918F917F916F9181
:103F40005F914F913F912F910F900BBE0F900FBE3D
:103F50000F901F9018951F920F920FB60F92112479
:103F60002F933F938F939F93AF93BF938091C802FA
:103F70009091C902A091CA02B091CB023091C702C0
:103F800023E0230F2D3758F50196A11DB11D209375
:103F9000C7028093C8029093C902A093CA02B0934B
:103FA000CB028091CC029091CD02A091CE02B09133
:103FB000CF020196A11DB11D8093CC029093CD023A
:103FC000A093CE02B093CF02BF91AF919F918F91FA
:103FD0003F912F910F900FBE0F901F90189526E8DC
:103FE000230F0296A11DB11DD2CF1F920F920FB6C3
:103FF0000F9211240F900FBE0F901F9018951F92D3
:104000000F920FB60F9211240BB60F922F933F937E
:104010004F935F936F937F938F939F93AF93BF93D0
:10402000EF93FF938091B900887F803609F44DC0EB
:1040300008F040C0883209F4A9C028F5803109F49D
:104040009DC0C8F4882309F4FBC0883009F496C0E9
:10405000FF91EF91BF91AF919F918F917F916F9160
:104060005F914F913F912F910F900BBE0F900FBE1C
:104070000F901F901895883109F488C0803241F75D
:104080008093A50314C0803409F49DC040F48033AC
:10409000B9F38833E9F68093A50385ECB0C0803589
:1040A00009F485C0883509F496C0883489F60E94E1
:1040B0009919CECF883909F48CC038F5883729F0A2
:1040C00050F4883611F0803719F683E08093A70307
:1040D0001092C40257C0883809F47BC0803919F0A7
:1040E000803809F0B5CF8091C402803208F071C0E9
:1040F000E091C40281E08E0F8093C4028091BB00E6
:10410000F0E0EC55FD4F80833DC0803B39F0E0F49A
:10411000803A09F479C0883A09F09ACF84E0809314
:10412000A7031092A3021092A202E091D202F09192
:10413000D30219958091A20281110FC081E0809372
:10414000A2021092820209C0803C09F4A6CF883CEA
:1041500009F4A3CF883B09F07BCFE091A30281E073
:104160008E0F8093A302F0E0EE57FD4F8081809385
:10417000BB009091A3028091A20229C0809182038A
:104180008093BB0085EC8093BC0062CF9091A40328
:104190008091A303981758F5E091A40381E08E0F56
:1041A0008093A403F0E0ED57FC4F8081E9CFE091CC
:1041B000A40381E08E0F8093A4038091BB00F0E004
:1041C000ED57FC4F80839091A4038091A30398172F
:1041D000C8F285E8D8CFE091A40381E08E0F8093E8
:1041E000A4038091BB00F0E0ED57FC4F80838091E9
:1041F000A60381115CCF81E08093810384EA8093E0
:10420000BC001092A70324CF85EC8093BC001092D1
:10421000A7038091C402803230F4E091C402F0E040
:10422000EC55FD4F10826091C40270E0E091D00225
:10423000F091D10284EA92E019951092C40208CF5D
:104240001092A50334CF2F923F924F925F926F92BC
:104250007F928F929F92AF92BF92CF92DF92EF9216
:10426000FF920F931F93CF93DF93CDB7DEB73C013F
:1042700018012901FC01578F468F758F648F81EAE1
:1042800096E091A380A312AE12AA13AA14AA15AAAB
:1042900080E090E0AFE7B3E486AB97ABA0AFB1AFFF
:1042A00084E690E0A0E0B0E086A797A7A0ABB1AB12
:1042B000118E108E20E030E0A901C201B8010E94E9
:1042C000082887FD42C020E030E0A901C701B601FF
:1042D0000E94082887FD39C020E030E0A901C5010F
:1042E000B4010E94082887FD30C081E090E0F3010E
:1042F000938F828F83AF2082318242825382C48225
:10430000D582E682F78280869186A286B38624864D
:104310003586468657862DEC3CEC4CEC5DE3C701B8
:10432000B6010E946C29F301608B718B828B938B99
:104330002DEC3CEC4CEC5DE3C501B4010E940D2872
:10434000F301648B758B868B978B0E94C706F301F4
:10435000C6A4D7A4E0A8F1A86C197D098E099F090D
:1043600062A373A384A395A3DF91CF911F910F91B3
:10437000FF90EF90DF90CF90BF90AF909F908F9085
:104380007F906F905F904F903F902F9008958F9205
:104390009F92AF92BF92CF92DF92EF92FF920F93D4
:1043A0001F93E1EDF3E01382128288EE93E0A0E028
:1043B000B0E084839583A683B78329E132E031831B
:1043C000208345E351E05587448744E351E0578714
:1043D000468740E351E0518B408B41E351E0538BE2
:1043E000428B42E351E0558B448B46E351E0578BBF
:1043F000468B118E128E138E148EEEE6F4E013822D
:10440000128284839583A683B7833183208345ED0D
:1044100050E05587448744ED50E05787468740ED8C
:1044200050E0518B408B41ED50E0538B428B42ED7D
:1044300050E0558B448B46ED50E0578B468B118EE8
:10444000128E138E148EEBE0F5E0138212828483B9
:104450009583A683B783318320834DEC50E0558745
:1044600044874CEC50E05787468748EC50E0518B2E
:10447000408B49EC50E0538B428B4AEC50E0558B1B
:10448000448B4EEC50E0578B468B118E128E138E60
:10449000148EE8EAF5E01382128284839583A68362
:1044A000B7833183208325EC30E03587248724ECE3
:1044B00030E03787268720EC30E0318B208B21ECF1
:1044C00030E0338B228B22EC30E0358B248B26ECD2
:1044D00030E0378B268B118E128E138E148EE5E40E
:1044E000F6E01382128284839583A683B7838BE2DE
:1044F00092E091838083E9E5F7E081E0848383E0C3
:10450000858382E0868388EE93E09093AD07809365
:10451000AC07E5E4F7E080E094E2A4E7B9E484873F
:104520009587A687B7878DEB97E3A6E8B5E4808BE0
:10453000918BA28BB38B80E090E0A0E0BFE38087FB
:104540009187A287B3878093410790934207A093F6
:104550004307B0934407EBE1F7E002E311E120E801
:104560003BE300831183228333834FE755E06BE104
:1045700075EB44835583668377831586148688E4B8
:10458000818798E09287138612A213A214A215A223
:104590008087E5EFF6E00083118322833383448331
:1045A0005583668377831586148689E4818792878D
:1045B000138612A213A214A215A280878090F1067E
:1045C0009090F206A090F306B090F406C090ED062D
:1045D000D090EE06E090EF06F090F0060091E9062C
:1045E0001091EA062091EB063091EC0645EA56E080
:1045F00069EA76E08DEA96E00E94232180909D068C
:1046000090909E06A0909F06B090A006C09099063C
:10461000D0909A06E0909B06F0909C06009195063B
:1046200010919606209197063091980641E556E044
:1046300065E576E089E596E00E9423211F910F91C0
:10464000FF90EF90DF90CF90BF90AF909F908F90B2
:104650000C94C706789484B5826084BD84B581606B
:1046600084BD85B5826085BD85B5816085BD80913D
:104670006E00816080936E001092810080918100B5
:1046800082608093810080918100816080938100AD
:10469000809180008160809380008091B10084606F
:1046A0008093B1008091B00081608093B0008091D0
:1046B000910082608093910080919100816080934D
:1046C0009100809190008160809390008091A10082
:1046D00082608093A1008091A10081608093A100FD
:1046E0008091A00081608093A00080912101826070
:1046F000809321018091210181608093210180912B
:10470000200181608093200180917A0084608093F1
:104710007A0080917A00826080937A0080917A009A
:10472000816080937A0080917A00806880937A001B
:104730001092C1000E947F0660E08EE30E943B055C
:1047400061E086E10E943B0561E086E10E940D0583
:1047500061E087E10E943B0560E08CE30E943B053D
:1047600061E087E10E940D0561E087E00E943B0562
:1047700061E085E00E943B0570E060E087E00E9418
:104780006C0570E060E085E00E946C0540E052EC52
:1047900061E070E088EA95E00E942A0280915E075D
:1047A000823009F47AC2833009F47AC2813009F088
:1047B0007AC28BE095E090935A078093590740E0C6
:1047C00052EC61E070E08091590790915A070E9485
:1047D0002A0280915F07823078F080910401806620
:1047E00080930401809105018F7B80930501809166
:1047F00005018F7D809305018091590790915A079B
:10480000DC01ED91FC910284F385E02D199597FF71
:10481000F3CF1092A2071092A3071092AB07109249
:10482000AA071092A9071092A8071092A707109242
:10483000A60788E090E00E94D91A9093E202809344
:10484000E1028CE090E00E94D91A9093E4028093F8
:10485000E30280E190E00E94D91A9093E6028093EF
:10486000E50284E190E00E94D91A9093E8028093D7
:10487000E70288E190E00E94D91A9093EA028093BF
:10488000E9028CE190E00E94D91A9093EC028093A7
:10489000EB0280E091E00E94D91A9093500380933C
:1048A0004F0382E091E00E94D91A909352038093C3
:1048B000510384E091E00E94D91A909354038093AD
:1048C000530386E091E00E94D91A90935603809397
:1048D000550380E191E00E94D91A90935803809388
:1048E000570382E191E00E94D91A90935A03809372
:1048F000590384E191E00E94D91A90935C0380935C
:104900005B0386E191E00E94D91A90935E03809345
:104910005D0380E291E00E94D91A90932C0380936A
:104920002B0384E291E00E94D91A90932E03809386
:104930002D0388E291E00E94D91A9093E0028093BF
:10494000DF028CE291E00E94D91A909320038093B9
:104950001F0380E391E00E94D91A90933003809363
:104960002F0384E391E00E94D91A9093DE02809392
:10497000DD0288E391E00E94D91A9093340380937A
:1049800033038CE391E00E94D91A9093360380930D
:10499000350380E491E00E94D91A90933803809304
:1049A000370384E491E00E94D91A90934E038093D8
:1049B0004D0388E491E00E94D91A9093DA02809323
:1049C000D9028CE491E00E94D91A90932803809335
:1049D000270388E592E00E94D91A90933A038093C6
:1049E00039038CE592E00E94D91A90933C0380939E
:1049F0003B0380E692E00E94D91A90933E03809395
:104A00003D0384E692E00E94D91A9093400380937C
:104A10003F0388E692E00E94D91A90934203809364
:104A200041038CEB92E00E94D91A90934403809347
:104A3000430380EC92E00E94D91A9093460380933E
:104A4000450384EC92E00E94D91A90934803809326
:104A5000470388EC92E00E94D91A90934A0380930E
:104A600049038CEC92E00E94D91A90934C038093F6
:104A70004B0388EE93E00E94D91A90930003809331
:104A8000FF020E94ED1A61E088E00E943B0561E0B0
:104A900089E00E943B0561E08AE00E943B0561E0FD
:104AA0008BE00E943B0561E086E00E943B0561E0EF
:104AB0008DE00E943B0560E08AE30E943B0561E0D7
:104AC0008CE10E943B0561E08CE10E940D0561E0F4
:104AD00082E00E943B0588E893E19093AD078093C4
:104AE000AC070E94A9141092D6021092D50284EF4E
:104AF00091E09093DC028093DB0288EC90E090934D
:104B0000FE028093FD028AEA95E090932A03809347
:104B100029031092D8021092D702812C912C58ECC4
:104B2000A52E54E4B52E8092290790922A07A092D0
:104B30002B07B0922C07C12CD12C68ECE62E62E436
:104B4000F62EC0922D07D0922E07E0922F07F092FA
:104B500030071092600310925F031092AE03109220
:104B6000D0030E94BF078CE193E09093D30280931F
:104B7000D2028DE193E09093D1028093D002109203
:104B80002807109227078092030790920407A092AB
:104B90000507B0920607C0920707D0920807E09277
:104BA0000907F0920A070E94BF07109202071092AD
:104BB00001078091E706811104C08DEA96E00E940A
:104BC0007E0C81E08093E706409105025091060239
:104BD00060910702709108028DEA96E00E94B4018C
:104BE00065E070E08DEA96E00E94C50C8091930626
:104BF000811104C089E596E00E947E0C81E08093DB
:104C0000930640910102509102026091030270915B
:104C1000040289E596E00E94B40165E070E089E550
:104C200096E00E94C50C0E9477190E9439120E94DA
:104C3000351861E082E00E940D0586E0E82EF12C37
:104C400093E0692E712C24E0C22ED12CAA24A394C7
:104C5000B12C42E0842E912C0E9477198091D502CC
:104C60009091D6028130910509F59093D8028093F6
:104C7000D70261E089E00E940D0560912B037091DD
:104C80002C038DE00E946C058091D5029091D60294
:104C90000E94CB1D0E945804DFCF8EE694E08BCD9E
:104CA00081ED93E088CD88EA95E085CD823091054D
:104CB00049F49093D8028093D70261E088E00E9483
:104CC0000D05E2CF8330910509F076C061E08AE0FE
:104CD0000E940D0560912D0370912E038DE00E94BE
:104CE0006C0560912F037091300390E080E00E948A
:104CF000A6178091D9029091DA02019721F461E020
:104D00008BE00E940D057092D8026092D7028091CC
:104D1000FF0290910003892B09F441C0909208038F
:104D20008092070309E313E0D0E0C0E0D0932603AC
:104D3000C0932503F801619171918F017093E00296
:104D40006093DF0290E080E00E94B52820E030E030
:104D500048EC52E40E940D286093A1067093A206CD
:104D60008093A3069093A406D80118966D917C9128
:104D700090E080E00E94951B8091D402811104C0D4
:104D80002196C530D10591F6109226031092250385
:104D90000E94B012D092D802C092D70275CFB092C2
:104DA0000803A092070360911F037091200390E015
:104DB00080E00E94951BECCF8430910529F4F0929D
:104DC000D602E092D50266CF8530910531F5F0929A
:104DD000D802E092D70260912B0370912C038DE0F2
:104DE0000E946C0560E08AE00E940D0560914D0311
:104DF00070914E0390E080E00E94A61760E088E08A
:104E00000E940D0560914D0370914E0390E080E08B
:104E10000E94A61760E089E052CF009761F460918C
:104E20002B0370912C038DE00E946C051092D80228
:104E30001092D70229CF069799F460E089E00E948A
:104E40000D0560E088E00E940D0560E08AE00E94A8
:104E50000D051092D6021092D5020E94B0121ACF00
:104E60001092D6021092D50215CFF999FECF92BDBD
:104E700081BDF89A992780B50895262FF999FECF1C
:104E80001FBA92BD81BD20BD0FB6F894FA9AF99A67
:104E90000FBE01960895052E97FB1EF400940E9404
:104EA000622757FD07D00E946A2707FC03D04EF403
:104EB0000C94622750954095309521953F4F4F4F68
:104EC0005F4F089590958095709561957F4F8F4FB6
:104ED0009F4F0895A1E21A2EAA1BBB1BFD010DC016
:104EE000AA1FBB1FEE1FFF1FA217B307E407F5079A
:104EF00020F0A21BB30BE40BF50B661F771F881F76
:104F0000991F1A9469F760957095809590959B010B
:104F1000AC01BD01CF010895A29FB001B39FC001B4
:104F2000A39F700D811D1124911DB29F700D811DD5
:104F30001124911D08955058BB27AA270E94B3271A
:104F40000C942D290E941F2938F00E94262920F058
:104F500039F49F3F19F426F40C941C290EF4E095C3
:104F6000E7FB0C941629E92F0E943E2958F3BA1743
:104F7000620773078407950720F079F4A6F50C946F
:104F800060290EF4E0950B2EBA2FA02D0B01B9016C
:104F900090010C01CA01A0011124FF27591B99F0AF
:104FA000593F50F4503E68F11A16F040A22F232FBB
:104FB000342F4427585FF3CF469537952795A7950B
:104FC000F0405395C9F77EF41F16BA0B620B730BB2
:104FD000840BBAF09150A1F0FF0FBB1F661F771F23
:104FE000881FC2F70EC0BA0F621F731F841F48F4D8
:104FF000879577956795B795F7959E3F08F0B0CF61
:105000009395880F08F09927EE0F97958795089547
:105010000E94F22808F481E008950E9421280C944F
:105020002D290E94262958F00E941F2940F029F4BA
:105030005F3F29F00C94162951110C9461290C94AE
:105040001C290E943E2968F39923B1F3552391F35B
:10505000951B550BBB27AA2762177307840738F0E7
:105060009F5F5F4F220F331F441FAA1FA9F335D044
:105070000E2E3AF0E0E832D091505040E695001CF8
:10508000CAF72BD0FE2F29D0660F771F881FBB1FB2
:10509000261737074807AB07B0E809F0BB0B802D90
:1050A000BF01FF2793585F4F3AF09E3F510578F0BC
:1050B0000C9416290C9461295F3FE4F3983ED4F3D5
:1050C000869577956795B795F7959F5FC9F7880F90
:1050D000911D9695879597F90895E1E0660F771FE2
:1050E000881FBB1F621773078407BA0720F0621B73
:1050F000730B840BBA0BEE1F88F7E09508950E949E
:1051000086286894B1110C94612908950E9446295B
:1051100088F09F5798F0B92F9927B751B0F0E1F078
:10512000660F771F881F991F1AF0BA95C9F714C028
:10513000B13091F00E946029B1E008950C9460298B
:10514000672F782F8827B85F39F0B93FCCF3869561
:1051500077956795B395D9F73EF4909580957095BE
:1051600061957F4F8F4F9F4F0895E89409C097FB3B
:105170003EF490958095709561957F4F8F4F9F4F2E
:105180009923A9F0F92F96E9BB279395F695879572
:1051900077956795B795F111F8CFFAF4BB0F11F435
:1051A00060FF1BC06F5F7F4F8F4F9F4F16C08823DC
:1051B00011F096E911C0772321F09EE8872F762F12
:1051C00005C0662371F096E8862F70E060E02AF053
:1051D0009A95660F771F881FDAF7880F969587953F
:1051E00097F90895990F0008550FAA0BE0E8FEEF14
:1051F00016161706E807F907C0F012161306E4079B
:10520000F50798F0621B730B840B950B39F40A2693
:1052100061F0232B242B252B21F408950A2609F471
:10522000A140A6958FEF811D811D089597F99F6775
:1052300080E870E060E008959FEF80EC089500241E
:105240000A941616170618060906089500240A94EB
:1052500012161306140605060895092E0394000C71
:1052600011F4882352F0BB0F40F4BF2B11F460FF00
:1052700004C06F5F7F4F8F4F9F4F089557FD905829
:10528000440F551F59F05F3F71F04795880F97FB0A
:10529000991F61F09F3F79F08795089512161306C4
:1052A0001406551FF2CF4695F1DF08C016161706F3
:1052B0001806991FF1CF8695710561050894089528
:1052C000E894BB2766277727CB0197F908950E94BA
:1052D000F22808F48FEF08950E947F290C942D295D
:1052E0000E941F2938F00E94262920F0952311F0F2
:1052F0000C9416290C941C2911240C9461290E94E9
:105300003E2970F3959FC1F3950F50E0551F629FA2
:10531000F001729FBB27F00DB11D639FAA27F00D0E
:10532000B11DAA1F649F6627B00DA11D661F829F35
:105330002227B00DA11D621F739FB00DA11D621F1A
:10534000839FA00D611D221F749F3327A00D611D37
:10535000231F849F600D211D822F762F6A2F112419
:105360009F5750409AF0F1F088234AF0EE0FFF1F4C
:10537000BB1F661F771F881F91505040A9F79E3FA3
:10538000510580F00C9416290C9461295F3FE4F3D9
:10539000983ED4F3869577956795B795F795E795F9
:1053A0009F5FC1F7FE2B880F911D9695879597F902
:1053B00008950E94F228880B990B0895EE0FFF1FA5
:1053C000881F8BBF0790F691E02D19940E948C27BF
:0E53D000B7FF0895821B930B0895F894FFCF4A
:1053DE000166A6534366A653430AD7A33D010203B3
:1053EE000405060F1000000000EB031E03640338D3
:1053FE000495037303870300000000450918099400
:10540E0009EE081109FE08EF086E616E00696E66FE
:0A541E00006F7666002C000D0A00F6
:00000001FF
