:100000000C9481010C94B2010C94B2010C94B201D5
:100010000C94B2010C94B2010C94B2010C94B20194
:100020000C94B2010C945E200C945E200C945E2023
:100030000C94B2010C94B2010C94B2010C94B20174
:100040000C94B2010C94B2010C94B2010C94B20164
:100050000C94B2010C94B2010C94B2010C941420D3
:100060000C94B2010C94EA1F0C94C01F0C94B201C2
:100070000C94B2010C94B2010C94B2010C94B20134
:100080000C94B2010C94B2010C94B2010C94B20124
:100090000C94961F0C946C1F0C94B2010C94682065
:1000A0000C94B2010C94B2010C94B2010C94B20104
:1000B0000C94B2010C94B2010C94B2010C94B201F4
:1000C0000C94B2010C94B2010C94B2010C94421F36
:1000D0000C94181F0C94B2010C94EE1E0C94C41EC8
:1000E0000C94B2010C9438040C948A020C9495037D
:1000F0000C94B6040C94F8080C94DF050C94D70506
:100100000C941E030C9466120C949B040C94231202
:100110000C9464030C94BB050C9485110C94A405F9
:100120000C94B0040C94FD050C94C0040C94D604FB
:100130000C9421090C94E0040C94A5040C94B105D2
:100140000C9420060C94E9050C94CF050C941A0924
:100150000C94DB040C9430220C9434060C9454114F
:100160000C94AD040C94A9040C94AC050C94870376
:100170000C944E090C9457120C9407090C942C11F2
:100180000C94C8040C94C4040C9410110C94EF113A
:100190000C94C5050C9416060C94CE040C940C0615
:1001A0000C94F3050C94EB030C94DC040C948B027C
:1001B0000C94F7080C94BA040C94D2040C94D90F44
:1001C0000C9473030C942A060C949D090C943E1114
:1001D0000C94A1040C94B4120C943E060C9445119A
:1001E00000002100240027002A002D0030003300E9
:1001F00001010000040107010A010000220025009E
:1002000028002B002E0031003400020100000501FF
:1002100008010B01000020002300260029002C000B
:100220002F0032000001000003010601090105054D
:100230000505070508080808020202020A0A08085C
:10024000040404040101010101010101030303038A
:1002500003030303040707070C0C0C0C0C0C0C0C19
:100260000202020206060606060606060B0B0B0B2A
:100270000B0B0B0B0102102020080810204010204F
:10028000408002010201080402010102040810205A
:100290004080804020100804020180040201804058
:1002A00020100804020108040201010204081020C1
:1002B0004080010204081020408000000A0B02095F
:1002C0000C0D0E08070304010000000000000000F0
:1002D000000000000000000000000000000000001E
:1002E00000000000000012111000000000000000DB
:1002F00000000000000000000000000000000000FE
:10030000302211241FBECFEFD1E2DEBFCDBF00E00F
:100310000CBF15E0A0E0B2E0E2E3F5E500E00BBFC2
:1003200002C007900D92A03FB107D9F72BE0A0EFD4
:10033000B5E001C01D92A833B207E1F711E0C1E8B2
:10034000D1E000E006C021970109802FFE010E9444
:10035000882AC038D10780E00807A9F70E949223B5
:100360000C94972A0C9400008F929F92AF92BF92A8
:10037000CF92DF92EF92FF920F931F93CF93DF9371
:10038000EC016A017B0120E030E0A901CB01B6015C
:100390000E94B22818160CF050C01AAA1BAA1CAA58
:1003A0001DAACEAADFAAE8AEF9AE8AAD882309F469
:1003B00044C00E8D1F8DF80180809180A280B38093
:1003C000A5019401C701B6010E94B22887FF1AC097
:1003D000F801C082D182E282F3828EA09FA0A8A4FD
:1003E000B9A4CEA8DFA8E8ACF9ACA7019601C50175
:1003F000B4010E94112A1816A4F4CEA2DFA2E8A626
:10040000F9A61BC020E030E0A901C501B4010E949B
:10041000B22887FFE2CFF801108211821282138284
:10042000DCCFCAA8DBA8ECA8FDA8A7019601C501EE
:10043000B4010E94B22887FDE0CFDF91CF911F91D8
:100440000F91FF90EF90DF90CF90BF90AF909F9073
:100450008F900895CF92DF92EF92FF92CF93DF9328
:10046000EC016A017B01E889F98982E08083C1148B
:1004700081EED806E104F104A1F060E079E08DE3BB
:1004800090E0A70196010E941428215031094109EA
:1004900051095695479537952795211580E13807DD
:1004A00098F0E889F989108260E874E88EE190E0BC
:1004B000A70196010E9414282150310941095109D0
:1004C0005695479537952795EC85FD853083EE85C4
:1004D000FF852083188EEC89FD8986E08083EA8978
:1004E000FB89808180618083EA89FB8980818860C3
:1004F0008083EA89FB89808180688083EA89FB891F
:1005000080818F7D8083DF91CF91FF90EF90DF908E
:10051000CF90089508950895E3EEFAE090E02FEF6C
:100520003FEF981791F04191242748E0B90161709D
:10053000772736952795672B21F051E0252750EA3C
:100540003527415099F79F5FECCF922F832F089565
:100550004F925F926F927F928F929F92AF92BF92D3
:10056000EF92FF920F931F93CF93DF932091660634
:1005700030916706232BA1F4FB01108211821282B5
:100580001382DF91CF911F910F91FF90EF90BF9059
:10059000AF909F908F907F906F905F904F90089555
:1005A000EB018C0120E030E0A901688179818A812A
:1005B0009B810E94B228811109C0F801808191813C
:1005C000A281B38188839983AA83BB838BE0E82EC1
:1005D000F12C8090010290900202A0900302B09052
:1005E0000402A501940160E070E080E89FE30E94AE
:1005F0004528288139814A815B810E94162A2B0176
:100600003C01F8012081318142815381C501B4014F
:100610000E94162A9B01AC01C301B2010E94462828
:10062000688379838A839B83F1E0EF1AF10889F666
:10063000F8016083718382839383A3CFAF92BF92CB
:10064000CF92DF92EF92FF920F931F93CF93DF939E
:100650006C017B018B01040F151FEB015E01AE18CD
:10066000BF08C017D10759F06991D601ED91FC91EF
:100670000190F081E02DC6011995892B79F7C5010C
:10068000DF91CF911F910F91FF90EF90DF90CF906E
:10069000BF90AF900895FC01A089B1898C91A68983
:1006A000B78982FD0FC09C91818D8F5F8F73228DE2
:1006B000821749F0A18DAE0FBF2FB11D5D969C939F
:1006C000818F08958C910895FC01538D448D252FC1
:1006D00030E0842F90E0821B930B541710F0CF96DC
:1006E000089501970895FC01918D828D981761F00E
:1006F000A28DAE0FBF2FB11D5D968C91928D9F5F25
:100700009F73928F90E008958FEF9FEF0895FC0103
:10071000918D828D981731F0828DE80FF11D858DB6
:1007200090E008958FEF9FEF0895FC01918D228D49
:10073000892F90E0805C9F4F821B91098F739927CE
:10074000089586E597E00E94950321E0892B09F43E
:1007500020E0822F089583EF97E00E94950321E027
:10076000892B09F420E0822F089580E998E00E9407
:10077000950321E0892B09F420E0822F08958DE272
:1007800099E00E94950321E0892B09F420E0822F53
:100790000895FC01A48DA80FB92FB11DA35ABF4F16
:1007A0002C91848D90E001968F739927848FA68970
:1007B000B7892C93A089B1898C91837080648C93C4
:1007C000938D848D981306C00288F389E02D808173
:1007D0008F7D80830895EF92FF920F931F93CF93A5
:1007E000DF93EC0181E0888F9B8D8C8D98131AC06C
:1007F000E889F989808185FF15C09FB7F894EE8953
:10080000FF896083E889F9898081837080648083AF
:100810009FBF81E090E0DF91CF911F910F91FF90FA
:10082000EF900895F62E0B8D10E00F5F1F4F0F73A2
:100830001127E02E8C8D8E110CC00FB607FCFACF5D
:10084000E889F989808185FFF5CFCE010E94C9032F
:10085000F1CFEB8DEC0FFD2FF11DE35AFF4FF0822E
:100860009FB7F8940B8FEA89FB8980818062CFCF94
:10087000CF93DF93EC01888D8823B9F0AA89BB89D7
:10088000E889F9898C9185FD03C0808186FD0DC0C2
:100890000FB607FCF7CF8C9185FFF2CF808185FFE3
:1008A000EDCFCE010E94C903E9CFDF91CF9108952A
:1008B00080E090E0892B29F00E94BF0381110E9403
:1008C000000080E090E0892B29F00E94B50381119F
:1008D0000E94000080E090E0892B29F00E94AB0389
:1008E00081110E94000080E090E0892B29F00E9495
:1008F000A10381110C94000008958150823108F009
:100900005AC0E82FF0E08827E757FB4F8F4F0C9431
:10091000882AA904AD049B04A104A504DB04B00447
:10092000B604BA04C004C404C804CE04D204DB0470
:10093000D604DC04E004809180008F7780938000EF
:100940000895809180008F7DF9CF80918000877F0E
:10095000F5CF84B58F7784BD089584B58F7DFBCFA7
:100960008091B0008F778093B00008958091B0009F
:100970008F7DF9CF809190008F77809390000895BC
:10098000809190008F7DF9CF80919000877FF5CF87
:100990008091A0008F778093A00008958091A0009F
:1009A0008F7DF9CF8091A000877FF5CF80912001C6
:1009B0008F77809320010895809120018F7DF9CF5A
:1009C00080912001877FF5CFCF93DF93282F30E0F0
:1009D000F901E654FD4F8491F901EC58FD4FD49193
:1009E000F901E25DFD4FC491CC23A1F081110E9479
:1009F0007D04EC2FF0E0EE0FFF1FEC5EFD4FA591A4
:100A0000B491EC91ED2381E090E009F480E0DF9176
:100A1000CF91089580E090E0FACF1F93CF93DF93BA
:100A2000282F30E0F901E654FD4F8491F901EC588C
:100A3000FD4FD491F901E25DFD4FC491CC23A9F0A3
:100A4000162F81110E947D04EC2FF0E0EE0FFF1FA6
:100A5000E650FE4FA591B4918FB7F894EC91111127
:100A600008C0D095DE23DC938FBFDF91CF911F911B
:100A70000895DE2BF8CFCF93DF9390E0FC01EC5884
:100A8000FD4F2491825D9D4FFC0184918823D1F01C
:100A900090E0880F991FFC01E052FE4FA591B491A0
:100AA000FC01E650FE4FC591D49161110EC09FB775
:100AB000F8948C91E22FE0958E238C932881E22389
:100AC000E8839FBFDF91CF9108958FB7F894EC91A1
:100AD000E22BEC938FBFF6CF1F93CF93DF93182FAA
:100AE000EB0161E00E943B05209739F460E0812F23
:100AF000DF91CF911F910C940D05CF3FD10511F4DB
:100B000061E0F5CFE12FF0E0E654FD4FE491E150D4
:100B1000E23108F0B3C0F0E08827EE56FA4F8F4F6D
:100B20000C94882AA405AC05B105BB05C5053E0695
:100B3000CF05D705DF05E905F305FD050C0616060B
:100B40003E0620062A06340684B5806884BDC7BDEB
:100B5000DF91CF911F91089584B5806284BDC8BD97
:100B6000F7CF80918000806880938000D0938900C7
:100B7000C0938800EDCF80918000806280938000D8
:100B8000D0938B00C0938A00E3CF8091800088606F
:100B900080938000D0938D00C0938C00D9CF80913A
:100BA000B00080688093B000C093B300D1CF809133
:100BB000B00080628093B000C093B400C9CF809130
:100BC0009000806880939000D0939900C093980023
:100BD000BFCF80919000806280939000D0939B0063
:100BE000C0939A00B5CF8091900088608093900068
:100BF000D0939D00C0939C00ABCF8091A0008068F3
:100C00008093A0008091A0008F7B8093A000D09360
:100C1000A900C093A8009CCF8091A000806280931F
:100C2000A000D093AB00C093AA0092CF8091A00007
:100C300088608093A000D093AD00C093AC0088CFB3
:100C400080912001806880932001D0932901C09376
:100C500028017ECF80912001806280932001D09373
:100C60002B01C0932A0174CF80912001886080936A
:100C70002001D0932D01C0932C016ACFC038D1053B
:100C80000CF03ECF33CF90917B00977F90937B0009
:100C90008653806480937C0080917A008064809386
:100CA0007A0080917A0086FDFCCF80917800909147
:100CB000790008953FB7F89480915F06909160069F
:100CC000A0916106B091620626B5A89B05C02F3F92
:100CD00019F00196A11DB11D3FBFBA2FA92F982F62
:100CE0008827BC01CD01620F711D811D911D42E05D
:100CF000660F771F881F991F4A95D1F708958F9225
:100D00009F92AF92BF92CF92DF92EF92FF926B01D0
:100D10007C010E945A064B015C01C114D104E1041C
:100D2000F104B9F00E945A06681979098A099B09E9
:100D3000683E73408105910580F321E0C21AD10815
:100D4000E108F10888EE880E83E0981EA11CB11C12
:100D5000E4CFFF90EF90DF90CF90BF90AF909F9047
:100D60008F9008952FB7F89460915B0670915C06A0
:100D700080915D0690915E062FBF0895CF93C0913C
:100D8000230B8C2F0E948C02EC2FF0E0E652F54FE3
:100D90009187E1E0EC0FF0E0E652F54F8187CE5FFE
:100DA000C093230B9091E00A8091DF0A9230C0F04B
:100DB000823009F474C0833009F477C0813009F0BF
:100DC0007AC09091C80090649093C80090910501FA
:100DD00090649093050190910501906290930501B4
:100DE0004091230B50E0843008F06BC08091DA0A08
:100DF0009091DB0ADC01ED91FC910280F381E02D02
:100E000063EE7AE019959091E00A8091DF0A9230C2
:100E1000B8F0823009F45AC0833009F45CC08130E4
:100E200009F05EC09091C80096FFFCCF909105013B
:100E30009F7B90930501909105019F7D9093050103
:100E4000843008F052C08091DA0A9091DB0ADC010C
:100E5000ED91FC910284F385E02D199597FFF3CF76
:100E60001092230B0E94B20620912D0B30912E0B75
:100E7000620F731F811D911D6093330B7093340BB0
:100E80008093350B9093360B8091290B90912A0B10
:100E9000019690932A0B8093290BCF9108959091FE
:100EA000D00090649093D00091CF909130019064E5
:100EB000909330018BCF9091C00090649093C000CC
:100EC00085CF8091DC0A9091DD0A94CF9091D0007B
:100ED00096FFFCCFABCF9091300196FFFCCFA6CF11
:100EE0009091C00096FFFCCFA1CF8091DC0A909139
:100EF000DD0ADC01ED91FC910284F385E02D19956A
:100F000097FFF3CFADCF20913506260F3327331F40
:100F100021323105ECF420912C07FC0190E080E0B7
:100F2000243069F082E00895A09135062191AC014A
:100F30004B5E594FA40FB52FB11D2C930196861708
:100F400098F380913506680F6093350680E0089528
:100F500081E0089510922C0781E080932B07109276
:100F6000060761E084E10E940D0561E085E10E94D1
:100F70000D05E9EBF0E080818E7F808380818D7F9D
:100F8000808388E48093B80085E48093BC00089552
:100F9000CF93DF93EC011092E5061092E4061092D5
:100FA0003307109255070E94AA078AE892E09093AF
:100FB000E3068093E2068BE892E09093E10680934B
:100FC000E0061D861C86DF91CF910895CF93DF93B5
:100FD00091E0909314068823B9F0C091B800D091A5
:100FE000BA008091BC008A7B8093BC0060E084E101
:100FF0000E940D0560E085E10E940D050E94AA0790
:10100000D093BA00C093B800DF91CF9108958F922A
:101010009F92AF92BF92CF92DF92EF92FF920F9387
:101020001F93CF93DF93D0915507D13208F0D7C0EB
:10103000182FC09154070E945A066B017C018091C1
:101040002C0781116BC082E080932C0710932B0733
:101050008FEF80932A0710922907D0932807A4E3E3
:10106000B7E0E8E0F7E080E0D81391C010920707FE
:1010700080910707CC0FC82BC09307078091060704
:10108000813009F088C0109206070E945A066B0151
:101090007C01809107078093BB0080912E0790917F
:1010A0002F07A0913007B0913107892B8A2B8B2B0A
:1010B000A1F00E945A0600912E0710912F0720914F
:1010C0003007309131076C197D098E099F09061789
:1010D00017072807390708F442C08091BC0083FD38
:1010E000D8CF85EC8093BC000E945A066B017C012E
:1010F00080912C07823009F450C080912A078F3FDD
:1011000009F46FC080912A07803209F46CC0809185
:101110002A07803309F469C084E026C080912E0735
:1011200090912F07A0913007B0913107892B8A2B1E
:101130008B2B09F484CF0E945A0680902E07909042
:101140002F07A0903007B09031076C197D098E09E8
:101150009F0986169706A806B90608F070CF8091F9
:101160002D070E94E60785E010923307109255077D
:1011700010923207DF91CF911F910F91FF90EF9066
:10118000DF90CF90BF90AF909F908F9008959D91EA
:1011900091938F5F69CF85EEA5CF80912E079091B7
:1011A0002F07A0913007B0913107892B8A2B8B2B09
:1011B00009F49ECF0E945A0600912E0710912F0726
:1011C00020913007309131076C197D098E099F09F4
:1011D000061717072807390708F08ACFC0CF81E024
:1011E000C3CF80E0C1CF82E0BFCF83E0BDCF089501
:1011F000E091E5068091E406E81730F4F0E0EA516A
:10120000F94F808190E008958FEF9FEF08959091BE
:10121000E5068091E4062FEF3FEF981748F4E92F99
:10122000F0E0EA51F94F208130E09F5F9093E506AE
:10123000C90108958091E4069091E506891B990BF8
:101240000895CF92DF92EF92FF920F931F93CF9367
:10125000DF937C01CB018A0120913207222389F0A0
:10126000EB016B01C40ED51ECC15DD0569F069914B
:10127000D701ED91FC910190F081E02DC701199506
:10128000F3CF642F0E948307C801DF91CF911F9194
:101290000F91FF90EF90DF90CF900895CF93DF9361
:1012A0001F92CDB7DEB76983209132072223F9F070
:1012B00020915507203258F021E030E0FC013383C3
:1012C000228390E080E00F90DF91CF91089580918C
:1012D0003307E82FF0E0EC5CF84F998190838F5F43
:1012E000809333078093550781E090E0ECCF61E075
:1012F000CE0101960E948307F7CFCF93DF93EB01D6
:1013000091E0909332078093540710923307109224
:10131000550761E08AEC99E00E944E096D2F8AEC36
:1013200099E00E944E096C2F8AEC99E00E944E09C8
:1013300081E0DF91CF910C94070890E080E0089560
:101340004F925F926F927F928F929F92AF92BF92D5
:10135000CF92DF92EF92FF920F931F93CF93DF9381
:10136000CBE0D0E089E30E9443067C0187E30E9442
:1013700043068C018090CA0A9090CB0AA090CC0AB8
:10138000B090CD0A209100063091010640910206EE
:1013900050910306C501B4010E94162A2B013C019D
:1013A000B701FF0C880B990B0E9461292DEC3CECD6
:1013B0004CE45DE30E94162A9B01AC01C301B2011B
:1013C0000E9446286B017C012091FC053091FD05AF
:1013D0004091FE055091FF05C501B4010E94162AF7
:1013E0004B015C01B801110F880B990B0E94612918
:1013F0002DEC3CEC4CE45DE30E94162A9B01AC0111
:10140000C501B4010E9446282B013C01C092000690
:10141000D0920106E0920206F09203064092FC058B
:101420005092FD056092FE057092FF0520E030E0CD
:1014300040EA50E4C701B6010E94162A20E030E0DD
:1014400040E85AE30E94162A4B015C0180920A068A
:1014500090920B06A0920C06B0920D0620E030E0B0
:1014600040EA50E4C301B2010E94162A20E030E0B5
:1014700040E85AE30E94162A6B017C01C0920406E0
:10148000D0920506E0920606F0920706219709F031
:1014900069CF20E030E048EC52E4C501B4010E947D
:1014A000162A0E94302970939F0660939E0620E0C2
:1014B00030E048EC52E4C701B6010E94162A0E94AF
:1014C00030297093A1066093A006DF91CF911F9100
:1014D0000F91FF90EF90DF90CF90BF90AF909F90D3
:1014E0008F907F906F905F904F9008952F923F92D2
:1014F0004F925F926F927F928F929F92AF92BF9224
:10150000CF92DF92EF92FF920F931F93CF93DF93CF
:10151000CDB7DEB72F970FB6F894DEBF0FBECDBFA5
:101520009F878E870E94B2066D837E838F83988704
:10153000EE85FF8582A193A1A4A1B5A14D815E8115
:101540006F817885481B590B6A0B7B0B86A597A585
:10155000A0A9B1A9481759076A077B0708F426C153
:10156000048CF58DE02D80819181A281B3818983E6
:101570009A83AB83BC83AE85BF859096ED91FC9139
:1015800029813A814B815C81608171818281938163
:101590000E9445284B015C01EE85FF8522A533A5FD
:1015A00044A555A569817A818B819C810E9445283B
:1015B0006B017C01AE85BF8550962D913D914D917B
:1015C0005C915397C501B4010E94162AEE85FF85F0
:1015D00026A137A140A551A50E9446282B013C0118
:1015E000AE85BF8596964D925D926D927C9299974D
:1015F000DB96BC91B987B11118C0EE85FF852485B3
:10160000358546855785C701B6010E94162A9B017C
:10161000AC01C301B2010E944528AE85BF859696F4
:101620006D937D938D939C939997EE85FF8546A04E
:1016300057A060A471A416A907A930AC21AC212F32
:10164000302F432D522DC301B2010E94112A1816CA
:101650000CF08FC0812F902FA32DB22DEE85FF852A
:1016600086A397A3A0A7B1A7F985FF2309F49AC081
:10167000AE85BF851C962D913D914D915C911F9734
:10168000C501B4010E94162A4B015C01EE85FF855D
:101690002489358946895789C701B6010E94162ACF
:1016A0009B01AC01AE85BF8596966D917D918D9124
:1016B0009C9199970E944528A50194010E94462873
:1016C0006B017C019B01AC01612F702F832D922D4A
:1016D0000E94B22887FD14C0EE85FF8512A903A9D8
:1016E00034A825A8212F302F432D522DB601C70134
:1016F0000E94B22887FD04C01C2D0D2D3E2C2F2CDE
:10170000AE85BF855E96ED91FC91812F902FA32D24
:10171000B22D80839183A283B38389819A81AB8127
:10172000BC81EE85FF8582A793A7A4A7B5A78D816D
:101730009E81AF81B88582A393A3A4A3B5A381E0C2
:101740002F960FB6F894DEBF0FBECDBFDF91CF91BD
:101750001F910F91FF90EF90DF90CF90BF90AF90CF
:101760009F908F907F906F905F904F903F902F90C1
:101770000895AE85BF85D2968D919D910D90BC91B7
:10178000A02D8A879B87AC87BD879C01AD01C301D3
:10179000B2010E94B22887FF67CF8A859B85AC85FE
:1017A000BD855CCF812C912C540170CF80E0C8CFD7
:1017B0008F929F92AF92BF92CF92DF92EF92FF9261
:1017C000CF93DF93EC01EE8DFF8DC080D180E2805E
:1017D000F380CEA2DFA2E8A6F9A6EC8DFD8D808174
:1017E0009181A281B3818AA79BA7ACA7BDA78EA830
:1017F0009FA8A8ACB9ACA5019401C701B6010E948D
:10180000112A18162CF48EA29FA2A8A6B9A60CC065
:101810008AA89BA8ACA8BDA8A5019401C701B601E0
:101820000E94B22887FDEFCFDF91CF91FF90EF901C
:10183000DF90CF90BF90AF909F908F9008958F9240
:101840009F92AF92BF92CF92DF92EF92FF92CF938F
:10185000DF9316161706ACF5EC016B01770FEE0857
:10186000FF08C701B6010E9461294B015C016EA50A
:101870007FA588A999A90E945F299B01AC01C50198
:10188000B4010E94B7284B015C01AC019B0168893F
:1018900079898A899B890E94162A688B798B8A8B21
:1018A0009B8BA50194016C897D898E899F890E94FB
:1018B000B7286C8B7D8B8E8B9F8BCEA6DFA6E8AA7C
:1018C000F9AADF91CF91FF90EF90DF90CF90BF907A
:1018D000AF909F908F9008954F925F926F927F92FA
:1018E0008F929F92AF92BF92CF92DF92EF92FF9230
:1018F0000F931F93CF93DF9300D000D0CDB7DEB707
:101900009E838D832A013B014801590120E030E08C
:10191000A901CB01B2010E94B22887FD89C020E055
:1019200030E0A901C501B8010E94B22887FD80C03E
:1019300020E030E0A901C701B6010E94B22887FD6E
:1019400077C081E0ED81FE81228D338D213031051C
:1019500009F080E0ED81FE8183AF40825182628296
:10196000738284829582A682B782C086D186E286FF
:10197000F38666A577A580A991A90E945F2920E03A
:1019800030E04AE754E40E94B72869837A838B8366
:101990009C83ED81FE8144865586668677869B0111
:1019A000AC01C501B4010E94162A4B015C01ED8116
:1019B000FE81808A918AA28AB38A29813A814B81E9
:1019C0005C81C701B6010E94B7286B017C01ED81E3
:1019D000FE81C48AD58AE68AF78A808D918D019727
:1019E00039F5A301920160E070E0CB010E94452827
:1019F000ED81FE816487758786879787A5019401AD
:101A000060E070E0CB010E944528ED81FE81608B93
:101A1000718B828B938BA701960160E070E0CB0104
:101A20000E944528ED81FE81648B758B868B978B98
:101A300026960FB6F894DEBF0FBECDBFDF91CF91D3
:101A40001F910F91FF90EF90DF90CF90BF90AF90DC
:101A50009F908F907F906F905F904F900895CF925E
:101A6000DF92EF92FF920F931F93CF93C82F81E0E5
:101A700080933207C0935407109233071092550792
:101A800060E08AEC99E00E944E0981E00E9407081C
:101A90000E945A066B017C0180912C07811165C060
:101AA00081E080932C0780932B079FEF90932A0768
:101AB00010922907809328078093070780910707D2
:101AC000CC0FC82BC093070780910607813009F01F
:101AD0008CC0109206070E945A066B017C0180910F
:101AE00007078093BB0080912E0790912F07A0914C
:101AF0003007B0913107892B8A2B8B2BA1F00E94E4
:101B00005A0600912E0710912F072091300730912F
:101B100031076C197D098E099F09061717072807D9
:101B2000390708F443C08091BC0083FDD8CF85EC11
:101B30008093BC000E945A066B017C0180912C07A7
:101B4000813009F454C080912907823008F071C0B7
:101B500080912907A8E0B7E0E6EEF6E090E098175C
:101B600051F12D9121939F5FFACF80912E07909193
:101B70002F07A0913007B0913107892B8A2B8B2B2F
:101B800009F48ACF0E945A0600912E0710912F0760
:101B900020913007309131076C197D098E099F091A
:101BA000061717072807390708F076CF80912D0709
:101BB0000E94E60780E01092E5068093E4068AEC36
:101BC00099E00E940709C82F8AEC99E00E94070952
:101BD00020E03C2FA901482BCA01CF911F910F9102
:101BE000FF90EF90DF90CF90089585EEA1CF809188
:101BF0002E0790912F07A0913007B0913107892BC4
:101C00008A2B8B2B09F49ACF0E945A0600912E073B
:101C100010912F0720913007309131076C197D0901
:101C20008E099F09061717072807390708F086CF7E
:101C3000BDCF82E08FCFCF92DF92EF92FF92CF9312
:101C4000DF93EC016C857D85636E716889850E94E8
:101C50007D098BEB92E10197F1F789850E942F0DA9
:101C60002B85022E02C0969587950A94E2F72223CF
:101C700029F0811528E0920708F0906F9F8B8E8BDA
:101C80006C857D85636E716B89850E947D098BEB08
:101C900092E10197F1F789850E942F0D2B85022E85
:101CA00002C0969587950A94E2F7222329F08115C0
:101CB00028E0920708F0906F998F888FBC01990FE8
:101CC000880B990B0E9461296B017C016E897F89C9
:101CD000072E000C880B990B0E9461299B01AC0117
:101CE000C701B6010E94B7282E853F8548895989CA
:101CF0000E94162ADF91CF91FF90EF90DF90CF9056
:101D0000089570E060E087E00E946C0570E060E09C
:101D100085E00E946C0510922E0A10922F0A1092F4
:101D2000300A1092310AE6E6F6E015AE14AE1092D3
:101D3000DA091092DB091092DC091092DD0917AE66
:101D400016AE10922A0A10922B0A10922C0A1092A8
:101D50002D0A13AA12AA1092700A10921C0A089552
:101D6000FC0101900020E9F73197AF01481B590BA6
:101D7000BC018DE299E00C941E038F929F92AF926A
:101D8000BF920F931F93CF93DF93CDB7DEB7A19789
:101D90000FB6F894DEBF0FBECDBF19A2423008F4D3
:101DA0004AE08E010F5D1F4F842E912CB12CA12C87
:101DB000A50194010E941428E62FB901CA01EA3056
:101DC000F4F4E05DD801EE938D01232B242B252B19
:101DD00079F790E080E0109719F0CD010E94B00EE5
:101DE000A1960FB6F894DEBF0FBECDBFDF91CF91A5
:101DF0001F910F91BF90AF909F908F900895E95CD5
:101E0000E1CFCF92DF92EF92FF92CF93DF936C01FD
:101E1000092E000CEE08FF0897FF19C06DE28DE255
:101E200099E00E94EB03EC0166277727CB016C1940
:101E30007D098E099F094AE00E94BD0E8C0F9D1FEF
:101E4000DF91CF91FF90EF90DF90CF9008954AE01F
:101E5000C701B601DF91CF91FF90EF90DF90CF9057
:101E60000C94BD0E0C94B00E81E392E00C94B00E75
:101E7000CF92DF92EF92FF9280911306882321F098
:101E800084E392E00E94320F0E94B2066B017C0153
:101E90008091700A882321F086E39AE00E94760AF6
:101EA00080911C0A882321F082EE99E00E94760A34
:101EB00060912E0A70912F0A8091300A9091310A18
:101EC0000E94292987E00E946C056091DA097091CF
:101ED000DB098091DC099091DD090E94292985E0C8
:101EE0000E946C0560912E0A70912F0A8091300A31
:101EF0009091310A0E9430297093A3066093A20644
:101F00006091DA097091DB098091DC099091DD091B
:101F10000E9430297093A5066093A4068091130651
:101F2000882399F00E94B2066C197D098E099F09D9
:101F30004AE00E94BD0E88E492E00E94320FFF90BA
:101F4000EF90DF90CF900C94340FFF90EF90DF90E4
:101F5000CF9008955F926F927F928F929F92AF92EF
:101F6000BF92CF92DF92EF92FF920F931F93CF9386
:101F7000DF930E94B2066B017C0186E696E09093A7
:101F8000260B8093250B8DE38093370B8091DF0A1E
:101F9000843008F052C08091DA0A9091DB0ADC01AB
:101FA000ED91FC910084F185E02D199581114AC0D5
:101FB000C0E00C2E000CDD0BC530D1050CF4F5C2D1
:101FC0000E94B2062091F0053091F105621B730B5F
:101FD0007093A7066093A6060E94B2066093F00570
:101FE0007093F1058093F2059093F30580911306A9
:101FF000882309F412C383E592E00E94320F0E9405
:10200000B2066C197D098E099F094AE00E94BD0E37
:1020100088E492E00E94320FDF91CF911F910F91DF
:10202000FF90EF90DF90CF90BF90AF909F908F90F8
:102030007F906F905F900C94340F8091DC0A9091A8
:10204000DD0AADCF9091240B891789F08093240B82
:102050000E94B2066B5F7F4F8F4F9F4F60932F0B95
:102060007093300B8093310B9093320BA1CF0E9471
:10207000B20600912F0B1091300B2091310B309153
:10208000320B601771078207930708F491CF109203
:10209000240B8091E00A823050F0809105018F7B03
:1020A00080930501809105018F7D80930501109239
:1020B000230B8091DF0AC0E0843040F18091DC0A7C
:1020C0009091DD0ADC01ED91FC910084F185E02D19
:1020D0001995892B09F43FC08091DC0A9091DD0AA3
:1020E000DC01ED91FC910284F385E02D199590912E
:1020F000230BE92FF0E0E652F54F81879F5F909325
:10210000230B9034D8F2C1E0D9CFC1E08091DA0A34
:102110009091DB0ADC01ED91FC910084F185E02DCA
:102120001995892BC1F08091DA0A9091DB0ADC01C4
:10213000ED91FC910284F385E02D19959091230B8C
:10214000E92FF0E0E652F54F81879F5F9093230BD4
:102150009034D8F6DBCF8091270B9091280B019615
:102160009093280B8093270BCC2371F080912B0B3D
:1021700090912C0B019690932C0B80932B0B8DEF51
:102180008093E20ACDEF15CFC091230BC093E20AF2
:10219000C7300CF40ECF9091E30A8091DE0A9813B9
:1021A00007CF0C2F10E08EEF8C0F0E948C02F801ED
:1021B000E652F54F2781308523273227232728171A
:1021C000390769F080912B0B90912C0B019690931D
:1021D0002C0B80932B0BCFEFC093E20AEACE209119
:1021E000E40AE5E0F2E08191821709F4FAC1B2E075
:1021F000ED30FB07C1F780912B0B90912C0B0196D2
:1022000090932C0B80932B0BC1E020582093E40A71
:10221000C093E50A83E08093230B0E94BE06DCCFC7
:102220008091E50A9091E60A982789279827AC01C2
:10223000B4E056954795BA95E1F78091E70A9091F9
:10224000E80A982789279827D4E096958795DA9504
:10225000E1F7840F951F0CC08091E50A9091E60A82
:10226000982789279827A4E096958795AA95E1F75E
:102270009091370B9817C0F4C2E0C7CF8091E50A60
:102280009091E60A98278927F3CF8091E70A9091E9
:10229000E80A9827892798274091E50A5091E60A8D
:1022A000542745275427D5CF0E94B20620912D0BE5
:1022B00030912E0B620F731F811D911D6093330BA4
:1022C0007093340B8093350B9093360B1092E20A87
:1022D000E091E40AE150E03108F06BCEF0E08827AD
:1022E000EB58FE4E8F4F0C94882A85118511EF1103
:1022F000EF1123125712D90FD90FD90FD90FD90FB8
:10230000D90FD90FD90F6612B4128091E50A9091B6
:10231000E60A9827892798276090E70A7090E80ACC
:10232000762467247624A301F3E056954795FA9521
:10233000E1F7242F8301077011270115110511F012
:1023400021E0240F2093E50A23E02093230B680E5D
:10235000791ED3E0C0E0812C912C5401839468163F
:10236000790689F1ED2FF0E0B501A4010C2E04C02F
:10237000440F551F661F771F0A94D2F7E652F54F98
:102380005184DC0173E0B695A7957A95E1F7AE7FAD
:10239000B170AA59B94F2D913C91A82FAF7002C0CE
:1023A00036952795AA95E2F720FF09C04529418770
:1023B000CF5FC83010F0DF5FC0E00196D0CF40950E
:1023C00054225186F5CF012B41F4D093230BC091B9
:1023D000230BCE5F0E94BE06ECCDDF5FF6CF2091CF
:1023E000E50A3091E60A32272327322F8091E70A47
:1023F0009091E80A98278927982F990F9093E50ADA
:10240000E3E0820F9927991FC2E0CE0FA32FB0E01F
:10241000A817B907ACF4AA0FBB1FAA59B94F2C9142
:1024200011964C91AE2FB0E0A652B54F19964C9331
:10243000EF5FF0E0E652F54F21873F5FEC2FE4CFEE
:10244000E093230BC7CF8091E50A9091E60A982785
:1024500089279827FC0153E0F695E7955A95E1F70F
:10246000EE7FF170EA59F94F20813181482F4F708A
:1024700081E090E0A0E0B0E004C0880F991FAA1F9F
:10248000BB1F4A95D2F74091E70A4F3F59F4822B80
:10249000932B9183808386E08093230B0E94BE065A
:1024A000C8E087CD8095909582239323F2CFE09169
:1024B000E60AF0E0EE0FFF1FEA59F94F8091E70AB4
:1024C0009091E80A982789279827E3CF8091E50A19
:1024D0009091E60A9827892798276090E70A7090DC
:1024E000E80A762467247624680E791E10E007E057
:1024F000812C912C540183946816790661F2FC01B9
:1025000023E0F695E7952A95E1F7EE7FF170EA5919
:10251000F94F282F2F70B501A40104C0440F551F97
:10252000661F771F2A95D2F7A081B181C02FD0E016
:10253000C652D54F298530E0012E02C0359527952A
:102540000A94E2F720FF0BC04A2B5B2B5183408398
:102550001F5F183010F00F5F10E00196CDCF40954F
:1025600050954A235B23F2CFE091E60A4091E80AB6
:102570001092E70A86E08093230BAAEDBAE0F0E020
:10258000EE0FFF1FEA59F94F80E01296481709F441
:1025900085CF1E962C911E971F969C911F97322FC8
:1025A000292F219331938F5FF0CFCE0101970497AC
:1025B00078F480911306882309F42FC080E792E015
:1025C0000E94320FCE010E94010F8DE892E015CDDE
:1025D000CD2B19F5809113068823F9F080E992E05C
:1025E0000CCDEFEFE20FE03108F05ECEF0E088278F
:1025F000E350FD4E8F4F0C94882A10111011451195
:1026000045112C113E1154115411541154115411EF
:1026100054115411541110114511DF91CF911F9194
:102620000F91FF90EF90DF90CF90BF90AF909F9071
:102630008F907F906F905F900895CF92DF92EF928E
:10264000FF926B017C010E94B206C60ED71EE81EE7
:10265000F91E0E94B206C616D706E806F90618F05B
:102660000E94AA0FF6CFFF90EF90DF90CF900895D1
:102670008EE30E94E4040197E1F182EA92E00E9475
:10268000320F0E94340F80ED92E00E94320F0E94C0
:10269000340F82EA92E00E94320F0E94340F8EE0E3
:1026A00090E090936906809368068EE30E94E404AC
:1026B000019729F0109213060E94AA0FF6CF60ED41
:1026C00077E080E090E00E941D138DEF92E00E9481
:1026D000320F0E94340F82EA92E00E94320F0E9471
:1026E000340F1092670610926606109269061092D7
:1026F000680608954F925F926F927F928F929F9299
:10270000AF92BF92CF92DF92EF92FF920F931F93FF
:10271000CF936B017C01742EAC019B010E94832A34
:10272000882399F083E293E0CF911F910F91FF905E
:10273000EF90DF90CF90BF90AF909F908F907F9061
:102740006F905F904F900C94B00E46015701E89443
:10275000B7F82FEF3FEF4FE75FE7C501B4010E94E5
:10276000832A81110DC02FEF3FEF4FE75FE7C501CF
:10277000B4010E94B22818161CF487E293E0D4CF6B
:102780002FEF3FEF4FE75FE4C701B6010E94112A28
:1027900018161CF48BE293E0C7CF2FEF3FEF4FE703
:1027A0005FECC701B6010E94B22887FDF3CF20E09D
:1027B00030E0A901C701B6010E94B22810E000E094
:1027C00087FF0AC06DE28DE299E00E94EB038C0165
:1027D000F7FAF094F7F8F094C0E060E070E080E081
:1027E0009FE37C1641F020E030E040E251E40E949B
:1027F000B728CF5FF6CFA70196010E9446282B018C
:102800003C010E9430294B015C014AE00E94BD0E50
:102810007C01E00EF11ECC23C1F1C501B4010E9480
:102820005F299B01AC01C301B2010E9445284B0105
:102830005C016EE28DE299E00E94EB03E80EF91E66
:10284000C15018F120E030E040E251E4C501B4018C
:102850000E94162A2B013C010E9430294B01B12C09
:10286000A12C4AE0C501B4010E94BD0EE80EF91E7C
:10287000C501B4010E945F299B01AC01C301B201F3
:102880000E9445284B015C01DBCFC701CF911F910E
:102890000F91FF90EF90DF90CF90BF90AF909F90FF
:1028A0008F907F906F905F904F9008952F923F92FE
:1028B0004F925F926F927F928F929F92AF92BF9250
:1028C000CF92DF92EF92FF920F931F93CF93DF93FC
:1028D00000D000D01F921F92CDB7DEB7809168065E
:1028E00090916906039709F074C28AE097EDA3E21C
:1028F000BCE38093D60A9093D70AA093D80AB093EA
:10290000D90A0E945A060E945F2920E034E244E777
:1029100059E40E94B7286093D20A7093D30A809337
:10292000D40A9093D50A2091CE0A3091CF0A4091D3
:10293000D00A5091D10A0E9445282091D60A3091A0
:10294000D70A4091D80A5091D90A0E94112A181624
:102950000CF026C200916806109169060E945A0682
:102960006B017C0161E087E00E940D0561E085E07C
:102970000E940D050E945A066C197D098E099F0957
:102980006039714081059105A8F389E30E944306EF
:102990005C0187E30E9443069E838D8388E30E9447
:1029A00043067C0186E30E9443063C0160912E0AA7
:1029B00070912F0A8091300A9091310A0E94292942
:1029C00087E00E946C056091DA097091DB098091C3
:1029D000DC099091DD090E94292985E00E946C059F
:1029E00020E53AE0D7010E94902ACC24CA9423E043
:1029F000D22EE12CF12CA70196010E94F527CA01E5
:102A0000B9010E94612920E030E048EC52E40E94C4
:102A1000B7281B012C0120E53AE0D5010E94902A3D
:102A2000A70196010E94F527CA01B9010E946129F8
:102A300020E030E048EC52E40E94B7289B01AC0152
:102A4000C201B1010E94B72869837A838B839C837A
:102A500060917E0670917F0690E080E00E945F2981
:102A600020E030E04AE754E40E94B72829813A8107
:102A70004B815C810E94162A4B015C0160918006AB
:102A80007091810690E080E00E945F2920E030E0B4
:102A900040E251E40E94B7289B01AC01C501B4019A
:102AA0000E9445284B015C0120E53AE0D3010E94D9
:102AB000902AA70196010E94F527CA01B9010E9438
:102AC000612920E030E048EC52E40E94B7282B0155
:102AD0003C0120E53AE0AD81BE810E94902AA70129
:102AE00096010E94F527CA01B9010E94612920E0E0
:102AF00030E048EC52E40E94B7289B01AC01C301CE
:102B0000B2010E94B7286B017C016091820670912E
:102B1000830690E080E00E945F2920E030E04AE7F1
:102B200054E40E94B728A70196010E94162A2B019F
:102B30003C01609184067091850690E080E00E94DF
:102B40005F2920E030E040E251E40E94B7289B0179
:102B5000AC01C301B2010E9445282B013C01A50133
:102B60009401C501B4010E94832A882309F436C167
:102B70001092320A1092330A1092340A1092350AD7
:102B8000A3019201C301B2010E94832A81112FC1C6
:102B90004092DE095092DF096092E0097092E109EB
:102BA00020E030E0A9016091F8057091F90580916D
:102BB000FA059091FB050E94B228811110C0809106
:102BC000320A9091330AA091340AB091350A809369
:102BD000F8059093F905A093FA05B093FB0520E062
:102BE00030E0A9016091F4057091F5058091F6053A
:102BF0009091F7050E94B228811110C08091DE09E2
:102C00009091DF09A091E009B091E1098093F4056A
:102C10009093F505A093F605B093F70520E030E01A
:102C2000A9016091010270910202809103029091CA
:102C300004020E94112A181664F468EF75E082E31A
:102C40009AE00E94A80264EF75E08EED99E00E9480
:102C5000A80284EA9AE00E941B0E2B013C018EE739
:102C60009AE00E941B0E6D837E838F8398870E945B
:102C7000B2062091D6093091D7094091D8095091D8
:102C8000D909621B730B840B950B693E7340810558
:102C9000910508F44BC00E94B2066093D609709368
:102CA000D7098093D8099093D90903301105F1F51C
:102CB00026EB3EE54AE250E4C301B2010E94162A27
:102CC00021EB30EF45E853E40E94452842E00E94A2
:102CD0007A138FE293E00E94320F42E069817A8199
:102CE0008B819C810E947A138FE293E00E94320FC5
:102CF00026EB3EE54AE250E46D817E818F81988526
:102D00000E94162A21EB30EF45E853E40E94452843
:102D100042E00E947A138FE293E00E94320F42E079
:102D2000C701B6010E947A130E94340F20E030E000
:102D300048EC52E46091320A7091330A8091340A6F
:102D40009091350A0E94162A0E94302970939B06A2
:102D500060939A0620E030E048EC52E46091DE098E
:102D60007091DF098091E0099091E1090E94162A93
:102D70000E94302970939D0660939C060E945A061B
:102D80000E945F2920E034E244E759E40E94B7281A
:102D90006093CE0A7093CF0A8093D00A9093D10AA1
:102DA00028960FB6F894DEBF0FBECDBFDF91CF914E
:102DB0001F910F91FF90EF90DF90CF90BF90AF9059
:102DC0009F908F907F906F905F904F903F902F904B
:102DD000089580E090E0A0E0BFE38BCD8092320ABE
:102DE0009092330AA092340AB092350AC9CE10925A
:102DF000DE091092DF091092E0091092E109D0CEAD
:102E0000CF93DF93EC010E94810E84E090E09093D9
:102E1000990680939806D0936906C093680681E06E
:102E200090E0A0E0B0E00C2E04C0880F991FAA1F0C
:102E3000BB1F0A94D2F72091AA063091AB06822BD1
:102E4000932B9093AB068093AA0660E086E10E94E4
:102E50000D0560E087E10E940D056091BC06709150
:102E6000BD068DE00E946C0560E08AE00E940D05C1
:102E70006AEF70E080E090E00E941D1360E088E05F
:102E80000E940D056AEF70E080E090E00E941D1343
:102E900060E089E00E940D056AEF70E080E090E05C
:102EA0000E941D1360E082E00E940D05809166067D
:102EB00090916706069709F448C08091130688230D
:102EC00091F181E393E00E94320FCE010E94010F45
:102ED0000E94340F8EE393E0C830D10559F185E6A6
:102EE00093E0C930D10531F18CE793E0CA30D105C8
:102EF00009F183E993E0CB30D105E1F086EA93E074
:102F0000CC30D105B9F089EB93E0CD30D10591F00B
:102F10008DEE93E0CE30D10569F48BED93E00E9405
:102F2000320F0E94340F0E94AA0F0E9456140E9472
:102F3000A009BCCF0E94320F0E94340F8BEF93E0A8
:102F40000E94320F0E94340FECCF61E086E10E94B4
:102F50000D0561E087E10E940D0561E082E0DF91EF
:102F6000CF910C940D058F929F92AF92BF92CF920A
:102F7000DF92EF92FF9280911306882321F08DE07B
:102F800094E00E94320F0E94B2066B017C01109205
:102F900065060E94B2068090330B9090340BA0908F
:102FA000350BB090360B2091A8063091A9068616F5
:102FB0009706A806B90608F034C1C901806190934C
:102FC000A9068093A8060E94810E20E030E040E828
:102FD0005FE360912E0A70912F0A8091300A9091E0
:102FE000310A0E94B22887FD10C020E030E040E89E
:102FF0005FE36091DA097091DB098091DC099091BF
:10300000DD090E94B22887FF45C020E030E040E0A3
:1030100050E460910A0670910B0680910C06909125
:103020000D060E94112A181694F4809108069091BA
:103030000906019690930906809308060B973CF0C9
:1030400088E090E00E94001781E08093650620E010
:1030500030E040E050E460910406709105068091F4
:103060000606909107060E94112A18160CF0E0C07F
:103070008091080690910906019690930906809325
:1030800008060B973CF088E090E00E94001781E072
:103090008093650620E030E046E953E46091320A0F
:1030A0007091330A8091340A9091350A0E94112A56
:1030B00018166CF48091660690916706892B39F09A
:1030C00089E090E00E94001781E08093650620E08F
:1030D00030E046E953E46091DE097091DF098091A8
:1030E000E0099091E1090E94112A18166CF4809170
:1030F000660690916706892B39F08AE090E00E947D
:10310000001781E08093650620E030E0A90160911E
:10311000320A7091330A8091340A9091350A0E94E4
:10312000B22887FF0DC08091660690916706892BB3
:1031300039F08DE090E00E94001781E080936506F1
:1031400020E030E0A9016091DE097091DF098091F3
:10315000E0099091E1090E94B22887FF0DC080919B
:10316000660690916706892B39F08DE090E00E9409
:10317000001781E08093650620E030E040EA50E4EB
:1031800060910A0670910B0680910C0690910D06D5
:103190000E94112A18163CF48BE090E00E94001760
:1031A00081E08093650620E030E040EA50E46091E1
:1031B00004067091050680910606909107060E940C
:1031C000112A18163CF48CE090E00E94001781E070
:1031D000809365068CE30E94E404892B39F481E036
:1031E000809365068FE090E00E940017809113069F
:1031F000882319F10E94B2066C197D098E099F0976
:103200004AE00E94BD0E88E492E00E94320FFF90D7
:10321000EF90DF90CF90BF90AF909F908F900C94E5
:10322000340FC9018F7E9093A9068093A806CDCE56
:1032300010920906109208062DCFFF90EF90DF90B4
:10324000CF90BF90AF909F908F9008954F925F92D4
:103250006F927F928F929F92AF92BF92CF92DF92A6
:10326000EF92FF92CF93DF9380911306882321F092
:1032700083E294E00E94320F0E94B2064B015C018F
:103280000E94561440902A0A50902B0A60902C0AF3
:1032900070902D0AA30192016091320A7091330A55
:1032A0008091340A9091350A0E9445286B017C0177
:1032B00020E030E0A9010E94112A181624F0F7FA44
:1032C000F094F7F8F09420E030E040E050E4C701DB
:1032D000B6010E94B228C091A806D091A90687FD28
:1032E00051C0A30192016091DE097091DF098091C4
:1032F000E0099091E1090E9445286B017C0120E0E2
:1033000030E0A9010E94112A181624F0F7FAF0946F
:10331000F7F8F09420E030E040E050E4C701B60157
:103320000E94B22887FD2EC08091660690916706A4
:10333000892B41F1C860D093A906C093A8060E94CA
:10334000A009809113068823F9F00E94B20668193B
:1033500079098A099B094AE00E94BD0E88E492E03F
:103360000E94320FDF91CF91FF90EF90DF90CF90CE
:10337000BF90AF909F908F907F906F905F904F9095
:103380000C94340FC77FD7CFDF91CF91FF90EF9090
:10339000DF90CF90BF90AF909F908F907F906F9075
:1033A0005F904F90089585ED8093BC0080912E072B
:1033B00090912F07A0913007B09131070796A11D7A
:1033C000B11D23E0B695A795979587952A95D1F7D6
:1033D0002091BC0024FD03C010922C070895409159
:1033E0002E0750912F076091300770913107452BC0
:1033F000462B472B69F30097A105B10541F025E362
:103400002A95F1F700000197A109B109E1CF809158
:103410002D070C94E607FF920F931F93CF93DF9332
:10342000EC018B01FB01F0800E94DF27F81621F0F0
:103430006F2DCE010E94E727F801F1802196CE0181
:103440000E94DF27F81621F06F2DCE010E94E7279A
:10345000C801DF91CF911F910F91FF90089585E3EF
:1034600094E00E94320F0E94340F62E776E088E019
:1034700090E00E940B1A64E776E08CE090E00E94F6
:103480000B1A66E776E080E190E00E940B1A68E78D
:1034900076E084E190E00E940B1A6AE776E088E12A
:1034A00090E00E940B1A6CE776E08CE190E00E94BD
:1034B0000B1A6EE776E080E091E00E940B1A60E85C
:1034C00076E084E091E00E940B1A62E876E080E109
:1034D00091E00E940B1A64E876E084E191E00E949A
:1034E0000B1A6CEB76E080E291E00E940B1A6EEB17
:1034F00076E084E291E00E940B1A60E776E088E2D1
:1035000091E00E940B1A60EB76E08CE291E00E9461
:103510000B1A60EC76E080E391E00E940B1A6EE6F5
:1035200076E084E391E00E940B1A64EC76E088E395
:1035300091E00E940B1A66EC76E08CE391E00E9429
:103540000B1A68EC76E080E491E00E940B1A6EEDB5
:1035500076E084E491E00E940B1A6AE676E088E463
:1035600091E00E940B1A6AEC76E088E592E00E94F6
:103570000B1A6CEC76E08CE592E00E940B1A6EEC74
:1035800076E080E692E00E940B1A60ED76E084E639
:1035900092E00E940B1A62ED76E088E692E00E94CB
:1035A0000B1A64ED76E08CEB92E00E940B1A66ED4C
:1035B00076E080EC92E00E940B1A68ED76E084ECF5
:1035C00092E00E940B1A6AED76E088EC92E00E948D
:1035D0000B1A6CED76E08CEC92E00E940B1A60E91D
:1035E00076E088EE93E00E940B1A6EE170E080E0D6
:1035F00090E00C941D131F93CF93DF93EC010E9476
:10360000DF27182FCE0101960E94DF2790E0982F28
:103610008827810F911DDF91CF911F91089582E638
:1036200094E00E94320F0E94340F88E090E00E94E4
:10363000FB1ABC0190E080E00E945F2920E030E0AE
:1036400048EC52E40E94B7286093720A7093730AA0
:103650008093740A9093750A8CE090E00E94FB1AA4
:10366000BC0190E080E00E945F2920E030E048EC5F
:1036700052E40E94B7286093760A7093770A809389
:10368000780A9093790A80E190E00E94FB1ABC01CD
:1036900090E080E00E945F2920E030E048EC52E4B6
:1036A0000E94B72860937A0A70937B0A80937C0A01
:1036B00090937D0A84E190E00E94FB1ABC0190E0A7
:1036C00080E00E945F2920E030E048EC52E40E9454
:1036D000B72860931E0A70931F0A8093200A909364
:1036E000210A88E190E00E94FB1ABC0190E080E092
:1036F0000E945F2920E030E048EC52E40E94B728A5
:103700006093220A7093230A8093240A9093250AD7
:103710008CE190E00E94FB1ABC0190E080E00E94E6
:103720005F2920E030E048EC52E40E94B728609323
:10373000260A7093270A8093280A9093290A809179
:10374000900690919106892BB9F488E291E00E944D
:10375000FB1ABC0190E080E00E945F2920E030E08D
:1037600048EC52E40E94B72860932A0A70932B0A0F
:1037700080932C0A90932D0A08953F924F925F9266
:103780006F927F928F929F92AF92BF92CF92DF9271
:10379000EF92FF920F931F93CF93DF93CDB7DEB7D6
:1037A00064970FB6F894DEBF0FBECDBF4B015C012E
:1037B000109213060E94B2062B013C010E94B20631
:1037C00069837A838B839C838091700A811104C002
:1037D00086E39AE00E94D80B81E08093700A809182
:1037E0001C0A811104C082EE99E00E94D80B81E08E
:1037F00080931C0A8091A8069091A9068E7F9093D1
:10380000A9068093A8060E940F1BC0907A0AD09048
:103810007B0AE0907C0AF0907D0A0091760A109174
:10382000770A2091780A3091790A4091720A509172
:10383000730A6091740A7091750A86E39AE00E9497
:103840006C0CC090260AD090270AE090280AF090CD
:10385000290A0091220A1091230A2091240A30910A
:10386000250A40911E0A50911F0A6091200A70910A
:10387000210A82EE99E00E946C0C109212060E94BE
:1038800026190E94380F83E090E090939906809368
:103890009806A3019201280D391D4A1D5B1D2D8735
:1038A0003E874F87588B332433940E94B2062B01F6
:1038B0003C012091320A3091330A4091340A5091F0
:1038C000350A60912A0A70912B0A80912C0A9091F6
:1038D0002D0A0E94452820E030E048EC51E40E9487
:1038E000162A4B015C0120E030E0A9010E94112A58
:1038F00018160CF055C1C501B4010E9430292D8560
:103900003E854F855889620F731F841F951F461689
:1039100057066806790608F052C10E94B206698B04
:103920007A8B8B8B9C8B0E94B317809165068111DB
:1039300046C10E94AA0F80911206882309F48FC005
:1039400080910002882309F48AC060917206709108
:10395000730690E080E00E945F2920E030E048ECB0
:1039600052E40E94B7282B013C014092720A509207
:10397000730A6092740A7092750A60917806709169
:10398000790690E080E00E945F2920E030E048EC7A
:1039900052E40E94B7286D837E838F83988760935B
:1039A0001E0A70931F0A8093200A9093210A609147
:1039B00074067091750690E080E00E945F2920E017
:1039C00030E048EC52E40E94B7284B015C01809241
:1039D000760A9092770AA092780AB092790A60915A
:1039E0007A0670917B0690E080E00E945F2920E0DB
:1039F00030E048EC52E40E94B72869877A878B87C9
:103A00009C876093220A7093230A8093240A9093E0
:103A1000250AC0907A0AD0907B0AE0907C0AF09048
:103A20007D0A95018401B301A20186E39AE00E9418
:103A30006C0CC090260AD090270AE090280AF090DB
:103A4000290A09851A852B853C854D815E816F8108
:103A5000788582EE99E00E946C0C1092120689899A
:103A60009A89AB89BC8929813A814B815C81821B0F
:103A7000930BA40BB50B0597A105B10550F00E945F
:103A800026190E94380F0E94B20669837A838B83BD
:103A90009C8380902A0A90902B0AA0902C0AB090C8
:103AA0002D0A20910E0630910F064091100650917C
:103AB0001106C501B4010E94B228882309F474C01C
:103AC0003092000280920E0690920F06A09210068D
:103AD000B09211064091A8065091A9065E834D83CD
:103AE000C501B4010E942929072E000C880B990BEF
:103AF0000E9461292B013C01609170067091710652
:103B0000072E000C880B990B0E94612920E030E001
:103B100048EC52E40E94B7289B01AC01C301B201FA
:103B20000E94B228882309F442C08D819E81816061
:103B30009093A9068093A8068091B8069091B90643
:103B400090936406809363062091320A3091330A81
:103B50004091340A5091350AC501B4010E944528AC
:103B60004B015C016091C6067091C70690E080E051
:103B70000E945F2920E030E048EC52E40E94B72820
:103B80009B01AC01C501B4010E94B22887FF8DCE14
:103B90006091C4067091C5068DE00E946C0585CECB
:103BA000C501B4019058A9CE1092000293CFAD8107
:103BB000BE81AE7FB093A906A093A806BDCF0E9498
:103BC0002F1A64960FB6F894DEBF0FBECDBFDF91FB
:103BD000CF911F910F91FF90EF90DF90CF90BF900A
:103BE000AF909F908F907F906F905F904F903F909D
:103BF0000C940F1B8F929F92AF92BF92CF92DF9245
:103C0000EF92FF920F931F93CF93DF93EC0187E81E
:103C100094E00E94320FBE0190E080E04AE00E94F2
:103C2000BD0E0E94340F89E994E00E94320F0E9479
:103C3000340F0E94340F10E000E086E0E82EF12CF3
:103C400095E0C92ED12C80916606909167068C175D
:103C50009D0709F089C00E9426190E94B3170E948F
:103C6000AA0F60916E0670916F0690E080E00E944E
:103C70005F2920E030E048EC52E40E94B7284B0175
:103C80005C012091320A3091330A4091340A5091FC
:103C9000350A0E94B22887FD0EC02091DE093091BE
:103CA000DF094091E0095091E109C501B4010E948A
:103CB000B22887FF50C061E08CE00E940D0561E0F2
:103CC0008BE00E940D05F0929906E092980601158E
:103CD000110599F5C330D10581F560916E0670919B
:103CE0006F0690E080E00E945F2920E030E048EC21
:103CF00052E40E94B7284B015C012091320A3091B6
:103D0000330A4091340A5091350A0E94112A18163C
:103D100074F02091DE093091DF094091E009509163
:103D2000E109C501B4010E94112A181634F4D09299
:103D30006906C092680601E010E00E943813809185
:103D40001306882309F47FCF89E994E00E94320F9B
:103D50000E94340F78CF60E08CE00E940D0560E097
:103D60008BE00E940D05B3CF0E942F1ADF91CF91F7
:103D70001F910F91FF90EF90DF90CF90BF90AF9089
:103D80009F908F900C940F1B1F920F920FB60F9263
:103D900011240BB60F922F933F934F935F936F9322
:103DA0007F938F939F93AF93BF93EF93FF9386E59A
:103DB00097E00E94C903FF91EF91BF91AF919F914E
:103DC0008F917F916F915F914F913F912F910F90C4
:103DD0000BBE0F900FBE0F901F9018951F920F9261
:103DE0000FB60F9211240BB60F922F933F934F9360
:103DF0005F936F937F938F939F93AF93BF93EF9353
:103E0000FF9386E597E00E944B03FF91EF91BF91EE
:103E1000AF919F918F917F916F915F914F913F9162
:103E20002F910F900BBE0F900FBE0F901F90189503
:103E30001F920F920FB60F9211240BB60F922F9371
:103E40003F934F935F936F937F938F939F93AF9322
:103E5000BF93EF93FF9383EF97E00E94C903FF9115
:103E6000EF91BF91AF919F918F917F916F915F91F2
:103E70004F913F912F910F900BBE0F900FBE0F905F
:103E80001F9018951F920F920FB60F9211240BB628
:103E90000F922F933F934F935F936F937F938F93E3
:103EA0009F93AF93BF93EF93FF9383EF97E00E94AD
:103EB0004B03FF91EF91BF91AF919F918F917F91B4
:103EC0006F915F914F913F912F910F900BBE0F908B
:103ED0000FBE0F901F9018951F920F920FB60F9262
:103EE00011240BB60F922F933F934F935F936F93D1
:103EF0007F938F939F93AF93BF93EF93FF9380E94B
:103F000098E00E94C903FF91EF91BF91AF919F91FB
:103F10008F917F916F915F914F913F912F910F9072
:103F20000BBE0F900FBE0F901F9018951F920F920F
:103F30000FB60F9211240BB60F922F933F934F930E
:103F40005F936F937F938F939F93AF93BF93EF9301
:103F5000FF9380E998E00E944B03FF91EF91BF919E
:103F6000AF919F918F917F916F915F914F913F9111
:103F70002F910F900BBE0F900FBE0F901F901895B2
:103F80001F920F920FB60F9211240BB60F922F9320
:103F90003F934F935F936F937F938F939F93AF93D1
:103FA000BF93EF93FF938DE299E00E94C903FF91C5
:103FB000EF91BF91AF919F918F917F916F915F91A1
:103FC0004F913F912F910F900BBE0F900FBE0F900E
:103FD0001F9018951F920F920FB60F9211240BB6D7
:103FE0000F922F933F934F935F936F937F938F9392
:103FF0009F93AF93BF93EF93FF938DE299E00E945D
:104000004B03FF91EF91BF91AF919F918F917F9162
:104010006F915F914F913F912F910F900BBE0F9039
:104020000FBE0F901F9018951F920F920FB60F9210
:1040300011242F933F938F939F93AF93BF938091BE
:104040005B0690915C06A0915D06B0915E06309192
:104050005A0623E0230F2D3758F50196A11DB11DF7
:1040600020935A0680935B0690935C06A0935D06AE
:10407000B0935E0680915F0690916006A091610604
:10408000B09162060196A11DB11D80935F069093C9
:104090006006A0936106B0936206BF91AF919F91B5
:1040A0008F913F912F910F900FBE0F901F901895F9
:1040B00026E8230F0296A11DB11DD2CF1F920F92A9
:1040C0000FB60F9211240F900FBE0F901F901895EE
:1040D0001F920F920FB60F9211240BB60F922F93CF
:1040E0003F934F935F936F937F938F939F93AF9380
:1040F000BF93EF93FF938091B900887F803609F4D6
:104100004DC008F040C0883209F4A9C028F58031BC
:1041100009F49DC0C8F4882309F4FBC0883009F471
:1041200096C0FF91EF91BF91AF919F918F917F9139
:104130006F915F914F913F912F910F900BBE0F9018
:104140000FBE0F901F901895883109F488C08032F7
:1041500041F780932A0714C0803409F49DC040F4CD
:104160008033B9F38833E9F680932A0785ECB0C031
:10417000803509F485C0883509F496C0883489F6FD
:104180000E94D319CECF883909F48CC038F588370E
:1041900029F050F4883611F0803719F683E08093C7
:1041A0002C071092570657C0883809F47BC0803915
:1041B00019F0803809F0B5CF80915706803208F0A9
:1041C00071C0E091570681E08E0F80935706809171
:1041D000BB00F0E0E95CF94F80833DC0803B39F0E3
:1041E000E0F4803A09F479C0883A09F09ACF84E083
:1041F00080932C071092360610923506E091E20665
:10420000F091E30619958091350681110FC081E088
:10421000809335061092150609C0803C09F4A6CF9C
:10422000883C09F4A3CF883B09F07BCFE0913606A8
:1042300081E08E0F80933606F0E0EB5EF94F8081CF
:104240008093BB00909136068091350629C08091FD
:1042500007078093BB0085EC8093BC0062CF9091F0
:10426000290780912807981758F5E091290781E0E0
:104270008E0F80932907F0E0E85FF84F8081E9CF47
:10428000E091290781E08E0F809329078091BB0080
:10429000F0E0E85FF84F808390912907809128072C
:1042A0009817C8F285E8D8CFE091290781E08E0FF2
:1042B000809329078091BB00F0E0E85FF84F80838E
:1042C00080912B0781115CCF81E08093060784EAFF
:1042D0008093BC0010922C0724CF85EC8093BC0007
:1042E00010922C0780915706803230F4E0915706E7
:1042F000F0E0E95CF94F10826091570670E0E091C0
:10430000E006F091E10687E396E0199510925706D2
:1043100008CF10922A0734CF2F923F924F925F928C
:104320006F927F928F929F92AF92BF92CF92DF92C5
:10433000EF92FF920F931F93CF93DF93CDB7DEB72A
:104340003C0118012901FC01578F468F758F648F3E
:104350008AE29AE091A380A312AE12AA13AA14AA29
:1043600015AA80E090E0AFE7B3E486AB97ABA0AFCF
:10437000B1AF84E690E0A0E0B0E086A797A7A0AB3D
:10438000B1AB118E108E20E030E0A901C201B8015E
:104390000E94B22887FD42C020E030E0A901C70199
:1043A000B6010E94B22887FD39C020E030E0A901A3
:1043B000C501B4010E94B22887FD30C081E090E0C1
:1043C000F301938F828F83AF2082318242825382A6
:1043D000C482D582E682F78280869186A286B386E1
:1043E00024863586468657862DEC3CEC4CEC5DE306
:1043F000C701B6010E94162AF301608B718B828B74
:10440000938B2DEC3CEC4CEC5DE3C501B4010E94B8
:10441000B728F301648B758B868B978B0E94B2064D
:10442000F301C6A4D7A4E0A8F1A86C197D098E09F0
:104430009F0962A373A384A395A3DF91CF911F91DA
:104440000F91FF90EF90DF90CF90BF90AF909F9033
:104450008F907F906F905F904F903F902F90089536
:104460008F929F92AF92BF92CF92DF92EF92FF9284
:104470000F931F93E6E5F7E01382128288EE93E034
:10448000A0E0B0E084839583A683B78321E132E086
:104490003183208345E351E05587448744E351E06D
:1044A0005787468740E351E0518B408B41E351E011
:1044B000538B428B42E351E0558B448B46E351E0F2
:1044C000578B468B118E128E138E148EE3EFF7E00E
:1044D0001382128284839583A683B78331832083DA
:1044E00045ED50E05587448744ED50E057874687B7
:1044F00040ED50E0518B408B41ED50E0538B428BAF
:1045000042ED50E0558B448B46ED50E0578B468B87
:10451000118E128E138E148EE0E9F8E0138212824F
:1045200084839583A683B783318320834DEC50E049
:10453000558744874CEC50E05787468748EC50E05D
:10454000518B408B49EC50E0538B428B4AEC50E04E
:10455000558B448B4EEC50E0578B468B118E128E50
:10456000138E148EEDE2F9E0138212828483958318
:10457000A683B7833183208325EC30E035872487F9
:1045800024EC30E03787268720EC30E0318B208B1D
:1045900021EC30E0338B228B22EC30E0358B248B06
:1045A00026EC30E0378B268B118E128E138E148EF4
:1045B000EAECF9E01382128284839583A683B783A1
:1045C00083E292E091838083EAEDFAE081E08483E4
:1045D00083E0858382E0868388EE93E090932E0BC0
:1045E00080932D0B80E090E0A0E0BFE38093D60A9B
:1045F0009093D70AA093D80AB093D90A83E393E3A0
:10460000A3E7BFE38093CA0A9093CB0AA093CC0A96
:10461000B093CD0AE4EAFAE002E311E120E83BE3DB
:1046200000831183228333834FE755E06BE175EB01
:1046300044835583668377831586148688E481874F
:1046400098E09287138612A213A214A215A2808763
:10465000EEE7FAE00083118322833383448355839A
:10466000668377831586148689E48187928713860B
:1046700012A213A214A215A2808780907A0A9090A9
:104680007B0AA0907C0AB0907D0AC090760AD090F8
:10469000770AE090780AF090790A0091720A1091F6
:1046A000730A2091740A3091750A4EE25AE062E36F
:1046B0007AE086E39AE00E948C218090260A90900E
:1046C000270AA090280AB090290AC090220AD09008
:1046D000230AE090240AF090250A00911E0A109106
:1046E0001F0A2091200A3091210A4AED59E06EED0F
:1046F00079E082EE99E00E948C210E94B2066093DC
:10470000D6097093D7098093D8099093D9091F913E
:104710000F91FF90EF90DF90CF90BF90AF909F9060
:104720008F900895789484B5826084BD84B581604B
:1047300084BD85B5826085BD85B5816085BD80916C
:104740006E00816080936E001092810080918100E4
:1047500082608093810080918100816080938100DC
:10476000809180008160809380008091B10084609E
:104770008093B1008091B00081608093B0008091FF
:10478000910082608093910080919100816080937C
:104790009100809190008160809390008091A100B1
:1047A00082608093A1008091A10081608093A1002C
:1047B0008091A00081608093A0008091210182609F
:1047C000809321018091210181608093210180915A
:1047D000200181608093200180917A008460809321
:1047E0007A0080917A00826080937A0080917A00CA
:1047F000816080937A0080917A00806880937A004B
:104800001092C1000E945A060E945F2920E034E203
:1048100044E759E40E94B7286093CE0A7093CF0A08
:104820008093D00A9093D10A60E08EE30E943B050A
:1048300061E086E10E943B0561E086E10E940D0592
:1048400061E087E10E943B0560E08CE30E943B054C
:1048500061E087E10E940D0561E087E00E943B0571
:1048600061E085E00E943B0570E060E087E00E9427
:104870006C0570E060E085E00E946C0540E052EC61
:1048800061E070E08DE299E00E942A028091DF0AE7
:10489000823009F454C2833009F454C2813009F0E3
:1048A00054C280E998E09093DB0A8093DA0A40E0F2
:1048B00052EC61E070E08091DA0A9091DB0A0E948C
:1048C0002A028091E00A823078F0809104018066AB
:1048D00080930401809105018F7B80930501809175
:1048E00005018F7D809305018091DA0A9091DB0AA2
:1048F000DC01ED91FC910284F385E02D199597FF81
:10490000F3CF1092230B1092240B10922C0B1092C9
:104910002B0B10922A0B1092290B1092280B10923D
:10492000270B88ED94E00E94320F0E94340F0E9402
:10493000340F88EF94E00E94320F0E94340F88E019
:1049400090E00E94FB1A90937306809372068CE0AD
:1049500090E00E94FB1A909375068093740680E1A4
:1049600090E00E94FB1A909377068093760684E18C
:1049700090E00E94FB1A909379068093780688E174
:1049800090E00E94FB1A90937B0680937A068CE15C
:1049900090E00E94FB1A90937D0680937C0680E055
:1049A00091E00E94FB1A90937F0680937E0684E03C
:1049B00091E00E94FB1A909381068093800680E12B
:1049C00091E00E94FB1A909383068093820684E113
:1049D00091E00E94FB1A909385068093840680E202
:1049E00091E00E94FB1A9093BD068093BC0684E27E
:1049F00091E00E94FB1A9093BF068093BE0688E266
:104A000091E00E94FB1A90937106809370068CE2ED
:104A100091E00E94FB1A9093B1068093B00680E368
:104A200091E00E94FB1A9093C1068093C00684E334
:104A300091E00E94FB1A90936F0680936E0688E3C4
:104A400091E00E94FB1A9093C5068093C4068CE304
:104A500091E00E94FB1A9093C7068093C60680E4FB
:104A600091E00E94FB1A9093C9068093C80684E4E3
:104A700091E00E94FB1A9093DF068093DE0688E4A3
:104A800091E00E94FB1A90936B0680936A0688E57A
:104A900092E00E94FB1A9093CB068093CA068CE5A5
:104AA00092E00E94FB1A9093CD068093CC0680E69C
:104AB00092E00E94FB1A9093CF068093CE0684E684
:104AC00092E00E94FB1A9093D1068093D00688E66C
:104AD00092E00E94FB1A9093D3068093D2068CEB4F
:104AE00092E00E94FB1A9093D5068093D40680EC46
:104AF00092E00E94FB1A9093D7068093D60684EC2E
:104B000092E00E94FB1A9093D9068093D80688EC15
:104B100092E00E94FB1A9093DB068093DA068CECFD
:104B200092E00E94FB1A9093DD068093DC0688EEEB
:104B300093E00E94FB1A90939106809390060E9446
:104B40000F1B8EE30E94E404019709F001C18AE182
:104B500095E00E94320F0E94340F61E088E00E94CD
:104B60003B0561E089E00E943B0561E08AE00E942C
:104B70003B0561E08BE00E943B0561E08CE00E9418
:104B80003B0561E08DE00E943B0560E08AE30E9406
:104B90003B0561E08CE10E943B0561E08CE10E94F5
:104BA0000D0561E082E00E943B0588E893E1909367
:104BB0002E0B80932D0B0E94AA0F10926706109265
:104BC000660684EF91E090936D0680936C0688EC06
:104BD00090E090938F0680938E068AEA95E09093FA
:104BE000BB068093BA068091630690916406909309
:104BF000B9068093B8061092690610926806812C57
:104C0000912C58ECA52E54E4B52E8092B20A9092C5
:104C1000B30AA092B40AB092B50AC12CD12C68ECA8
:104C2000E62E62E4F62EC092B60AD092B70AE0925F
:104C3000B80AF092B90A84EA9AE00E94C807809202
:104C40008C0A90928D0AA0928E0AB0928F0AC0921E
:104C5000900AD092910AE092920AF092930A8EE71B
:104C60009AE00E94C8078091700A811104C086E30F
:104C70009AE00E94D80B81E08093700A40E050E0F7
:104C80006FE773E486E39AE00E94B40165E070E0A8
:104C900086E39AE00E941F0C80911C0A811104C0D7
:104CA00082EE99E00E94D80B81E080931C0A40E0DC
:104CB00050E06FE773E482EE99E00E94B40165E092
:104CC00070E082EE99E00E941F0C0E9438130E944F
:104CD00026190E94B31761E082E00E940D0586E06C
:104CE000E82EF12C93E0692E712C24E0C22ED12CF9
:104CF000AA24A394B12C42E0842E912C0E94381354
:104D000080916606909167068130910521F5909318
:104D100069068093680661E089E00E940D05609154
:104D2000BC067091BD068DE00E946C058091660600
:104D3000909167060E94FA1D0E945804DFCF83EF0E
:104D400097E0B1CD86E597E0AECD8DE299E0ABCDB1
:104D500087E395E0FECE8230910549F49093690691
:104D60008093680661E088E00E940D05DFCF833004
:104D7000910509F0CBC061E08AE00E940D056091C9
:104D8000BE067091BF068DE00E946C056091C00662
:104D90007091C10690E080E00E941D1380916A0628
:104DA00090916B06019721F461E08BE00E940D0564
:104DB00070926906609268068091900690919106C3
:104DC000892B09F490C085E995E00E94320F0E947A
:104DD000340F90929906809298060AEC16E0D0E083
:104DE000C0E0D093B706C093B6068BEA95E00E9468
:104DF000320FCE010E94010F8FE293E00E94320F2A
:104E000081EB95E00E94320F82E390E00E94010F57
:104E10008FE293E00E94320F8CEB95E00E94320FFC
:104E200087E390E00E94010F8FE293E00E94320F2F
:104E30000E94340F87EC95E00E94320FF8016081E8
:104E4000718190E080E00E945F2920E030E048EC32
:104E500052E40E94B72842E00E947A1381ED95E067
:104E60000E94320FD8011A966D917C9190E080E0FB
:104E70004AE00E94BD0E0E94340FF80161917191C9
:104E80008F01709371066093700690E080E00E943D
:104E90005F2920E030E048EC52E40E94B72860939C
:104EA0002A0A70932B0A80932C0A90932D0AD8011A
:104EB00018966D917C9190E080E00E94BD1B8091DE
:104EC0006506811105C02196C530D10509F089CF4D
:104ED0001092B7061092B6060E94810ED092690613
:104EE000C092680623CF88ED95E00E94320F0E94A1
:104EF000340FB0929906A09298066091B006709116
:104F0000B10690E080E00E94BD1BE6CF84309105A1
:104F100029F4F0926706E09266060ECF853091057F
:104F200031F5F0926906E09268066091BC067091D6
:104F3000BD068DE00E946C0560E08AE00E940D05D0
:104F40006091DE067091DF0690E080E00E941D1304
:104F500060E088E00E940D056091DE067091DF063A
:104F600090E080E00E941D1360E089E0FDCE009794
:104F700061F46091BC067091BD068DE00E946C05E5
:104F80001092690610926806D1CE069799F460E0F7
:104F900089E00E940D0560E088E00E940D0560E058
:104FA0008AE00E940D0510926706109266060E9424
:104FB000810EC2CE1092670610926606BDCEF99998
:104FC000FECF92BD81BDF89A992780B50895262F0E
:104FD000F999FECF1FBA92BD81BD20BD0FB6F894DE
:104FE000FA9AF99A0FBE01960895052E97FB1EF4C2
:104FF00000940E940C2857FD07D00E94142807FC3B
:1050000003D04EF40C940C28509540953095219582
:105010003F4F4F4F5F4F08959095809570956195E4
:105020007F4F8F4F9F4F0895A1E21A2EAA1BBB1BE3
:10503000FD010DC0AA1FBB1FEE1FFF1FA217B30764
:10504000E407F50720F0A21BB30BE40BF50B661F7A
:10505000771F881F991F1A9469F76095709580953E
:1050600090959B01AC01BD01CF010895A29FB001B5
:10507000B39FC001A39F700D811D1124911DB29F8C
:10508000700D811D1124911D08955058BB27AA272A
:105090000E945D280C94D7290E94C92938F00E94EB
:1050A000D02920F039F49F3F19F426F40C94C62936
:1050B0000EF4E095E7FB0C94C029E92F0E94E82943
:1050C00058F3BA17620773078407950720F079F43D
:1050D000A6F50C940A2A0EF4E0950B2EBA2FA02DFB
:1050E0000B01B90190010C01CA01A0011124FF2795
:1050F000591B99F0593F50F4503E68F11A16F04090
:10510000A22F232F342F4427585FF3CF469537958E
:105110002795A795F0405395C9F77EF41F16BA0B53
:10512000620B730B840BBAF09150A1F0FF0FBB1F01
:10513000661F771F881FC2F70EC0BA0F621F731F4A
:10514000841F48F4879577956795B795F7959E3FA7
:1051500008F0B0CF9395880F08F09927EE0F979538
:10516000879508950E949C2908F481E008950E9483
:10517000CB280C94D7290E94D02958F00E94C92925
:1051800040F029F45F3F29F00C94C02951110C9490
:105190000B2A0C94C6290E94E82968F39923B1F3DD
:1051A000552391F3951B550BBB27AA27621773074D
:1051B000840738F09F5F5F4F220F331F441FAA1FE1
:1051C000A9F335D00E2E3AF0E0E832D0915050409D
:1051D000E695001CCAF72BD0FE2F29D0660F771F4B
:1051E000881FBB1F261737074807AB07B0E809F031
:1051F000BB0B802DBF01FF2793585F4F3AF09E3FB6
:10520000510578F00C94C0290C940B2A5F3FE4F30D
:10521000983ED4F3869577956795B795F7959F5FF8
:10522000C9F7880F911D9695879597F90895E1E044
:10523000660F771F881FBB1F621773078407BA07A3
:1052400020F0621B730B840BBA0BEE1F88F7E095FE
:1052500008950E9430296894B1110C940B2A089586
:105260000E94F02988F09F5798F0B92F9927B751DD
:10527000B0F0E1F0660F771F881F991F1AF0BA95FA
:10528000C9F714C0B13091F00E940A2AB1E0089524
:105290000C940A2A672F782F8827B85F39F0B93F16
:1052A000CCF3869577956795B395D9F73EF49095AD
:1052B0008095709561957F4F8F4F9F4F0895E8942B
:1052C00009C097FB3EF490958095709561957F4F4E
:1052D0008F4F9F4F9923A9F0F92F96E9BB279395FC
:1052E000F695879577956795B795F111F8CFFAF40C
:1052F000BB0F11F460FF1BC06F5F7F4F8F4F9F4F3D
:1053000016C0882311F096E911C0772321F09EE89A
:10531000872F762F05C0662371F096E8862F70E000
:1053200060E02AF09A95660F771F881FDAF7880FDA
:105330009695879597F90895990F0008550FAA0B30
:10534000E0E8FEEF16161706E807F907C0F0121698
:105350001306E407F50798F0621B730B840B950B9B
:1053600039F40A2661F0232B242B252B21F40895F0
:105370000A2609F4A140A6958FEF811D811D08958D
:1053800097F99F6780E870E060E008959FEF80ECF8
:10539000089500240A94161617061806090608959B
:1053A00000240A9412161306140605060895092E01
:1053B0000394000C11F4882352F0BB0F40F4BF2B70
:1053C00011F460FF04C06F5F7F4F8F4F9F4F0895B0
:1053D00057FD9058440F551F59F05F3F71F04795A6
:1053E000880F97FB991F61F09F3F79F0879508958B
:1053F000121613061406551FF2CF4695F1DF08C0AA
:10540000161617061806991FF1CF869571056105C6
:1054100008940895E894BB2766277727CB0197F96E
:1054200008950E949C2908F48FEF08950E94292A6C
:105430000C94D7290E94C92938F00E94D02920F065
:10544000952311F00C94C0290C94C62911240C94B6
:105450000B2A0E94E82970F3959FC1F3950F50E045
:10546000551F629FF001729FBB27F00DB11D639F16
:10547000AA27F00DB11DAA1F649F6627B00DA11DBC
:10548000661F829F2227B00DA11D621F739FB00D62
:10549000A11D621F839FA00D611D221F749F3327D2
:1054A000A00D611D231F849F600D211D822F762F6B
:1054B0006A2F11249F5750409AF0F1F088234AF048
:1054C000EE0FFF1FBB1F661F771F881F91505040B4
:1054D000A9F79E3F510580F00C94C0290C940B2A2B
:1054E0005F3FE4F3983ED4F3869577956795B7953B
:1054F000F795E7959F5FC1F7FE2B880F911D969555
:10550000879597F908950E949C29880B990B089517
:10551000EE0FFF1F881F8BBF0790F691E02D1994A7
:105520000E943628B7FF0895821B930B0895F894C4
:02553000FFCFAB
:10553200010AD7233C0102030405060F10000000F4
:1055420000EB031E0364033804950373038703000F
:105552000000004E0921099D09F7081A090709F8F8
:10556200080D0A0043616C63756C6174696E672093
:1055720050494427733A20006D7320656C61707343
:105582006564004D6F646275733A2055706461748E
:10559200696E67205265676973746572733A200099
:1055A2004D6F646275733A20436F6D6D756E6963FA
:1055B2006174696F6E204572726F7220002E200036
:1055C2004D6F646275733A204E6F20517565727922
:1055D20020003D3D3D3D3D3D3D3D3D3D3D3D3D3D53
:1055E2003D3D3D3D3D3D3D3D3D3D3D3D3D3D3D3DE9
:1055F2003D3D3D3D3D3D3D3D3D3D3D3D3D3D3D0016
:10560200323456206E6F7420636F6E6E65637465FC
:10561200642E20436F6E6E65637420706F776572BF
:1056220020746F20636F6E74696E75650032345634
:1056320020636F6E6E65637465642C20676F696E9C
:105642006720746F2069646C652073746174652EC1
:105652002E2E006E616E00696E66006F7666002CFB
:10566200004552524F5220434F44453A2000637541
:105672007272656E74436865636B436F756E7465B1
:1056820072203E206E756D43757272656E7445723E
:10569200726F72730054656D7065726174757265B4
:1056A200203120746F6F20686967680054656D70DF
:1056B20065726174757265203220746F6F2068693B
:1056C20067680043757272656E74203120746F6F63
:1056D20020686967680043757272656E74203220B3
:1056E200746F6F20686967680054656D70657261D8
:1056F200747572652031206F722032206973206CBC
:10570200657373207468616E203000323456206EE7
:105712006F7420636F6E6E656374656400457374A5
:105722006F7020507265737365640052657365749F
:1057320020746F20636F6E74696E756500436865CF
:10574200636B696E6720666F72204572726F727347
:105752003A20004D6561737572696E672052544438
:1057620027733A200057726974696E67204D6F641F
:105772006275732056616C75657320746F204545A0
:1057820050524F4D20286966206368616E676564D8
:10579200290052656164696E6720476C6F62616CB3
:1057A200205661726961626C65732066726F6D204A
:1057B200454550524F4D00436F6D706C6574696E74
:1057C2006720537461746520007C2D2D2D2D2D2DA5
:1057D2002D2D2D2D2D2D2D2D2D2D2D2D2D2D2D2DF7
:1057E2002D2D2D2D2D2D2D2D2D2D2D2D2D2D2D2DE7
:1057F2002D2D2D2D2D2D2D2D2D2D2D2D2D2D2D2DD7
:105802002D2D2D2D2D2D7C007C203D203D203D2059
:105812003D203D2042204F204F2054203D203D205E
:105822003D203D203D207C0052656164696E672009
:105832004D6F646275732056616C75657320667274
:105842006F6D20454550524F4D00536872696E6B23
:105852002077617320706F776572656420636F7261
:10586200726563746C7900506F737369626C652042
:10587200696E636F727265637420626F6F742073F6
:10588200657175656E63652C206D616B652073753E
:10589200726520746F20706F77657220636F6E740B
:1058A200726F6C6C6572206265666F726520484D1E
:1058B20049206973206576656E20706C756767652F
:1058C2006420696E0070726F66696C65206D6F642A
:1058D200652073656C656374656400737465703A02
:1058E200005430206F66667365743A007430206F1E
:1058F20066667365743A00536574706F696E743AC4
:10590200002054696D653A0073696E676C65207397
:1059120070206D6F64652064656661756C7400004B
:00000001FF
