:100000000C9463000C948B000C948B000C942809C6
:100010000C9428090C9428090C948B000C948B00E8
:100020000C948B000C948B000C948B000C948B0024
:100030000C948B000C948B000C948B000C948B0014
:100040000C94DE080C948B000C94AC080C9486087D
:100050000C948B000C948B000C948B000C948B00F4
:100060000C948B000C948B000000000024002700EF
:100070002A0000000008000201000003040700003D
:1000800000000000000000000000230026002900FE
:1000900000000000250028002B00040404040404D0
:1000A0000404020202020202030303030303010227
:1000B00004081020408001020408102001020408F6
:1000C0001020A009EC0C11241FBECFEFD8E0DEBF3A
:1000D000CDBF11E0A0E0B1E0EEE6FFE102C0059087
:1000E0000D92A835B107D9F722E0A8E5B1E001C02B
:1000F0001D92AF3CB207E1F710E0C2E6D0E004C0C9
:100100002197FE010E94A40FC136D107C9F70E94B2
:100110009F0A0C94AA0F0C940000E5E8F2E090E02E
:100120002FEF3FEF981791F04191242748E0B90154
:100130006170772736952795672B21F051E02527A9
:1001400050EA3527415099F79F5FECCF922F832FCC
:100150000895AF92BF92CF92DF92EF92FF920F93EA
:100160001F93CF93DF936C017B018B01040F151F4D
:10017000EB015E01AE18BF08C017D10759F06991B5
:10018000D601ED91FC910190F081E02DC601099519
:10019000892B79F7C501DF91CF911F910F91FF90C6
:1001A000EF90DF90CF90BF90AF900895FC01538DFA
:1001B000448D252F30E0842F90E0821B930B541741
:1001C00010F0CF96089501970895FC01918D828DCE
:1001D000981761F0A28DAE0FBF2FB11D5D968C9167
:1001E000928D9F5F9F73928F90E008958FEF9FEFA6
:1001F0000895FC01918D828D981731F0828DE80F62
:10020000F11D858D90E008958FEF9FEF0895FC011B
:10021000918D228D892F90E0805C9F4F821B9109E8
:100220008F739927089583EE91E00E94070121E0E2
:10023000892B09F420E0822F089580E090E0892B3B
:1002400029F00E94130181110C9400000895FC0113
:10025000A48DA80FB92FB11DA35ABF4F2C91848D27
:1002600090E001968F739927848FA689B7892C9384
:10027000A089B1898C91837080648C93938D848DD7
:10028000981306C00288F389E02D80818F7D8083DA
:100290000895EF92FF920F931F93CF93DF93EC019A
:1002A00081E0888F9B8D8C8D98131AC0E889F9891D
:1002B000808185FF15C09FB7F894EE89FF89608320
:1002C000E889F98980818370806480839FBF81E0A1
:1002D00090E0DF91CF911F910F91FF90EF900895E3
:1002E000F62E0B8D10E00F5F1F4F0F731127E02EBE
:1002F0008C8D8E110CC00FB607FCFACFE889F989F6
:10030000808185FFF5CFCE010E942701F1CFEB8DD3
:10031000EC0FFD2FF11DE35AFF4FF0829FB7F894C9
:100320000B8FEA89FB8980818062CFCFCF93DF93E7
:10033000EC01888D8823B9F0AA89BB89E889F989FD
:100340008C9185FD03C0808186FD0DC00FB607FC32
:10035000F7CF8C9185FFF2CF808185FFEDCFCE0165
:100360000E942701E9CFDF91CF91089590E0FC0131
:10037000EE58FF4F2491FC01E255FF4F3491FC01F0
:10038000E656FF4FE491EE23C9F0222339F02330E3
:1003900001F1A8F4213019F1223029F1F0E0EE0F3B
:1003A000FF1FE057FF4FA591B4918FB7F894EC91E0
:1003B000611126C030953E233C938FBF08952730AE
:1003C000A9F02830C9F0243049F7809180008F7D52
:1003D00003C0809180008F7780938000DFCF84B549
:1003E0008F7784BDDBCF84B58F7DFBCF8091B0004C
:1003F0008F778093B000D2CF8091B0008F7DF9CFFE
:100400003E2BDACF0F931F93CF93DF93D82F80919A
:10041000A902823018F061E00E94B60105E812E0FE
:10042000C0E0CD1749F0F80161918F0183EE91E0B2
:100430000E944901CF5FF5CF83EE91E00E949601C3
:100440008091AE029091AF028230910538F0880F12
:10045000991F880F991F05970197F1F78091A902BD
:10046000823038F060E0DF91CF911F910F910C94B2
:10047000B601DF91CF911F910F9108952091AA02AB
:100480003091AB022F5F3F4F3093AB022093AA0213
:100490009091A702911115C09091840290938502CA
:1004A0009091A8029068909386028093870283E0DF
:1004B0000E948D00909388028093890285E00C94BD
:1004C000020208950F931F93CF93DF9310E0C0E0D3
:1004D00083EE91E00E940701892B21F1112399F00D
:1004E00083EE91E00E94E5008091AC029091AD0214
:1004F0008230910568F3880F991F880F991F05971F
:100500000197F1F7E5CF11E0C03209F010E083EE7A
:1005100091E00E94E500EC2FF0E0EC57FD4F818365
:10052000CF5FE2CF112381F08091AA029091AB02BC
:100530009C012F5F3F4F3093AB022093AA02DF91C3
:10054000CF911F910F910895C73008F4CFC08091CB
:100550008502882309F461C01092A702D091840219
:100560008D1729F08091A702882309F46CC00C2F05
:1005700010E08EEF8C0F0E948D00F801EC57FD4FBC
:10058000DF0111972C913081232732272327281749
:10059000390709F0AFC0409186024093A80220912C
:1005A00087023091880232272327322780918902DF
:1005B00090918A02982789279827BC01620F731FA0
:1005C000C091A702C11146C0433009F043C02B308F
:1005D0003105F0F56C30710598F5880FC5E0C80F4E
:1005E000D093850280938702E22FF0E0E617F707A9
:1005F000C0F4EE0FFF1FE353FE4F90813181E42FD3
:10060000F0E0EC57FD4F3183E1E0E40FF0E0EC5710
:10061000FD4F91834E5F2F5FE7CF91E09093A7024C
:100620009DCF8D5F0E948D00EC2FF0E0EC57FD4FC9
:10063000DF0111979C9380838C2F0E94020203C0DC
:1006400083E00E943E028091AA029091AB0277CF94
:1006500082E0F7CF463099F42B303105C8F7220FEE
:10066000331FF901E353FE4F9183808386E00E949C
:100670008D0090938B0280938C0288E0DECF403116
:1006800099F580918B02095011098017110691F597
:100690002B303105E8F66C30710590F637E0822F8B
:1006A00090E086179707B0F4A32FB0E0880F991F4A
:1006B000FC01E353FE4FAC57BD4F11968C9111973F
:1006C00012969C91892798278927918380833E5F82
:1006D0002F5FE5CF86E00E948D0090938B02809380
:1006E0008C02C111B0CFC9CF81E0ABCFC150C730B0
:1006F00008F0A9CF8091AA029091AB020196909345
:10070000AB028093AA029FCFCF93DF9390E0FC01CE
:10071000E255FF4F249186569F4FFC018491882318
:10072000D1F090E0880F991FFC01E859FF4FA59187
:10073000B491FC01E057FF4FC591D49161110EC0F7
:100740009FB7F8948C91E22FE0958E238C932881AB
:10075000E223E8839FBFDF91CF9108958FB7F8948C
:10076000EC91E22BEC938FBFF6CF20918202309177
:1007700083022817390771F49091800280918102D9
:10078000981741F0E0918002F0E0E85AFE4F808136
:1007900090E008958FEF9FEF08950895EF92FF92F4
:1007A0000F931F93CF93DF93DC015C96ED90FC9049
:1007B0005D97E114F10479F481E090E013969C9345
:1007C0008E93129790E080E0DF91CF911F910F916F
:1007D000FF90EF9008955196ED91FC9152975096AD
:1007E0008C915097982F90950FB75E962C915E97AD
:1007F000122F127021FD6095F8942081112319F1B8
:10080000282B2083E7012197F1F728E0462F50E0BD
:10081000308160FF1AC0382B3083E7012197F1F750
:10082000BA0175956795215089F7112381F0808170
:10083000892380830FBF5C968D919C910197F1F77E
:1008400081E090E0C1CF2923DCCF3923E5CF90812F
:10085000892BEFCF2091820230918302281739072C
:1008600071F4809181022091800290E0805C9F4F22
:10087000821B910960E470E00E945A0F089590E095
:1008800080E0089520918202309183022817390771
:10089000B9F49091800280918102981789F0E091DB
:1008A0008002F0E0E85AFE4F80812091800230E023
:1008B0002F5F3F4F2F7333272093800290E00895DE
:1008C0008FEF9FEF089590E080E008954F925F9240
:1008D0006F927F928F929F92AF92BF92CF92DF9250
:1008E000EF92FF924B015C012FB7F89460919D014C
:1008F00070919E0180919F019091A0012FBF0E9455
:10090000310E6B017C012FB7F89460919D017091BD
:100910009E0180919F019091A0012FBF0E94310EF6
:100920002B013C01A5019401C701B6010E941F0DD6
:100930009B01AC01C301B2010E948B0D87FF03C074
:100940000E946202E0CFFF90EF90DF90CF90BF90C7
:10095000AF909F908F907F906F905F904F90089591
:10096000FC0101900020E9F73197AF01481B590BBA
:10097000BC0180EB92E00C94A90084E291E00C941D
:10098000B0048F929F92AF92BF920F931F93CF9319
:10099000DF93CDB7DEB7A1970FB6F894DEBF0FBED9
:1009A000CDBF19A2423008F44AE08E010F5D1F4FFF
:1009B000842E912CB12CA12CA50194010E946E0FC4
:1009C000E62FB901CA01EA30F4F4E05DD801EE93F4
:1009D0008D01232B242B252B79F790E080E01097B5
:1009E00019F0CD010E94B004A1960FB6F894DEBFB5
:1009F0000FBECDBFDF91CF911F910F91BF90AF90F0
:100A00009F908F900895E95CE1CF4F925F926F9233
:100A10007F928F929F92AF92BF92CF92DF92EF928E
:100A2000FF920F931F93CF936B017C01742EAC0147
:100A30009B010E94550F882399F087E291E0CF91A6
:100A40001F910F91FF90EF90DF90CF90BF90AF90EC
:100A50009F908F907F906F905F904F900C94B00418
:100A600046015701E894B7F82FEF3FEF4FE75FE7F4
:100A7000C501B4010E94550F81110DC02FEF3FEF4A
:100A80004FE75FE7C501B4010E948B0D18161CF4F7
:100A90008BE291E0D4CF2FEF3FEF4FE75FE4C70148
:100AA000B6010E94E30E18161CF48FE291E0C7CF46
:100AB0002FEF3FEF4FE75FECC701B6010E948B0DB0
:100AC00087FDF3CF20E030E0A901C701B6010E9405
:100AD0008B0D10E000E087FF0AC06DE280EB92E032
:100AE0000E94CE038C01F7FAF094F7F8F094C0E07E
:100AF00060E070E080E09FE37C1641F020E030E0B1
:100B000040E251E40E94900DCF5FF6CFA70196011D
:100B10000E941F0D2B013C010E94020E4B015C0143
:100B20004AE00E94C1047C01E00EF11ECC23C1F119
:100B3000C501B4010E94310E9B01AC01C301B20199
:100B40000E941E0D4B015C016EE280EB92E00E9460
:100B5000CE03E80EF91EC15018F120E030E040E26B
:100B600051E4C501B4010E94E80E2B013C010E9432
:100B7000020E4B01B12CA12C4AE0C501B4010E9428
:100B8000C104E80EF91EC501B4010E94310E9B019B
:100B9000AC01C301B2010E941E0D4B015C01DBCF11
:100BA000C701CF911F910F91FF90EF90DF90CF90F1
:100BB000BF90AF909F908F907F906F905F904F907D
:100BC00008950C94B0044F925F926F927F928F922F
:100BD0009F92AF92BF92CF92DF92EF92FF920F93CC
:100BE0001F932B013C0149015A01670183E391E006
:100BF0000E94E1050E94BD0487E391E00E94E105A7
:100C000042E0C301B2010E94050585E491E00E9423
:100C1000E10542E0C501B4010E9405058CE391E0C5
:100C20000E94E10542E0C801B6010E9405051F913E
:100C30000F91FF90EF90DF90CF90BF90AF909F907B
:100C40008F907F906F905F904F900C94BD048F9227
:100C50009F92AF92BF92CF92DF92EF92FF924B01A1
:100C60005C0169017A018FE391E00E94E1050E9435
:100C7000BD0487E391E00E94E10542E0C501B401B3
:100C80000E9405058CE391E00E94E10542E0C70166
:100C9000B6010E940505FF90EF90DF90CF90BF90C6
:100CA000AF909F908F900C94BD048F929F92AF92C3
:100CB000BF92CF92DF92EF92FF924B015C016901EC
:100CC0007A018FE391E00E94E1050E94BD0483E474
:100CD00091E00E94E10542E0C501B4010E940505D2
:100CE0008CE391E00E94E10542E0C701B6010E9459
:100CF0000505FF90EF90DF90CF90BF90AF909F9051
:100D00008F900C94BD04FF920F931F93CF93DF93AA
:100D1000EC018B01FB01F0800E94080DF81621F018
:100D20006F2DCE010E94100DF801F1802196CE01A9
:100D30000E94080DF81621F06F2DCE010E94100DB3
:100D4000C801DF91CF911F910F91FF9008950F93EC
:100D50001F93CF938C010E94080DC82FC8010196E4
:100D60000E94080D682F70E0762F66276C0F711DAA
:100D700090E080E00E94310ECF911F910F91089575
:100D80004F925F926F927F928F929F92AF92BF929B
:100D9000CF92DF92EF92FF92CF93DF9385E090E0C6
:100DA0000E94A70620E030E048EC52E40E94900D3B
:100DB0004B015C01C1EAD1E088829982AA82BB82A0
:100DC00087E090E00E94A70620E030E048EC52E483
:100DD0000E94900D6B017C01CC82DD82EE82FF824D
:100DE00089E090E00E94A70620E030E048EC52E461
:100DF0000E94900DA50194010E941F0D2B013C0142
:100E0000488659866A867B86CC86DD86EE86FF8696
:100E10008BE090E00E94A70620E030E048EC52E42E
:100E20000E94900D9B01AC01C501B4010E941E0DF2
:100E3000688B798B8A8B9B8B8BE090E00E94A70656
:100E400020E030E048EC52E40E94900DA7019601AA
:100E50000E941F0D6C8B7D8B8E8B9F8B8BE090E0A7
:100E60000E94A70620E030E048EC52E40E94900D7A
:100E70009B01AC01C301B2010E941E0D688F798FE6
:100E80008A8F9B8F8BE090E00E94A70620E030E0E5
:100E900048EC52E40E94900DA70196010E941F0D9C
:100EA0006C8F7D8F8E8F9F8FDF91CF91FF90EF9012
:100EB000DF90CF90BF90AF909F908F907F906F907A
:100EC0005F904F900895CF92DF92EF92FF920F9331
:100ED0001F93CF93DF93EC0161E08DE00E94B60198
:100EE0008091CD019091CE018330910509F090C0A1
:100EF00081E090E09093D0018093CF0105E010E075
:100F000083E0E82EF12CCC24C394D12C8091CD0128
:100F10009091CE018C179D0739F08091CF0190916F
:100F2000D001059709F0E6C08091D3019091D401DA
:100F3000019791F488E491E00E94E1050E94BD04CC
:100F40001092CE011092CD011093D0010093CF01E9
:100F50001092D4011092D3010E9462028091D101BB
:100F60009091D2018130910509F06EC02091C901A4
:100F70003091CA014091CB015091CC016091C101E7
:100F80007091C2018091C3019091C4010E94270613
:100F90008091D1019091D2019C01215031092330DF
:100FA000310508F09BC01092CE011092CD01109235
:100FB000D2011092D10167ED71E085E090E00E94CE
:100FC000830669ED71E087E090E00E9483066BED97
:100FD00071E089E090E00E9483066DED71E08BE0A6
:100FE00090E00E9483066FED71E08DE090E00E943A
:100FF000830661EE71E08FE090E00E94830660E07E
:1010000070E080EA91E40E9466040E94C0067ECFF0
:101010008430910519F482E090E06CCF8230910524
:1010200019F483E090E066CF8130910519F484E0F3
:1010300090E060CF892B19F485E090E05BCF1092AF
:10104000D0011092CF015ACF8230910591F42091B6
:10105000C9013091CA014091CB015091CC016091FE
:10106000C1017091C2018091C3019091C401905857
:101070008DCF8330910599F42091C9013091CA0137
:101080004091CB015091CC016091C1017091C2019E
:101090008091C3019091C4010E94550679CF84309C
:1010A000910591F42091C9013091CA014091CB0181
:1010B0005091CC016091C1017091C2018091C30136
:1010C0009091C4019058E8CF059709F061CF8DE465
:1010D00091E00E94E1050E94BD045ACF059709F0F6
:1010E00066CFF092CE01E092CD01D092D001C092B5
:1010F000CF015DCF60E08DE0DF91CF911F910F9127
:10110000FF90EF90DF90CF900C94B6011F920F925A
:101110000FB60F9211242F933F934F935F936F93CA
:101120007F938F939F93AF93BF93EF93FF9383EE40
:1011300091E00E942701FF91EF91BF91AF919F91A4
:101140008F917F916F915F914F913F912F910F9070
:101150000FBE0F901F9018951F920F920FB60F920F
:1011600011242F938F939F93EF93FF93E091F301BB
:10117000F091F4018081E091F901F091FA0182FD92
:101180001BC090818091FC018F5F8F732091FD01C6
:10119000821741F0E091FC01F0E0ED51FE4F958F98
:1011A0008093FC01FF91EF919F918F912F910F9070
:1011B0000FBE0F901F9018958081F4CF1F920F9251
:1011C0000FB60F9211242F933F938F939F93AF935A
:1011D000BF9380919D0190919E01A0919F01B0913C
:1011E000A00130919C0123E0230F2D3758F5019683
:1011F000A11DB11D20939C0180939D0190939E01A0
:10120000A0939F01B093A0018091980190919901C2
:10121000A0919A01B0919B010196A11DB11D8093EF
:10122000980190939901A0939A01B0939B01BF916B
:10123000AF919F918F913F912F910F900FBE0F9083
:101240001F90189526E8230F0296A11DB11DD2CF3D
:101250001F920F920FB60F9211242F933F934F932B
:101260005F936F937F938F939F93AF93BF93EF930E
:10127000FF93E0918202F0918302309749F0A685B6
:10128000B7858585968D91FF14C09C918923A1F423
:10129000FF91EF91BF91AF919F918F917F916F914E
:1012A0005F914F913F912F910F900FBE0F901F9024
:1012B00018959C91892361F7A389B4899C918589AC
:1012C000809589238C93868997890197F1F7608DA2
:1012D000718DA685B785558538E020E0CB01019753
:1012E000F1F7822F90E095958795282F4C91452313
:1012F00009F02068315091F7868D81FD209580910D
:10130000810290E001968F739927309180023817FF
:1013100099F0A0918102B0E0A85ABE4F2C9380931F
:101320008102828D938D0197F1F7A389B4898C9105
:101330009589892B8C93ACCF868D8160868FF1CF78
:101340001092E6011092E50188EE93E0A0E0B0E093
:101350008093E7019093E801A093E901B093EA013B
:1013600024E031E03093E4012093E30125EC30E008
:101370003093F0012093EF0124EC30E03093F20140
:101380002093F10120EC30E03093F4012093F3013D
:1013900021EC30E03093F6012093F50122EC30E0AF
:1013A0003093F8012093F70126EC30E03093FA01F6
:1013B0002093F9011092FC011092FD011092FE01A0
:1013C0001092FF011092B3021092B2028093B40205
:1013D0009093B502A093B602B093B70286E191E074
:1013E0009093B1028093B0021092C7021092C6028D
:1013F0001092C9021092C8021092CB021092CA0237
:101400001092CD021092CC026091CE026E7F6D7F61
:101410006093CE026695617081E0682789E00E9442
:10142000B60161E089E00E948403E7EBF0E0E4911B
:10143000E093C002E3EAF0E0E491F0E0EE0FFF1F7A
:10144000E057FF4F859194919093C2028093C1021F
:1014500060E088E00E9484038091CE0281FD04C098
:1014600061E088E00E94B60188E08093BC02E6EB70
:10147000F0E0E491E093BD02E2EAF0E0E491F0E014
:10148000EE0FFF1FEA57FF4F859194919093BF0293
:101490008093BE028FE190E09093CD028093CC02C6
:1014A00021E030E03093C7022093C6022DE130E006
:1014B0003093C9022093C8022DE030E03093CB0274
:1014C0002093CA02209168002160209368002BE6D7
:1014D00030E03093C4022093C30221E02093C50280
:1014E0000197F1F7E0918202F091830282E0E03B04
:1014F000F80709F1309739F0A389B4899C9185895F
:10150000809589238C938091CE028E7F8093CE022A
:10151000109281021092800280EB92E090938302FD
:1015200080938202E091C302F091C4028081909185
:10153000C502892B808381E080938402089578948A
:1015400084B5826084BD84B5816084BD85B58260C8
:1015500085BD85B5816085BD80916E008160809379
:101560006E001092810080918100826080938100E2
:1015700080918100816080938100809180008160F2
:10158000809380008091B10084608093B10080914D
:10159000B00081608093B00080917A008460809375
:1015A0007A0080917A00826080937A0080917A003C
:1015B000816080937A0080917A00806880937A00BD
:1015C0001092C10061E08DE00E948403E091F3017C
:1015D000F091F40182E08083E091F301F091F40155
:1015E0001082E091EF01F091F0011082E091F101A1
:1015F000F091F20180E180831092FB01E091F7010C
:10160000F091F80186E08083E091F501F091F60118
:10161000808180618083E091F501F091F601808105
:1016200088608083E091F501F091F6018081806807
:101630008083E091F501F091F60180818F7D8083B8
:101640008EEE92E09093AD028093AC0286ED96E030
:101650009093AF028093AE021092AB021092AA0256
:1016600085E090E00E94A7060E94020E7093D801C8
:101670006093D70187E090E00E94A7060E94020EC7
:101680007093DA016093D90189E090E00E94A70687
:101690000E94020E7093DC016093DB018BE090E00E
:1016A0000E94A7060E94020E7093DE016093DD0186
:1016B0008DE090E00E94A7060E94020E7093E00168
:1016C0006093DF018FE090E00E94A7060E94020E67
:1016D0007093E2016093E1010E94C0068DE090E00A
:1016E0000E94A7066093C5017093C6018093C7014D
:1016F0009093C80160E070E48CE995E40E94660470
:1017000083E090E09093CE018093CD0181E090E062
:101710009093D0018093CF0181E591E00E94E10593
:1017200042E060E070E080E89FE30E9405050E94CF
:10173000BD048DE491E00E94E1050E94BD0480E0BB
:10174000C82E80E0D82E92E0A92EB12CC3E0D0E0C4
:1017500088248394912C6090CD017090CE01611407
:101760007104C1F490E080E00E9463078091CD0194
:101770009091CE01059720F01092CE011092CD01EC
:10178000C114D10441F30E941301882321F30E9464
:101790000000E1CF81E06816710409F043C0E090D9
:1017A000C501F090C6010091C7011091C8012091B8
:1017B000A5013091A6014091A7015091A801609127
:1017C000A1017091A2018091A3019091A4010E94B6
:1017D000E3058DE090E00E94A7066093C501709339
:1017E000C6018093C7019093C80181E090E00E94F8
:1017F00063078091CD019091CE018530910509F06C
:101800004EC0D093CE01C093CD018FE090E00E94F6
:10181000A7066093C5017093C6018093C70190939A
:10182000C801A4CF82E06816710409F040C0E090BE
:10183000C501F090C6010091C7011091C801209127
:10184000AD013091AE014091AF015091B001609176
:10185000A9017091AA018091AB019091AC010E9405
:10186000E3058DE090E00E94A7066093C5017093A8
:10187000C6018093C7019093C80182E090E00E9466
:1018800063078091CD019091CE018530910539F4A7
:1018900084E090E09093CE018093CD01B6CF06977F
:1018A00009F064CF7092CE016092CD015FCF83E0EA
:1018B0006816710409F049C0E090C501F090C601B6
:1018C0000091C7011091C8012091B5013091B60176
:1018D0004091B7015091B8016091B1017091B2018E
:1018E0008091B3019091B4010E94E3058DE090E0F6
:1018F0000E94A7066093C5017093C6018093C7013B
:101900009093C80183E090E00E9463078091CD012D
:101910009091CE018630910529F49092CE0180926B
:10192000CD0173CF8230910539F484E090E090933B
:10193000CE018093CD011ACF8B7F019709F016CF8E
:10194000D093CE01C093CD0111CF84E0681671040D
:1019500009F00CCFE090C501F090C6010091C701DD
:101960001091C8012091BD013091BE014091BF018D
:101970005091C0016091B9017091BA018091BB0191
:101980009091BC010E94E3058DE090E00E94A706C3
:101990006093C5017093C6018093C7019093C801FD
:1019A00084E090E00E9463078091CD019091CE0188
:1019B0008630910529F4B092CE01A092CD0125CFB9
:1019C0008130910509F4BCCF8530910509F4ADCF84
:1019D000029709F0CBCEA9CF86E191E09093B102B6
:1019E0008093B0028091820290918302805B92404A
:1019F00071F4E091C302F091C40290818091C5021C
:101A00008095892380831092830210928202089528
:101A1000F999FECF92BD81BDF89A992780B50895B6
:101A2000262FF999FECF1FBA92BD81BD20BD0FB6FA
:101A3000F894FA9AF99A0FBE019608955058BB2768
:101A4000AA270E94360D0C94A90E0E949B0E38F016
:101A50000E94A20E20F039F49F3F19F426F40C9452
:101A6000980E0EF4E095E7FB0C94920EE92F0E947D
:101A7000BA0E58F3BA17620773078407950720F068
:101A800079F4A6F50C94DC0E0EF4E0950B2EBA2F2B
:101A9000A02D0B01B90190010C01CA01A001112474
:101AA000FF27591B99F0593F50F4503E68F11A1620
:101AB000F040A22F232F342F4427585FF3CF4695B1
:101AC00037952795A795F0405395C9F77EF41F16D3
:101AD000BA0B620B730B840BBAF09150A1F0FF0F9D
:101AE000BB1F661F771F881FC2F70EC0BA0F621F89
:101AF000731F841F48F4879577956795B795F79579
:101B00009E3F08F0B0CF9395880F08F09927EE0F0D
:101B10009795879508950E946E0E08F481E00895C8
:101B20000E94A40D0C94A90E0E94A20E58F00E94CF
:101B30009B0E40F029F45F3F29F00C94920E511156
:101B40000C94DD0E0C94980E0E94BA0E68F3992343
:101B5000B1F3552391F3951B550BBB27AA276217A9
:101B60007307840738F09F5F5F4F220F331F441FB6
:101B7000AA1FA9F335D00E2E3AF0E0E832D09150EA
:101B80005040E695001CCAF72BD0FE2F29D0660FD7
:101B9000771F881FBB1F261737074807AB07B0E81A
:101BA00009F0BB0B802DBF01FF2793585F4F3AF020
:101BB0009E3F510578F00C94920E0C94DD0E5F3F21
:101BC000E4F3983ED4F3869577956795B795F795A6
:101BD0009F5FC9F7880F911D9695879597F908958E
:101BE000E1E0660F771F881FBB1F6217730784072A
:101BF000BA0720F0621B730B840BBA0BEE1F88F739
:101C0000E09508950E94C20E88F09F5798F0B92F72
:101C10009927B751B0F0E1F0660F771F881F991F21
:101C20001AF0BA95C9F714C0B13091F00E94DC0ED9
:101C3000B1E008950C94DC0E672F782F8827B85FE9
:101C400039F0B93FCCF3869577956795B395D9F779
:101C50003EF490958095709561957F4F8F4F9F4F83
:101C60000895E89409C097FB3EF49095809570958F
:101C700061957F4F8F4F9F4F9923A9F0F92F96E9D8
:101C8000BB279395F695879577956795B795F1114D
:101C9000F8CFFAF4BB0F11F460FF1BC06F5F7F4FEA
:101CA0008F4F9F4F16C0882311F096E911C07723FC
:101CB00021F09EE8872F762F05C0662371F096E805
:101CC000862F70E060E02AF09A95660F771F881FD4
:101CD000DAF7880F9695879597F90895990F000878
:101CE000550FAA0BE0E8FEEF16161706E807F907EE
:101CF000C0F012161306E407F50798F0621B730B89
:101D0000840B950B39F40A2661F0232B242B252B09
:101D100021F408950A2609F4A140A6958FEF811DAC
:101D2000811D089597F99F6780E870E060E008954D
:101D30009FEF80EC089500240A94161617061806E3
:101D40000906089500240A941216130614060506BF
:101D50000895092E0394000C11F4882352F0BB0F50
:101D600040F4BF2B11F460FF04C06F5F7F4F8F4FB3
:101D70009F4F089557FD9058440F551F59F05F3FEE
:101D800071F04795880F97FB991F61F09F3F79F09D
:101D900087950895121613061406551FF2CF46951F
:101DA000F1DF08C0161617061806991FF1CF8695A1
:101DB0007105610508940895E894BB276627772785
:101DC000CB0197F908950E946E0E08F48FEF0895E5
:101DD0000E94FB0E0C94A90E0E949B0E38F00E94EC
:101DE000A20E20F0952311F00C94920E0C94980EF4
:101DF00011240C94DD0E0E94BA0E70F3959FC1F36E
:101E0000950F50E0551F629FF001729FBB27F00DA8
:101E1000B11D639FAA27F00DB11DAA1F649F6627FD
:101E2000B00DA11D661F829F2227B00DA11D621F4C
:101E3000739FB00DA11D621F839FA00D611D221F06
:101E4000749F3327A00D611D231F849F600D211DEA
:101E5000822F762F6A2F11249F5750409AF0F1F06D
:101E600088234AF0EE0FFF1FBB1F661F771F881FD6
:101E700091505040A9F79E3F510580F00C94920E6E
:101E80000C94DD0E5F3FE4F3983ED4F3869577958E
:101E90006795B795F795E7959F5FC1F7FE2B880F7C
:101EA000911D9695879597F908950E946E0E880B5F
:101EB000990B089597FB072E16F4009407D077FD31
:101EC00009D00E94900F07FC05D03EF490958195B3
:101ED0009F4F0895709561957F4F0895A1E21A2E46
:101EE000AA1BBB1BFD010DC0AA1FBB1FEE1FFF1FBE
:101EF000A217B307E407F50720F0A21BB30BE40B0E
:101F0000F50B661F771F881F991F1A9469F7609554
:101F10007095809590959B01AC01BD01CF0108950E
:101F2000AA1BBB1B51E107C0AA1FBB1FA617B707FF
:101F300010F0A61BB70B881F991F5A95A9F780951B
:101F40009095BC01CD010895EE0FFF1F0590F4910F
:101F5000E02D099410E0C2E6D0E004C0FE010E942A
:0E1F6000A40F2196C336D107C9F7F894FFCF1E
:101F6E00000000004901A900D60096010701E50016
:101F7E00F90000000000CE03A9006304CD032A047B
:101F8E004204B5030D0A006E616E00696E66006F45
:101F9E00766600473930004731205800204600470A
:101FAE0039310047312059004D3431300047323835
:081FBE00004D313820530000F2
:00000001FF
